{
  "contractName": "ERC1155Tradable",
  "abi": [
    {
      "inputs": [
        {
          "internalType": "string",
          "name": "_name",
          "type": "string"
        },
        {
          "internalType": "string",
          "name": "_symbol",
          "type": "string"
        },
        {
          "internalType": "string",
          "name": "_uri",
          "type": "string"
        },
        {
          "internalType": "address",
          "name": "_factory",
          "type": "address"
        }
      ],
      "stateMutability": "nonpayable",
      "type": "constructor"
    },
    {
      "anonymous": false,
      "inputs": [
        {
          "indexed": true,
          "internalType": "address",
          "name": "account",
          "type": "address"
        },
        {
          "indexed": true,
          "internalType": "address",
          "name": "operator",
          "type": "address"
        },
        {
          "indexed": false,
          "internalType": "bool",
          "name": "approved",
          "type": "bool"
        }
      ],
      "name": "ApprovalForAll",
      "type": "event"
    },
    {
      "anonymous": false,
      "inputs": [
        {
          "indexed": true,
          "internalType": "address",
          "name": "account",
          "type": "address"
        },
        {
          "indexed": false,
          "internalType": "uint256",
          "name": "tokenId",
          "type": "uint256"
        }
      ],
      "name": "CreatorSet",
      "type": "event"
    },
    {
      "anonymous": false,
      "inputs": [
        {
          "indexed": false,
          "internalType": "address",
          "name": "userAddress",
          "type": "address"
        },
        {
          "indexed": false,
          "internalType": "address payable",
          "name": "relayerAddress",
          "type": "address"
        },
        {
          "indexed": false,
          "internalType": "bytes",
          "name": "functionSignature",
          "type": "bytes"
        }
      ],
      "name": "MetaTransactionExecuted",
      "type": "event"
    },
    {
      "anonymous": false,
      "inputs": [
        {
          "indexed": true,
          "internalType": "address",
          "name": "previousOwner",
          "type": "address"
        },
        {
          "indexed": true,
          "internalType": "address",
          "name": "newOwner",
          "type": "address"
        }
      ],
      "name": "OwnershipTransferred",
      "type": "event"
    },
    {
      "anonymous": false,
      "inputs": [
        {
          "indexed": true,
          "internalType": "address",
          "name": "_factory",
          "type": "address"
        }
      ],
      "name": "SetFactoryContract",
      "type": "event"
    },
    {
      "anonymous": false,
      "inputs": [
        {
          "indexed": true,
          "internalType": "address",
          "name": "operator",
          "type": "address"
        },
        {
          "indexed": true,
          "internalType": "address",
          "name": "from",
          "type": "address"
        },
        {
          "indexed": true,
          "internalType": "address",
          "name": "to",
          "type": "address"
        },
        {
          "indexed": false,
          "internalType": "uint256[]",
          "name": "ids",
          "type": "uint256[]"
        },
        {
          "indexed": false,
          "internalType": "uint256[]",
          "name": "values",
          "type": "uint256[]"
        }
      ],
      "name": "TransferBatch",
      "type": "event"
    },
    {
      "anonymous": false,
      "inputs": [
        {
          "indexed": true,
          "internalType": "address",
          "name": "operator",
          "type": "address"
        },
        {
          "indexed": true,
          "internalType": "address",
          "name": "from",
          "type": "address"
        },
        {
          "indexed": true,
          "internalType": "address",
          "name": "to",
          "type": "address"
        },
        {
          "indexed": false,
          "internalType": "uint256",
          "name": "id",
          "type": "uint256"
        },
        {
          "indexed": false,
          "internalType": "uint256",
          "name": "value",
          "type": "uint256"
        }
      ],
      "name": "TransferSingle",
      "type": "event"
    },
    {
      "anonymous": false,
      "inputs": [
        {
          "indexed": false,
          "internalType": "string",
          "name": "value",
          "type": "string"
        },
        {
          "indexed": true,
          "internalType": "uint256",
          "name": "id",
          "type": "uint256"
        }
      ],
      "name": "URI",
      "type": "event"
    },
    {
      "inputs": [],
      "name": "ERC712_VERSION",
      "outputs": [
        {
          "internalType": "string",
          "name": "",
          "type": "string"
        }
      ],
      "stateMutability": "view",
      "type": "function"
    },
    {
      "inputs": [
        {
          "internalType": "address",
          "name": "account",
          "type": "address"
        },
        {
          "internalType": "uint256",
          "name": "id",
          "type": "uint256"
        }
      ],
      "name": "balanceOf",
      "outputs": [
        {
          "internalType": "uint256",
          "name": "",
          "type": "uint256"
        }
      ],
      "stateMutability": "view",
      "type": "function"
    },
    {
      "inputs": [
        {
          "internalType": "address[]",
          "name": "accounts",
          "type": "address[]"
        },
        {
          "internalType": "uint256[]",
          "name": "ids",
          "type": "uint256[]"
        }
      ],
      "name": "balanceOfBatch",
      "outputs": [
        {
          "internalType": "uint256[]",
          "name": "",
          "type": "uint256[]"
        }
      ],
      "stateMutability": "view",
      "type": "function"
    },
    {
      "inputs": [
        {
          "internalType": "address",
          "name": "userAddress",
          "type": "address"
        },
        {
          "internalType": "bytes",
          "name": "functionSignature",
          "type": "bytes"
        },
        {
          "internalType": "bytes32",
          "name": "sigR",
          "type": "bytes32"
        },
        {
          "internalType": "bytes32",
          "name": "sigS",
          "type": "bytes32"
        },
        {
          "internalType": "uint8",
          "name": "sigV",
          "type": "uint8"
        }
      ],
      "name": "executeMetaTransaction",
      "outputs": [
        {
          "internalType": "bytes",
          "name": "",
          "type": "bytes"
        }
      ],
      "stateMutability": "payable",
      "type": "function"
    },
    {
      "inputs": [],
      "name": "factory",
      "outputs": [
        {
          "internalType": "address",
          "name": "",
          "type": "address"
        }
      ],
      "stateMutability": "view",
      "type": "function"
    },
    {
      "inputs": [],
      "name": "getChainId",
      "outputs": [
        {
          "internalType": "uint256",
          "name": "",
          "type": "uint256"
        }
      ],
      "stateMutability": "view",
      "type": "function"
    },
    {
      "inputs": [],
      "name": "getDomainSeperator",
      "outputs": [
        {
          "internalType": "bytes32",
          "name": "",
          "type": "bytes32"
        }
      ],
      "stateMutability": "view",
      "type": "function"
    },
    {
      "inputs": [
        {
          "internalType": "address",
          "name": "user",
          "type": "address"
        }
      ],
      "name": "getNonce",
      "outputs": [
        {
          "internalType": "uint256",
          "name": "nonce",
          "type": "uint256"
        }
      ],
      "stateMutability": "view",
      "type": "function"
    },
    {
      "inputs": [],
      "name": "name",
      "outputs": [
        {
          "internalType": "string",
          "name": "",
          "type": "string"
        }
      ],
      "stateMutability": "view",
      "type": "function"
    },
    {
      "inputs": [],
      "name": "owner",
      "outputs": [
        {
          "internalType": "address",
          "name": "",
          "type": "address"
        }
      ],
      "stateMutability": "view",
      "type": "function"
    },
    {
      "inputs": [],
      "name": "renounceOwnership",
      "outputs": [],
      "stateMutability": "nonpayable",
      "type": "function"
    },
    {
      "inputs": [
        {
          "internalType": "address",
          "name": "from",
          "type": "address"
        },
        {
          "internalType": "address",
          "name": "to",
          "type": "address"
        },
        {
          "internalType": "uint256[]",
          "name": "ids",
          "type": "uint256[]"
        },
        {
          "internalType": "uint256[]",
          "name": "amounts",
          "type": "uint256[]"
        },
        {
          "internalType": "bytes",
          "name": "data",
          "type": "bytes"
        }
      ],
      "name": "safeBatchTransferFrom",
      "outputs": [],
      "stateMutability": "nonpayable",
      "type": "function"
    },
    {
      "inputs": [
        {
          "internalType": "address",
          "name": "from",
          "type": "address"
        },
        {
          "internalType": "address",
          "name": "to",
          "type": "address"
        },
        {
          "internalType": "uint256",
          "name": "id",
          "type": "uint256"
        },
        {
          "internalType": "uint256",
          "name": "amount",
          "type": "uint256"
        },
        {
          "internalType": "bytes",
          "name": "data",
          "type": "bytes"
        }
      ],
      "name": "safeTransferFrom",
      "outputs": [],
      "stateMutability": "nonpayable",
      "type": "function"
    },
    {
      "inputs": [
        {
          "internalType": "address",
          "name": "operator",
          "type": "address"
        },
        {
          "internalType": "bool",
          "name": "approved",
          "type": "bool"
        }
      ],
      "name": "setApprovalForAll",
      "outputs": [],
      "stateMutability": "nonpayable",
      "type": "function"
    },
    {
      "inputs": [
        {
          "internalType": "bytes4",
          "name": "interfaceId",
          "type": "bytes4"
        }
      ],
      "name": "supportsInterface",
      "outputs": [
        {
          "internalType": "bool",
          "name": "",
          "type": "bool"
        }
      ],
      "stateMutability": "view",
      "type": "function"
    },
    {
      "inputs": [],
      "name": "symbol",
      "outputs": [
        {
          "internalType": "string",
          "name": "",
          "type": "string"
        }
      ],
      "stateMutability": "view",
      "type": "function"
    },
    {
      "inputs": [
        {
          "internalType": "address",
          "name": "newOwner",
          "type": "address"
        }
      ],
      "name": "transferOwnership",
      "outputs": [],
      "stateMutability": "nonpayable",
      "type": "function"
    },
    {
      "inputs": [
        {
          "internalType": "uint256",
          "name": "_id",
          "type": "uint256"
        }
      ],
      "name": "uri",
      "outputs": [
        {
          "internalType": "string",
          "name": "",
          "type": "string"
        }
      ],
      "stateMutability": "view",
      "type": "function"
    },
    {
      "inputs": [
        {
          "internalType": "uint256",
          "name": "_id",
          "type": "uint256"
        }
      ],
      "name": "totalSupply",
      "outputs": [
        {
          "internalType": "uint256",
          "name": "",
          "type": "uint256"
        }
      ],
      "stateMutability": "view",
      "type": "function"
    },
    {
      "inputs": [
        {
          "internalType": "uint256",
          "name": "_id",
          "type": "uint256"
        }
      ],
      "name": "holders",
      "outputs": [
        {
          "internalType": "uint256",
          "name": "",
          "type": "uint256"
        }
      ],
      "stateMutability": "view",
      "type": "function"
    },
    {
      "inputs": [
        {
          "internalType": "string",
          "name": "_newURI",
          "type": "string"
        }
      ],
      "name": "setURI",
      "outputs": [],
      "stateMutability": "nonpayable",
      "type": "function"
    },
    {
      "inputs": [
        {
          "internalType": "address",
          "name": "issuer",
          "type": "address"
        },
        {
          "internalType": "uint256",
          "name": "_tokenId",
          "type": "uint256"
        },
        {
          "internalType": "string",
          "name": "_newURI",
          "type": "string"
        }
      ],
      "name": "setCustomURI",
      "outputs": [],
      "stateMutability": "nonpayable",
      "type": "function"
    },
    {
      "inputs": [],
      "name": "getReservedTokenId",
      "outputs": [
        {
          "internalType": "uint256",
          "name": "",
          "type": "uint256"
        }
      ],
      "stateMutability": "view",
      "type": "function"
    },
    {
      "inputs": [
        {
          "internalType": "address",
          "name": "_initialOwner",
          "type": "address"
        },
        {
          "internalType": "uint256",
          "name": "_initialSupply",
          "type": "uint256"
        },
        {
          "internalType": "string",
          "name": "_uri",
          "type": "string"
        },
        {
          "internalType": "bytes",
          "name": "_data",
          "type": "bytes"
        }
      ],
      "name": "create",
      "outputs": [
        {
          "internalType": "uint256",
          "name": "",
          "type": "uint256"
        }
      ],
      "stateMutability": "nonpayable",
      "type": "function"
    },
    {
      "inputs": [
        {
          "internalType": "address",
          "name": "_to",
          "type": "address"
        },
        {
          "internalType": "uint256",
          "name": "_id",
          "type": "uint256"
        },
        {
          "internalType": "uint256",
          "name": "_quantity",
          "type": "uint256"
        },
        {
          "internalType": "bytes",
          "name": "_data",
          "type": "bytes"
        }
      ],
      "name": "mint",
      "outputs": [],
      "stateMutability": "nonpayable",
      "type": "function"
    },
    {
      "inputs": [
        {
          "internalType": "address",
          "name": "_to",
          "type": "address"
        },
        {
          "internalType": "uint256[]",
          "name": "_ids",
          "type": "uint256[]"
        },
        {
          "internalType": "uint256[]",
          "name": "_quantities",
          "type": "uint256[]"
        },
        {
          "internalType": "bytes",
          "name": "_data",
          "type": "bytes"
        }
      ],
      "name": "batchMint",
      "outputs": [],
      "stateMutability": "nonpayable",
      "type": "function"
    },
    {
      "inputs": [
        {
          "internalType": "address",
          "name": "_to",
          "type": "address"
        },
        {
          "internalType": "uint256[]",
          "name": "_ids",
          "type": "uint256[]"
        }
      ],
      "name": "setCreator",
      "outputs": [],
      "stateMutability": "nonpayable",
      "type": "function"
    },
    {
      "inputs": [
        {
          "internalType": "uint256",
          "name": "_id",
          "type": "uint256"
        }
      ],
      "name": "getCreator",
      "outputs": [
        {
          "internalType": "address",
          "name": "",
          "type": "address"
        }
      ],
      "stateMutability": "view",
      "type": "function"
    },
    {
      "inputs": [
        {
          "internalType": "uint256",
          "name": "_id",
          "type": "uint256"
        }
      ],
      "name": "exists",
      "outputs": [
        {
          "internalType": "bool",
          "name": "",
          "type": "bool"
        }
      ],
      "stateMutability": "view",
      "type": "function"
    },
    {
      "inputs": [
        {
          "internalType": "address",
          "name": "account",
          "type": "address"
        },
        {
          "internalType": "address",
          "name": "operator",
          "type": "address"
        }
      ],
      "name": "isApprovedForAll",
      "outputs": [
        {
          "internalType": "bool",
          "name": "",
          "type": "bool"
        }
      ],
      "stateMutability": "view",
      "type": "function"
    },
    {
      "inputs": [
        {
          "internalType": "address",
          "name": "from",
          "type": "address"
        },
        {
          "internalType": "uint256",
          "name": "id",
          "type": "uint256"
        },
        {
          "internalType": "uint256",
          "name": "amount",
          "type": "uint256"
        }
      ],
      "name": "burn",
      "outputs": [],
      "stateMutability": "nonpayable",
      "type": "function"
    },
    {
      "inputs": [
        {
          "internalType": "address",
          "name": "from",
          "type": "address"
        },
        {
          "internalType": "uint256[]",
          "name": "ids",
          "type": "uint256[]"
        },
        {
          "internalType": "uint256[]",
          "name": "amounts",
          "type": "uint256[]"
        }
      ],
      "name": "batchBurn",
      "outputs": [],
      "stateMutability": "nonpayable",
      "type": "function"
    },
    {
      "inputs": [
        {
          "internalType": "address",
          "name": "_factory",
          "type": "address"
        }
      ],
      "name": "setFactoryContract",
      "outputs": [],
      "stateMutability": "nonpayable",
      "type": "function"
    }
  ],
  "bytecode": "0x60806040526000600360006101000a81548160ff0219169083151502179055503480156200002c57600080fd5b506040516200688638038062006886833981810160405281019062000052919062000773565b816200006481620001bc60201b60201c565b506200008562000079620001d860201b60201c565b620001f460201b60201c565b83600b90805190602001906200009d929190620004c1565b5082600c9080519060200190620000b6929190620004c1565b506200015a600b8054620000ca9062000871565b80601f0160208091040260200160405190810160405280929190818152602001828054620000f89062000871565b8015620001495780601f106200011d5761010080835404028352916020019162000149565b820191906000526020600020905b8154815290600101906020018083116200012b57829003601f168201915b5050505050620002ba60201b60201c565b80600d60006101000a81548173ffffffffffffffffffffffffffffffffffffffff021916908373ffffffffffffffffffffffffffffffffffffffff160217905550620001b2600e6200033c60201b62001e291760201c565b50505050620009b3565b8060029080519060200190620001d4929190620004c1565b5050565b6000620001ef6200035260201b62001e3f1760201c565b905090565b6000600660009054906101000a900473ffffffffffffffffffffffffffffffffffffffff16905081600660006101000a81548173ffffffffffffffffffffffffffffffffffffffff021916908373ffffffffffffffffffffffffffffffffffffffff1602179055508173ffffffffffffffffffffffffffffffffffffffff168173ffffffffffffffffffffffffffffffffffffffff167f8be0079c531659141344cd1fd0a4f28419497f9722a3daafe3b4186f6b6457e060405160405180910390a35050565b600360009054906101000a900460ff16156200030d576040517f08c379a0000000000000000000000000000000000000000000000000000000008152600401620003049062000908565b60405180910390fd5b6200031e816200040560201b60201c565b6001600360006101000a81548160ff02191690831515021790555050565b6001816000016000828254019250508190555050565b60003073ffffffffffffffffffffffffffffffffffffffff163373ffffffffffffffffffffffffffffffffffffffff161415620003fe57600080368080601f016020809104026020016040519081016040528093929190818152602001838380828437600081840152601f19601f820116905080830192505050505050509050600080369050905073ffffffffffffffffffffffffffffffffffffffff81830151169250505062000402565b3390505b90565b6040518060800160405280604f815260200162006837604f91398051906020012081805190602001206040518060400160405280600181526020017f310000000000000000000000000000000000000000000000000000000000000081525080519060200120306200047c620004b460201b60201c565b60001b6040516020016200049595949392919062000956565b6040516020818303038152906040528051906020012060048190555050565b6000804690508091505090565b828054620004cf9062000871565b90600052602060002090601f016020900481019282620004f357600085556200053f565b82601f106200050e57805160ff19168380011785556200053f565b828001600101855582156200053f579182015b828111156200053e57825182559160200191906001019062000521565b5b5090506200054e919062000552565b5090565b5b808211156200056d57600081600090555060010162000553565b5090565b6000604051905090565b600080fd5b600080fd5b600080fd5b600080fd5b6000601f19601f8301169050919050565b7f4e487b7100000000000000000000000000000000000000000000000000000000600052604160045260246000fd5b620005da826200058f565b810181811067ffffffffffffffff82111715620005fc57620005fb620005a0565b5b80604052505050565b60006200061162000571565b90506200061f8282620005cf565b919050565b600067ffffffffffffffff821115620006425762000641620005a0565b5b6200064d826200058f565b9050602081019050919050565b60005b838110156200067a5780820151818401526020810190506200065d565b838111156200068a576000848401525b50505050565b6000620006a7620006a18462000624565b62000605565b905082815260208101848484011115620006c657620006c56200058a565b5b620006d38482856200065a565b509392505050565b600082601f830112620006f357620006f262000585565b5b81516200070584826020860162000690565b91505092915050565b600073ffffffffffffffffffffffffffffffffffffffff82169050919050565b60006200073b826200070e565b9050919050565b6200074d816200072e565b81146200075957600080fd5b50565b6000815190506200076d8162000742565b92915050565b6000806000806080858703121562000790576200078f6200057b565b5b600085015167ffffffffffffffff811115620007b157620007b062000580565b5b620007bf87828801620006db565b945050602085015167ffffffffffffffff811115620007e357620007e262000580565b5b620007f187828801620006db565b935050604085015167ffffffffffffffff81111562000815576200081462000580565b5b6200082387828801620006db565b925050606062000836878288016200075c565b91505092959194509250565b7f4e487b7100000000000000000000000000000000000000000000000000000000600052602260045260246000fd5b600060028204905060018216806200088a57607f821691505b60208210811415620008a157620008a062000842565b5b50919050565b600082825260208201905092915050565b7f616c726561647920696e69746564000000000000000000000000000000000000600082015250565b6000620008f0600e83620008a7565b9150620008fd82620008b8565b602082019050919050565b600060208201905081810360008301526200092381620008e1565b9050919050565b6000819050919050565b6200093f816200092a565b82525050565b62000950816200072e565b82525050565b600060a0820190506200096d600083018862000934565b6200097c602083018762000934565b6200098b604083018662000934565b6200099a606083018562000945565b620009a9608083018462000934565b9695505050505050565b615e7480620009c36000396000f3fe6080604052600436106101ed5760003560e01c80638da5cb5b1161010d578063d4241341116100a0578063f242432a1161006f578063f242432a1461074d578063f2fde38b14610776578063f5298aca1461079f578063f5b3beb7146107c8578063f6eb127a146107f3576101ed565b8063d42413411461066d578063d48e638a14610696578063e38e3b24146106d3578063e985e9c514610710576101ed565b8063b48ab8b6116100dc578063b48ab8b6146105b3578063bd85b039146105dc578063c45a015514610619578063d2a6b51a14610644576101ed565b80638da5cb5b1461050b57806395d89b41146105365780639a4b0c1f14610561578063a22cb4651461058a576101ed565b80632a11ced0116101855780634e1273f4116101545780634e1273f4146104515780634f558e791461048e578063715018a6146104cb578063731133e9146104e2576101ed565b80632a11ced0146103835780632d0335ab146103c05780632eb2c2d6146103fd5780633408e47014610426576101ed565b80630c53c51c116101c15780630c53c51c146102c05780630e89341c146102f05780630f7e59701461032d57806320379ee514610358576101ed565b8062fdd58e146101f257806301ffc9a71461022f57806302fe53051461026c57806306fdde0314610295575b600080fd5b3480156101fe57600080fd5b5061021960048036038101906102149190613de7565b61081c565b6040516102269190613e36565b60405180910390f35b34801561023b57600080fd5b5061025660048036038101906102519190613ea9565b6108e5565b6040516102639190613ef1565b60405180910390f35b34801561027857600080fd5b50610293600480360381019061028e9190614052565b6109c7565b005b3480156102a157600080fd5b506102aa610a4f565b6040516102b79190614123565b60405180910390f35b6102da60048036038101906102d59190614255565b610add565b6040516102e79190614341565b60405180910390f35b3480156102fc57600080fd5b5061031760048036038101906103129190614363565b610d4f565b6040516103249190614123565b60405180910390f35b34801561033957600080fd5b50610342610eec565b60405161034f9190614123565b60405180910390f35b34801561036457600080fd5b5061036d610f25565b60405161037a919061439f565b60405180910390f35b34801561038f57600080fd5b506103aa60048036038101906103a59190614363565b610f2f565b6040516103b79190613e36565b60405180910390f35b3480156103cc57600080fd5b506103e760048036038101906103e291906143ba565b610f53565b6040516103f49190613e36565b60405180910390f35b34801561040957600080fd5b50610424600480360381019061041f91906144af565b610f9c565b005b34801561043257600080fd5b5061043b61103d565b6040516104489190613e36565b60405180910390f35b34801561045d57600080fd5b5061047860048036038101906104739190614641565b61104a565b6040516104859190614777565b60405180910390f35b34801561049a57600080fd5b506104b560048036038101906104b09190614363565b611163565b6040516104c29190613ef1565b60405180910390f35b3480156104d757600080fd5b506104e0611175565b005b3480156104ee57600080fd5b5061050960048036038101906105049190614799565b6111fd565b005b34801561051757600080fd5b506105206112f6565b60405161052d919061482b565b60405180910390f35b34801561054257600080fd5b5061054b611320565b6040516105589190614123565b60405180910390f35b34801561056d57600080fd5b5061058860048036038101906105839190614846565b6113ae565b005b34801561059657600080fd5b506105b160048036038101906105ac91906148e1565b6114fa565b005b3480156105bf57600080fd5b506105da60048036038101906105d59190614921565b611510565b005b3480156105e857600080fd5b5061060360048036038101906105fe9190614363565b611649565b6040516106109190613e36565b60405180910390f35b34801561062557600080fd5b5061062e611666565b60405161063b919061482b565b60405180910390f35b34801561065057600080fd5b5061066b600480360381019061066691906149dc565b61168c565b005b34801561067957600080fd5b50610694600480360381019061068f91906143ba565b611790565b005b3480156106a257600080fd5b506106bd60048036038101906106b89190614363565b611910565b6040516106ca919061482b565b60405180910390f35b3480156106df57600080fd5b506106fa60048036038101906106f59190614a38565b61194d565b6040516107079190613e36565b60405180910390f35b34801561071c57600080fd5b5061073760048036038101906107329190614ad7565b611af3565b6040516107449190613ef1565b60405180910390f35b34801561075957600080fd5b50610774600480360381019061076f9190614b17565b611b67565b005b34801561078257600080fd5b5061079d600480360381019061079891906143ba565b611c08565b005b3480156107ab57600080fd5b506107c660048036038101906107c19190614bae565b611d00565b005b3480156107d457600080fd5b506107dd611d8c565b6040516107ea9190613e36565b60405180910390f35b3480156107ff57600080fd5b5061081a60048036038101906108159190614c01565b611d9d565b005b60008073ffffffffffffffffffffffffffffffffffffffff168373ffffffffffffffffffffffffffffffffffffffff16141561088d576040517f08c379a000000000000000000000000000000000000000000000000000000000815260040161088490614cfe565b60405180910390fd5b60008083815260200190815260200160002060008473ffffffffffffffffffffffffffffffffffffffff1673ffffffffffffffffffffffffffffffffffffffff16815260200190815260200160002054905092915050565b60007fd9b67a26000000000000000000000000000000000000000000000000000000007bffffffffffffffffffffffffffffffffffffffffffffffffffffffff1916827bffffffffffffffffffffffffffffffffffffffffffffffffffffffff191614806109b057507f0e89341c000000000000000000000000000000000000000000000000000000007bffffffffffffffffffffffffffffffffffffffffffffffffffffffff1916827bffffffffffffffffffffffffffffffffffffffffffffffffffffffff1916145b806109c057506109bf82611ef0565b5b9050919050565b6109cf611f5a565b73ffffffffffffffffffffffffffffffffffffffff166109ed6112f6565b73ffffffffffffffffffffffffffffffffffffffff1614610a43576040517f08c379a0000000000000000000000000000000000000000000000000000000008152600401610a3a90614d6a565b60405180910390fd5b610a4c81611f69565b50565b600b8054610a5c90614db9565b80601f0160208091040260200160405190810160405280929190818152602001828054610a8890614db9565b8015610ad55780601f10610aaa57610100808354040283529160200191610ad5565b820191906000526020600020905b815481529060010190602001808311610ab857829003601f168201915b505050505081565b606060006040518060600160405280600560008a73ffffffffffffffffffffffffffffffffffffffff1673ffffffffffffffffffffffffffffffffffffffff1681526020019081526020016000205481526020018873ffffffffffffffffffffffffffffffffffffffff168152602001878152509050610b608782878787611f83565b610b9f576040517f08c379a0000000000000000000000000000000000000000000000000000000008152600401610b9690614e5d565b60405180910390fd5b610bf26001600560008a73ffffffffffffffffffffffffffffffffffffffff1673ffffffffffffffffffffffffffffffffffffffff1681526020019081526020016000205461208c90919063ffffffff16565b600560008973ffffffffffffffffffffffffffffffffffffffff1673ffffffffffffffffffffffffffffffffffffffff168152602001908152602001600020819055507f5845892132946850460bff5a0083f71031bc5bf9aadcd40f1de79423eac9b10b873388604051610c6893929190614e9e565b60405180910390a16000803073ffffffffffffffffffffffffffffffffffffffff16888a604051602001610c9d929190614f60565b604051602081830303815290604052604051610cb99190614f88565b6000604051808303816000865af19150503d8060008114610cf6576040519150601f19603f3d011682016040523d82523d6000602084013e610cfb565b606091505b509150915081610d40576040517f08c379a0000000000000000000000000000000000000000000000000000000008152600401610d3790614feb565b60405180910390fd5b80935050505095945050505050565b6060610d5a826120a2565b610d6357600080fd5b6000600960008481526020019081526020016000208054610d8390614db9565b80601f0160208091040260200160405190810160405280929190818152602001828054610daf90614db9565b8015610dfc5780601f10610dd157610100808354040283529160200191610dfc565b820191906000526020600020905b815481529060010190602001808311610ddf57829003601f168201915b50505050509050600081511115610eb157600960008481526020019081526020016000208054610e2b90614db9565b80601f0160208091040260200160405190810160405280929190818152602001828054610e5790614db9565b8015610ea45780601f10610e7957610100808354040283529160200191610ea4565b820191906000526020600020905b815481529060010190602001808311610e8757829003601f168201915b5050505050915050610ee7565b610eba8361210e565b610ec3846121a2565b604051602001610ed4929190615047565b6040516020818303038152906040529150505b919050565b6040518060400160405280600181526020017f310000000000000000000000000000000000000000000000000000000000000081525081565b6000600454905090565b6000610f4c600a6000848152602001908152602001600020612303565b9050919050565b6000600560008373ffffffffffffffffffffffffffffffffffffffff1673ffffffffffffffffffffffffffffffffffffffff168152602001908152602001600020549050919050565b610fa4611f5a565b73ffffffffffffffffffffffffffffffffffffffff168573ffffffffffffffffffffffffffffffffffffffff161480610fea5750610fe985610fe4611f5a565b611af3565b5b611029576040517f08c379a0000000000000000000000000000000000000000000000000000000008152600401611020906150dd565b60405180910390fd5b6110368585858585612311565b5050505050565b6000804690508091505090565b60608151835114611090576040517f08c379a00000000000000000000000000000000000000000000000000000000081526004016110879061516f565b60405180910390fd5b6000835167ffffffffffffffff8111156110ad576110ac613f27565b5b6040519080825280602002602001820160405280156110db5781602001602082028036833780820191505090505b50905060005b845181101561115857611128858281518110611100576110ff61518f565b5b602002602001015185838151811061111b5761111a61518f565b5b602002602001015161081c565b82828151811061113b5761113a61518f565b5b60200260200101818152505080611151906151ed565b90506110e1565b508091505092915050565b600061116e826120a2565b9050919050565b61117d611f5a565b73ffffffffffffffffffffffffffffffffffffffff1661119b6112f6565b73ffffffffffffffffffffffffffffffffffffffff16146111f1576040517f08c379a00000000000000000000000000000000000000000000000000000000081526004016111e890614d6a565b60405180910390fd5b6111fb6000612625565b565b611205611f5a565b73ffffffffffffffffffffffffffffffffffffffff166112236112f6565b73ffffffffffffffffffffffffffffffffffffffff1614611279576040517f08c379a000000000000000000000000000000000000000000000000000000000815260040161127090614d6a565b60405180910390fd5b8373ffffffffffffffffffffffffffffffffffffffff166007600085815260200190815260200160002060009054906101000a900473ffffffffffffffffffffffffffffffffffffffff1673ffffffffffffffffffffffffffffffffffffffff16146112e457600080fd5b6112f0848484846126eb565b50505050565b6000600660009054906101000a900473ffffffffffffffffffffffffffffffffffffffff16905090565b600c805461132d90614db9565b80601f016020809104026020016040519081016040528092919081815260200182805461135990614db9565b80156113a65780601f1061137b576101008083540402835291602001916113a6565b820191906000526020600020905b81548152906001019060200180831161138957829003601f168201915b505050505081565b6113b6611f5a565b73ffffffffffffffffffffffffffffffffffffffff166113d46112f6565b73ffffffffffffffffffffffffffffffffffffffff161461142a576040517f08c379a000000000000000000000000000000000000000000000000000000000815260040161142190614d6a565b60405180910390fd5b8273ffffffffffffffffffffffffffffffffffffffff166007600084815260200190815260200160002060009054906101000a900473ffffffffffffffffffffffffffffffffffffffff1673ffffffffffffffffffffffffffffffffffffffff161461149557600080fd5b806009600084815260200190815260200160002090805190602001906114bc929190613c9c565b50817f6bb7ff708619ba0610cba295a58592e0451dee2622938c8755667688daf3529b826040516114ed9190614123565b60405180910390a2505050565b61150c611505611f5a565b8383612881565b5050565b611518611f5a565b73ffffffffffffffffffffffffffffffffffffffff166115366112f6565b73ffffffffffffffffffffffffffffffffffffffff161461158c576040517f08c379a000000000000000000000000000000000000000000000000000000000815260040161158390614d6a565b60405180910390fd5b60005b83518110156116365760008482815181106115ad576115ac61518f565b5b602002602001015190508573ffffffffffffffffffffffffffffffffffffffff166007600083815260200190815260200160002060009054906101000a900473ffffffffffffffffffffffffffffffffffffffff1673ffffffffffffffffffffffffffffffffffffffff161461162257600080fd5b50808061162e906151ed565b91505061158f565b50611643848484846129ee565b50505050565b600060086000838152602001908152602001600020549050919050565b600d60009054906101000a900473ffffffffffffffffffffffffffffffffffffffff1681565b611694611f5a565b73ffffffffffffffffffffffffffffffffffffffff166116b26112f6565b73ffffffffffffffffffffffffffffffffffffffff1614611708576040517f08c379a00000000000000000000000000000000000000000000000000000000081526004016116ff90614d6a565b60405180910390fd5b600073ffffffffffffffffffffffffffffffffffffffff168273ffffffffffffffffffffffffffffffffffffffff16141561174257600080fd5b60005b815181101561178b5760008282815181106117635761176261518f565b5b602002602001015190506117778482612c0c565b508080611783906151ed565b915050611745565b505050565b611798611f5a565b73ffffffffffffffffffffffffffffffffffffffff166117b66112f6565b73ffffffffffffffffffffffffffffffffffffffff161461180c576040517f08c379a000000000000000000000000000000000000000000000000000000000815260040161180390614d6a565b60405180910390fd5b8073ffffffffffffffffffffffffffffffffffffffff16600d60009054906101000a900473ffffffffffffffffffffffffffffffffffffffff1673ffffffffffffffffffffffffffffffffffffffff16141561186757600080fd5b80600d60006101000a81548173ffffffffffffffffffffffffffffffffffffffff021916908373ffffffffffffffffffffffffffffffffffffffff160217905550600d60009054906101000a900473ffffffffffffffffffffffffffffffffffffffff1673ffffffffffffffffffffffffffffffffffffffff167f20c46533d6b522da2ef138a5ccae7a332bfc757ff25b5fa16c1a8909230f716560405160405180910390a250565b60006007600083815260200190815260200160002060009054906101000a900473ffffffffffffffffffffffffffffffffffffffff169050919050565b6000611957611f5a565b73ffffffffffffffffffffffffffffffffffffffff166119756112f6565b73ffffffffffffffffffffffffffffffffffffffff16146119cb576040517f08c379a00000000000000000000000000000000000000000000000000000000081526004016119c290614d6a565b60405180910390fd5b60006119d7600e612303565b90506119e3600e611e29565b6119ec816120a2565b156119f657600080fd5b6000600167ffffffffffffffff811115611a1357611a12613f27565b5b604051908082528060200260200182016040528015611a415781602001602082028036833780820191505090505b5090508181600081518110611a5957611a5861518f565b5b602002602001018181525050611a6f878261168c565b600085511115611ada5784600960008481526020019081526020016000209080519060200190611aa0929190613c9c565b50817f6bb7ff708619ba0610cba295a58592e0451dee2622938c8755667688daf3529b86604051611ad19190614123565b60405180910390a25b611ae6878388876126eb565b8192505050949350505050565b60008173ffffffffffffffffffffffffffffffffffffffff16600d60009054906101000a900473ffffffffffffffffffffffffffffffffffffffff1673ffffffffffffffffffffffffffffffffffffffff161415611b545760019050611b61565b611b5e8383612cb0565b90505b92915050565b611b6f611f5a565b73ffffffffffffffffffffffffffffffffffffffff168573ffffffffffffffffffffffffffffffffffffffff161480611bb55750611bb485611baf611f5a565b611af3565b5b611bf4576040517f08c379a0000000000000000000000000000000000000000000000000000000008152600401611beb906152a8565b60405180910390fd5b611c018585858585612d44565b5050505050565b611c10611f5a565b73ffffffffffffffffffffffffffffffffffffffff16611c2e6112f6565b73ffffffffffffffffffffffffffffffffffffffff1614611c84576040517f08c379a0000000000000000000000000000000000000000000000000000000008152600401611c7b90614d6a565b60405180910390fd5b600073ffffffffffffffffffffffffffffffffffffffff168173ffffffffffffffffffffffffffffffffffffffff161415611cf4576040517f08c379a0000000000000000000000000000000000000000000000000000000008152600401611ceb9061533a565b60405180910390fd5b611cfd81612625565b50565b611d08611f5a565b73ffffffffffffffffffffffffffffffffffffffff16611d266112f6565b73ffffffffffffffffffffffffffffffffffffffff1614611d7c576040517f08c379a0000000000000000000000000000000000000000000000000000000008152600401611d7390614d6a565b60405180910390fd5b611d87838383612fc6565b505050565b6000611d98600e612303565b905090565b611da5611f5a565b73ffffffffffffffffffffffffffffffffffffffff16611dc36112f6565b73ffffffffffffffffffffffffffffffffffffffff1614611e19576040517f08c379a0000000000000000000000000000000000000000000000000000000008152600401611e1090614d6a565b60405180910390fd5b611e248383836131e3565b505050565b6001816000016000828254019250508190555050565b60003073ffffffffffffffffffffffffffffffffffffffff163373ffffffffffffffffffffffffffffffffffffffff161415611ee957600080368080601f016020809104026020016040519081016040528093929190818152602001838380828437600081840152601f19601f820116905080830192505050505050509050600080369050905073ffffffffffffffffffffffffffffffffffffffff818301511692505050611eed565b3390505b90565b60007f01ffc9a7000000000000000000000000000000000000000000000000000000007bffffffffffffffffffffffffffffffffffffffffffffffffffffffff1916827bffffffffffffffffffffffffffffffffffffffffffffffffffffffff1916149050919050565b6000611f64611e3f565b905090565b8060029080519060200190611f7f929190613c9c565b5050565b60008073ffffffffffffffffffffffffffffffffffffffff168673ffffffffffffffffffffffffffffffffffffffff161415611ff4576040517f08c379a0000000000000000000000000000000000000000000000000000000008152600401611feb906153cc565b60405180910390fd5b600161200761200287613494565b6134fc565b8386866040516000815260200160405260405161202794939291906153fb565b6020604051602081039080840390855afa158015612049573d6000803e3d6000fd5b5050506020604051035173ffffffffffffffffffffffffffffffffffffffff168673ffffffffffffffffffffffffffffffffffffffff1614905095945050505050565b6000818361209a9190615440565b905092915050565b60008073ffffffffffffffffffffffffffffffffffffffff166007600084815260200190815260200160002060009054906101000a900473ffffffffffffffffffffffffffffffffffffffff1673ffffffffffffffffffffffffffffffffffffffff1614159050919050565b60606002805461211d90614db9565b80601f016020809104026020016040519081016040528092919081815260200182805461214990614db9565b80156121965780601f1061216b57610100808354040283529160200191612196565b820191906000526020600020905b81548152906001019060200180831161217957829003601f168201915b50505050509050919050565b606060008214156121ea576040518060400160405280600181526020017f300000000000000000000000000000000000000000000000000000000000000081525090506122fe565b600082905060005b6000821461221c578080612205906151ed565b915050600a8261221591906154c5565b91506121f2565b60008167ffffffffffffffff81111561223857612237613f27565b5b6040519080825280601f01601f19166020018201604052801561226a5781602001600182028036833780820191505090505b5090505b600085146122f75760018261228391906154f6565b9150600a85612292919061552a565b603061229e9190615440565b60f81b8183815181106122b4576122b361518f565b5b60200101907effffffffffffffffffffffffffffffffffffffffffffffffffffffffffffff1916908160001a905350600a856122f091906154c5565b945061226e565b8093505050505b919050565b600081600001549050919050565b8151835114612355576040517f08c379a000000000000000000000000000000000000000000000000000000000815260040161234c906155cd565b60405180910390fd5b600073ffffffffffffffffffffffffffffffffffffffff168473ffffffffffffffffffffffffffffffffffffffff1614156123c5576040517f08c379a00000000000000000000000000000000000000000000000000000000081526004016123bc9061565f565b60405180910390fd5b60006123cf611f5a565b90506123df818787878787613535565b60005b8451811015612590576000858281518110612400576123ff61518f565b5b60200260200101519050600085838151811061241f5761241e61518f565b5b60200260200101519050600080600084815260200190815260200160002060008b73ffffffffffffffffffffffffffffffffffffffff1673ffffffffffffffffffffffffffffffffffffffff168152602001908152602001600020549050818110156124c0576040517f08c379a00000000000000000000000000000000000000000000000000000000081526004016124b7906156f1565b60405180910390fd5b81810360008085815260200190815260200160002060008c73ffffffffffffffffffffffffffffffffffffffff1673ffffffffffffffffffffffffffffffffffffffff168152602001908152602001600020819055508160008085815260200190815260200160002060008b73ffffffffffffffffffffffffffffffffffffffff1673ffffffffffffffffffffffffffffffffffffffff16815260200190815260200160002060008282546125759190615440565b9250508190555050505080612589906151ed565b90506123e2565b508473ffffffffffffffffffffffffffffffffffffffff168673ffffffffffffffffffffffffffffffffffffffff168273ffffffffffffffffffffffffffffffffffffffff167f4a39dc06d4c0dbc64b70af90fd698a233a518aa5d07e595d983b8c0526c8f7fb8787604051612607929190615711565b60405180910390a461261d8187878787876137ae565b505050505050565b6000600660009054906101000a900473ffffffffffffffffffffffffffffffffffffffff16905081600660006101000a81548173ffffffffffffffffffffffffffffffffffffffff021916908373ffffffffffffffffffffffffffffffffffffffff1602179055508173ffffffffffffffffffffffffffffffffffffffff168173ffffffffffffffffffffffffffffffffffffffff167f8be0079c531659141344cd1fd0a4f28419497f9722a3daafe3b4186f6b6457e060405160405180910390a35050565b600073ffffffffffffffffffffffffffffffffffffffff168473ffffffffffffffffffffffffffffffffffffffff16141561275b576040517f08c379a0000000000000000000000000000000000000000000000000000000008152600401612752906157ba565b60405180910390fd5b6000612765611f5a565b90506127868160008761277788613986565b61278088613986565b87613535565b8260008086815260200190815260200160002060008773ffffffffffffffffffffffffffffffffffffffff1673ffffffffffffffffffffffffffffffffffffffff16815260200190815260200160002060008282546127e59190615440565b925050819055508473ffffffffffffffffffffffffffffffffffffffff16600073ffffffffffffffffffffffffffffffffffffffff168273ffffffffffffffffffffffffffffffffffffffff167fc3d58168c5ae7397731d063d5bbf3d657854427343f4c083240f7aacaa2d0f6287876040516128639291906157da565b60405180910390a461287a81600087878787613a00565b5050505050565b8173ffffffffffffffffffffffffffffffffffffffff168373ffffffffffffffffffffffffffffffffffffffff1614156128f0576040517f08c379a00000000000000000000000000000000000000000000000000000000081526004016128e790615875565b60405180910390fd5b80600160008573ffffffffffffffffffffffffffffffffffffffff1673ffffffffffffffffffffffffffffffffffffffff16815260200190815260200160002060008473ffffffffffffffffffffffffffffffffffffffff1673ffffffffffffffffffffffffffffffffffffffff16815260200190815260200160002060006101000a81548160ff0219169083151502179055508173ffffffffffffffffffffffffffffffffffffffff168373ffffffffffffffffffffffffffffffffffffffff167f17307eab39ab6107e8899845ad3d59bd9653f200f220920489ca2b5937696c31836040516129e19190613ef1565b60405180910390a3505050565b600073ffffffffffffffffffffffffffffffffffffffff168473ffffffffffffffffffffffffffffffffffffffff161415612a5e576040517f08c379a0000000000000000000000000000000000000000000000000000000008152600401612a55906157ba565b60405180910390fd5b8151835114612aa2576040517f08c379a0000000000000000000000000000000000000000000000000000000008152600401612a99906155cd565b60405180910390fd5b6000612aac611f5a565b9050612abd81600087878787613535565b60005b8451811015612b7657838181518110612adc57612adb61518f565b5b6020026020010151600080878481518110612afa57612af961518f565b5b6020026020010151815260200190815260200160002060008873ffffffffffffffffffffffffffffffffffffffff1673ffffffffffffffffffffffffffffffffffffffff1681526020019081526020016000206000828254612b5c9190615440565b925050819055508080612b6e906151ed565b915050612ac0565b508473ffffffffffffffffffffffffffffffffffffffff16600073ffffffffffffffffffffffffffffffffffffffff168273ffffffffffffffffffffffffffffffffffffffff167f4a39dc06d4c0dbc64b70af90fd698a233a518aa5d07e595d983b8c0526c8f7fb8787604051612bee929190615711565b60405180910390a4612c05816000878787876137ae565b5050505050565b816007600083815260200190815260200160002060006101000a81548173ffffffffffffffffffffffffffffffffffffffff021916908373ffffffffffffffffffffffffffffffffffffffff1602179055508173ffffffffffffffffffffffffffffffffffffffff167f0f47dbb9b3bdff520f29937fc5df76458f08ebff4402a2fec7d4c9e1ab597ad382604051612ca49190613e36565b60405180910390a25050565b6000600160008473ffffffffffffffffffffffffffffffffffffffff1673ffffffffffffffffffffffffffffffffffffffff16815260200190815260200160002060008373ffffffffffffffffffffffffffffffffffffffff1673ffffffffffffffffffffffffffffffffffffffff16815260200190815260200160002060009054906101000a900460ff16905092915050565b600073ffffffffffffffffffffffffffffffffffffffff168473ffffffffffffffffffffffffffffffffffffffff161415612db4576040517f08c379a0000000000000000000000000000000000000000000000000000000008152600401612dab9061565f565b60405180910390fd5b6000612dbe611f5a565b9050612dde818787612dcf88613986565b612dd888613986565b87613535565b600080600086815260200190815260200160002060008873ffffffffffffffffffffffffffffffffffffffff1673ffffffffffffffffffffffffffffffffffffffff16815260200190815260200160002054905083811015612e75576040517f08c379a0000000000000000000000000000000000000000000000000000000008152600401612e6c906156f1565b60405180910390fd5b83810360008087815260200190815260200160002060008973ffffffffffffffffffffffffffffffffffffffff1673ffffffffffffffffffffffffffffffffffffffff168152602001908152602001600020819055508360008087815260200190815260200160002060008873ffffffffffffffffffffffffffffffffffffffff1673ffffffffffffffffffffffffffffffffffffffff1681526020019081526020016000206000828254612f2a9190615440565b925050819055508573ffffffffffffffffffffffffffffffffffffffff168773ffffffffffffffffffffffffffffffffffffffff168373ffffffffffffffffffffffffffffffffffffffff167fc3d58168c5ae7397731d063d5bbf3d657854427343f4c083240f7aacaa2d0f628888604051612fa79291906157da565b60405180910390a4612fbd828888888888613a00565b50505050505050565b600073ffffffffffffffffffffffffffffffffffffffff168373ffffffffffffffffffffffffffffffffffffffff161415613036576040517f08c379a000000000000000000000000000000000000000000000000000000000815260040161302d90615907565b60405180910390fd5b6000613040611f5a565b90506130708185600061305287613986565b61305b87613986565b60405180602001604052806000815250613535565b600080600085815260200190815260200160002060008673ffffffffffffffffffffffffffffffffffffffff1673ffffffffffffffffffffffffffffffffffffffff16815260200190815260200160002054905082811015613107576040517f08c379a00000000000000000000000000000000000000000000000000000000081526004016130fe90615999565b60405180910390fd5b82810360008086815260200190815260200160002060008773ffffffffffffffffffffffffffffffffffffffff1673ffffffffffffffffffffffffffffffffffffffff16815260200190815260200160002081905550600073ffffffffffffffffffffffffffffffffffffffff168573ffffffffffffffffffffffffffffffffffffffff168373ffffffffffffffffffffffffffffffffffffffff167fc3d58168c5ae7397731d063d5bbf3d657854427343f4c083240f7aacaa2d0f6287876040516131d49291906157da565b60405180910390a45050505050565b600073ffffffffffffffffffffffffffffffffffffffff168373ffffffffffffffffffffffffffffffffffffffff161415613253576040517f08c379a000000000000000000000000000000000000000000000000000000000815260040161324a90615907565b60405180910390fd5b8051825114613297576040517f08c379a000000000000000000000000000000000000000000000000000000000815260040161328e906155cd565b60405180910390fd5b60006132a1611f5a565b90506132c181856000868660405180602001604052806000815250613535565b60005b835181101561340e5760008482815181106132e2576132e161518f565b5b6020026020010151905060008483815181106133015761330061518f565b5b60200260200101519050600080600084815260200190815260200160002060008973ffffffffffffffffffffffffffffffffffffffff1673ffffffffffffffffffffffffffffffffffffffff168152602001908152602001600020549050818110156133a2576040517f08c379a000000000000000000000000000000000000000000000000000000000815260040161339990615999565b60405180910390fd5b81810360008085815260200190815260200160002060008a73ffffffffffffffffffffffffffffffffffffffff1673ffffffffffffffffffffffffffffffffffffffff168152602001908152602001600020819055505050508080613406906151ed565b9150506132c4565b50600073ffffffffffffffffffffffffffffffffffffffff168473ffffffffffffffffffffffffffffffffffffffff168273ffffffffffffffffffffffffffffffffffffffff167f4a39dc06d4c0dbc64b70af90fd698a233a518aa5d07e595d983b8c0526c8f7fb8686604051613486929190615711565b60405180910390a450505050565b6000604051806080016040528060438152602001615dfc6043913980519060200120826000015183602001518460400151805190602001206040516020016134df94939291906159b9565b604051602081830303815290604052805190602001209050919050565b6000613506610f25565b82604051602001613518929190615a6b565b604051602081830303815290604052805190602001209050919050565b60005b83518110156137a55760008482815181106135565761355561518f565b5b6020026020010151905060008483815181106135755761357461518f565b5b60200260200101519050600073ffffffffffffffffffffffffffffffffffffffff168773ffffffffffffffffffffffffffffffffffffffff16141561365a57806135bf898461081c565b14156135e1576135e0600a6000848152602001908152602001600020613bd8565b5b61363e816040518060400160405280601881526020017f746f6b656e537570706c7920696e73756666696369656e7400000000000000008152506008600086815260200190815260200160002054613c349092919063ffffffff16565b6008600084815260200190815260200160002081905550613790565b600073ffffffffffffffffffffffffffffffffffffffff168873ffffffffffffffffffffffffffffffffffffffff1614156136ff57600061369b888461081c565b14156136bd576136bc600a6000848152602001908152602001600020611e29565b5b6136e381600860008581526020019081526020016000205461208c90919063ffffffff16565b600860008481526020019081526020016000208190555061378f565b8673ffffffffffffffffffffffffffffffffffffffff168873ffffffffffffffffffffffffffffffffffffffff161461378e578061373d898461081c565b141561375f5761375e600a6000848152602001908152602001600020613bd8565b5b600061376b888461081c565b141561378d5761378c600a6000848152602001908152602001600020611e29565b5b5b5b5b5050808061379d906151ed565b915050613538565b50505050505050565b6137cd8473ffffffffffffffffffffffffffffffffffffffff16613c89565b1561397e578373ffffffffffffffffffffffffffffffffffffffff1663bc197c8187878686866040518663ffffffff1660e01b8152600401613813959493929190615aa2565b6020604051808303816000875af192505050801561384f57506040513d601f19601f8201168201806040525081019061384c9190615b1f565b60015b6138f55761385b615b59565b806308c379a014156138b85750613870615b7b565b8061387b57506138ba565b806040517f08c379a00000000000000000000000000000000000000000000000000000000081526004016138af9190614123565b60405180910390fd5b505b6040517f08c379a00000000000000000000000000000000000000000000000000000000081526004016138ec90615c83565b60405180910390fd5b63bc197c8160e01b7bffffffffffffffffffffffffffffffffffffffffffffffffffffffff1916817bffffffffffffffffffffffffffffffffffffffffffffffffffffffff19161461397c576040517f08c379a000000000000000000000000000000000000000000000000000000000815260040161397390615d15565b60405180910390fd5b505b505050505050565b60606000600167ffffffffffffffff8111156139a5576139a4613f27565b5b6040519080825280602002602001820160405280156139d35781602001602082028036833780820191505090505b50905082816000815181106139eb576139ea61518f565b5b60200260200101818152505080915050919050565b613a1f8473ffffffffffffffffffffffffffffffffffffffff16613c89565b15613bd0578373ffffffffffffffffffffffffffffffffffffffff1663f23a6e6187878686866040518663ffffffff1660e01b8152600401613a65959493929190615d35565b6020604051808303816000875af1925050508015613aa157506040513d601f19601f82011682018060405250810190613a9e9190615b1f565b60015b613b4757613aad615b59565b806308c379a01415613b0a5750613ac2615b7b565b80613acd5750613b0c565b806040517f08c379a0000000000000000000000000000000000000000000000000000000008152600401613b019190614123565b60405180910390fd5b505b6040517f08c379a0000000000000000000000000000000000000000000000000000000008152600401613b3e90615c83565b60405180910390fd5b63f23a6e6160e01b7bffffffffffffffffffffffffffffffffffffffffffffffffffffffff1916817bffffffffffffffffffffffffffffffffffffffffffffffffffffffff191614613bce576040517f08c379a0000000000000000000000000000000000000000000000000000000008152600401613bc590615d15565b60405180910390fd5b505b505050505050565b60008160000154905060008111613c24576040517f08c379a0000000000000000000000000000000000000000000000000000000008152600401613c1b90615ddb565b60405180910390fd5b6001810382600001819055505050565b6000838311158290613c7c576040517f08c379a0000000000000000000000000000000000000000000000000000000008152600401613c739190614123565b60405180910390fd5b5082840390509392505050565b600080823b905060008111915050919050565b828054613ca890614db9565b90600052602060002090601f016020900481019282613cca5760008555613d11565b82601f10613ce357805160ff1916838001178555613d11565b82800160010185558215613d11579182015b82811115613d10578251825591602001919060010190613cf5565b5b509050613d1e9190613d22565b5090565b5b80821115613d3b576000816000905550600101613d23565b5090565b6000604051905090565b600080fd5b600080fd5b600073ffffffffffffffffffffffffffffffffffffffff82169050919050565b6000613d7e82613d53565b9050919050565b613d8e81613d73565b8114613d9957600080fd5b50565b600081359050613dab81613d85565b92915050565b6000819050919050565b613dc481613db1565b8114613dcf57600080fd5b50565b600081359050613de181613dbb565b92915050565b60008060408385031215613dfe57613dfd613d49565b5b6000613e0c85828601613d9c565b9250506020613e1d85828601613dd2565b9150509250929050565b613e3081613db1565b82525050565b6000602082019050613e4b6000830184613e27565b92915050565b60007fffffffff0000000000000000000000000000000000000000000000000000000082169050919050565b613e8681613e51565b8114613e9157600080fd5b50565b600081359050613ea381613e7d565b92915050565b600060208284031215613ebf57613ebe613d49565b5b6000613ecd84828501613e94565b91505092915050565b60008115159050919050565b613eeb81613ed6565b82525050565b6000602082019050613f066000830184613ee2565b92915050565b600080fd5b600080fd5b6000601f19601f8301169050919050565b7f4e487b7100000000000000000000000000000000000000000000000000000000600052604160045260246000fd5b613f5f82613f16565b810181811067ffffffffffffffff82111715613f7e57613f7d613f27565b5b80604052505050565b6000613f91613d3f565b9050613f9d8282613f56565b919050565b600067ffffffffffffffff821115613fbd57613fbc613f27565b5b613fc682613f16565b9050602081019050919050565b82818337600083830152505050565b6000613ff5613ff084613fa2565b613f87565b90508281526020810184848401111561401157614010613f11565b5b61401c848285613fd3565b509392505050565b600082601f83011261403957614038613f0c565b5b8135614049848260208601613fe2565b91505092915050565b60006020828403121561406857614067613d49565b5b600082013567ffffffffffffffff81111561408657614085613d4e565b5b61409284828501614024565b91505092915050565b600081519050919050565b600082825260208201905092915050565b60005b838110156140d55780820151818401526020810190506140ba565b838111156140e4576000848401525b50505050565b60006140f58261409b565b6140ff81856140a6565b935061410f8185602086016140b7565b61411881613f16565b840191505092915050565b6000602082019050818103600083015261413d81846140ea565b905092915050565b600067ffffffffffffffff8211156141605761415f613f27565b5b61416982613f16565b9050602081019050919050565b600061418961418484614145565b613f87565b9050828152602081018484840111156141a5576141a4613f11565b5b6141b0848285613fd3565b509392505050565b600082601f8301126141cd576141cc613f0c565b5b81356141dd848260208601614176565b91505092915050565b6000819050919050565b6141f9816141e6565b811461420457600080fd5b50565b600081359050614216816141f0565b92915050565b600060ff82169050919050565b6142328161421c565b811461423d57600080fd5b50565b60008135905061424f81614229565b92915050565b600080600080600060a0868803121561427157614270613d49565b5b600061427f88828901613d9c565b955050602086013567ffffffffffffffff8111156142a05761429f613d4e565b5b6142ac888289016141b8565b94505060406142bd88828901614207565b93505060606142ce88828901614207565b92505060806142df88828901614240565b9150509295509295909350565b600081519050919050565b600082825260208201905092915050565b6000614313826142ec565b61431d81856142f7565b935061432d8185602086016140b7565b61433681613f16565b840191505092915050565b6000602082019050818103600083015261435b8184614308565b905092915050565b60006020828403121561437957614378613d49565b5b600061438784828501613dd2565b91505092915050565b614399816141e6565b82525050565b60006020820190506143b46000830184614390565b92915050565b6000602082840312156143d0576143cf613d49565b5b60006143de84828501613d9c565b91505092915050565b600067ffffffffffffffff82111561440257614401613f27565b5b602082029050602081019050919050565b600080fd5b600061442b614426846143e7565b613f87565b9050808382526020820190506020840283018581111561444e5761444d614413565b5b835b8181101561447757806144638882613dd2565b845260208401935050602081019050614450565b5050509392505050565b600082601f83011261449657614495613f0c565b5b81356144a6848260208601614418565b91505092915050565b600080600080600060a086880312156144cb576144ca613d49565b5b60006144d988828901613d9c565b95505060206144ea88828901613d9c565b945050604086013567ffffffffffffffff81111561450b5761450a613d4e565b5b61451788828901614481565b935050606086013567ffffffffffffffff81111561453857614537613d4e565b5b61454488828901614481565b925050608086013567ffffffffffffffff81111561456557614564613d4e565b5b614571888289016141b8565b9150509295509295909350565b600067ffffffffffffffff82111561459957614598613f27565b5b602082029050602081019050919050565b60006145bd6145b88461457e565b613f87565b905080838252602082019050602084028301858111156145e0576145df614413565b5b835b8181101561460957806145f58882613d9c565b8452602084019350506020810190506145e2565b5050509392505050565b600082601f83011261462857614627613f0c565b5b81356146388482602086016145aa565b91505092915050565b6000806040838503121561465857614657613d49565b5b600083013567ffffffffffffffff81111561467657614675613d4e565b5b61468285828601614613565b925050602083013567ffffffffffffffff8111156146a3576146a2613d4e565b5b6146af85828601614481565b9150509250929050565b600081519050919050565b600082825260208201905092915050565b6000819050602082019050919050565b6146ee81613db1565b82525050565b600061470083836146e5565b60208301905092915050565b6000602082019050919050565b6000614724826146b9565b61472e81856146c4565b9350614739836146d5565b8060005b8381101561476a57815161475188826146f4565b975061475c8361470c565b92505060018101905061473d565b5085935050505092915050565b600060208201905081810360008301526147918184614719565b905092915050565b600080600080608085870312156147b3576147b2613d49565b5b60006147c187828801613d9c565b94505060206147d287828801613dd2565b93505060406147e387828801613dd2565b925050606085013567ffffffffffffffff81111561480457614803613d4e565b5b614810878288016141b8565b91505092959194509250565b61482581613d73565b82525050565b6000602082019050614840600083018461481c565b92915050565b60008060006060848603121561485f5761485e613d49565b5b600061486d86828701613d9c565b935050602061487e86828701613dd2565b925050604084013567ffffffffffffffff81111561489f5761489e613d4e565b5b6148ab86828701614024565b9150509250925092565b6148be81613ed6565b81146148c957600080fd5b50565b6000813590506148db816148b5565b92915050565b600080604083850312156148f8576148f7613d49565b5b600061490685828601613d9c565b9250506020614917858286016148cc565b9150509250929050565b6000806000806080858703121561493b5761493a613d49565b5b600061494987828801613d9c565b945050602085013567ffffffffffffffff81111561496a57614969613d4e565b5b61497687828801614481565b935050604085013567ffffffffffffffff81111561499757614996613d4e565b5b6149a387828801614481565b925050606085013567ffffffffffffffff8111156149c4576149c3613d4e565b5b6149d0878288016141b8565b91505092959194509250565b600080604083850312156149f3576149f2613d49565b5b6000614a0185828601613d9c565b925050602083013567ffffffffffffffff811115614a2257614a21613d4e565b5b614a2e85828601614481565b9150509250929050565b60008060008060808587031215614a5257614a51613d49565b5b6000614a6087828801613d9c565b9450506020614a7187828801613dd2565b935050604085013567ffffffffffffffff811115614a9257614a91613d4e565b5b614a9e87828801614024565b925050606085013567ffffffffffffffff811115614abf57614abe613d4e565b5b614acb878288016141b8565b91505092959194509250565b60008060408385031215614aee57614aed613d49565b5b6000614afc85828601613d9c565b9250506020614b0d85828601613d9c565b9150509250929050565b600080600080600060a08688031215614b3357614b32613d49565b5b6000614b4188828901613d9c565b9550506020614b5288828901613d9c565b9450506040614b6388828901613dd2565b9350506060614b7488828901613dd2565b925050608086013567ffffffffffffffff811115614b9557614b94613d4e565b5b614ba1888289016141b8565b9150509295509295909350565b600080600060608486031215614bc757614bc6613d49565b5b6000614bd586828701613d9c565b9350506020614be686828701613dd2565b9250506040614bf786828701613dd2565b9150509250925092565b600080600060608486031215614c1a57614c19613d49565b5b6000614c2886828701613d9c565b935050602084013567ffffffffffffffff811115614c4957614c48613d4e565b5b614c5586828701614481565b925050604084013567ffffffffffffffff811115614c7657614c75613d4e565b5b614c8286828701614481565b9150509250925092565b7f455243313135353a2062616c616e636520717565727920666f7220746865207a60008201527f65726f2061646472657373000000000000000000000000000000000000000000602082015250565b6000614ce8602b836140a6565b9150614cf382614c8c565b604082019050919050565b60006020820190508181036000830152614d1781614cdb565b9050919050565b7f4f776e61626c653a2063616c6c6572206973206e6f7420746865206f776e6572600082015250565b6000614d546020836140a6565b9150614d5f82614d1e565b602082019050919050565b60006020820190508181036000830152614d8381614d47565b9050919050565b7f4e487b7100000000000000000000000000000000000000000000000000000000600052602260045260246000fd5b60006002820490506001821680614dd157607f821691505b60208210811415614de557614de4614d8a565b5b50919050565b7f5369676e657220616e64207369676e617475726520646f206e6f74206d61746360008201527f6800000000000000000000000000000000000000000000000000000000000000602082015250565b6000614e476021836140a6565b9150614e5282614deb565b604082019050919050565b60006020820190508181036000830152614e7681614e3a565b9050919050565b6000614e8882613d53565b9050919050565b614e9881614e7d565b82525050565b6000606082019050614eb3600083018661481c565b614ec06020830185614e8f565b8181036040830152614ed28184614308565b9050949350505050565b600081905092915050565b6000614ef2826142ec565b614efc8185614edc565b9350614f0c8185602086016140b7565b80840191505092915050565b60008160601b9050919050565b6000614f3082614f18565b9050919050565b6000614f4282614f25565b9050919050565b614f5a614f5582613d73565b614f37565b82525050565b6000614f6c8285614ee7565b9150614f788284614f49565b6014820191508190509392505050565b6000614f948284614ee7565b915081905092915050565b7f46756e6374696f6e2063616c6c206e6f74207375636365737366756c00000000600082015250565b6000614fd5601c836140a6565b9150614fe082614f9f565b602082019050919050565b6000602082019050818103600083015261500481614fc8565b9050919050565b600081905092915050565b60006150218261409b565b61502b818561500b565b935061503b8185602086016140b7565b80840191505092915050565b60006150538285615016565b915061505f8284615016565b91508190509392505050565b7f455243313135353a207472616e736665722063616c6c6572206973206e6f742060008201527f6f776e6572206e6f7220617070726f7665640000000000000000000000000000602082015250565b60006150c76032836140a6565b91506150d28261506b565b604082019050919050565b600060208201905081810360008301526150f6816150ba565b9050919050565b7f455243313135353a206163636f756e747320616e6420696473206c656e67746860008201527f206d69736d617463680000000000000000000000000000000000000000000000602082015250565b60006151596029836140a6565b9150615164826150fd565b604082019050919050565b600060208201905081810360008301526151888161514c565b9050919050565b7f4e487b7100000000000000000000000000000000000000000000000000000000600052603260045260246000fd5b7f4e487b7100000000000000000000000000000000000000000000000000000000600052601160045260246000fd5b60006151f882613db1565b91507fffffffffffffffffffffffffffffffffffffffffffffffffffffffffffffffff82141561522b5761522a6151be565b5b600182019050919050565b7f455243313135353a2063616c6c6572206973206e6f74206f776e6572206e6f7260008201527f20617070726f7665640000000000000000000000000000000000000000000000602082015250565b60006152926029836140a6565b915061529d82615236565b604082019050919050565b600060208201905081810360008301526152c181615285565b9050919050565b7f4f776e61626c653a206e6577206f776e657220697320746865207a65726f206160008201527f6464726573730000000000000000000000000000000000000000000000000000602082015250565b60006153246026836140a6565b915061532f826152c8565b604082019050919050565b6000602082019050818103600083015261535381615317565b9050919050565b7f4e61746976654d6574615472616e73616374696f6e3a20494e56414c49445f5360008201527f49474e4552000000000000000000000000000000000000000000000000000000602082015250565b60006153b66025836140a6565b91506153c18261535a565b604082019050919050565b600060208201905081810360008301526153e5816153a9565b9050919050565b6153f58161421c565b82525050565b60006080820190506154106000830187614390565b61541d60208301866153ec565b61542a6040830185614390565b6154376060830184614390565b95945050505050565b600061544b82613db1565b915061545683613db1565b9250827fffffffffffffffffffffffffffffffffffffffffffffffffffffffffffffffff0382111561548b5761548a6151be565b5b828201905092915050565b7f4e487b7100000000000000000000000000000000000000000000000000000000600052601260045260246000fd5b60006154d082613db1565b91506154db83613db1565b9250826154eb576154ea615496565b5b828204905092915050565b600061550182613db1565b915061550c83613db1565b92508282101561551f5761551e6151be565b5b828203905092915050565b600061553582613db1565b915061554083613db1565b9250826155505761554f615496565b5b828206905092915050565b7f455243313135353a2069647320616e6420616d6f756e7473206c656e6774682060008201527f6d69736d61746368000000000000000000000000000000000000000000000000602082015250565b60006155b76028836140a6565b91506155c28261555b565b604082019050919050565b600060208201905081810360008301526155e6816155aa565b9050919050565b7f455243313135353a207472616e7366657220746f20746865207a65726f20616460008201527f6472657373000000000000000000000000000000000000000000000000000000602082015250565b60006156496025836140a6565b9150615654826155ed565b604082019050919050565b600060208201905081810360008301526156788161563c565b9050919050565b7f455243313135353a20696e73756666696369656e742062616c616e636520666f60008201527f72207472616e7366657200000000000000000000000000000000000000000000602082015250565b60006156db602a836140a6565b91506156e68261567f565b604082019050919050565b6000602082019050818103600083015261570a816156ce565b9050919050565b6000604082019050818103600083015261572b8185614719565b9050818103602083015261573f8184614719565b90509392505050565b7f455243313135353a206d696e7420746f20746865207a65726f2061646472657360008201527f7300000000000000000000000000000000000000000000000000000000000000602082015250565b60006157a46021836140a6565b91506157af82615748565b604082019050919050565b600060208201905081810360008301526157d381615797565b9050919050565b60006040820190506157ef6000830185613e27565b6157fc6020830184613e27565b9392505050565b7f455243313135353a2073657474696e6720617070726f76616c2073746174757360008201527f20666f722073656c660000000000000000000000000000000000000000000000602082015250565b600061585f6029836140a6565b915061586a82615803565b604082019050919050565b6000602082019050818103600083015261588e81615852565b9050919050565b7f455243313135353a206275726e2066726f6d20746865207a65726f206164647260008201527f6573730000000000000000000000000000000000000000000000000000000000602082015250565b60006158f16023836140a6565b91506158fc82615895565b604082019050919050565b60006020820190508181036000830152615920816158e4565b9050919050565b7f455243313135353a206275726e20616d6f756e7420657863656564732062616c60008201527f616e636500000000000000000000000000000000000000000000000000000000602082015250565b60006159836024836140a6565b915061598e82615927565b604082019050919050565b600060208201905081810360008301526159b281615976565b9050919050565b60006080820190506159ce6000830187614390565b6159db6020830186613e27565b6159e8604083018561481c565b6159f56060830184614390565b95945050505050565b7f1901000000000000000000000000000000000000000000000000000000000000600082015250565b6000615a3460028361500b565b9150615a3f826159fe565b600282019050919050565b6000819050919050565b615a65615a60826141e6565b615a4a565b82525050565b6000615a7682615a27565b9150615a828285615a54565b602082019150615a928284615a54565b6020820191508190509392505050565b600060a082019050615ab7600083018861481c565b615ac4602083018761481c565b8181036040830152615ad68186614719565b90508181036060830152615aea8185614719565b90508181036080830152615afe8184614308565b90509695505050505050565b600081519050615b1981613e7d565b92915050565b600060208284031215615b3557615b34613d49565b5b6000615b4384828501615b0a565b91505092915050565b60008160e01c9050919050565b600060033d1115615b785760046000803e615b75600051615b4c565b90505b90565b600060443d1015615b8b57615c0e565b615b93613d3f565b60043d036004823e80513d602482011167ffffffffffffffff82111715615bbb575050615c0e565b808201805167ffffffffffffffff811115615bd95750505050615c0e565b80602083010160043d038501811115615bf6575050505050615c0e565b615c0582602001850186613f56565b82955050505050505b90565b7f455243313135353a207472616e7366657220746f206e6f6e204552433131353560008201527f526563656976657220696d706c656d656e746572000000000000000000000000602082015250565b6000615c6d6034836140a6565b9150615c7882615c11565b604082019050919050565b60006020820190508181036000830152615c9c81615c60565b9050919050565b7f455243313135353a204552433131353552656365697665722072656a6563746560008201527f6420746f6b656e73000000000000000000000000000000000000000000000000602082015250565b6000615cff6028836140a6565b9150615d0a82615ca3565b604082019050919050565b60006020820190508181036000830152615d2e81615cf2565b9050919050565b600060a082019050615d4a600083018861481c565b615d57602083018761481c565b615d646040830186613e27565b615d716060830185613e27565b8181036080830152615d838184614308565b90509695505050505050565b7f436f756e7465723a2064656372656d656e74206f766572666c6f770000000000600082015250565b6000615dc5601b836140a6565b9150615dd082615d8f565b602082019050919050565b60006020820190508181036000830152615df481615db8565b905091905056fe4d6574615472616e73616374696f6e2875696e74323536206e6f6e63652c616464726573732066726f6d2c62797465732066756e6374696f6e5369676e617475726529a26469706673582212203366262b47ebda5da3716d7d2a9b81bb2acc723f108400989d4906539f31be0664736f6c634300080b0033454950373132446f6d61696e28737472696e67206e616d652c737472696e672076657273696f6e2c6164647265737320766572696679696e67436f6e74726163742c627974657333322073616c7429",
  "immutableReferences": {},
  "source": "// SPDX-License-Identifier: MIT\n\npragma solidity ^0.8.0;\n\nimport \"@openzeppelin/contracts/access/Ownable.sol\";\nimport \"@openzeppelin/contracts/token/ERC1155/ERC1155.sol\";\nimport \"@openzeppelin/contracts/utils/Counters.sol\";\nimport \"@openzeppelin/contracts/utils/math/SafeMath.sol\";\nimport \"@openzeppelin/contracts/utils/Strings.sol\";\n\nimport \"./common/meta-transactions/ContextMixin.sol\";\nimport \"./common/meta-transactions/NativeMetaTransaction.sol\";\n\n/**\n * @title ERC1155Tradable\n * ERC1155Tradable - ERC1155 contract that whitelists an operator address, has create and mint functionality, and supports useful standards from OpenZeppelin,\n  like _exists(), name(), symbol(), and totalSupply()\n */\ncontract ERC1155Tradable is\n    ContextMixin,\n    ERC1155,\n    NativeMetaTransaction,\n    Ownable\n{\n    using Strings for string;\n    using SafeMath for uint256;\n    using Counters for Counters.Counter;\n\n    /**\n     0xd9b67a26 = type(IERC1155).interfaceId =   bytes4(keccak256(\"balanceOf(address,uint256)\")) \n                                            ^   bytes4(keccak256(\"balanceOfBatch(address[],uint256[])\"))\n                                            ^   bytes4(keccak256(\"setApprovalForAll(address,bool)\"))\n                                            ^   bytes4(keccak256(\"isApprovedForAll(address,address)\"))\n                                            ^   bytes4(keccak256(\"safeTransferFrom(address,address,uint256,uint256,bytes)\"))\n                                            ^   bytes4(keccak256(\"safeBatchTransferFrom(address,address,uint256[],uint256[],bytes)\"))\n     */\n    bytes4 internal constant INTERFACE_ERC1155 = 0xd9b67a26;\n\n    // Role management\n    mapping(uint256 => address) private creators;\n    // total supply of the token with respect to its id\n    mapping(uint256 => uint256) private tokenSupply;\n    // token URI with respect to its id\n    mapping(uint256 => string) private customUri;\n    // count of holders with respect to its id\n    mapping(uint256 => Counters.Counter) private holderCount;\n    // Contract name\n    string public name;\n    // Contract symbol\n    string public symbol;\n\n    //factory address\n    address public factory;\n    // reserved token id to be minted\n    Counters.Counter _nextTokenId;\n\n    // changed creator of tokenId\n    event CreatorSet(address indexed account, uint256 tokenId);\n    // event to change the factory contract\n    event SetFactoryContract(address indexed _factory);\n\n    constructor(\n        string memory _name,\n        string memory _symbol,\n        string memory _uri,\n        address _factory\n    ) ERC1155(_uri) {\n        name = _name;\n        symbol = _symbol;\n        _initializeEIP712(name);\n        factory = _factory;\n\n        _nextTokenId.increment();\n    }\n\n    function uri(uint256 _id) public view override returns (string memory) {\n        require(_exists(_id));\n        // We have to convert string to bytes to check for existence\n        bytes memory customUriBytes = bytes(customUri[_id]);\n        if (customUriBytes.length > 0) {\n            return customUri[_id];\n        } else {\n            return\n                string(abi.encodePacked(super.uri(_id), Strings.toString(_id)));\n        }\n    }\n\n    /**\n     * @dev Returns the total quantity for a token ID\n     * @param _id uint256 ID of the token to query\n     * @return amount of token in existence\n     */\n    function totalSupply(uint256 _id) public view returns (uint256) {\n        return tokenSupply[_id];\n    }\n\n    /**\n     * @dev Returns the count of holders for a token ID\n     * @param _id uint256 ID of the token to query\n     * @return count of token holders\n     */\n    function holders(uint256 _id) public view returns (uint256) {\n        return holderCount[_id].current();\n    }\n\n    /**\n     * @dev Sets a new URI for all token types, by relying on the token type ID\n     * substitution mechanism\n     * https://eips.ethereum.org/EIPS/eip-1155#metadata[defined in the EIP].\n     * @param _newURI New URI for all tokens\n     */\n    function setURI(string memory _newURI) public onlyOwner {\n        _setURI(_newURI);\n    }\n\n    /**\n     * @dev Will update the base URI for the token\n     * @param _tokenId The token to update. _msgSender() must be its creator.\n     * @param _newURI New URI for the token.\n     */\n    function setCustomURI(\n        address issuer,\n        uint256 _tokenId,\n        string memory _newURI\n    ) public onlyOwner {\n        require(creators[_tokenId] == issuer);\n\n        customUri[_tokenId] = _newURI;\n        emit URI(_newURI, _tokenId);\n    }\n\n    /**\n     * @dev returns the token id to be minted as a new token\n     */\n\n    function getReservedTokenId() public view returns (uint256) {\n        return _nextTokenId.current();\n    }\n\n    /**\n     * @dev Creates a new token type and assigns _initialSupply to an address\n     * NOTE: remove onlyOwner if you want third parties to create new tokens on\n     *       your contract (which may change your IDs)\n     * NOTE: The token id must be passed. This allows lazy creation of tokens or\n     *       creating NFTs by setting the id's high bits with the method\n     *       described in ERC1155 or to use ids representing values other than\n     *       successive small integers. If you wish to create ids as successive\n     *       small integers you can either subclass this class to count onchain\n     *       or maintain the offchain cache of identifiers recommended in\n     *       ERC1155 and calculate successive ids from that.\n     * @param _initialOwner address of the first owner of the token\n     * @param _initialSupply amount to supply the first owner\n     * @param _uri Optional URI for this token type\n     * @param _data Data to pass if receiver is contract\n     * @return The newly created token ID\n     */\n    function create(\n        address _initialOwner,\n        uint256 _initialSupply,\n        string memory _uri,\n        bytes memory _data\n    ) public onlyOwner returns (uint256) {\n        uint256 _id = _nextTokenId.current();\n        _nextTokenId.increment();\n\n        require(!_exists(_id));\n\n        uint256 [] memory ids = new uint256[](1);\n        ids[0] = _id;\n        setCreator(_initialOwner, ids);\n\n        if (bytes(_uri).length > 0) {\n            customUri[_id] = _uri;\n            emit URI(_uri, _id);\n        }\n\n        _mint(_initialOwner, _id, _initialSupply, _data);\n        return _id;\n    }\n\n    /**\n     * @dev Mints some amount of tokens to an address\n     * @param _to          Address of the future owner of the token\n     * @param _id          Token ID to mint\n     * @param _quantity    Amount of tokens to mint\n     * @param _data        Data to pass if receiver is contract\n     */\n    function mint(\n        address _to,\n        uint256 _id,\n        uint256 _quantity,\n        bytes memory _data\n    ) public virtual onlyOwner {\n        require(creators[_id] == _to);\n\n        _mint(_to, _id, _quantity, _data);\n    }\n\n    /**\n     * @dev Mint tokens for each id in _ids\n     * @param _to          The address to mint tokens to\n     * @param _ids         Array of ids to mint\n     * @param _quantities  Array of amounts of tokens to mint per id\n     * @param _data        Data to pass if receiver is contract\n     */\n    function batchMint(\n        address _to,\n        uint256[] memory _ids,\n        uint256[] memory _quantities,\n        bytes memory _data\n    ) public onlyOwner {\n        for (uint256 i = 0; i < _ids.length; i++) {\n            uint256 _id = _ids[i];\n            require(creators[_id] == _to);\n        }\n        _mintBatch(_to, _ids, _quantities, _data);\n    }\n\n    /**\n     * @dev Change the creator address for given tokens\n     * @param _to   Address of the new creator\n     * @param _ids  Array of Token IDs to change creator\n     */\n    function setCreator(address _to, uint256[] memory _ids) public onlyOwner {\n        require(_to != address(0));\n\n        for (uint256 i = 0; i < _ids.length; i++) {\n            uint256 id = _ids[i];\n            _setCreator(_to, id);\n        }\n    }\n\n    /**\n     * @dev Change the creator address for given token\n     * @param _to   Address of the new creator\n     * @param _id  Token IDs to change creator of\n     */\n    function _setCreator(address _to, uint256 _id) internal {\n        creators[_id] = _to;\n        emit CreatorSet(_to, _id);\n    }\n\n    /**\n     * @dev Change the creator address for given token\n     * @param _id - token index\n     */\n    function getCreator(uint256 _id) public view returns(address) {\n        return creators[_id];\n    }\n\n    /**\n     * @dev Returns whether the specified token exists by checking to see if it has a creator\n     * @param _id uint256 ID of the token to query the existence of\n     * @return bool whether the token exists\n     */\n    function _exists(uint256 _id) internal view returns (bool) {\n        return creators[_id] != address(0);\n    }\n\n    function exists(uint256 _id) external view returns (bool) {\n        return _exists(_id);\n    }\n\n    /**\n     * This is used instead of msg.sender as transactions won't be sent by the original token owner, but by OpenSea.\n     */\n    function _msgSender() internal view override returns (address sender) {\n        return ContextMixin.msgSender();\n    }\n\n    /**\n     * @dev Hook that is called before any token transfer. This includes minting\n     * and burning, as well as batched variants.\n     *\n     * The same hook is called on both single and batched variants. For single\n     * transfers, the length of the `id` and `amount` arrays will be 1.\n     *\n     * Calling conditions (for each `id` and `amount` pair):\n     *\n     * - When `from` and `to` are both non-zero, `amount` of ``from``'s tokens\n     * of token type `id` will be  transferred to `to`.\n     * - When `from` is zero, `amount` tokens of token type `id` will be minted\n     * for `to`.\n     * - when `to` is zero, `amount` of ``from``'s tokens of token type `id`\n     * will be burned.\n     * - `from` and `to` are never both zero.\n     * - `ids` and `amounts` have the same, non-zero length.\n     *\n     * To learn more about hooks, head to xref:ROOT:extending-contracts.adoc#using-hooks[Using Hooks].\n     */\n    function _beforeTokenTransfer(\n        address,\n        address from,\n        address to,\n        uint256[] memory ids,\n        uint256[] memory amounts,\n        bytes memory\n    ) internal override {\n        uint256 i;\n        for (i = 0; i < ids.length; i++) {\n            uint256 tokenId = ids[i];\n            uint256 amount = amounts[i];\n\n            if (to == address(0)) {\n                // burn from owner\n                if (balanceOf(from, tokenId) == amount) {\n                    holderCount[tokenId].decrement();\n                }\n\n                // if (tokenSupply[tokenId] == amount) {\n                //     creators[tokenId] = address(0);\n                // }\n\n                tokenSupply[tokenId] = tokenSupply[tokenId].sub(\n                    amount,\n                    \"tokenSupply insufficient\"\n                );\n            } else if (from == address(0)) {\n                // mint to a new owner\n                if (balanceOf(to, tokenId) == 0) {\n                    holderCount[tokenId].increment();\n                }\n                tokenSupply[tokenId] = tokenSupply[tokenId].add(amount);\n            } else {\n                if (from != to) {\n                    if (balanceOf(from, tokenId) == amount) {\n                        holderCount[tokenId].decrement();\n                    }\n\n                    if (balanceOf(to, tokenId) == 0) {\n                        holderCount[tokenId].increment();\n                    }\n                }\n            }\n        }\n    }\n\n    function isApprovedForAll(address account, address operator)\n        public\n        view\n        virtual\n        override\n        returns (bool)\n    {\n        if (factory == operator) {\n            return true;\n        }\n\n        return super.isApprovedForAll(account, operator);\n    }\n\n    /**\n     * @dev Destroys `amount` tokens of token type `id` from `from`\n     *\n     * Requirements:\n     *\n     * - `from` cannot be the zero address.\n     * - `from` must have at least `amount` tokens of token type `id`.\n     */\n    function burn(\n        address from,\n        uint256 id,\n        uint256 amount\n    ) public onlyOwner {\n        _burn(from, id, amount);\n    }\n\n    /**\n     * @dev xref:ROOT:erc1155.adoc#batch-operations[Batched] version of {_burn}.\n     *\n     * Requirements:\n     *\n     * - `ids` and `amounts` must have the same length.\n     */\n    function batchBurn(\n        address from,\n        uint256[] memory ids,\n        uint256[] memory amounts\n    ) public onlyOwner {\n        _burnBatch(from, ids, amounts);\n    }\n\n    /**\n     * set factory contract address if an owner\n     */\n    function setFactoryContract(address _factory) external onlyOwner {\n        require(factory != _factory);\n\n        factory = _factory;\n        emit SetFactoryContract(factory);\n    }\n}\n",
  "sourcePath": "E:\\MyGitHub\\HyperXNFT-contracts\\contracts\\ERC1155Tradable.sol",
  "compiler": {
    "name": "solc",
    "version": "0.8.11+commit.d7f03943.Emscripten.clang"
  },
  "schemaVersion": "3.4.4",
  "updatedAt": "2022-01-28T14:31:35.748Z",
  "devdoc": {
    "kind": "dev",
    "methods": {
      "balanceOf(address,uint256)": {
        "details": "See {IERC1155-balanceOf}. Requirements: - `account` cannot be the zero address."
      },
      "balanceOfBatch(address[],uint256[])": {
        "details": "See {IERC1155-balanceOfBatch}. Requirements: - `accounts` and `ids` must have the same length."
      },
      "batchBurn(address,uint256[],uint256[])": {
        "details": "xref:ROOT:erc1155.adoc#batch-operations[Batched] version of {_burn}. Requirements: - `ids` and `amounts` must have the same length."
      },
      "batchMint(address,uint256[],uint256[],bytes)": {
        "details": "Mint tokens for each id in _ids",
        "params": {
          "_data": "Data to pass if receiver is contract",
          "_ids": "Array of ids to mint",
          "_quantities": "Array of amounts of tokens to mint per id",
          "_to": "The address to mint tokens to"
        }
      },
      "burn(address,uint256,uint256)": {
        "details": "Destroys `amount` tokens of token type `id` from `from` Requirements: - `from` cannot be the zero address. - `from` must have at least `amount` tokens of token type `id`."
      },
      "create(address,uint256,string,bytes)": {
        "details": "Creates a new token type and assigns _initialSupply to an address NOTE: remove onlyOwner if you want third parties to create new tokens on       your contract (which may change your IDs) NOTE: The token id must be passed. This allows lazy creation of tokens or       creating NFTs by setting the id's high bits with the method       described in ERC1155 or to use ids representing values other than       successive small integers. If you wish to create ids as successive       small integers you can either subclass this class to count onchain       or maintain the offchain cache of identifiers recommended in       ERC1155 and calculate successive ids from that.",
        "params": {
          "_data": "Data to pass if receiver is contract",
          "_initialOwner": "address of the first owner of the token",
          "_initialSupply": "amount to supply the first owner",
          "_uri": "Optional URI for this token type"
        },
        "returns": {
          "_0": "The newly created token ID"
        }
      },
      "getCreator(uint256)": {
        "details": "Change the creator address for given token",
        "params": {
          "_id": "- token index"
        }
      },
      "getReservedTokenId()": {
        "details": "returns the token id to be minted as a new token"
      },
      "holders(uint256)": {
        "details": "Returns the count of holders for a token ID",
        "params": {
          "_id": "uint256 ID of the token to query"
        },
        "returns": {
          "_0": "count of token holders"
        }
      },
      "isApprovedForAll(address,address)": {
        "details": "See {IERC1155-isApprovedForAll}."
      },
      "mint(address,uint256,uint256,bytes)": {
        "details": "Mints some amount of tokens to an address",
        "params": {
          "_data": "Data to pass if receiver is contract",
          "_id": "Token ID to mint",
          "_quantity": "Amount of tokens to mint",
          "_to": "Address of the future owner of the token"
        }
      },
      "owner()": {
        "details": "Returns the address of the current owner."
      },
      "renounceOwnership()": {
        "details": "Leaves the contract without owner. It will not be possible to call `onlyOwner` functions anymore. Can only be called by the current owner. NOTE: Renouncing ownership will leave the contract without an owner, thereby removing any functionality that is only available to the owner."
      },
      "safeBatchTransferFrom(address,address,uint256[],uint256[],bytes)": {
        "details": "See {IERC1155-safeBatchTransferFrom}."
      },
      "safeTransferFrom(address,address,uint256,uint256,bytes)": {
        "details": "See {IERC1155-safeTransferFrom}."
      },
      "setApprovalForAll(address,bool)": {
        "details": "See {IERC1155-setApprovalForAll}."
      },
      "setCreator(address,uint256[])": {
        "details": "Change the creator address for given tokens",
        "params": {
          "_ids": "Array of Token IDs to change creator",
          "_to": "Address of the new creator"
        }
      },
      "setCustomURI(address,uint256,string)": {
        "details": "Will update the base URI for the token",
        "params": {
          "_newURI": "New URI for the token.",
          "_tokenId": "The token to update. _msgSender() must be its creator."
        }
      },
      "setURI(string)": {
        "details": "Sets a new URI for all token types, by relying on the token type ID substitution mechanism https://eips.ethereum.org/EIPS/eip-1155#metadata[defined in the EIP].",
        "params": {
          "_newURI": "New URI for all tokens"
        }
      },
      "supportsInterface(bytes4)": {
        "details": "See {IERC165-supportsInterface}."
      },
      "totalSupply(uint256)": {
        "details": "Returns the total quantity for a token ID",
        "params": {
          "_id": "uint256 ID of the token to query"
        },
        "returns": {
          "_0": "amount of token in existence"
        }
      },
      "transferOwnership(address)": {
        "details": "Transfers ownership of the contract to a new account (`newOwner`). Can only be called by the current owner."
      }
    },
    "title": "ERC1155Tradable ERC1155Tradable - ERC1155 contract that whitelists an operator address, has create and mint functionality, and supports useful standards from OpenZeppelin, like _exists(), name(), symbol(), and totalSupply()",
    "version": 1
  },
  "userdoc": {
    "kind": "user",
    "methods": {
      "setFactoryContract(address)": {
        "notice": "set factory contract address if an owner"
      }
    },
    "version": 1
  }
}