{
  "contractName": "ERC721Tradable",
  "abi": [
    {
      "inputs": [
        {
          "internalType": "string",
          "name": "_name",
          "type": "string"
        },
        {
          "internalType": "string",
          "name": "_symbol",
          "type": "string"
        },
        {
          "internalType": "string",
          "name": "__baseURI",
          "type": "string"
        },
        {
          "internalType": "address",
          "name": "_factory",
          "type": "address"
        }
      ],
      "stateMutability": "nonpayable",
      "type": "constructor"
    },
    {
      "anonymous": false,
      "inputs": [
        {
          "indexed": true,
          "internalType": "address",
          "name": "owner",
          "type": "address"
        },
        {
          "indexed": true,
          "internalType": "address",
          "name": "approved",
          "type": "address"
        },
        {
          "indexed": true,
          "internalType": "uint256",
          "name": "tokenId",
          "type": "uint256"
        }
      ],
      "name": "Approval",
      "type": "event"
    },
    {
      "anonymous": false,
      "inputs": [
        {
          "indexed": true,
          "internalType": "address",
          "name": "owner",
          "type": "address"
        },
        {
          "indexed": true,
          "internalType": "address",
          "name": "operator",
          "type": "address"
        },
        {
          "indexed": false,
          "internalType": "bool",
          "name": "approved",
          "type": "bool"
        }
      ],
      "name": "ApprovalForAll",
      "type": "event"
    },
    {
      "anonymous": false,
      "inputs": [
        {
          "indexed": true,
          "internalType": "address",
          "name": "account",
          "type": "address"
        },
        {
          "indexed": false,
          "internalType": "uint256",
          "name": "tokenId",
          "type": "uint256"
        }
      ],
      "name": "CreatorSet",
      "type": "event"
    },
    {
      "anonymous": false,
      "inputs": [
        {
          "indexed": false,
          "internalType": "address",
          "name": "userAddress",
          "type": "address"
        },
        {
          "indexed": false,
          "internalType": "address payable",
          "name": "relayerAddress",
          "type": "address"
        },
        {
          "indexed": false,
          "internalType": "bytes",
          "name": "functionSignature",
          "type": "bytes"
        }
      ],
      "name": "MetaTransactionExecuted",
      "type": "event"
    },
    {
      "anonymous": false,
      "inputs": [
        {
          "indexed": true,
          "internalType": "address",
          "name": "previousOwner",
          "type": "address"
        },
        {
          "indexed": true,
          "internalType": "address",
          "name": "newOwner",
          "type": "address"
        }
      ],
      "name": "OwnershipTransferred",
      "type": "event"
    },
    {
      "anonymous": false,
      "inputs": [
        {
          "indexed": true,
          "internalType": "address",
          "name": "_factory",
          "type": "address"
        }
      ],
      "name": "SetFactoryContract",
      "type": "event"
    },
    {
      "anonymous": false,
      "inputs": [
        {
          "indexed": true,
          "internalType": "address",
          "name": "from",
          "type": "address"
        },
        {
          "indexed": true,
          "internalType": "address",
          "name": "to",
          "type": "address"
        },
        {
          "indexed": true,
          "internalType": "uint256",
          "name": "tokenId",
          "type": "uint256"
        }
      ],
      "name": "Transfer",
      "type": "event"
    },
    {
      "inputs": [],
      "name": "ERC712_VERSION",
      "outputs": [
        {
          "internalType": "string",
          "name": "",
          "type": "string"
        }
      ],
      "stateMutability": "view",
      "type": "function"
    },
    {
      "inputs": [
        {
          "internalType": "address",
          "name": "to",
          "type": "address"
        },
        {
          "internalType": "uint256",
          "name": "tokenId",
          "type": "uint256"
        }
      ],
      "name": "approve",
      "outputs": [],
      "stateMutability": "nonpayable",
      "type": "function"
    },
    {
      "inputs": [
        {
          "internalType": "address",
          "name": "owner",
          "type": "address"
        }
      ],
      "name": "balanceOf",
      "outputs": [
        {
          "internalType": "uint256",
          "name": "",
          "type": "uint256"
        }
      ],
      "stateMutability": "view",
      "type": "function"
    },
    {
      "inputs": [
        {
          "internalType": "address",
          "name": "userAddress",
          "type": "address"
        },
        {
          "internalType": "bytes",
          "name": "functionSignature",
          "type": "bytes"
        },
        {
          "internalType": "bytes32",
          "name": "sigR",
          "type": "bytes32"
        },
        {
          "internalType": "bytes32",
          "name": "sigS",
          "type": "bytes32"
        },
        {
          "internalType": "uint8",
          "name": "sigV",
          "type": "uint8"
        }
      ],
      "name": "executeMetaTransaction",
      "outputs": [
        {
          "internalType": "bytes",
          "name": "",
          "type": "bytes"
        }
      ],
      "stateMutability": "payable",
      "type": "function"
    },
    {
      "inputs": [],
      "name": "factory",
      "outputs": [
        {
          "internalType": "address",
          "name": "",
          "type": "address"
        }
      ],
      "stateMutability": "view",
      "type": "function"
    },
    {
      "inputs": [
        {
          "internalType": "uint256",
          "name": "tokenId",
          "type": "uint256"
        }
      ],
      "name": "getApproved",
      "outputs": [
        {
          "internalType": "address",
          "name": "",
          "type": "address"
        }
      ],
      "stateMutability": "view",
      "type": "function"
    },
    {
      "inputs": [],
      "name": "getChainId",
      "outputs": [
        {
          "internalType": "uint256",
          "name": "",
          "type": "uint256"
        }
      ],
      "stateMutability": "view",
      "type": "function"
    },
    {
      "inputs": [],
      "name": "getDomainSeperator",
      "outputs": [
        {
          "internalType": "bytes32",
          "name": "",
          "type": "bytes32"
        }
      ],
      "stateMutability": "view",
      "type": "function"
    },
    {
      "inputs": [
        {
          "internalType": "address",
          "name": "user",
          "type": "address"
        }
      ],
      "name": "getNonce",
      "outputs": [
        {
          "internalType": "uint256",
          "name": "nonce",
          "type": "uint256"
        }
      ],
      "stateMutability": "view",
      "type": "function"
    },
    {
      "inputs": [],
      "name": "name",
      "outputs": [
        {
          "internalType": "string",
          "name": "",
          "type": "string"
        }
      ],
      "stateMutability": "view",
      "type": "function"
    },
    {
      "inputs": [],
      "name": "owner",
      "outputs": [
        {
          "internalType": "address",
          "name": "",
          "type": "address"
        }
      ],
      "stateMutability": "view",
      "type": "function"
    },
    {
      "inputs": [
        {
          "internalType": "uint256",
          "name": "tokenId",
          "type": "uint256"
        }
      ],
      "name": "ownerOf",
      "outputs": [
        {
          "internalType": "address",
          "name": "",
          "type": "address"
        }
      ],
      "stateMutability": "view",
      "type": "function"
    },
    {
      "inputs": [],
      "name": "renounceOwnership",
      "outputs": [],
      "stateMutability": "nonpayable",
      "type": "function"
    },
    {
      "inputs": [
        {
          "internalType": "address",
          "name": "from",
          "type": "address"
        },
        {
          "internalType": "address",
          "name": "to",
          "type": "address"
        },
        {
          "internalType": "uint256",
          "name": "tokenId",
          "type": "uint256"
        }
      ],
      "name": "safeTransferFrom",
      "outputs": [],
      "stateMutability": "nonpayable",
      "type": "function"
    },
    {
      "inputs": [
        {
          "internalType": "address",
          "name": "from",
          "type": "address"
        },
        {
          "internalType": "address",
          "name": "to",
          "type": "address"
        },
        {
          "internalType": "uint256",
          "name": "tokenId",
          "type": "uint256"
        },
        {
          "internalType": "bytes",
          "name": "_data",
          "type": "bytes"
        }
      ],
      "name": "safeTransferFrom",
      "outputs": [],
      "stateMutability": "nonpayable",
      "type": "function"
    },
    {
      "inputs": [
        {
          "internalType": "address",
          "name": "operator",
          "type": "address"
        },
        {
          "internalType": "bool",
          "name": "approved",
          "type": "bool"
        }
      ],
      "name": "setApprovalForAll",
      "outputs": [],
      "stateMutability": "nonpayable",
      "type": "function"
    },
    {
      "inputs": [
        {
          "internalType": "bytes4",
          "name": "interfaceId",
          "type": "bytes4"
        }
      ],
      "name": "supportsInterface",
      "outputs": [
        {
          "internalType": "bool",
          "name": "",
          "type": "bool"
        }
      ],
      "stateMutability": "view",
      "type": "function"
    },
    {
      "inputs": [],
      "name": "symbol",
      "outputs": [
        {
          "internalType": "string",
          "name": "",
          "type": "string"
        }
      ],
      "stateMutability": "view",
      "type": "function"
    },
    {
      "inputs": [
        {
          "internalType": "address",
          "name": "from",
          "type": "address"
        },
        {
          "internalType": "address",
          "name": "to",
          "type": "address"
        },
        {
          "internalType": "uint256",
          "name": "tokenId",
          "type": "uint256"
        }
      ],
      "name": "transferFrom",
      "outputs": [],
      "stateMutability": "nonpayable",
      "type": "function"
    },
    {
      "inputs": [
        {
          "internalType": "address",
          "name": "newOwner",
          "type": "address"
        }
      ],
      "name": "transferOwnership",
      "outputs": [],
      "stateMutability": "nonpayable",
      "type": "function"
    },
    {
      "inputs": [
        {
          "internalType": "address",
          "name": "_to",
          "type": "address"
        },
        {
          "internalType": "string",
          "name": "uri",
          "type": "string"
        }
      ],
      "name": "mintTo",
      "outputs": [],
      "stateMutability": "nonpayable",
      "type": "function"
    },
    {
      "inputs": [
        {
          "internalType": "uint256",
          "name": "_tokenId",
          "type": "uint256"
        }
      ],
      "name": "burn",
      "outputs": [],
      "stateMutability": "nonpayable",
      "type": "function"
    },
    {
      "inputs": [
        {
          "internalType": "address",
          "name": "_to",
          "type": "address"
        },
        {
          "internalType": "uint256",
          "name": "_id",
          "type": "uint256"
        }
      ],
      "name": "setCreator",
      "outputs": [],
      "stateMutability": "nonpayable",
      "type": "function"
    },
    {
      "inputs": [
        {
          "internalType": "uint256",
          "name": "_id",
          "type": "uint256"
        }
      ],
      "name": "getCreator",
      "outputs": [
        {
          "internalType": "address",
          "name": "",
          "type": "address"
        }
      ],
      "stateMutability": "view",
      "type": "function"
    },
    {
      "inputs": [],
      "name": "totalSupply",
      "outputs": [
        {
          "internalType": "uint256",
          "name": "",
          "type": "uint256"
        }
      ],
      "stateMutability": "view",
      "type": "function"
    },
    {
      "inputs": [],
      "name": "totalHolders",
      "outputs": [
        {
          "internalType": "uint256",
          "name": "",
          "type": "uint256"
        }
      ],
      "stateMutability": "view",
      "type": "function"
    },
    {
      "inputs": [
        {
          "internalType": "uint256",
          "name": "_tokenId",
          "type": "uint256"
        }
      ],
      "name": "tokenURI",
      "outputs": [
        {
          "internalType": "string",
          "name": "",
          "type": "string"
        }
      ],
      "stateMutability": "view",
      "type": "function"
    },
    {
      "inputs": [
        {
          "internalType": "uint256",
          "name": "_tokenId",
          "type": "uint256"
        }
      ],
      "name": "hasBurnt",
      "outputs": [
        {
          "internalType": "bool",
          "name": "",
          "type": "bool"
        }
      ],
      "stateMutability": "view",
      "type": "function"
    },
    {
      "inputs": [],
      "name": "getReservedTokenId",
      "outputs": [
        {
          "internalType": "uint256",
          "name": "",
          "type": "uint256"
        }
      ],
      "stateMutability": "view",
      "type": "function"
    },
    {
      "inputs": [
        {
          "internalType": "address",
          "name": "owner",
          "type": "address"
        },
        {
          "internalType": "address",
          "name": "operator",
          "type": "address"
        }
      ],
      "name": "isApprovedForAll",
      "outputs": [
        {
          "internalType": "bool",
          "name": "",
          "type": "bool"
        }
      ],
      "stateMutability": "view",
      "type": "function"
    },
    {
      "inputs": [
        {
          "internalType": "address",
          "name": "_factory",
          "type": "address"
        }
      ],
      "name": "setFactoryContract",
      "outputs": [],
      "stateMutability": "nonpayable",
      "type": "function"
    }
  ],
  "bytecode": "0x60806040526000600660006101000a81548160ff0219169083151502179055503480156200002c57600080fd5b5060405162004f7c38038062004f7c8339818101604052810190620000529190620006fd565b838381600090805190602001906200006c9291906200044b565b508060019080519060200190620000859291906200044b565b505050620000a86200009c6200016260201b60201c565b6200017e60201b60201c565b620000bf600a6200024460201b620018901760201c565b620000d6600d6200024460201b620018901760201c565b620000ed600e6200024460201b620018901760201c565b620000fe846200025a60201b60201c565b8160109080519060200190620001169291906200044b565b5080600f60006101000a81548173ffffffffffffffffffffffffffffffffffffffff021916908373ffffffffffffffffffffffffffffffffffffffff160217905550505050506200093d565b600062000179620002dc60201b620018a61760201c565b905090565b6000600960009054906101000a900473ffffffffffffffffffffffffffffffffffffffff16905081600960006101000a81548173ffffffffffffffffffffffffffffffffffffffff021916908373ffffffffffffffffffffffffffffffffffffffff1602179055508173ffffffffffffffffffffffffffffffffffffffff168173ffffffffffffffffffffffffffffffffffffffff167f8be0079c531659141344cd1fd0a4f28419497f9722a3daafe3b4186f6b6457e060405160405180910390a35050565b6001816000016000828254019250508190555050565b600660009054906101000a900460ff1615620002ad576040517f08c379a0000000000000000000000000000000000000000000000000000000008152600401620002a4906200082d565b60405180910390fd5b620002be816200038f60201b60201c565b6001600660006101000a81548160ff02191690831515021790555050565b60003073ffffffffffffffffffffffffffffffffffffffff163373ffffffffffffffffffffffffffffffffffffffff1614156200038857600080368080601f016020809104026020016040519081016040528093929190818152602001838380828437600081840152601f19601f820116905080830192505050505050509050600080369050905073ffffffffffffffffffffffffffffffffffffffff8183015116925050506200038c565b3390505b90565b6040518060800160405280604f815260200162004f2d604f91398051906020012081805190602001206040518060400160405280600181526020017f31000000000000000000000000000000000000000000000000000000000000008152508051906020012030620004066200043e60201b60201c565b60001b6040516020016200041f9594939291906200087b565b6040516020818303038152906040528051906020012060078190555050565b6000804690508091505090565b828054620004599062000907565b90600052602060002090601f0160209004810192826200047d5760008555620004c9565b82601f106200049857805160ff1916838001178555620004c9565b82800160010185558215620004c9579182015b82811115620004c8578251825591602001919060010190620004ab565b5b509050620004d89190620004dc565b5090565b5b80821115620004f7576000816000905550600101620004dd565b5090565b6000604051905090565b600080fd5b600080fd5b600080fd5b600080fd5b6000601f19601f8301169050919050565b7f4e487b7100000000000000000000000000000000000000000000000000000000600052604160045260246000fd5b620005648262000519565b810181811067ffffffffffffffff821117156200058657620005856200052a565b5b80604052505050565b60006200059b620004fb565b9050620005a9828262000559565b919050565b600067ffffffffffffffff821115620005cc57620005cb6200052a565b5b620005d78262000519565b9050602081019050919050565b60005b8381101562000604578082015181840152602081019050620005e7565b8381111562000614576000848401525b50505050565b6000620006316200062b84620005ae565b6200058f565b90508281526020810184848401111562000650576200064f62000514565b5b6200065d848285620005e4565b509392505050565b600082601f8301126200067d576200067c6200050f565b5b81516200068f8482602086016200061a565b91505092915050565b600073ffffffffffffffffffffffffffffffffffffffff82169050919050565b6000620006c58262000698565b9050919050565b620006d781620006b8565b8114620006e357600080fd5b50565b600081519050620006f781620006cc565b92915050565b600080600080608085870312156200071a576200071962000505565b5b600085015167ffffffffffffffff8111156200073b576200073a6200050a565b5b620007498782880162000665565b945050602085015167ffffffffffffffff8111156200076d576200076c6200050a565b5b6200077b8782880162000665565b935050604085015167ffffffffffffffff8111156200079f576200079e6200050a565b5b620007ad8782880162000665565b9250506060620007c087828801620006e6565b91505092959194509250565b600082825260208201905092915050565b7f616c726561647920696e69746564000000000000000000000000000000000000600082015250565b600062000815600e83620007cc565b91506200082282620007dd565b602082019050919050565b60006020820190508181036000830152620008488162000806565b9050919050565b6000819050919050565b62000864816200084f565b82525050565b6200087581620006b8565b82525050565b600060a08201905062000892600083018862000859565b620008a1602083018762000859565b620008b0604083018662000859565b620008bf60608301856200086a565b620008ce608083018462000859565b9695505050505050565b7f4e487b7100000000000000000000000000000000000000000000000000000000600052602260045260246000fd5b600060028204905060018216806200092057607f821691505b60208210811415620009375762000936620008d8565b5b50919050565b6145e0806200094d6000396000f3fe6080604052600436106101d75760003560e01c80636352211e11610102578063c45a015511610095578063d48e638a11610064578063d48e638a146106c2578063e985e9c5146106ff578063f2fde38b1461073c578063f5b3beb714610765576101d7565b8063c45a015514610608578063c87b56dd14610633578063c8cb8a7514610670578063d424134114610699576101d7565b806395d89b41116100d157806395d89b411461054e578063a22cb46514610579578063b88d4fde146105a2578063b8fc7498146105cb576101d7565b80636352211e1461049257806370a08231146104cf578063715018a61461050c5780638da5cb5b14610523576101d7565b806318160ddd1161017a5780633408e470116101495780633408e470146103ea57806342842e0e1461041557806342966c681461043e57806353d74fdf14610467576101d7565b806318160ddd1461032e57806320379ee51461035957806323b872dd146103845780632d0335ab146103ad576101d7565b8063081812fc116101b6578063081812fc1461026d578063095ea7b3146102aa5780630c53c51c146102d35780630f7e597014610303576101d7565b806275a317146101dc57806301ffc9a71461020557806306fdde0314610242575b600080fd5b3480156101e857600080fd5b5061020360048036038101906101fe9190612ec4565b610790565b005b34801561021157600080fd5b5061022c60048036038101906102279190612f78565b61086f565b6040516102399190612fc0565b60405180910390f35b34801561024e57600080fd5b50610257610951565b6040516102649190613063565b60405180910390f35b34801561027957600080fd5b50610294600480360381019061028f91906130bb565b6109e3565b6040516102a191906130f7565b60405180910390f35b3480156102b657600080fd5b506102d160048036038101906102cc9190613112565b610a68565b005b6102ed60048036038101906102e89190613262565b610b80565b6040516102fa919061334e565b60405180910390f35b34801561030f57600080fd5b50610318610df2565b6040516103259190613063565b60405180910390f35b34801561033a57600080fd5b50610343610e2b565b604051610350919061337f565b60405180910390f35b34801561036557600080fd5b5061036e610e48565b60405161037b91906133a9565b60405180910390f35b34801561039057600080fd5b506103ab60048036038101906103a691906133c4565b610e52565b005b3480156103b957600080fd5b506103d460048036038101906103cf9190613417565b610eb2565b6040516103e1919061337f565b60405180910390f35b3480156103f657600080fd5b506103ff610efb565b60405161040c919061337f565b60405180910390f35b34801561042157600080fd5b5061043c600480360381019061043791906133c4565b610f08565b005b34801561044a57600080fd5b50610465600480360381019061046091906130bb565b610f28565b005b34801561047357600080fd5b5061047c610fb0565b604051610489919061337f565b60405180910390f35b34801561049e57600080fd5b506104b960048036038101906104b491906130bb565b610fcd565b6040516104c691906130f7565b60405180910390f35b3480156104db57600080fd5b506104f660048036038101906104f19190613417565b61107f565b604051610503919061337f565b60405180910390f35b34801561051857600080fd5b50610521611137565b005b34801561052f57600080fd5b506105386111bf565b60405161054591906130f7565b60405180910390f35b34801561055a57600080fd5b506105636111e9565b6040516105709190613063565b60405180910390f35b34801561058557600080fd5b506105a0600480360381019061059b9190613470565b61127b565b005b3480156105ae57600080fd5b506105c960048036038101906105c491906134b0565b611291565b005b3480156105d757600080fd5b506105f260048036038101906105ed91906130bb565b6112f3565b6040516105ff9190612fc0565b60405180910390f35b34801561061457600080fd5b5061061d611320565b60405161062a91906130f7565b60405180910390f35b34801561063f57600080fd5b5061065a600480360381019061065591906130bb565b611346565b6040516106679190613063565b60405180910390f35b34801561067c57600080fd5b5061069760048036038101906106929190613112565b611436565b005b3480156106a557600080fd5b506106c060048036038101906106bb9190613417565b611556565b005b3480156106ce57600080fd5b506106e960048036038101906106e491906130bb565b6116d6565b6040516106f691906130f7565b60405180910390f35b34801561070b57600080fd5b5061072660048036038101906107219190613533565b611713565b6040516107339190612fc0565b60405180910390f35b34801561074857600080fd5b50610763600480360381019061075e9190613417565b611787565b005b34801561077157600080fd5b5061077a61187f565b604051610787919061337f565b60405180910390f35b610798611957565b73ffffffffffffffffffffffffffffffffffffffff166107b66111bf565b73ffffffffffffffffffffffffffffffffffffffff161461080c576040517f08c379a0000000000000000000000000000000000000000000000000000000008152600401610803906135bf565b60405180910390fd5b6000610818600a611966565b9050600082511461084c5781600c6000838152602001908152602001600020908051906020019061084a929190612c69565b505b6108568382611436565b610860600a611890565b61086a8382611974565b505050565b60007f80ac58cd000000000000000000000000000000000000000000000000000000007bffffffffffffffffffffffffffffffffffffffffffffffffffffffff1916827bffffffffffffffffffffffffffffffffffffffffffffffffffffffff1916148061093a57507f5b5e139f000000000000000000000000000000000000000000000000000000007bffffffffffffffffffffffffffffffffffffffffffffffffffffffff1916827bffffffffffffffffffffffffffffffffffffffffffffffffffffffff1916145b8061094a575061094982611992565b5b9050919050565b6060600080546109609061360e565b80601f016020809104026020016040519081016040528092919081815260200182805461098c9061360e565b80156109d95780601f106109ae576101008083540402835291602001916109d9565b820191906000526020600020905b8154815290600101906020018083116109bc57829003601f168201915b5050505050905090565b60006109ee826119fc565b610a2d576040517f08c379a0000000000000000000000000000000000000000000000000000000008152600401610a24906136b2565b60405180910390fd5b6004600083815260200190815260200160002060009054906101000a900473ffffffffffffffffffffffffffffffffffffffff169050919050565b6000610a7382610fcd565b90508073ffffffffffffffffffffffffffffffffffffffff168373ffffffffffffffffffffffffffffffffffffffff161415610ae4576040517f08c379a0000000000000000000000000000000000000000000000000000000008152600401610adb90613744565b60405180910390fd5b8073ffffffffffffffffffffffffffffffffffffffff16610b03611957565b73ffffffffffffffffffffffffffffffffffffffff161480610b325750610b3181610b2c611957565b611713565b5b610b71576040517f08c379a0000000000000000000000000000000000000000000000000000000008152600401610b68906137d6565b60405180910390fd5b610b7b8383611a68565b505050565b606060006040518060600160405280600860008a73ffffffffffffffffffffffffffffffffffffffff1673ffffffffffffffffffffffffffffffffffffffff1681526020019081526020016000205481526020018873ffffffffffffffffffffffffffffffffffffffff168152602001878152509050610c038782878787611b21565b610c42576040517f08c379a0000000000000000000000000000000000000000000000000000000008152600401610c3990613868565b60405180910390fd5b610c956001600860008a73ffffffffffffffffffffffffffffffffffffffff1673ffffffffffffffffffffffffffffffffffffffff16815260200190815260200160002054611c2a90919063ffffffff16565b600860008973ffffffffffffffffffffffffffffffffffffffff1673ffffffffffffffffffffffffffffffffffffffff168152602001908152602001600020819055507f5845892132946850460bff5a0083f71031bc5bf9aadcd40f1de79423eac9b10b873388604051610d0b939291906138a9565b60405180910390a16000803073ffffffffffffffffffffffffffffffffffffffff16888a604051602001610d4092919061396b565b604051602081830303815290604052604051610d5c9190613993565b6000604051808303816000865af19150503d8060008114610d99576040519150601f19603f3d011682016040523d82523d6000602084013e610d9e565b606091505b509150915081610de3576040517f08c379a0000000000000000000000000000000000000000000000000000000008152600401610dda906139f6565b60405180910390fd5b80935050505095945050505050565b6040518060400160405280600181526020017f310000000000000000000000000000000000000000000000000000000000000081525081565b60006001610e39600e611966565b610e439190613a45565b905090565b6000600754905090565b610e63610e5d611957565b82611c40565b610ea2576040517f08c379a0000000000000000000000000000000000000000000000000000000008152600401610e9990613aeb565b60405180910390fd5b610ead838383611d1e565b505050565b6000600860008373ffffffffffffffffffffffffffffffffffffffff1673ffffffffffffffffffffffffffffffffffffffff168152602001908152602001600020549050919050565b6000804690508091505090565b610f2383838360405180602001604052806000815250611291565b505050565b610f30611957565b73ffffffffffffffffffffffffffffffffffffffff16610f4e6111bf565b73ffffffffffffffffffffffffffffffffffffffff1614610fa4576040517f08c379a0000000000000000000000000000000000000000000000000000000008152600401610f9b906135bf565b60405180910390fd5b610fad81611f7a565b50565b60006001610fbe600d611966565b610fc89190613a45565b905090565b6000806002600084815260200190815260200160002060009054906101000a900473ffffffffffffffffffffffffffffffffffffffff169050600073ffffffffffffffffffffffffffffffffffffffff168173ffffffffffffffffffffffffffffffffffffffff161415611076576040517f08c379a000000000000000000000000000000000000000000000000000000000815260040161106d90613b7d565b60405180910390fd5b80915050919050565b60008073ffffffffffffffffffffffffffffffffffffffff168273ffffffffffffffffffffffffffffffffffffffff1614156110f0576040517f08c379a00000000000000000000000000000000000000000000000000000000081526004016110e790613c0f565b60405180910390fd5b600360008373ffffffffffffffffffffffffffffffffffffffff1673ffffffffffffffffffffffffffffffffffffffff168152602001908152602001600020549050919050565b61113f611957565b73ffffffffffffffffffffffffffffffffffffffff1661115d6111bf565b73ffffffffffffffffffffffffffffffffffffffff16146111b3576040517f08c379a00000000000000000000000000000000000000000000000000000000081526004016111aa906135bf565b60405180910390fd5b6111bd600061208b565b565b6000600960009054906101000a900473ffffffffffffffffffffffffffffffffffffffff16905090565b6060600180546111f89061360e565b80601f01602080910402602001604051908101604052809291908181526020018280546112249061360e565b80156112715780601f1061124657610100808354040283529160200191611271565b820191906000526020600020905b81548152906001019060200180831161125457829003601f168201915b5050505050905090565b61128d611286611957565b8383612151565b5050565b6112a261129c611957565b83611c40565b6112e1576040517f08c379a00000000000000000000000000000000000000000000000000000000081526004016112d890613aeb565b60405180910390fd5b6112ed848484846122be565b50505050565b60006112ff600a611966565b821061130e576000905061131b565b611317826119fc565b1590505b919050565b600f60009054906101000a900473ffffffffffffffffffffffffffffffffffffffff1681565b6060611351826119fc565b61135a57600080fd5b6000600c6000848152602001908152602001600020805461137a9061360e565b9050111561142557600c600083815260200190815260200160002080546113a09061360e565b80601f01602080910402602001604051908101604052809291908181526020018280546113cc9061360e565b80156114195780601f106113ee57610100808354040283529160200191611419565b820191906000526020600020905b8154815290600101906020018083116113fc57829003601f168201915b50505050509050611431565b61142e8261231a565b90505b919050565b61143e611957565b73ffffffffffffffffffffffffffffffffffffffff1661145c6111bf565b73ffffffffffffffffffffffffffffffffffffffff16146114b2576040517f08c379a00000000000000000000000000000000000000000000000000000000081526004016114a9906135bf565b60405180910390fd5b81600b600083815260200190815260200160002060006101000a81548173ffffffffffffffffffffffffffffffffffffffff021916908373ffffffffffffffffffffffffffffffffffffffff1602179055508173ffffffffffffffffffffffffffffffffffffffff167f0f47dbb9b3bdff520f29937fc5df76458f08ebff4402a2fec7d4c9e1ab597ad38260405161154a919061337f565b60405180910390a25050565b61155e611957565b73ffffffffffffffffffffffffffffffffffffffff1661157c6111bf565b73ffffffffffffffffffffffffffffffffffffffff16146115d2576040517f08c379a00000000000000000000000000000000000000000000000000000000081526004016115c9906135bf565b60405180910390fd5b8073ffffffffffffffffffffffffffffffffffffffff16600f60009054906101000a900473ffffffffffffffffffffffffffffffffffffffff1673ffffffffffffffffffffffffffffffffffffffff16141561162d57600080fd5b80600f60006101000a81548173ffffffffffffffffffffffffffffffffffffffff021916908373ffffffffffffffffffffffffffffffffffffffff160217905550600f60009054906101000a900473ffffffffffffffffffffffffffffffffffffffff1673ffffffffffffffffffffffffffffffffffffffff167f20c46533d6b522da2ef138a5ccae7a332bfc757ff25b5fa16c1a8909230f716560405160405180910390a250565b6000600b600083815260200190815260200160002060009054906101000a900473ffffffffffffffffffffffffffffffffffffffff169050919050565b60008173ffffffffffffffffffffffffffffffffffffffff16600f60009054906101000a900473ffffffffffffffffffffffffffffffffffffffff1673ffffffffffffffffffffffffffffffffffffffff1614156117745760019050611781565b61177e83836123c1565b90505b92915050565b61178f611957565b73ffffffffffffffffffffffffffffffffffffffff166117ad6111bf565b73ffffffffffffffffffffffffffffffffffffffff1614611803576040517f08c379a00000000000000000000000000000000000000000000000000000000081526004016117fa906135bf565b60405180910390fd5b600073ffffffffffffffffffffffffffffffffffffffff168173ffffffffffffffffffffffffffffffffffffffff161415611873576040517f08c379a000000000000000000000000000000000000000000000000000000000815260040161186a90613ca1565b60405180910390fd5b61187c8161208b565b50565b600061188b600a611966565b905090565b6001816000016000828254019250508190555050565b60003073ffffffffffffffffffffffffffffffffffffffff163373ffffffffffffffffffffffffffffffffffffffff16141561195057600080368080601f016020809104026020016040519081016040528093929190818152602001838380828437600081840152601f19601f820116905080830192505050505050509050600080369050905073ffffffffffffffffffffffffffffffffffffffff818301511692505050611954565b3390505b90565b60006119616118a6565b905090565b600081600001549050919050565b61198e828260405180602001604052806000815250612455565b5050565b60007f01ffc9a7000000000000000000000000000000000000000000000000000000007bffffffffffffffffffffffffffffffffffffffffffffffffffffffff1916827bffffffffffffffffffffffffffffffffffffffffffffffffffffffff1916149050919050565b60008073ffffffffffffffffffffffffffffffffffffffff166002600084815260200190815260200160002060009054906101000a900473ffffffffffffffffffffffffffffffffffffffff1673ffffffffffffffffffffffffffffffffffffffff1614159050919050565b816004600083815260200190815260200160002060006101000a81548173ffffffffffffffffffffffffffffffffffffffff021916908373ffffffffffffffffffffffffffffffffffffffff160217905550808273ffffffffffffffffffffffffffffffffffffffff16611adb83610fcd565b73ffffffffffffffffffffffffffffffffffffffff167f8c5be1e5ebec7d5bd14f71427d1e84f3dd0314c0f7b2291e5b200ac8c7c3b92560405160405180910390a45050565b60008073ffffffffffffffffffffffffffffffffffffffff168673ffffffffffffffffffffffffffffffffffffffff161415611b92576040517f08c379a0000000000000000000000000000000000000000000000000000000008152600401611b8990613d33565b60405180910390fd5b6001611ba5611ba0876124b0565b612518565b83868660405160008152602001604052604051611bc59493929190613d62565b6020604051602081039080840390855afa158015611be7573d6000803e3d6000fd5b5050506020604051035173ffffffffffffffffffffffffffffffffffffffff168673ffffffffffffffffffffffffffffffffffffffff1614905095945050505050565b60008183611c389190613da7565b905092915050565b6000611c4b826119fc565b611c8a576040517f08c379a0000000000000000000000000000000000000000000000000000000008152600401611c8190613e6f565b60405180910390fd5b6000611c9583610fcd565b90508073ffffffffffffffffffffffffffffffffffffffff168473ffffffffffffffffffffffffffffffffffffffff161480611d0457508373ffffffffffffffffffffffffffffffffffffffff16611cec846109e3565b73ffffffffffffffffffffffffffffffffffffffff16145b80611d155750611d148185611713565b5b91505092915050565b8273ffffffffffffffffffffffffffffffffffffffff16611d3e82610fcd565b73ffffffffffffffffffffffffffffffffffffffff1614611d94576040517f08c379a0000000000000000000000000000000000000000000000000000000008152600401611d8b90613f01565b60405180910390fd5b600073ffffffffffffffffffffffffffffffffffffffff168273ffffffffffffffffffffffffffffffffffffffff161415611e04576040517f08c379a0000000000000000000000000000000000000000000000000000000008152600401611dfb90613f93565b60405180910390fd5b611e0f838383612551565b611e1a600082611a68565b6001600360008573ffffffffffffffffffffffffffffffffffffffff1673ffffffffffffffffffffffffffffffffffffffff1681526020019081526020016000206000828254611e6a9190613a45565b925050819055506001600360008473ffffffffffffffffffffffffffffffffffffffff1673ffffffffffffffffffffffffffffffffffffffff1681526020019081526020016000206000828254611ec19190613da7565b92505081905550816002600083815260200190815260200160002060006101000a81548173ffffffffffffffffffffffffffffffffffffffff021916908373ffffffffffffffffffffffffffffffffffffffff160217905550808273ffffffffffffffffffffffffffffffffffffffff168473ffffffffffffffffffffffffffffffffffffffff167fddf252ad1be2c89b69c2b068fc378daa952ba7f163c4a11628f55a4df523b3ef60405160405180910390a4505050565b6000611f8582610fcd565b9050611f9381600084612551565b611f9e600083611a68565b6001600360008373ffffffffffffffffffffffffffffffffffffffff1673ffffffffffffffffffffffffffffffffffffffff1681526020019081526020016000206000828254611fee9190613a45565b925050819055506002600083815260200190815260200160002060006101000a81549073ffffffffffffffffffffffffffffffffffffffff021916905581600073ffffffffffffffffffffffffffffffffffffffff168273ffffffffffffffffffffffffffffffffffffffff167fddf252ad1be2c89b69c2b068fc378daa952ba7f163c4a11628f55a4df523b3ef60405160405180910390a45050565b6000600960009054906101000a900473ffffffffffffffffffffffffffffffffffffffff16905081600960006101000a81548173ffffffffffffffffffffffffffffffffffffffff021916908373ffffffffffffffffffffffffffffffffffffffff1602179055508173ffffffffffffffffffffffffffffffffffffffff168173ffffffffffffffffffffffffffffffffffffffff167f8be0079c531659141344cd1fd0a4f28419497f9722a3daafe3b4186f6b6457e060405160405180910390a35050565b8173ffffffffffffffffffffffffffffffffffffffff168373ffffffffffffffffffffffffffffffffffffffff1614156121c0576040517f08c379a00000000000000000000000000000000000000000000000000000000081526004016121b790613fff565b60405180910390fd5b80600560008573ffffffffffffffffffffffffffffffffffffffff1673ffffffffffffffffffffffffffffffffffffffff16815260200190815260200160002060008473ffffffffffffffffffffffffffffffffffffffff1673ffffffffffffffffffffffffffffffffffffffff16815260200190815260200160002060006101000a81548160ff0219169083151502179055508173ffffffffffffffffffffffffffffffffffffffff168373ffffffffffffffffffffffffffffffffffffffff167f17307eab39ab6107e8899845ad3d59bd9653f200f220920489ca2b5937696c31836040516122b19190612fc0565b60405180910390a3505050565b6122c9848484611d1e565b6122d5848484846126b1565b612314576040517f08c379a000000000000000000000000000000000000000000000000000000000815260040161230b90614091565b60405180910390fd5b50505050565b6060612325826119fc565b612364576040517f08c379a000000000000000000000000000000000000000000000000000000000815260040161235b90614123565b60405180910390fd5b600061236e612839565b9050600081511161238e57604051806020016040528060008152506123b9565b80612398846128cb565b6040516020016123a992919061417f565b6040516020818303038152906040525b915050919050565b6000600560008473ffffffffffffffffffffffffffffffffffffffff1673ffffffffffffffffffffffffffffffffffffffff16815260200190815260200160002060008373ffffffffffffffffffffffffffffffffffffffff1673ffffffffffffffffffffffffffffffffffffffff16815260200190815260200160002060009054906101000a900460ff16905092915050565b61245f8383612a2c565b61246c60008484846126b1565b6124ab576040517f08c379a00000000000000000000000000000000000000000000000000000000081526004016124a290614091565b60405180910390fd5b505050565b60006040518060800160405280604381526020016145686043913980519060200120826000015183602001518460400151805190602001206040516020016124fb94939291906141a3565b604051602081830303815290604052805190602001209050919050565b6000612522610e48565b82604051602001612534929190614255565b604051602081830303815290604052805190602001209050919050565b600073ffffffffffffffffffffffffffffffffffffffff168273ffffffffffffffffffffffffffffffffffffffff1614156125de5760016125918461107f565b14156125a2576125a1600d612bfa565b5b60405180602001604052806000815250600c600083815260200190815260200160002090805190602001906125d8929190612c69565b506126ac565b600073ffffffffffffffffffffffffffffffffffffffff168373ffffffffffffffffffffffffffffffffffffffff16141561263e57600061261e8361107f565b141561262f5761262e600d611890565b5b612639600e611890565b6126ab565b8173ffffffffffffffffffffffffffffffffffffffff168373ffffffffffffffffffffffffffffffffffffffff16146126aa57600161267c8461107f565b141561268d5761268c600d612bfa565b5b60006126988361107f565b14156126a9576126a8600d611890565b5b5b5b5b505050565b60006126d28473ffffffffffffffffffffffffffffffffffffffff16612c56565b1561282c578373ffffffffffffffffffffffffffffffffffffffff1663150b7a026126fb611957565b8786866040518563ffffffff1660e01b815260040161271d949392919061428c565b6020604051808303816000875af192505050801561275957506040513d601f19601f8201168201806040525081019061275691906142ed565b60015b6127dc573d8060008114612789576040519150601f19603f3d011682016040523d82523d6000602084013e61278e565b606091505b506000815114156127d4576040517f08c379a00000000000000000000000000000000000000000000000000000000081526004016127cb90614091565b60405180910390fd5b805181602001fd5b63150b7a0260e01b7bffffffffffffffffffffffffffffffffffffffffffffffffffffffff1916817bffffffffffffffffffffffffffffffffffffffffffffffffffffffff191614915050612831565b600190505b949350505050565b6060601080546128489061360e565b80601f01602080910402602001604051908101604052809291908181526020018280546128749061360e565b80156128c15780601f10612896576101008083540402835291602001916128c1565b820191906000526020600020905b8154815290600101906020018083116128a457829003601f168201915b5050505050905090565b60606000821415612913576040518060400160405280600181526020017f30000000000000000000000000000000000000000000000000000000000000008152509050612a27565b600082905060005b6000821461294557808061292e9061431a565b915050600a8261293e9190614392565b915061291b565b60008167ffffffffffffffff81111561296157612960612d99565b5b6040519080825280601f01601f1916602001820160405280156129935781602001600182028036833780820191505090505b5090505b60008514612a20576001826129ac9190613a45565b9150600a856129bb91906143c3565b60306129c79190613da7565b60f81b8183815181106129dd576129dc6143f4565b5b60200101907effffffffffffffffffffffffffffffffffffffffffffffffffffffffffffff1916908160001a905350600a85612a199190614392565b9450612997565b8093505050505b919050565b600073ffffffffffffffffffffffffffffffffffffffff168273ffffffffffffffffffffffffffffffffffffffff161415612a9c576040517f08c379a0000000000000000000000000000000000000000000000000000000008152600401612a939061446f565b60405180910390fd5b612aa5816119fc565b15612ae5576040517f08c379a0000000000000000000000000000000000000000000000000000000008152600401612adc906144db565b60405180910390fd5b612af160008383612551565b6001600360008473ffffffffffffffffffffffffffffffffffffffff1673ffffffffffffffffffffffffffffffffffffffff1681526020019081526020016000206000828254612b419190613da7565b92505081905550816002600083815260200190815260200160002060006101000a81548173ffffffffffffffffffffffffffffffffffffffff021916908373ffffffffffffffffffffffffffffffffffffffff160217905550808273ffffffffffffffffffffffffffffffffffffffff16600073ffffffffffffffffffffffffffffffffffffffff167fddf252ad1be2c89b69c2b068fc378daa952ba7f163c4a11628f55a4df523b3ef60405160405180910390a45050565b60008160000154905060008111612c46576040517f08c379a0000000000000000000000000000000000000000000000000000000008152600401612c3d90614547565b60405180910390fd5b6001810382600001819055505050565b600080823b905060008111915050919050565b828054612c759061360e565b90600052602060002090601f016020900481019282612c975760008555612cde565b82601f10612cb057805160ff1916838001178555612cde565b82800160010185558215612cde579182015b82811115612cdd578251825591602001919060010190612cc2565b5b509050612ceb9190612cef565b5090565b5b80821115612d08576000816000905550600101612cf0565b5090565b6000604051905090565b600080fd5b600080fd5b600073ffffffffffffffffffffffffffffffffffffffff82169050919050565b6000612d4b82612d20565b9050919050565b612d5b81612d40565b8114612d6657600080fd5b50565b600081359050612d7881612d52565b92915050565b600080fd5b600080fd5b6000601f19601f8301169050919050565b7f4e487b7100000000000000000000000000000000000000000000000000000000600052604160045260246000fd5b612dd182612d88565b810181811067ffffffffffffffff82111715612df057612def612d99565b5b80604052505050565b6000612e03612d0c565b9050612e0f8282612dc8565b919050565b600067ffffffffffffffff821115612e2f57612e2e612d99565b5b612e3882612d88565b9050602081019050919050565b82818337600083830152505050565b6000612e67612e6284612e14565b612df9565b905082815260208101848484011115612e8357612e82612d83565b5b612e8e848285612e45565b509392505050565b600082601f830112612eab57612eaa612d7e565b5b8135612ebb848260208601612e54565b91505092915050565b60008060408385031215612edb57612eda612d16565b5b6000612ee985828601612d69565b925050602083013567ffffffffffffffff811115612f0a57612f09612d1b565b5b612f1685828601612e96565b9150509250929050565b60007fffffffff0000000000000000000000000000000000000000000000000000000082169050919050565b612f5581612f20565b8114612f6057600080fd5b50565b600081359050612f7281612f4c565b92915050565b600060208284031215612f8e57612f8d612d16565b5b6000612f9c84828501612f63565b91505092915050565b60008115159050919050565b612fba81612fa5565b82525050565b6000602082019050612fd56000830184612fb1565b92915050565b600081519050919050565b600082825260208201905092915050565b60005b83811015613015578082015181840152602081019050612ffa565b83811115613024576000848401525b50505050565b600061303582612fdb565b61303f8185612fe6565b935061304f818560208601612ff7565b61305881612d88565b840191505092915050565b6000602082019050818103600083015261307d818461302a565b905092915050565b6000819050919050565b61309881613085565b81146130a357600080fd5b50565b6000813590506130b58161308f565b92915050565b6000602082840312156130d1576130d0612d16565b5b60006130df848285016130a6565b91505092915050565b6130f181612d40565b82525050565b600060208201905061310c60008301846130e8565b92915050565b6000806040838503121561312957613128612d16565b5b600061313785828601612d69565b9250506020613148858286016130a6565b9150509250929050565b600067ffffffffffffffff82111561316d5761316c612d99565b5b61317682612d88565b9050602081019050919050565b600061319661319184613152565b612df9565b9050828152602081018484840111156131b2576131b1612d83565b5b6131bd848285612e45565b509392505050565b600082601f8301126131da576131d9612d7e565b5b81356131ea848260208601613183565b91505092915050565b6000819050919050565b613206816131f3565b811461321157600080fd5b50565b600081359050613223816131fd565b92915050565b600060ff82169050919050565b61323f81613229565b811461324a57600080fd5b50565b60008135905061325c81613236565b92915050565b600080600080600060a0868803121561327e5761327d612d16565b5b600061328c88828901612d69565b955050602086013567ffffffffffffffff8111156132ad576132ac612d1b565b5b6132b9888289016131c5565b94505060406132ca88828901613214565b93505060606132db88828901613214565b92505060806132ec8882890161324d565b9150509295509295909350565b600081519050919050565b600082825260208201905092915050565b6000613320826132f9565b61332a8185613304565b935061333a818560208601612ff7565b61334381612d88565b840191505092915050565b600060208201905081810360008301526133688184613315565b905092915050565b61337981613085565b82525050565b60006020820190506133946000830184613370565b92915050565b6133a3816131f3565b82525050565b60006020820190506133be600083018461339a565b92915050565b6000806000606084860312156133dd576133dc612d16565b5b60006133eb86828701612d69565b93505060206133fc86828701612d69565b925050604061340d868287016130a6565b9150509250925092565b60006020828403121561342d5761342c612d16565b5b600061343b84828501612d69565b91505092915050565b61344d81612fa5565b811461345857600080fd5b50565b60008135905061346a81613444565b92915050565b6000806040838503121561348757613486612d16565b5b600061349585828601612d69565b92505060206134a68582860161345b565b9150509250929050565b600080600080608085870312156134ca576134c9612d16565b5b60006134d887828801612d69565b94505060206134e987828801612d69565b93505060406134fa878288016130a6565b925050606085013567ffffffffffffffff81111561351b5761351a612d1b565b5b613527878288016131c5565b91505092959194509250565b6000806040838503121561354a57613549612d16565b5b600061355885828601612d69565b925050602061356985828601612d69565b9150509250929050565b7f4f776e61626c653a2063616c6c6572206973206e6f7420746865206f776e6572600082015250565b60006135a9602083612fe6565b91506135b482613573565b602082019050919050565b600060208201905081810360008301526135d88161359c565b9050919050565b7f4e487b7100000000000000000000000000000000000000000000000000000000600052602260045260246000fd5b6000600282049050600182168061362657607f821691505b6020821081141561363a576136396135df565b5b50919050565b7f4552433732313a20617070726f76656420717565727920666f72206e6f6e657860008201527f697374656e7420746f6b656e0000000000000000000000000000000000000000602082015250565b600061369c602c83612fe6565b91506136a782613640565b604082019050919050565b600060208201905081810360008301526136cb8161368f565b9050919050565b7f4552433732313a20617070726f76616c20746f2063757272656e74206f776e6560008201527f7200000000000000000000000000000000000000000000000000000000000000602082015250565b600061372e602183612fe6565b9150613739826136d2565b604082019050919050565b6000602082019050818103600083015261375d81613721565b9050919050565b7f4552433732313a20617070726f76652063616c6c6572206973206e6f74206f7760008201527f6e6572206e6f7220617070726f76656420666f7220616c6c0000000000000000602082015250565b60006137c0603883612fe6565b91506137cb82613764565b604082019050919050565b600060208201905081810360008301526137ef816137b3565b9050919050565b7f5369676e657220616e64207369676e617475726520646f206e6f74206d61746360008201527f6800000000000000000000000000000000000000000000000000000000000000602082015250565b6000613852602183612fe6565b915061385d826137f6565b604082019050919050565b6000602082019050818103600083015261388181613845565b9050919050565b600061389382612d20565b9050919050565b6138a381613888565b82525050565b60006060820190506138be60008301866130e8565b6138cb602083018561389a565b81810360408301526138dd8184613315565b9050949350505050565b600081905092915050565b60006138fd826132f9565b61390781856138e7565b9350613917818560208601612ff7565b80840191505092915050565b60008160601b9050919050565b600061393b82613923565b9050919050565b600061394d82613930565b9050919050565b61396561396082612d40565b613942565b82525050565b600061397782856138f2565b91506139838284613954565b6014820191508190509392505050565b600061399f82846138f2565b915081905092915050565b7f46756e6374696f6e2063616c6c206e6f74207375636365737366756c00000000600082015250565b60006139e0601c83612fe6565b91506139eb826139aa565b602082019050919050565b60006020820190508181036000830152613a0f816139d3565b9050919050565b7f4e487b7100000000000000000000000000000000000000000000000000000000600052601160045260246000fd5b6000613a5082613085565b9150613a5b83613085565b925082821015613a6e57613a6d613a16565b5b828203905092915050565b7f4552433732313a207472616e736665722063616c6c6572206973206e6f74206f60008201527f776e6572206e6f7220617070726f766564000000000000000000000000000000602082015250565b6000613ad5603183612fe6565b9150613ae082613a79565b604082019050919050565b60006020820190508181036000830152613b0481613ac8565b9050919050565b7f4552433732313a206f776e657220717565727920666f72206e6f6e657869737460008201527f656e7420746f6b656e0000000000000000000000000000000000000000000000602082015250565b6000613b67602983612fe6565b9150613b7282613b0b565b604082019050919050565b60006020820190508181036000830152613b9681613b5a565b9050919050565b7f4552433732313a2062616c616e636520717565727920666f7220746865207a6560008201527f726f206164647265737300000000000000000000000000000000000000000000602082015250565b6000613bf9602a83612fe6565b9150613c0482613b9d565b604082019050919050565b60006020820190508181036000830152613c2881613bec565b9050919050565b7f4f776e61626c653a206e6577206f776e657220697320746865207a65726f206160008201527f6464726573730000000000000000000000000000000000000000000000000000602082015250565b6000613c8b602683612fe6565b9150613c9682613c2f565b604082019050919050565b60006020820190508181036000830152613cba81613c7e565b9050919050565b7f4e61746976654d6574615472616e73616374696f6e3a20494e56414c49445f5360008201527f49474e4552000000000000000000000000000000000000000000000000000000602082015250565b6000613d1d602583612fe6565b9150613d2882613cc1565b604082019050919050565b60006020820190508181036000830152613d4c81613d10565b9050919050565b613d5c81613229565b82525050565b6000608082019050613d77600083018761339a565b613d846020830186613d53565b613d91604083018561339a565b613d9e606083018461339a565b95945050505050565b6000613db282613085565b9150613dbd83613085565b9250827fffffffffffffffffffffffffffffffffffffffffffffffffffffffffffffffff03821115613df257613df1613a16565b5b828201905092915050565b7f4552433732313a206f70657261746f7220717565727920666f72206e6f6e657860008201527f697374656e7420746f6b656e0000000000000000000000000000000000000000602082015250565b6000613e59602c83612fe6565b9150613e6482613dfd565b604082019050919050565b60006020820190508181036000830152613e8881613e4c565b9050919050565b7f4552433732313a207472616e73666572206f6620746f6b656e2074686174206960008201527f73206e6f74206f776e0000000000000000000000000000000000000000000000602082015250565b6000613eeb602983612fe6565b9150613ef682613e8f565b604082019050919050565b60006020820190508181036000830152613f1a81613ede565b9050919050565b7f4552433732313a207472616e7366657220746f20746865207a65726f2061646460008201527f7265737300000000000000000000000000000000000000000000000000000000602082015250565b6000613f7d602483612fe6565b9150613f8882613f21565b604082019050919050565b60006020820190508181036000830152613fac81613f70565b9050919050565b7f4552433732313a20617070726f766520746f2063616c6c657200000000000000600082015250565b6000613fe9601983612fe6565b9150613ff482613fb3565b602082019050919050565b6000602082019050818103600083015261401881613fdc565b9050919050565b7f4552433732313a207472616e7366657220746f206e6f6e20455243373231526560008201527f63656976657220696d706c656d656e7465720000000000000000000000000000602082015250565b600061407b603283612fe6565b91506140868261401f565b604082019050919050565b600060208201905081810360008301526140aa8161406e565b9050919050565b7f4552433732314d657461646174613a2055524920717565727920666f72206e6f60008201527f6e6578697374656e7420746f6b656e0000000000000000000000000000000000602082015250565b600061410d602f83612fe6565b9150614118826140b1565b604082019050919050565b6000602082019050818103600083015261413c81614100565b9050919050565b600081905092915050565b600061415982612fdb565b6141638185614143565b9350614173818560208601612ff7565b80840191505092915050565b600061418b828561414e565b9150614197828461414e565b91508190509392505050565b60006080820190506141b8600083018761339a565b6141c56020830186613370565b6141d260408301856130e8565b6141df606083018461339a565b95945050505050565b7f1901000000000000000000000000000000000000000000000000000000000000600082015250565b600061421e600283614143565b9150614229826141e8565b600282019050919050565b6000819050919050565b61424f61424a826131f3565b614234565b82525050565b600061426082614211565b915061426c828561423e565b60208201915061427c828461423e565b6020820191508190509392505050565b60006080820190506142a160008301876130e8565b6142ae60208301866130e8565b6142bb6040830185613370565b81810360608301526142cd8184613315565b905095945050505050565b6000815190506142e781612f4c565b92915050565b60006020828403121561430357614302612d16565b5b6000614311848285016142d8565b91505092915050565b600061432582613085565b91507fffffffffffffffffffffffffffffffffffffffffffffffffffffffffffffffff82141561435857614357613a16565b5b600182019050919050565b7f4e487b7100000000000000000000000000000000000000000000000000000000600052601260045260246000fd5b600061439d82613085565b91506143a883613085565b9250826143b8576143b7614363565b5b828204905092915050565b60006143ce82613085565b91506143d983613085565b9250826143e9576143e8614363565b5b828206905092915050565b7f4e487b7100000000000000000000000000000000000000000000000000000000600052603260045260246000fd5b7f4552433732313a206d696e7420746f20746865207a65726f2061646472657373600082015250565b6000614459602083612fe6565b915061446482614423565b602082019050919050565b600060208201905081810360008301526144888161444c565b9050919050565b7f4552433732313a20746f6b656e20616c7265616479206d696e74656400000000600082015250565b60006144c5601c83612fe6565b91506144d08261448f565b602082019050919050565b600060208201905081810360008301526144f4816144b8565b9050919050565b7f436f756e7465723a2064656372656d656e74206f766572666c6f770000000000600082015250565b6000614531601b83612fe6565b915061453c826144fb565b602082019050919050565b6000602082019050818103600083015261456081614524565b905091905056fe4d6574615472616e73616374696f6e2875696e74323536206e6f6e63652c616464726573732066726f6d2c62797465732066756e6374696f6e5369676e617475726529a264697066735822122033b0a963d7a3c8b4afc5bb3d3ae6690f3a22c34a76eeda191997a8a9962f8e8c64736f6c634300080b0033454950373132446f6d61696e28737472696e67206e616d652c737472696e672076657273696f6e2c6164647265737320766572696679696e67436f6e74726163742c627974657333322073616c7429",
  "immutableReferences": {},
  "source": "// SPDX-License-Identifier: MIT\n\npragma solidity ^0.8.0;\n\nimport \"@openzeppelin/contracts/token/ERC721/ERC721.sol\";\nimport \"@openzeppelin/contracts/access/Ownable.sol\";\nimport \"@openzeppelin/contracts/utils/Counters.sol\";\nimport \"@openzeppelin/contracts/utils/Strings.sol\";\nimport \"@openzeppelin/contracts/utils/math/SafeMath.sol\";\n\nimport \"./common/meta-transactions/ContextMixin.sol\";\nimport \"./common/meta-transactions/NativeMetaTransaction.sol\";\n\n/**\n * @title ERC721Tradable\n * ERC721Tradable - ERC721 contract that whitelists a trading address, and has minting functionality.\n */\ncontract ERC721Tradable is ERC721, ContextMixin, NativeMetaTransaction, Ownable {\n    using SafeMath for uint256;\n    using Counters for Counters.Counter; \n\n    /**\n     0x80ac58cd = type(IERC721).interfaceId =   bytes4(keccak256(\"balanceOf(address)\")) \n                                            ^   bytes4(keccak256(\"ownerOf(uint256)\"))\n                                            ^   bytes4(keccak256(\"safeTransferFrom(address,address,uint256)\"))\n                                            ^   bytes4(keccak256(\"transferFrom(address,address,uint256)\"))\n                                            ^   bytes4(keccak256(\"approve(address,uint256)\"))\n                                            ^   bytes4(keccak256(\"getApproved(uint256)\"))\n                                            ^   bytes4(keccak256(\"setApprovalForAll(address,bool)\"))\n                                            ^   bytes4(keccak256(\"isApprovedForAll(address,address)\"))\n                                            ^   bytes4(keccak256(\"safeTransferFrom(address,address,uint256,bytes)\"))\n     */\n    bytes4 constant internal INTERFACE_ERC721 = 0x80ac58cd;\n\n    /**\n     * We rely on the OZ Counter util to keep track of the next available ID.\n     * We track the nextTokenId instead of the currentTokenId to save users on gas costs. \n     * Read more about it here: https://shiny.mirror.xyz/OUampBbIz9ebEicfGnQf5At_ReMHlZy0tB4glb9xQ0E\n     */ \n    Counters.Counter private _nextTokenId;\n\n    // Role management\n    mapping(uint256 => address) private creators;\n    // token URI mapping per user.\n    mapping(uint256 => string) private uriMapping;\n    // total count of holders\n    Counters.Counter private holderCount;\n    Counters.Counter private totalBalance;\n\n    //factory address\n    address public factory;\n\n    // base URI for each token\n    // tokenURI will be of the format baseURI + tokenId when uriMapping has no valid path\n    string private baseURI;\n\n    // event to change the factory contract\n    event SetFactoryContract(address indexed _factory);\n    // changed creator of tokenId\n    event CreatorSet(address indexed account, uint256 tokenId);\n\n    constructor(\n        string memory _name,\n        string memory _symbol,\n        string memory __baseURI,\n        address _factory\n    ) ERC721(_name, _symbol) {\n        // nextTokenId is initialized to 1, since starting at 0 leads to higher gas cost for the first minter\n        _nextTokenId.increment();\n        holderCount.increment();\n        totalBalance.increment();\n        // getDomainSeperator() can be used to identify the contract location.\n        _initializeEIP712(_name);\n\n        baseURI = __baseURI;\n        factory = _factory;\n    }\n\n    /**\n     * @dev Mints a token to an address with a tokenURI.\n     * @param _to address of the future owner of the token\n     */\n    function mintTo(address _to, string memory uri) public onlyOwner {\n        uint256 currentTokenId = _nextTokenId.current();\n\n        // token URI set if valid\n        // it is returned in tokenURI() function\n        if (bytes(uri).length != 0) {\n            uriMapping[currentTokenId] = uri;\n        }\n\n        setCreator(_to, currentTokenId);\n\n        _nextTokenId.increment();\n\n        _safeMint(_to, currentTokenId);\n    }\n\n    /**\n     * @dev Burns a token from the owner.\n     * @param _tokenId token index starting at 1.\n     */\n    function burn(uint256 _tokenId) public onlyOwner {\n        _burn(_tokenId);\n    }\n\n    /**\n     * @dev Change the creator address for given token\n     * @param _to   Address of the new creator\n     * @param _id   token index\n     */\n    function setCreator(\n        address _to,\n        uint256 _id\n    ) public onlyOwner {\n        creators[_id] = _to;\n        emit CreatorSet(_to, _id);\n    }\n\n    /**\n     * @dev Change the creator address for given token\n     * @param _id - token index\n     */\n    function getCreator(uint256 _id) public view returns(address) {\n        return creators[_id];\n    }\n\n    /**\n     * @dev Mints a token to an address with a tokenURI.\n     * @param   from address of the previous owner of the token\n                to address of the new owner of the token\n                tokenId index of the token.\n     */\n    function _beforeTokenTransfer(\n        address from,\n        address to,\n        uint256 tokenId\n    ) internal override {\n        if (to == address(0)) { // burn from owner\n            if (balanceOf(from) == 1) {\n                holderCount.decrement();\n            }\n\n            uriMapping[tokenId] = \"\";\n        } else if (from == address(0)) { // mint to a new owner\n            if (balanceOf(to) == 0) {\n                holderCount.increment();\n            }\n            totalBalance.increment();\n        } else {\n            if (from != to) {\n                if (balanceOf(from) == 1) {\n                    holderCount.decrement();\n                }\n\n                if (balanceOf(to) == 0) {\n                    holderCount.increment();\n                }\n            }\n        }\n    }\n\n    /**\n        @dev Returns the total tokens minted so far.\n        1 is always subtracted from the Counter since it tracks the next available tokenId.\n     */\n    function totalSupply() public view returns (uint256) {\n        return totalBalance.current() - 1;\n    }\n\n    /**\n        @dev Returns the count of total token holders.\n     */\n    function totalHolders() public view returns (uint256) {\n        return holderCount.current() - 1;\n    }\n\n    /**\n     * @dev Base URI for computing {tokenURI}. If set, the resulting URI for each\n     * token will be the concatenation of the `baseURI` and the `tokenId`. Empty\n     * by default, can be overriden in child contracts.\n     */\n    function _baseURI() internal view override returns (string memory) {\n        return baseURI;\n    }\n\n    /**\n        @dev Returns the URI of the token at \"_tokenId\"\n        @param _tokenId index of the token to be retrieved.\n     */\n    function tokenURI(uint256 _tokenId) override public view returns (string memory) {\n        require(_exists(_tokenId));\n\n        if (bytes(uriMapping[_tokenId]).length > 0) {\n            return uriMapping[_tokenId];\n        } else {\n            return ERC721.tokenURI(_tokenId);\n        }\n    }\n\n    /**\n        @dev Returns validity of the token at \"_tokenId\"\n        @param _tokenId index of the token to be retrieved.\n     */\n    function hasBurnt(uint256 _tokenId) external view returns (bool) {\n        if (_tokenId >= _nextTokenId.current())  {\n            return false;\n        }\n\n        return !_exists(_tokenId);\n    }\n\n    /**\n     * @dev returns the token id to be minted as a new token\n     */\n\n    function getReservedTokenId() public view returns (uint256) {\n        return _nextTokenId.current();\n    }\n\n    /**\n     * Override isApprovedForAll to whitelist user's OpenSea proxy accounts to enable gas-less listings.\n     */\n    function isApprovedForAll(address owner, address operator)\n        override\n        public\n        view\n        returns (bool)\n    {\n        if (factory == operator) {\n            return true;\n        }\n\n        return super.isApprovedForAll(owner, operator);\n    }\n\n    /**\n     * set factory contract address if an owner\n     */\n    function setFactoryContract(address _factory) external onlyOwner {\n        require(factory != _factory);\n\n        factory = _factory;\n        emit SetFactoryContract(factory);\n    }\n\n    /**\n     * This is used instead of msg.sender as transactions won't be sent by the original token owner, but by OpenSea.\n     */\n    function _msgSender()\n        internal\n        override\n        view\n        returns (address sender)\n    {\n        return ContextMixin.msgSender();\n    }\n}\n",
  "sourcePath": "E:\\MyGitHub\\HyperXNFT-contracts\\contracts\\ERC721Tradable.sol",
  "compiler": {
    "name": "solc",
    "version": "0.8.11+commit.d7f03943.Emscripten.clang"
  },
  "schemaVersion": "3.4.4",
  "updatedAt": "2022-01-28T14:31:35.830Z",
  "devdoc": {
    "kind": "dev",
    "methods": {
      "approve(address,uint256)": {
        "details": "See {IERC721-approve}."
      },
      "balanceOf(address)": {
        "details": "See {IERC721-balanceOf}."
      },
      "burn(uint256)": {
        "details": "Burns a token from the owner.",
        "params": {
          "_tokenId": "token index starting at 1."
        }
      },
      "getApproved(uint256)": {
        "details": "See {IERC721-getApproved}."
      },
      "getCreator(uint256)": {
        "details": "Change the creator address for given token",
        "params": {
          "_id": "- token index"
        }
      },
      "getReservedTokenId()": {
        "details": "returns the token id to be minted as a new token"
      },
      "hasBurnt(uint256)": {
        "details": "Returns validity of the token at \"_tokenId\"",
        "params": {
          "_tokenId": "index of the token to be retrieved."
        }
      },
      "mintTo(address,string)": {
        "details": "Mints a token to an address with a tokenURI.",
        "params": {
          "_to": "address of the future owner of the token"
        }
      },
      "name()": {
        "details": "See {IERC721Metadata-name}."
      },
      "owner()": {
        "details": "Returns the address of the current owner."
      },
      "ownerOf(uint256)": {
        "details": "See {IERC721-ownerOf}."
      },
      "renounceOwnership()": {
        "details": "Leaves the contract without owner. It will not be possible to call `onlyOwner` functions anymore. Can only be called by the current owner. NOTE: Renouncing ownership will leave the contract without an owner, thereby removing any functionality that is only available to the owner."
      },
      "safeTransferFrom(address,address,uint256)": {
        "details": "See {IERC721-safeTransferFrom}."
      },
      "safeTransferFrom(address,address,uint256,bytes)": {
        "details": "See {IERC721-safeTransferFrom}."
      },
      "setApprovalForAll(address,bool)": {
        "details": "See {IERC721-setApprovalForAll}."
      },
      "setCreator(address,uint256)": {
        "details": "Change the creator address for given token",
        "params": {
          "_id": "token index",
          "_to": "Address of the new creator"
        }
      },
      "supportsInterface(bytes4)": {
        "details": "See {IERC165-supportsInterface}."
      },
      "symbol()": {
        "details": "See {IERC721Metadata-symbol}."
      },
      "tokenURI(uint256)": {
        "details": "Returns the URI of the token at \"_tokenId\"",
        "params": {
          "_tokenId": "index of the token to be retrieved."
        }
      },
      "totalHolders()": {
        "details": "Returns the count of total token holders."
      },
      "totalSupply()": {
        "details": "Returns the total tokens minted so far. 1 is always subtracted from the Counter since it tracks the next available tokenId."
      },
      "transferFrom(address,address,uint256)": {
        "details": "See {IERC721-transferFrom}."
      },
      "transferOwnership(address)": {
        "details": "Transfers ownership of the contract to a new account (`newOwner`). Can only be called by the current owner."
      }
    },
    "title": "ERC721Tradable ERC721Tradable - ERC721 contract that whitelists a trading address, and has minting functionality.",
    "version": 1
  },
  "userdoc": {
    "kind": "user",
    "methods": {
      "isApprovedForAll(address,address)": {
        "notice": "Override isApprovedForAll to whitelist user's OpenSea proxy accounts to enable gas-less listings."
      },
      "setFactoryContract(address)": {
        "notice": "set factory contract address if an owner"
      }
    },
    "version": 1
  }
}