{
  "contractName": "HyperXNFTCollection",
  "abi": [
    {
      "inputs": [
        {
          "internalType": "string",
          "name": "collectionName",
          "type": "string"
        },
        {
          "internalType": "string",
          "name": "symbolName",
          "type": "string"
        }
      ],
      "stateMutability": "nonpayable",
      "type": "constructor"
    },
    {
      "anonymous": false,
      "inputs": [
        {
          "indexed": true,
          "internalType": "address",
          "name": "owner",
          "type": "address"
        },
        {
          "indexed": true,
          "internalType": "address",
          "name": "approved",
          "type": "address"
        },
        {
          "indexed": true,
          "internalType": "uint256",
          "name": "tokenId",
          "type": "uint256"
        }
      ],
      "name": "Approval",
      "type": "event"
    },
    {
      "anonymous": false,
      "inputs": [
        {
          "indexed": true,
          "internalType": "address",
          "name": "owner",
          "type": "address"
        },
        {
          "indexed": true,
          "internalType": "address",
          "name": "operator",
          "type": "address"
        },
        {
          "indexed": false,
          "internalType": "bool",
          "name": "approved",
          "type": "bool"
        }
      ],
      "name": "ApprovalForAll",
      "type": "event"
    },
    {
      "anonymous": false,
      "inputs": [
        {
          "indexed": false,
          "internalType": "address",
          "name": "buyer",
          "type": "address"
        },
        {
          "indexed": false,
          "internalType": "uint256",
          "name": "tokenId",
          "type": "uint256"
        }
      ],
      "name": "BuyToken",
      "type": "event"
    },
    {
      "anonymous": false,
      "inputs": [
        {
          "indexed": false,
          "internalType": "address",
          "name": "owner",
          "type": "address"
        },
        {
          "indexed": false,
          "internalType": "uint256",
          "name": "tokenId",
          "type": "uint256"
        },
        {
          "indexed": false,
          "internalType": "uint256",
          "name": "oldPrice",
          "type": "uint256"
        },
        {
          "indexed": false,
          "internalType": "uint256",
          "name": "newPrice",
          "type": "uint256"
        }
      ],
      "name": "ChangedPrice",
      "type": "event"
    },
    {
      "anonymous": false,
      "inputs": [
        {
          "indexed": false,
          "internalType": "address",
          "name": "minter",
          "type": "address"
        },
        {
          "indexed": false,
          "internalType": "string",
          "name": "_name",
          "type": "string"
        },
        {
          "indexed": false,
          "internalType": "string",
          "name": "_tokenURI",
          "type": "string"
        },
        {
          "indexed": false,
          "internalType": "uint256",
          "name": "numOfCopy",
          "type": "uint256"
        },
        {
          "indexed": false,
          "internalType": "uint256",
          "name": "_price",
          "type": "uint256"
        },
        {
          "indexed": false,
          "internalType": "uint256",
          "name": "payment",
          "type": "uint256"
        }
      ],
      "name": "MintNewToken",
      "type": "event"
    },
    {
      "anonymous": false,
      "inputs": [
        {
          "indexed": true,
          "internalType": "address",
          "name": "previousOwner",
          "type": "address"
        },
        {
          "indexed": true,
          "internalType": "address",
          "name": "newOwner",
          "type": "address"
        }
      ],
      "name": "OwnershipTransferred",
      "type": "event"
    },
    {
      "anonymous": false,
      "inputs": [
        {
          "indexed": false,
          "internalType": "address",
          "name": "owner",
          "type": "address"
        },
        {
          "indexed": false,
          "internalType": "uint256",
          "name": "tokenId",
          "type": "uint256"
        },
        {
          "indexed": false,
          "internalType": "bool",
          "name": "onSale",
          "type": "bool"
        }
      ],
      "name": "ToggleOnSale",
      "type": "event"
    },
    {
      "anonymous": false,
      "inputs": [
        {
          "indexed": true,
          "internalType": "address",
          "name": "from",
          "type": "address"
        },
        {
          "indexed": true,
          "internalType": "address",
          "name": "to",
          "type": "address"
        },
        {
          "indexed": true,
          "internalType": "uint256",
          "name": "tokenId",
          "type": "uint256"
        }
      ],
      "name": "Transfer",
      "type": "event"
    },
    {
      "inputs": [
        {
          "internalType": "address",
          "name": "to",
          "type": "address"
        },
        {
          "internalType": "uint256",
          "name": "tokenId",
          "type": "uint256"
        }
      ],
      "name": "approve",
      "outputs": [],
      "stateMutability": "nonpayable",
      "type": "function"
    },
    {
      "inputs": [
        {
          "internalType": "address",
          "name": "owner",
          "type": "address"
        }
      ],
      "name": "balanceOf",
      "outputs": [
        {
          "internalType": "uint256",
          "name": "",
          "type": "uint256"
        }
      ],
      "stateMutability": "view",
      "type": "function"
    },
    {
      "inputs": [
        {
          "internalType": "uint256",
          "name": "_tokenId",
          "type": "uint256"
        }
      ],
      "name": "buyNFT",
      "outputs": [],
      "stateMutability": "payable",
      "type": "function"
    },
    {
      "inputs": [
        {
          "internalType": "uint256",
          "name": "_tokenId",
          "type": "uint256"
        },
        {
          "internalType": "uint256",
          "name": "_newPrice",
          "type": "uint256"
        }
      ],
      "name": "changeNFTPrice",
      "outputs": [],
      "stateMutability": "nonpayable",
      "type": "function"
    },
    {
      "inputs": [
        {
          "internalType": "uint256",
          "name": "tokenId",
          "type": "uint256"
        }
      ],
      "name": "getApproved",
      "outputs": [
        {
          "internalType": "address",
          "name": "",
          "type": "address"
        }
      ],
      "stateMutability": "view",
      "type": "function"
    },
    {
      "inputs": [],
      "name": "getNumberOfTokensMinted",
      "outputs": [
        {
          "internalType": "uint256",
          "name": "",
          "type": "uint256"
        }
      ],
      "stateMutability": "view",
      "type": "function"
    },
    {
      "inputs": [
        {
          "internalType": "uint256",
          "name": "_tokenId",
          "type": "uint256"
        }
      ],
      "name": "getTokenExists",
      "outputs": [
        {
          "internalType": "bool",
          "name": "",
          "type": "bool"
        }
      ],
      "stateMutability": "view",
      "type": "function"
    },
    {
      "inputs": [
        {
          "internalType": "address",
          "name": "owner",
          "type": "address"
        },
        {
          "internalType": "address",
          "name": "operator",
          "type": "address"
        }
      ],
      "name": "isApprovedForAll",
      "outputs": [
        {
          "internalType": "bool",
          "name": "",
          "type": "bool"
        }
      ],
      "stateMutability": "view",
      "type": "function"
    },
    {
      "inputs": [
        {
          "internalType": "string",
          "name": "_name",
          "type": "string"
        },
        {
          "internalType": "string",
          "name": "_tokenURI",
          "type": "string"
        },
        {
          "internalType": "uint256",
          "name": "numOfCopy",
          "type": "uint256"
        },
        {
          "internalType": "uint256",
          "name": "_price",
          "type": "uint256"
        },
        {
          "internalType": "uint256",
          "name": "payment",
          "type": "uint256"
        },
        {
          "internalType": "string",
          "name": "title",
          "type": "string"
        },
        {
          "internalType": "string",
          "name": "category",
          "type": "string"
        },
        {
          "internalType": "string",
          "name": "description",
          "type": "string"
        },
        {
          "internalType": "string",
          "name": "hashtags",
          "type": "string"
        }
      ],
      "name": "mintNewNFT",
      "outputs": [],
      "stateMutability": "nonpayable",
      "type": "function"
    },
    {
      "inputs": [],
      "name": "name",
      "outputs": [
        {
          "internalType": "string",
          "name": "",
          "type": "string"
        }
      ],
      "stateMutability": "view",
      "type": "function"
    },
    {
      "inputs": [],
      "name": "owner",
      "outputs": [
        {
          "internalType": "address",
          "name": "",
          "type": "address"
        }
      ],
      "stateMutability": "view",
      "type": "function"
    },
    {
      "inputs": [
        {
          "internalType": "uint256",
          "name": "tokenId",
          "type": "uint256"
        }
      ],
      "name": "ownerOf",
      "outputs": [
        {
          "internalType": "address",
          "name": "",
          "type": "address"
        }
      ],
      "stateMutability": "view",
      "type": "function"
    },
    {
      "inputs": [],
      "name": "renounceOwnership",
      "outputs": [],
      "stateMutability": "nonpayable",
      "type": "function"
    },
    {
      "inputs": [
        {
          "internalType": "address",
          "name": "from",
          "type": "address"
        },
        {
          "internalType": "address",
          "name": "to",
          "type": "address"
        },
        {
          "internalType": "uint256",
          "name": "tokenId",
          "type": "uint256"
        }
      ],
      "name": "safeTransferFrom",
      "outputs": [],
      "stateMutability": "nonpayable",
      "type": "function"
    },
    {
      "inputs": [
        {
          "internalType": "address",
          "name": "from",
          "type": "address"
        },
        {
          "internalType": "address",
          "name": "to",
          "type": "address"
        },
        {
          "internalType": "uint256",
          "name": "tokenId",
          "type": "uint256"
        },
        {
          "internalType": "bytes",
          "name": "_data",
          "type": "bytes"
        }
      ],
      "name": "safeTransferFrom",
      "outputs": [],
      "stateMutability": "nonpayable",
      "type": "function"
    },
    {
      "inputs": [
        {
          "internalType": "address",
          "name": "operator",
          "type": "address"
        },
        {
          "internalType": "bool",
          "name": "approved",
          "type": "bool"
        }
      ],
      "name": "setApprovalForAll",
      "outputs": [],
      "stateMutability": "nonpayable",
      "type": "function"
    },
    {
      "inputs": [
        {
          "internalType": "bytes4",
          "name": "interfaceId",
          "type": "bytes4"
        }
      ],
      "name": "supportsInterface",
      "outputs": [
        {
          "internalType": "bool",
          "name": "",
          "type": "bool"
        }
      ],
      "stateMutability": "view",
      "type": "function"
    },
    {
      "inputs": [],
      "name": "symbol",
      "outputs": [
        {
          "internalType": "string",
          "name": "",
          "type": "string"
        }
      ],
      "stateMutability": "view",
      "type": "function"
    },
    {
      "inputs": [
        {
          "internalType": "uint256",
          "name": "_tokenId",
          "type": "uint256"
        }
      ],
      "name": "toggleForSale",
      "outputs": [],
      "stateMutability": "nonpayable",
      "type": "function"
    },
    {
      "inputs": [
        {
          "internalType": "uint256",
          "name": "_tokenId",
          "type": "uint256"
        }
      ],
      "name": "tokenCategory",
      "outputs": [
        {
          "internalType": "string",
          "name": "",
          "type": "string"
        }
      ],
      "stateMutability": "view",
      "type": "function"
    },
    {
      "inputs": [
        {
          "internalType": "uint256",
          "name": "_tokenId",
          "type": "uint256"
        }
      ],
      "name": "tokenDescription",
      "outputs": [
        {
          "internalType": "string",
          "name": "",
          "type": "string"
        }
      ],
      "stateMutability": "view",
      "type": "function"
    },
    {
      "inputs": [
        {
          "internalType": "uint256",
          "name": "_tokenId",
          "type": "uint256"
        }
      ],
      "name": "tokenHashTags",
      "outputs": [
        {
          "internalType": "string",
          "name": "",
          "type": "string"
        }
      ],
      "stateMutability": "view",
      "type": "function"
    },
    {
      "inputs": [
        {
          "internalType": "uint256",
          "name": "_tokenId",
          "type": "uint256"
        }
      ],
      "name": "tokenName",
      "outputs": [
        {
          "internalType": "string",
          "name": "",
          "type": "string"
        }
      ],
      "stateMutability": "view",
      "type": "function"
    },
    {
      "inputs": [
        {
          "internalType": "uint256",
          "name": "_tokenId",
          "type": "uint256"
        }
      ],
      "name": "tokenOnSale",
      "outputs": [
        {
          "internalType": "bool",
          "name": "",
          "type": "bool"
        }
      ],
      "stateMutability": "view",
      "type": "function"
    },
    {
      "inputs": [
        {
          "internalType": "uint256",
          "name": "_tokenId",
          "type": "uint256"
        }
      ],
      "name": "tokenPaymentType",
      "outputs": [
        {
          "internalType": "uint256",
          "name": "",
          "type": "uint256"
        }
      ],
      "stateMutability": "view",
      "type": "function"
    },
    {
      "inputs": [
        {
          "internalType": "uint256",
          "name": "_tokenId",
          "type": "uint256"
        }
      ],
      "name": "tokenPreviousOwner",
      "outputs": [
        {
          "internalType": "address",
          "name": "",
          "type": "address"
        }
      ],
      "stateMutability": "view",
      "type": "function"
    },
    {
      "inputs": [
        {
          "internalType": "uint256",
          "name": "_tokenId",
          "type": "uint256"
        }
      ],
      "name": "tokenPrice",
      "outputs": [
        {
          "internalType": "uint256",
          "name": "",
          "type": "uint256"
        }
      ],
      "stateMutability": "view",
      "type": "function"
    },
    {
      "inputs": [
        {
          "internalType": "uint256",
          "name": "_tokenId",
          "type": "uint256"
        }
      ],
      "name": "tokenTitle",
      "outputs": [
        {
          "internalType": "string",
          "name": "",
          "type": "string"
        }
      ],
      "stateMutability": "view",
      "type": "function"
    },
    {
      "inputs": [
        {
          "internalType": "uint256",
          "name": "_tokenId",
          "type": "uint256"
        }
      ],
      "name": "tokenTransferCount",
      "outputs": [
        {
          "internalType": "uint256",
          "name": "",
          "type": "uint256"
        }
      ],
      "stateMutability": "view",
      "type": "function"
    },
    {
      "inputs": [
        {
          "internalType": "uint256",
          "name": "_tokenId",
          "type": "uint256"
        }
      ],
      "name": "tokenURI",
      "outputs": [
        {
          "internalType": "string",
          "name": "",
          "type": "string"
        }
      ],
      "stateMutability": "view",
      "type": "function"
    },
    {
      "inputs": [
        {
          "internalType": "address",
          "name": "from",
          "type": "address"
        },
        {
          "internalType": "address",
          "name": "to",
          "type": "address"
        },
        {
          "internalType": "uint256",
          "name": "tokenId",
          "type": "uint256"
        }
      ],
      "name": "transferFrom",
      "outputs": [],
      "stateMutability": "nonpayable",
      "type": "function"
    },
    {
      "inputs": [
        {
          "internalType": "address",
          "name": "newOwner",
          "type": "address"
        }
      ],
      "name": "transferOwnership",
      "outputs": [],
      "stateMutability": "nonpayable",
      "type": "function"
    }
  ],
  "bytecode": "0x60806040523480156200001157600080fd5b50604051620061d2380380620061d28339818101604052810190620000379190620003c0565b818181600090805190602001906200005192919062000173565b5080600190805190602001906200006a92919062000173565b50505060016006819055506200009562000089620000a560201b60201c565b620000ad60201b60201c565b60006008819055505050620004aa565b600033905090565b6000600760009054906101000a900473ffffffffffffffffffffffffffffffffffffffff16905081600760006101000a81548173ffffffffffffffffffffffffffffffffffffffff021916908373ffffffffffffffffffffffffffffffffffffffff1602179055508173ffffffffffffffffffffffffffffffffffffffff168173ffffffffffffffffffffffffffffffffffffffff167f8be0079c531659141344cd1fd0a4f28419497f9722a3daafe3b4186f6b6457e060405160405180910390a35050565b828054620001819062000474565b90600052602060002090601f016020900481019282620001a55760008555620001f1565b82601f10620001c057805160ff1916838001178555620001f1565b82800160010185558215620001f1579182015b82811115620001f0578251825591602001919060010190620001d3565b5b50905062000200919062000204565b5090565b5b808211156200021f57600081600090555060010162000205565b5090565b6000604051905090565b600080fd5b600080fd5b600080fd5b600080fd5b6000601f19601f8301169050919050565b7f4e487b7100000000000000000000000000000000000000000000000000000000600052604160045260246000fd5b6200028c8262000241565b810181811067ffffffffffffffff82111715620002ae57620002ad62000252565b5b80604052505050565b6000620002c362000223565b9050620002d1828262000281565b919050565b600067ffffffffffffffff821115620002f457620002f362000252565b5b620002ff8262000241565b9050602081019050919050565b60005b838110156200032c5780820151818401526020810190506200030f565b838111156200033c576000848401525b50505050565b6000620003596200035384620002d6565b620002b7565b9050828152602081018484840111156200037857620003776200023c565b5b620003858482856200030c565b509392505050565b600082601f830112620003a557620003a462000237565b5b8151620003b784826020860162000342565b91505092915050565b60008060408385031215620003da57620003d96200022d565b5b600083015167ffffffffffffffff811115620003fb57620003fa62000232565b5b62000409858286016200038d565b925050602083015167ffffffffffffffff8111156200042d576200042c62000232565b5b6200043b858286016200038d565b9150509250929050565b7f4e487b7100000000000000000000000000000000000000000000000000000000600052602260045260246000fd5b600060028204905060018216806200048d57607f821691505b60208210811415620004a457620004a362000445565b5b50919050565b615d1880620004ba6000396000f3fe6080604052600436106101e35760003560e01c806387fb3cf911610102578063b880248611610095578063d4ddce8a11610064578063d4ddce8a14610765578063e725f877146107a2578063e985e9c5146107df578063f2fde38b1461081c576101e3565b8063b880248614610697578063b88d4fde146106d4578063c87b56dd146106fd578063cc151f3a1461073a576101e3565b8063a22cb465116100d1578063a22cb465146105df578063a32018b914610608578063aaf2443414610631578063b5b670a61461066e576101e3565b806387fb3cf91461050f5780638da5cb5b1461054c57806395d89b4114610577578063a0c6d537146105a2576101e3565b806332a79bdd1161017a5780636352211e116101495780636352211e1461044157806364126d981461047e57806370a08231146104bb578063715018a6146104f8576101e3565b806332a79bdd146103825780633a215f46146103bf57806342842e0e146103fc57806351ed828814610425576101e3565b80630fd76c7c116101b65780630fd76c7c146102b657806310a74248146102df578063142687f31461031c57806323b872dd14610359576101e3565b806301ffc9a7146101e857806306fdde0314610225578063081812fc14610250578063095ea7b31461028d575b600080fd5b3480156101f457600080fd5b5061020f600480360381019061020a91906141a1565b610845565b60405161021c91906141e9565b60405180910390f35b34801561023157600080fd5b5061023a610927565b604051610247919061429d565b60405180910390f35b34801561025c57600080fd5b50610277600480360381019061027291906142f5565b6109b9565b6040516102849190614363565b60405180910390f35b34801561029957600080fd5b506102b460048036038101906102af91906143aa565b610a3e565b005b3480156102c257600080fd5b506102dd60048036038101906102d891906143ea565b610b56565b005b3480156102eb57600080fd5b50610306600480360381019061030191906142f5565b6113b9565b604051610313919061429d565b60405180910390f35b34801561032857600080fd5b50610343600480360381019061033e91906142f5565b611473565b60405161035091906141e9565b60405180910390f35b34801561036557600080fd5b50610380600480360381019061037b919061442a565b61148a565b005b34801561038e57600080fd5b506103a960048036038101906103a491906142f5565b61148f565b6040516103b69190614363565b60405180910390f35b3480156103cb57600080fd5b506103e660048036038101906103e191906142f5565b611517565b6040516103f3919061429d565b60405180910390f35b34801561040857600080fd5b50610423600480360381019061041e919061442a565b6115d1565b005b61043f600480360381019061043a91906142f5565b6115d6565b005b34801561044d57600080fd5b50610468600480360381019061046391906142f5565b611fc8565b6040516104759190614363565b60405180910390f35b34801561048a57600080fd5b506104a560048036038101906104a091906142f5565b61207a565b6040516104b2919061448c565b60405180910390f35b3480156104c757600080fd5b506104e260048036038101906104dd91906144a7565b6120e2565b6040516104ef919061448c565b60405180910390f35b34801561050457600080fd5b5061050d61219a565b005b34801561051b57600080fd5b50610536600480360381019061053191906142f5565b612222565b604051610543919061448c565b60405180910390f35b34801561055857600080fd5b50610561612343565b60405161056e9190614363565b60405180910390f35b34801561058357600080fd5b5061058c61236d565b604051610599919061429d565b60405180910390f35b3480156105ae57600080fd5b506105c960048036038101906105c491906142f5565b6123ff565b6040516105d6919061429d565b60405180910390f35b3480156105eb57600080fd5b5061060660048036038101906106019190614500565b6124b9565b005b34801561061457600080fd5b5061062f600480360381019061062a91906142f5565b6124cf565b005b34801561063d57600080fd5b50610658600480360381019061065391906142f5565b612d55565b60405161066591906141e9565b60405180910390f35b34801561067a57600080fd5b5061069560048036038101906106909190614675565b612dca565b005b3480156106a357600080fd5b506106be60048036038101906106b991906142f5565b6133ba565b6040516106cb919061429d565b60405180910390f35b3480156106e057600080fd5b506106fb60048036038101906106f69190614888565b613474565b005b34801561070957600080fd5b50610724600480360381019061071f91906142f5565b61347a565b604051610731919061429d565b60405180910390f35b34801561074657600080fd5b5061074f61356a565b60405161075c919061448c565b60405180910390f35b34801561077157600080fd5b5061078c600480360381019061078791906142f5565b613574565b604051610799919061448c565b60405180910390f35b3480156107ae57600080fd5b506107c960048036038101906107c491906142f5565b6135dc565b6040516107d6919061429d565b60405180910390f35b3480156107eb57600080fd5b506108066004803603810190610801919061490b565b6136cc565b60405161081391906141e9565b60405180910390f35b34801561082857600080fd5b50610843600480360381019061083e91906144a7565b613760565b005b60007f80ac58cd000000000000000000000000000000000000000000000000000000007bffffffffffffffffffffffffffffffffffffffffffffffffffffffff1916827bffffffffffffffffffffffffffffffffffffffffffffffffffffffff1916148061091057507f5b5e139f000000000000000000000000000000000000000000000000000000007bffffffffffffffffffffffffffffffffffffffffffffffffffffffff1916827bffffffffffffffffffffffffffffffffffffffffffffffffffffffff1916145b80610920575061091f82613858565b5b9050919050565b6060600080546109369061497a565b80601f01602080910402602001604051908101604052809291908181526020018280546109629061497a565b80156109af5780601f10610984576101008083540402835291602001916109af565b820191906000526020600020905b81548152906001019060200180831161099257829003601f168201915b5050505050905090565b60006109c4826138c2565b610a03576040517f08c379a00000000000000000000000000000000000000000000000000000000081526004016109fa90614a1e565b60405180910390fd5b6004600083815260200190815260200160002060009054906101000a900473ffffffffffffffffffffffffffffffffffffffff169050919050565b6000610a4982611fc8565b90508073ffffffffffffffffffffffffffffffffffffffff168373ffffffffffffffffffffffffffffffffffffffff161415610aba576040517f08c379a0000000000000000000000000000000000000000000000000000000008152600401610ab190614ab0565b60405180910390fd5b8073ffffffffffffffffffffffffffffffffffffffff16610ad961392e565b73ffffffffffffffffffffffffffffffffffffffff161480610b085750610b0781610b0261392e565b6136cc565b5b610b47576040517f08c379a0000000000000000000000000000000000000000000000000000000008152600401610b3e90614b42565b60405180910390fd5b610b518383613936565b505050565b60026006541415610b9c576040517f08c379a0000000000000000000000000000000000000000000000000000000008152600401610b9390614bae565b60405180910390fd5b6002600681905550600073ffffffffffffffffffffffffffffffffffffffff16610bc461392e565b73ffffffffffffffffffffffffffffffffffffffff161415610c1b576040517f08c379a0000000000000000000000000000000000000000000000000000000008152600401610c1290614c1a565b60405180910390fd5b610c24826138c2565b610c63576040517f08c379a0000000000000000000000000000000000000000000000000000000008152600401610c5a90614c86565b60405180910390fd5b6000610c6e83611fc8565b9050610c7861392e565b73ffffffffffffffffffffffffffffffffffffffff168173ffffffffffffffffffffffffffffffffffffffff1614610ce5576040517f08c379a0000000000000000000000000000000000000000000000000000000008152600401610cdc90614d18565b60405180910390fd5b600060096000858152602001908152602001600020604051806101a001604052908160008201548152602001600182018054610d209061497a565b80601f0160208091040260200160405190810160405280929190818152602001828054610d4c9061497a565b8015610d995780601f10610d6e57610100808354040283529160200191610d99565b820191906000526020600020905b815481529060010190602001808311610d7c57829003601f168201915b50505050508152602001600282018054610db29061497a565b80601f0160208091040260200160405190810160405280929190818152602001828054610dde9061497a565b8015610e2b5780601f10610e0057610100808354040283529160200191610e2b565b820191906000526020600020905b815481529060010190602001808311610e0e57829003601f168201915b505050505081526020016003820160009054906101000a900473ffffffffffffffffffffffffffffffffffffffff1673ffffffffffffffffffffffffffffffffffffffff1673ffffffffffffffffffffffffffffffffffffffff1681526020016004820160009054906101000a900473ffffffffffffffffffffffffffffffffffffffff1673ffffffffffffffffffffffffffffffffffffffff1673ffffffffffffffffffffffffffffffffffffffff168152602001600582015481526020016006820160009054906101000a900460ff166002811115610f0f57610f0e614d38565b5b6002811115610f2157610f20614d38565b5b8152602001600782015481526020016008820160009054906101000a900460ff16151515158152602001600982018054610f5a9061497a565b80601f0160208091040260200160405190810160405280929190818152602001828054610f869061497a565b8015610fd35780601f10610fa857610100808354040283529160200191610fd3565b820191906000526020600020905b815481529060010190602001808311610fb657829003601f168201915b50505050508152602001600a82018054610fec9061497a565b80601f01602080910402602001604051908101604052809291908181526020018280546110189061497a565b80156110655780601f1061103a57610100808354040283529160200191611065565b820191906000526020600020905b81548152906001019060200180831161104857829003601f168201915b50505050508152602001600b8201805461107e9061497a565b80601f01602080910402602001604051908101604052809291908181526020018280546110aa9061497a565b80156110f75780601f106110cc576101008083540402835291602001916110f7565b820191906000526020600020905b8154815290600101906020018083116110da57829003601f168201915b50505050508152602001600c820180546111109061497a565b80601f016020809104026020016040519081016040528092919081815260200182805461113c9061497a565b80156111895780601f1061115e57610100808354040283529160200191611189565b820191906000526020600020905b81548152906001019060200180831161116c57829003601f168201915b505050505081525050905060008160a001519050838260a001818152505081600960008781526020019081526020016000206000820151816000015560208201518160010190805190602001906111e1929190614092565b5060408201518160020190805190602001906111fe929190614092565b5060608201518160030160006101000a81548173ffffffffffffffffffffffffffffffffffffffff021916908373ffffffffffffffffffffffffffffffffffffffff16021790555060808201518160040160006101000a81548173ffffffffffffffffffffffffffffffffffffffff021916908373ffffffffffffffffffffffffffffffffffffffff16021790555060a0820151816005015560c08201518160060160006101000a81548160ff021916908360028111156112c2576112c1614d38565b5b021790555060e082015181600701556101008201518160080160006101000a81548160ff02191690831515021790555061012082015181600901908051906020019061130f929190614092565b5061014082015181600a01908051906020019061132d929190614092565b5061016082015181600b01908051906020019061134b929190614092565b5061018082015181600c019080519060200190611369929190614092565b509050507f81033e2ff64b9695533d7b84dd6d5567bbe1b153401c19d486fadf54175169c9838683876040516113a29493929190614d67565b60405180910390a150505060016006819055505050565b60606113c4826138c2565b6113cd57600080fd5b6009600083815260200190815260200160002060090180546113ee9061497a565b80601f016020809104026020016040519081016040528092919081815260200182805461141a9061497a565b80156114675780601f1061143c57610100808354040283529160200191611467565b820191906000526020600020905b81548152906001019060200180831161144a57829003601f168201915b50505050509050919050565b60008061147f836138c2565b905080915050919050565b505050565b600061149a826138c2565b6114d9576040517f08c379a00000000000000000000000000000000000000000000000000000000081526004016114d090614e44565b60405180910390fd5b6009600083815260200190815260200160002060040160009054906101000a900473ffffffffffffffffffffffffffffffffffffffff169050919050565b6060611522826138c2565b61152b57600080fd5b60096000838152602001908152602001600020600a01805461154c9061497a565b80601f01602080910402602001604051908101604052809291908181526020018280546115789061497a565b80156115c55780601f1061159a576101008083540402835291602001916115c5565b820191906000526020600020905b8154815290600101906020018083116115a857829003601f168201915b50505050509050919050565b505050565b6002600654141561161c576040517f08c379a000000000000000000000000000000000000000000000000000000000815260040161161390614bae565b60405180910390fd5b6002600681905550600073ffffffffffffffffffffffffffffffffffffffff1661164461392e565b73ffffffffffffffffffffffffffffffffffffffff16141561169b576040517f08c379a000000000000000000000000000000000000000000000000000000000815260040161169290614c1a565b60405180910390fd5b6116a4816138c2565b6116e3576040517f08c379a00000000000000000000000000000000000000000000000000000000081526004016116da90614eb0565b60405180910390fd5b60006116ee82611fc8565b9050600073ffffffffffffffffffffffffffffffffffffffff168173ffffffffffffffffffffffffffffffffffffffff161415611760576040517f08c379a000000000000000000000000000000000000000000000000000000000815260040161175790614f1c565b60405180910390fd5b61176861392e565b73ffffffffffffffffffffffffffffffffffffffff168173ffffffffffffffffffffffffffffffffffffffff1614156117d6576040517f08c379a00000000000000000000000000000000000000000000000000000000081526004016117cd90614f88565b60405180910390fd5b600060096000848152602001908152602001600020604051806101a0016040529081600082015481526020016001820180546118119061497a565b80601f016020809104026020016040519081016040528092919081815260200182805461183d9061497a565b801561188a5780601f1061185f5761010080835404028352916020019161188a565b820191906000526020600020905b81548152906001019060200180831161186d57829003601f168201915b505050505081526020016002820180546118a39061497a565b80601f01602080910402602001604051908101604052809291908181526020018280546118cf9061497a565b801561191c5780601f106118f15761010080835404028352916020019161191c565b820191906000526020600020905b8154815290600101906020018083116118ff57829003601f168201915b505050505081526020016003820160009054906101000a900473ffffffffffffffffffffffffffffffffffffffff1673ffffffffffffffffffffffffffffffffffffffff1673ffffffffffffffffffffffffffffffffffffffff1681526020016004820160009054906101000a900473ffffffffffffffffffffffffffffffffffffffff1673ffffffffffffffffffffffffffffffffffffffff1673ffffffffffffffffffffffffffffffffffffffff168152602001600582015481526020016006820160009054906101000a900460ff166002811115611a00576119ff614d38565b5b6002811115611a1257611a11614d38565b5b8152602001600782015481526020016008820160009054906101000a900460ff16151515158152602001600982018054611a4b9061497a565b80601f0160208091040260200160405190810160405280929190818152602001828054611a779061497a565b8015611ac45780601f10611a9957610100808354040283529160200191611ac4565b820191906000526020600020905b815481529060010190602001808311611aa757829003601f168201915b50505050508152602001600a82018054611add9061497a565b80601f0160208091040260200160405190810160405280929190818152602001828054611b099061497a565b8015611b565780601f10611b2b57610100808354040283529160200191611b56565b820191906000526020600020905b815481529060010190602001808311611b3957829003601f168201915b50505050508152602001600b82018054611b6f9061497a565b80601f0160208091040260200160405190810160405280929190818152602001828054611b9b9061497a565b8015611be85780601f10611bbd57610100808354040283529160200191611be8565b820191906000526020600020905b815481529060010190602001808311611bcb57829003601f168201915b50505050508152602001600c82018054611c019061497a565b80601f0160208091040260200160405190810160405280929190818152602001828054611c2d9061497a565b8015611c7a5780601f10611c4f57610100808354040283529160200191611c7a565b820191906000526020600020905b815481529060010190602001808311611c5d57829003601f168201915b50505050508152505090508060a00151341015611ccc576040517f08c379a0000000000000000000000000000000000000000000000000000000008152600401611cc390614ff4565b60405180910390fd5b806101000151611d11576040517f08c379a0000000000000000000000000000000000000000000000000000000008152600401611d0890615060565b60405180910390fd5b611d2382611d1d61392e565b856139ef565b8173ffffffffffffffffffffffffffffffffffffffff166108fc349081150290604051600060405180830381858888f19350505050158015611d69573d6000803e3d6000fd5b5081816080019073ffffffffffffffffffffffffffffffffffffffff16908173ffffffffffffffffffffffffffffffffffffffff168152505060018160e001818151611db591906150af565b915081815250508060096000858152602001908152602001600020600082015181600001556020820151816001019080519060200190611df6929190614092565b506040820151816002019080519060200190611e13929190614092565b5060608201518160030160006101000a81548173ffffffffffffffffffffffffffffffffffffffff021916908373ffffffffffffffffffffffffffffffffffffffff16021790555060808201518160040160006101000a81548173ffffffffffffffffffffffffffffffffffffffff021916908373ffffffffffffffffffffffffffffffffffffffff16021790555060a0820151816005015560c08201518160060160006101000a81548160ff02191690836002811115611ed757611ed6614d38565b5b021790555060e082015181600701556101008201518160080160006101000a81548160ff021916908315150217905550610120820151816009019080519060200190611f24929190614092565b5061014082015181600a019080519060200190611f42929190614092565b5061016082015181600b019080519060200190611f60929190614092565b5061018082015181600c019080519060200190611f7e929190614092565b509050507fdd06b66c3ba8126086cd863137d6f3b86ce5bcf4309cac390cc265e39194d0b28284604051611fb3929190615105565b60405180910390a15050600160068190555050565b6000806002600084815260200190815260200160002060009054906101000a900473ffffffffffffffffffffffffffffffffffffffff169050600073ffffffffffffffffffffffffffffffffffffffff168173ffffffffffffffffffffffffffffffffffffffff161415612071576040517f08c379a0000000000000000000000000000000000000000000000000000000008152600401612068906151a0565b60405180910390fd5b80915050919050565b6000612085826138c2565b6120c4576040517f08c379a00000000000000000000000000000000000000000000000000000000081526004016120bb90615258565b60405180910390fd5b60096000838152602001908152602001600020600701549050919050565b60008073ffffffffffffffffffffffffffffffffffffffff168273ffffffffffffffffffffffffffffffffffffffff161415612153576040517f08c379a000000000000000000000000000000000000000000000000000000000815260040161214a906152ea565b60405180910390fd5b600360008373ffffffffffffffffffffffffffffffffffffffff1673ffffffffffffffffffffffffffffffffffffffff168152602001908152602001600020549050919050565b6121a261392e565b73ffffffffffffffffffffffffffffffffffffffff166121c0612343565b73ffffffffffffffffffffffffffffffffffffffff1614612216576040517f08c379a000000000000000000000000000000000000000000000000000000000815260040161220d90615356565b60405180910390fd5b6122206000613c4b565b565b600061222d826138c2565b61226c576040517f08c379a00000000000000000000000000000000000000000000000000000000081526004016122639061540e565b60405180910390fd5b60006009600084815260200190815260200160002060060160009054906101000a900460ff169050600060028111156122a8576122a7614d38565b5b8160028111156122bb576122ba614d38565b5b14156122cb57600091505061233e565b600160028111156122df576122de614d38565b5b8160028111156122f2576122f1614d38565b5b141561230257600191505061233e565b60028081111561231557612314614d38565b5b81600281111561232857612327614d38565b5b141561233857600291505061233e565b60009150505b919050565b6000600760009054906101000a900473ffffffffffffffffffffffffffffffffffffffff16905090565b60606001805461237c9061497a565b80601f01602080910402602001604051908101604052809291908181526020018280546123a89061497a565b80156123f55780601f106123ca576101008083540402835291602001916123f5565b820191906000526020600020905b8154815290600101906020018083116123d857829003601f168201915b5050505050905090565b606061240a826138c2565b61241357600080fd5b60096000838152602001908152602001600020600b0180546124349061497a565b80601f01602080910402602001604051908101604052809291908181526020018280546124609061497a565b80156124ad5780601f10612482576101008083540402835291602001916124ad565b820191906000526020600020905b81548152906001019060200180831161249057829003601f168201915b50505050509050919050565b6124cb6124c461392e565b8383613d11565b5050565b60026006541415612515576040517f08c379a000000000000000000000000000000000000000000000000000000000815260040161250c90614bae565b60405180910390fd5b6002600681905550600073ffffffffffffffffffffffffffffffffffffffff1661253d61392e565b73ffffffffffffffffffffffffffffffffffffffff161415612594576040517f08c379a000000000000000000000000000000000000000000000000000000000815260040161258b90614c1a565b60405180910390fd5b61259d816138c2565b6125dc576040517f08c379a00000000000000000000000000000000000000000000000000000000081526004016125d390614c86565b60405180910390fd5b60006125e782611fc8565b90506125f161392e565b73ffffffffffffffffffffffffffffffffffffffff168173ffffffffffffffffffffffffffffffffffffffff161461265e576040517f08c379a000000000000000000000000000000000000000000000000000000000815260040161265590614d18565b60405180910390fd5b600060096000848152602001908152602001600020604051806101a0016040529081600082015481526020016001820180546126999061497a565b80601f01602080910402602001604051908101604052809291908181526020018280546126c59061497a565b80156127125780601f106126e757610100808354040283529160200191612712565b820191906000526020600020905b8154815290600101906020018083116126f557829003601f168201915b5050505050815260200160028201805461272b9061497a565b80601f01602080910402602001604051908101604052809291908181526020018280546127579061497a565b80156127a45780601f10612779576101008083540402835291602001916127a4565b820191906000526020600020905b81548152906001019060200180831161278757829003601f168201915b505050505081526020016003820160009054906101000a900473ffffffffffffffffffffffffffffffffffffffff1673ffffffffffffffffffffffffffffffffffffffff1673ffffffffffffffffffffffffffffffffffffffff1681526020016004820160009054906101000a900473ffffffffffffffffffffffffffffffffffffffff1673ffffffffffffffffffffffffffffffffffffffff1673ffffffffffffffffffffffffffffffffffffffff168152602001600582015481526020016006820160009054906101000a900460ff16600281111561288857612887614d38565b5b600281111561289a57612899614d38565b5b8152602001600782015481526020016008820160009054906101000a900460ff161515151581526020016009820180546128d39061497a565b80601f01602080910402602001604051908101604052809291908181526020018280546128ff9061497a565b801561294c5780601f106129215761010080835404028352916020019161294c565b820191906000526020600020905b81548152906001019060200180831161292f57829003601f168201915b50505050508152602001600a820180546129659061497a565b80601f01602080910402602001604051908101604052809291908181526020018280546129919061497a565b80156129de5780601f106129b3576101008083540402835291602001916129de565b820191906000526020600020905b8154815290600101906020018083116129c157829003601f168201915b50505050508152602001600b820180546129f79061497a565b80601f0160208091040260200160405190810160405280929190818152602001828054612a239061497a565b8015612a705780601f10612a4557610100808354040283529160200191612a70565b820191906000526020600020905b815481529060010190602001808311612a5357829003601f168201915b50505050508152602001600c82018054612a899061497a565b80601f0160208091040260200160405190810160405280929190818152602001828054612ab59061497a565b8015612b025780601f10612ad757610100808354040283529160200191612b02565b820191906000526020600020905b815481529060010190602001808311612ae557829003601f168201915b505050505081525050905080610100015115612b2f57600081610100019015159081151581525050612b42565b6001816101000190151590811515815250505b8060096000858152602001908152602001600020600082015181600001556020820151816001019080519060200190612b7c929190614092565b506040820151816002019080519060200190612b99929190614092565b5060608201518160030160006101000a81548173ffffffffffffffffffffffffffffffffffffffff021916908373ffffffffffffffffffffffffffffffffffffffff16021790555060808201518160040160006101000a81548173ffffffffffffffffffffffffffffffffffffffff021916908373ffffffffffffffffffffffffffffffffffffffff16021790555060a0820151816005015560c08201518160060160006101000a81548160ff02191690836002811115612c5d57612c5c614d38565b5b021790555060e082015181600701556101008201518160080160006101000a81548160ff021916908315150217905550610120820151816009019080519060200190612caa929190614092565b5061014082015181600a019080519060200190612cc8929190614092565b5061016082015181600b019080519060200190612ce6929190614092565b5061018082015181600c019080519060200190612d04929190614092565b509050507f750d2c0292d37ce8d7b95175e3a8775dbff6cc659b7b752290bf45fffc096ede8284836101000151604051612d409392919061542e565b60405180910390a15050600160068190555050565b6000612d60826138c2565b612d9f576040517f08c379a0000000000000000000000000000000000000000000000000000000008152600401612d96906154d7565b60405180910390fd5b6009600083815260200190815260200160002060080160009054906101000a900460ff169050919050565b60026006541415612e10576040517f08c379a0000000000000000000000000000000000000000000000000000000008152600401612e0790614bae565b60405180910390fd5b6002600681905550612e2061392e565b73ffffffffffffffffffffffffffffffffffffffff16612e3e612343565b73ffffffffffffffffffffffffffffffffffffffff1614612e94576040517f08c379a0000000000000000000000000000000000000000000000000000000008152600401612e8b90615356565b60405180910390fd5b600073ffffffffffffffffffffffffffffffffffffffff16612eb461392e565b73ffffffffffffffffffffffffffffffffffffffff161415612f0b576040517f08c379a0000000000000000000000000000000000000000000000000000000008152600401612f0290615543565b60405180910390fd5b600b88604051612f1b919061559f565b908152602001604051809103902060009054906101000a900460ff1615612f77576040517f08c379a0000000000000000000000000000000000000000000000000000000008152600401612f6e90615602565b60405180910390fd5b600a89604051612f87919061559f565b908152602001604051809103902060009054906101000a900460ff1615612fe3576040517f08c379a0000000000000000000000000000000000000000000000000000000008152600401612fda9061566e565b60405180910390fd5b60005b878110156132f057612ff96008546138c2565b15613039576040517f08c379a000000000000000000000000000000000000000000000000000000000815260040161303090615700565b60405180910390fd5b61304c61304461392e565b600854613e7e565b6000604051806101a0016040528060085481526020018c81526020018b815260200161307661392e565b73ffffffffffffffffffffffffffffffffffffffff168152602001600073ffffffffffffffffffffffffffffffffffffffff1681526020018981526020016130bd8961404c565b60028111156130cf576130ce614d38565b5b81526020016000815260200160011515815260200187815260200186815260200185815260200184815250905080600960006008548152602001908152602001600020600082015181600001556020820151816001019080519060200190613138929190614092565b506040820151816002019080519060200190613155929190614092565b5060608201518160030160006101000a81548173ffffffffffffffffffffffffffffffffffffffff021916908373ffffffffffffffffffffffffffffffffffffffff16021790555060808201518160040160006101000a81548173ffffffffffffffffffffffffffffffffffffffff021916908373ffffffffffffffffffffffffffffffffffffffff16021790555060a0820151816005015560c08201518160060160006101000a81548160ff0219169083600281111561321957613218614d38565b5b021790555060e082015181600701556101008201518160080160006101000a81548160ff021916908315150217905550610120820151816009019080519060200190613266929190614092565b5061014082015181600a019080519060200190613284929190614092565b5061016082015181600b0190805190602001906132a2929190614092565b5061018082015181600c0190805190602001906132c0929190614092565b50905050600860008154809291906132d790615720565b91905055505080806132e890615720565b915050612fe6565b506001600b89604051613303919061559f565b908152602001604051809103902060006101000a81548160ff0219169083151502179055506001600a8a60405161333a919061559f565b908152602001604051809103902060006101000a81548160ff0219169083151502179055507f09bdae5d98a6de1fb68a66253123a1d9a821cec35694ecc62a55f55a42915b8d61338861392e565b8a8a8a8a8a60405161339f96959493929190615769565b60405180910390a16001600681905550505050505050505050565b60606133c5826138c2565b6133ce57600080fd5b60096000838152602001908152602001600020600c0180546133ef9061497a565b80601f016020809104026020016040519081016040528092919081815260200182805461341b9061497a565b80156134685780601f1061343d57610100808354040283529160200191613468565b820191906000526020600020905b81548152906001019060200180831161344b57829003601f168201915b50505050509050919050565b50505050565b6060613485826138c2565b6134c4576040517f08c379a00000000000000000000000000000000000000000000000000000000081526004016134bb90615870565b60405180910390fd5b6009600083815260200190815260200160002060020180546134e59061497a565b80601f01602080910402602001604051908101604052809291908181526020018280546135119061497a565b801561355e5780601f106135335761010080835404028352916020019161355e565b820191906000526020600020905b81548152906001019060200180831161354157829003601f168201915b50505050509050919050565b6000600854905090565b600061357f826138c2565b6135be576040517f08c379a00000000000000000000000000000000000000000000000000000000081526004016135b590615902565b60405180910390fd5b60096000838152602001908152602001600020600501549050919050565b60606135e7826138c2565b613626576040517f08c379a000000000000000000000000000000000000000000000000000000000815260040161361d90615994565b60405180910390fd5b6009600083815260200190815260200160002060010180546136479061497a565b80601f01602080910402602001604051908101604052809291908181526020018280546136739061497a565b80156136c05780601f10613695576101008083540402835291602001916136c0565b820191906000526020600020905b8154815290600101906020018083116136a357829003601f168201915b50505050509050919050565b6000600560008473ffffffffffffffffffffffffffffffffffffffff1673ffffffffffffffffffffffffffffffffffffffff16815260200190815260200160002060008373ffffffffffffffffffffffffffffffffffffffff1673ffffffffffffffffffffffffffffffffffffffff16815260200190815260200160002060009054906101000a900460ff16905092915050565b61376861392e565b73ffffffffffffffffffffffffffffffffffffffff16613786612343565b73ffffffffffffffffffffffffffffffffffffffff16146137dc576040517f08c379a00000000000000000000000000000000000000000000000000000000081526004016137d390615356565b60405180910390fd5b600073ffffffffffffffffffffffffffffffffffffffff168173ffffffffffffffffffffffffffffffffffffffff16141561384c576040517f08c379a000000000000000000000000000000000000000000000000000000000815260040161384390615a26565b60405180910390fd5b61385581613c4b565b50565b60007f01ffc9a7000000000000000000000000000000000000000000000000000000007bffffffffffffffffffffffffffffffffffffffffffffffffffffffff1916827bffffffffffffffffffffffffffffffffffffffffffffffffffffffff1916149050919050565b60008073ffffffffffffffffffffffffffffffffffffffff166002600084815260200190815260200160002060009054906101000a900473ffffffffffffffffffffffffffffffffffffffff1673ffffffffffffffffffffffffffffffffffffffff1614159050919050565b600033905090565b816004600083815260200190815260200160002060006101000a81548173ffffffffffffffffffffffffffffffffffffffff021916908373ffffffffffffffffffffffffffffffffffffffff160217905550808273ffffffffffffffffffffffffffffffffffffffff166139a983611fc8565b73ffffffffffffffffffffffffffffffffffffffff167f8c5be1e5ebec7d5bd14f71427d1e84f3dd0314c0f7b2291e5b200ac8c7c3b92560405160405180910390a45050565b8273ffffffffffffffffffffffffffffffffffffffff16613a0f82611fc8565b73ffffffffffffffffffffffffffffffffffffffff1614613a65576040517f08c379a0000000000000000000000000000000000000000000000000000000008152600401613a5c90615ab8565b60405180910390fd5b600073ffffffffffffffffffffffffffffffffffffffff168273ffffffffffffffffffffffffffffffffffffffff161415613ad5576040517f08c379a0000000000000000000000000000000000000000000000000000000008152600401613acc90615b4a565b60405180910390fd5b613ae083838361408d565b613aeb600082613936565b6001600360008573ffffffffffffffffffffffffffffffffffffffff1673ffffffffffffffffffffffffffffffffffffffff1681526020019081526020016000206000828254613b3b9190615b6a565b925050819055506001600360008473ffffffffffffffffffffffffffffffffffffffff1673ffffffffffffffffffffffffffffffffffffffff1681526020019081526020016000206000828254613b9291906150af565b92505081905550816002600083815260200190815260200160002060006101000a81548173ffffffffffffffffffffffffffffffffffffffff021916908373ffffffffffffffffffffffffffffffffffffffff160217905550808273ffffffffffffffffffffffffffffffffffffffff168473ffffffffffffffffffffffffffffffffffffffff167fddf252ad1be2c89b69c2b068fc378daa952ba7f163c4a11628f55a4df523b3ef60405160405180910390a4505050565b6000600760009054906101000a900473ffffffffffffffffffffffffffffffffffffffff16905081600760006101000a81548173ffffffffffffffffffffffffffffffffffffffff021916908373ffffffffffffffffffffffffffffffffffffffff1602179055508173ffffffffffffffffffffffffffffffffffffffff168173ffffffffffffffffffffffffffffffffffffffff167f8be0079c531659141344cd1fd0a4f28419497f9722a3daafe3b4186f6b6457e060405160405180910390a35050565b8173ffffffffffffffffffffffffffffffffffffffff168373ffffffffffffffffffffffffffffffffffffffff161415613d80576040517f08c379a0000000000000000000000000000000000000000000000000000000008152600401613d7790615bea565b60405180910390fd5b80600560008573ffffffffffffffffffffffffffffffffffffffff1673ffffffffffffffffffffffffffffffffffffffff16815260200190815260200160002060008473ffffffffffffffffffffffffffffffffffffffff1673ffffffffffffffffffffffffffffffffffffffff16815260200190815260200160002060006101000a81548160ff0219169083151502179055508173ffffffffffffffffffffffffffffffffffffffff168373ffffffffffffffffffffffffffffffffffffffff167f17307eab39ab6107e8899845ad3d59bd9653f200f220920489ca2b5937696c3183604051613e7191906141e9565b60405180910390a3505050565b600073ffffffffffffffffffffffffffffffffffffffff168273ffffffffffffffffffffffffffffffffffffffff161415613eee576040517f08c379a0000000000000000000000000000000000000000000000000000000008152600401613ee590615c56565b60405180910390fd5b613ef7816138c2565b15613f37576040517f08c379a0000000000000000000000000000000000000000000000000000000008152600401613f2e90615cc2565b60405180910390fd5b613f436000838361408d565b6001600360008473ffffffffffffffffffffffffffffffffffffffff1673ffffffffffffffffffffffffffffffffffffffff1681526020019081526020016000206000828254613f9391906150af565b92505081905550816002600083815260200190815260200160002060006101000a81548173ffffffffffffffffffffffffffffffffffffffff021916908373ffffffffffffffffffffffffffffffffffffffff160217905550808273ffffffffffffffffffffffffffffffffffffffff16600073ffffffffffffffffffffffffffffffffffffffff167fddf252ad1be2c89b69c2b068fc378daa952ba7f163c4a11628f55a4df523b3ef60405160405180910390a45050565b60008082141561405f5760009050614088565b60018214156140715760019050614088565b60028214156140835760029050614088565b600090505b919050565b505050565b82805461409e9061497a565b90600052602060002090601f0160209004810192826140c05760008555614107565b82601f106140d957805160ff1916838001178555614107565b82800160010185558215614107579182015b828111156141065782518255916020019190600101906140eb565b5b5090506141149190614118565b5090565b5b80821115614131576000816000905550600101614119565b5090565b6000604051905090565b600080fd5b600080fd5b60007fffffffff0000000000000000000000000000000000000000000000000000000082169050919050565b61417e81614149565b811461418957600080fd5b50565b60008135905061419b81614175565b92915050565b6000602082840312156141b7576141b661413f565b5b60006141c58482850161418c565b91505092915050565b60008115159050919050565b6141e3816141ce565b82525050565b60006020820190506141fe60008301846141da565b92915050565b600081519050919050565b600082825260208201905092915050565b60005b8381101561423e578082015181840152602081019050614223565b8381111561424d576000848401525b50505050565b6000601f19601f8301169050919050565b600061426f82614204565b614279818561420f565b9350614289818560208601614220565b61429281614253565b840191505092915050565b600060208201905081810360008301526142b78184614264565b905092915050565b6000819050919050565b6142d2816142bf565b81146142dd57600080fd5b50565b6000813590506142ef816142c9565b92915050565b60006020828403121561430b5761430a61413f565b5b6000614319848285016142e0565b91505092915050565b600073ffffffffffffffffffffffffffffffffffffffff82169050919050565b600061434d82614322565b9050919050565b61435d81614342565b82525050565b60006020820190506143786000830184614354565b92915050565b61438781614342565b811461439257600080fd5b50565b6000813590506143a48161437e565b92915050565b600080604083850312156143c1576143c061413f565b5b60006143cf85828601614395565b92505060206143e0858286016142e0565b9150509250929050565b600080604083850312156144015761440061413f565b5b600061440f858286016142e0565b9250506020614420858286016142e0565b9150509250929050565b6000806000606084860312156144435761444261413f565b5b600061445186828701614395565b935050602061446286828701614395565b9250506040614473868287016142e0565b9150509250925092565b614486816142bf565b82525050565b60006020820190506144a1600083018461447d565b92915050565b6000602082840312156144bd576144bc61413f565b5b60006144cb84828501614395565b91505092915050565b6144dd816141ce565b81146144e857600080fd5b50565b6000813590506144fa816144d4565b92915050565b600080604083850312156145175761451661413f565b5b600061452585828601614395565b9250506020614536858286016144eb565b9150509250929050565b600080fd5b600080fd5b7f4e487b7100000000000000000000000000000000000000000000000000000000600052604160045260246000fd5b61458282614253565b810181811067ffffffffffffffff821117156145a1576145a061454a565b5b80604052505050565b60006145b4614135565b90506145c08282614579565b919050565b600067ffffffffffffffff8211156145e0576145df61454a565b5b6145e982614253565b9050602081019050919050565b82818337600083830152505050565b6000614618614613846145c5565b6145aa565b90508281526020810184848401111561463457614633614545565b5b61463f8482856145f6565b509392505050565b600082601f83011261465c5761465b614540565b5b813561466c848260208601614605565b91505092915050565b60008060008060008060008060006101208a8c0312156146985761469761413f565b5b60008a013567ffffffffffffffff8111156146b6576146b5614144565b5b6146c28c828d01614647565b99505060208a013567ffffffffffffffff8111156146e3576146e2614144565b5b6146ef8c828d01614647565b98505060406147008c828d016142e0565b97505060606147118c828d016142e0565b96505060806147228c828d016142e0565b95505060a08a013567ffffffffffffffff81111561474357614742614144565b5b61474f8c828d01614647565b94505060c08a013567ffffffffffffffff8111156147705761476f614144565b5b61477c8c828d01614647565b93505060e08a013567ffffffffffffffff81111561479d5761479c614144565b5b6147a98c828d01614647565b9250506101008a013567ffffffffffffffff8111156147cb576147ca614144565b5b6147d78c828d01614647565b9150509295985092959850929598565b600067ffffffffffffffff8211156148025761480161454a565b5b61480b82614253565b9050602081019050919050565b600061482b614826846147e7565b6145aa565b90508281526020810184848401111561484757614846614545565b5b6148528482856145f6565b509392505050565b600082601f83011261486f5761486e614540565b5b813561487f848260208601614818565b91505092915050565b600080600080608085870312156148a2576148a161413f565b5b60006148b087828801614395565b94505060206148c187828801614395565b93505060406148d2878288016142e0565b925050606085013567ffffffffffffffff8111156148f3576148f2614144565b5b6148ff8782880161485a565b91505092959194509250565b600080604083850312156149225761492161413f565b5b600061493085828601614395565b925050602061494185828601614395565b9150509250929050565b7f4e487b7100000000000000000000000000000000000000000000000000000000600052602260045260246000fd5b6000600282049050600182168061499257607f821691505b602082108114156149a6576149a561494b565b5b50919050565b7f4552433732313a20617070726f76656420717565727920666f72206e6f6e657860008201527f697374656e7420746f6b656e0000000000000000000000000000000000000000602082015250565b6000614a08602c8361420f565b9150614a13826149ac565b604082019050919050565b60006020820190508181036000830152614a37816149fb565b9050919050565b7f4552433732313a20617070726f76616c20746f2063757272656e74206f776e6560008201527f7200000000000000000000000000000000000000000000000000000000000000602082015250565b6000614a9a60218361420f565b9150614aa582614a3e565b604082019050919050565b60006020820190508181036000830152614ac981614a8d565b9050919050565b7f4552433732313a20617070726f76652063616c6c6572206973206e6f74206f7760008201527f6e6572206e6f7220617070726f76656420666f7220616c6c0000000000000000602082015250565b6000614b2c60388361420f565b9150614b3782614ad0565b604082019050919050565b60006020820190508181036000830152614b5b81614b1f565b9050919050565b7f5265656e7472616e637947756172643a207265656e7472616e742063616c6c00600082015250565b6000614b98601f8361420f565b9150614ba382614b62565b602082019050919050565b60006020820190508181036000830152614bc781614b8b565b9050919050565b7f6e756c6c20616464726573730000000000000000000000000000000000000000600082015250565b6000614c04600c8361420f565b9150614c0f82614bce565b602082019050919050565b60006020820190508181036000830152614c3381614bf7565b9050919050565b7f746f6b656e206d75737420657869737400000000000000000000000000000000600082015250565b6000614c7060108361420f565b9150614c7b82614c3a565b602082019050919050565b60006020820190508181036000830152614c9f81614c63565b9050919050565b7f4e6f206f776e65722063616e206e6f74206368616e676520746f6b656e20707260008201527f6963650000000000000000000000000000000000000000000000000000000000602082015250565b6000614d0260238361420f565b9150614d0d82614ca6565b604082019050919050565b60006020820190508181036000830152614d3181614cf5565b9050919050565b7f4e487b7100000000000000000000000000000000000000000000000000000000600052602160045260246000fd5b6000608082019050614d7c6000830187614354565b614d89602083018661447d565b614d96604083018561447d565b614da3606083018461447d565b95945050505050565b7f4879706572584e4654436f6c6c656374696f6e3a207175657279206f6620746f60008201527f6b656e2070726576696f7573206f776e657220666f72206e6f6e65786973746560208201527f6e7420746f6b656e000000000000000000000000000000000000000000000000604082015250565b6000614e2e60488361420f565b9150614e3982614dac565b606082019050919050565b60006020820190508181036000830152614e5d81614e21565b9050919050565b7f6e6f6e2d6578697374656e7420746f6b656e0000000000000000000000000000600082015250565b6000614e9a60128361420f565b9150614ea582614e64565b602082019050919050565b60006020820190508181036000830152614ec981614e8d565b9050919050565b7f6f776e6572206973206e756c6c00000000000000000000000000000000000000600082015250565b6000614f06600d8361420f565b9150614f1182614ed0565b602082019050919050565b60006020820190508181036000830152614f3581614ef9565b9050919050565b7f62757965722073686f756c64206e6f74206265206f776e657200000000000000600082015250565b6000614f7260198361420f565b9150614f7d82614f3c565b602082019050919050565b60006020820190508181036000830152614fa181614f65565b9050919050565b7f696e73756666696369656e74206d6f6e657920746f2062757900000000000000600082015250565b6000614fde60198361420f565b9150614fe982614fa8565b602082019050919050565b6000602082019050818103600083015261500d81614fd1565b9050919050565b7f746f6b656e206e6f74206f6e2073616c65000000000000000000000000000000600082015250565b600061504a60118361420f565b915061505582615014565b602082019050919050565b600060208201905081810360008301526150798161503d565b9050919050565b7f4e487b7100000000000000000000000000000000000000000000000000000000600052601160045260246000fd5b60006150ba826142bf565b91506150c5836142bf565b9250827fffffffffffffffffffffffffffffffffffffffffffffffffffffffffffffffff038211156150fa576150f9615080565b5b828201905092915050565b600060408201905061511a6000830185614354565b615127602083018461447d565b9392505050565b7f4552433732313a206f776e657220717565727920666f72206e6f6e657869737460008201527f656e7420746f6b656e0000000000000000000000000000000000000000000000602082015250565b600061518a60298361420f565b91506151958261512e565b604082019050919050565b600060208201905081810360008301526151b98161517d565b9050919050565b7f4879706572584e4654436f6c6c656374696f6e3a20546f6b656e207472616e7360008201527f66657220636f756e7420717565727920666f72206e6f6e6578697374656e742060208201527f746f6b656e000000000000000000000000000000000000000000000000000000604082015250565b600061524260458361420f565b915061524d826151c0565b606082019050919050565b6000602082019050818103600083015261527181615235565b9050919050565b7f4552433732313a2062616c616e636520717565727920666f7220746865207a6560008201527f726f206164647265737300000000000000000000000000000000000000000000602082015250565b60006152d4602a8361420f565b91506152df82615278565b604082019050919050565b60006020820190508181036000830152615303816152c7565b9050919050565b7f4f776e61626c653a2063616c6c6572206973206e6f7420746865206f776e6572600082015250565b600061534060208361420f565b915061534b8261530a565b602082019050919050565b6000602082019050818103600083015261536f81615333565b9050919050565b7f4879706572584e4654436f6c6c656374696f6e3a20546f6b656e207061796d6560008201527f6e74207479706520717565727920666f72206e6f6e6578697374656e7420746f60208201527f6b656e0000000000000000000000000000000000000000000000000000000000604082015250565b60006153f860438361420f565b915061540382615376565b606082019050919050565b60006020820190508181036000830152615427816153eb565b9050919050565b60006060820190506154436000830186614354565b615450602083018561447d565b61545d60408301846141da565b949350505050565b7f4879706572584e4654436f6c6c656374696f6e3a20546f6b656e2073616c652060008201527f717565727920666f72206e6f6e6578697374656e7420746f6b656e0000000000602082015250565b60006154c1603b8361420f565b91506154cc82615465565b604082019050919050565b600060208201905081810360008301526154f0816154b4565b9050919050565b7f6d696e746572206973206e756c6c000000000000000000000000000000000000600082015250565b600061552d600e8361420f565b9150615538826154f7565b602082019050919050565b6000602082019050818103600083015261555c81615520565b9050919050565b600081905092915050565b600061557982614204565b6155838185615563565b9350615593818560208601614220565b80840191505092915050565b60006155ab828461556e565b915081905092915050565b7f5552492072657065746974696f6e207768696c65206d696e74696e6700000000600082015250565b60006155ec601c8361420f565b91506155f7826155b6565b602082019050919050565b6000602082019050818103600083015261561b816155df565b9050919050565b7f6e616d652072657065746974696f6e207768696c65206d696e74696e67000000600082015250565b6000615658601d8361420f565b915061566382615622565b602082019050919050565b600060208201905081810360008301526156878161564b565b9050919050565b7f746f6b656e2069642072657065746974696f6e207768696c65206d696e74696e60008201527f6700000000000000000000000000000000000000000000000000000000000000602082015250565b60006156ea60218361420f565b91506156f58261568e565b604082019050919050565b60006020820190508181036000830152615719816156dd565b9050919050565b600061572b826142bf565b91507fffffffffffffffffffffffffffffffffffffffffffffffffffffffffffffffff82141561575e5761575d615080565b5b600182019050919050565b600060c08201905061577e6000830189614354565b81810360208301526157908188614264565b905081810360408301526157a48187614264565b90506157b3606083018661447d565b6157c0608083018561447d565b6157cd60a083018461447d565b979650505050505050565b7f4879706572584e4654436f6c6c656374696f6e3a20746f6b656e206d6574616460008201527f6174612055524920717565727920666f72206e6f6e6578697374656e7420746f60208201527f6b656e0000000000000000000000000000000000000000000000000000000000604082015250565b600061585a60438361420f565b9150615865826157d8565b606082019050919050565b600060208201905081810360008301526158898161584d565b9050919050565b7f4879706572584e4654436f6c6c656374696f6e3a20546f6b656e20707269636560008201527f20717565727920666f72206e6f6e6578697374656e7420746f6b656e00000000602082015250565b60006158ec603c8361420f565b91506158f782615890565b604082019050919050565b6000602082019050818103600083015261591b816158df565b9050919050565b7f4879706572584e4654436f6c6c656374696f6e3a20546f6b656e204e616d652060008201527f717565727920666f72206e6f6e6578697374656e7420746f6b656e0000000000602082015250565b600061597e603b8361420f565b915061598982615922565b604082019050919050565b600060208201905081810360008301526159ad81615971565b9050919050565b7f4f776e61626c653a206e6577206f776e657220697320746865207a65726f206160008201527f6464726573730000000000000000000000000000000000000000000000000000602082015250565b6000615a1060268361420f565b9150615a1b826159b4565b604082019050919050565b60006020820190508181036000830152615a3f81615a03565b9050919050565b7f4552433732313a207472616e73666572206f6620746f6b656e2074686174206960008201527f73206e6f74206f776e0000000000000000000000000000000000000000000000602082015250565b6000615aa260298361420f565b9150615aad82615a46565b604082019050919050565b60006020820190508181036000830152615ad181615a95565b9050919050565b7f4552433732313a207472616e7366657220746f20746865207a65726f2061646460008201527f7265737300000000000000000000000000000000000000000000000000000000602082015250565b6000615b3460248361420f565b9150615b3f82615ad8565b604082019050919050565b60006020820190508181036000830152615b6381615b27565b9050919050565b6000615b75826142bf565b9150615b80836142bf565b925082821015615b9357615b92615080565b5b828203905092915050565b7f4552433732313a20617070726f766520746f2063616c6c657200000000000000600082015250565b6000615bd460198361420f565b9150615bdf82615b9e565b602082019050919050565b60006020820190508181036000830152615c0381615bc7565b9050919050565b7f4552433732313a206d696e7420746f20746865207a65726f2061646472657373600082015250565b6000615c4060208361420f565b9150615c4b82615c0a565b602082019050919050565b60006020820190508181036000830152615c6f81615c33565b9050919050565b7f4552433732313a20746f6b656e20616c7265616479206d696e74656400000000600082015250565b6000615cac601c8361420f565b9150615cb782615c76565b602082019050919050565b60006020820190508181036000830152615cdb81615c9f565b905091905056fea26469706673582212208c47edf72b44e5ca5aebbe634d3b61b8d7b3a2770401181fb42e013a4136fa1464736f6c634300080a0033",
  "immutableReferences": {},
  "source": "// SPDX-License-Identifier: MIT\r\npragma solidity >=0.4.22 <0.9.0;\r\n\r\npragma abicoder v2;\r\n\r\n// import ERC721 iterface\r\nimport \"@openzeppelin/contracts/token/ERC721/ERC721.sol\";\r\nimport \"@openzeppelin/contracts/security/ReentrancyGuard.sol\";\r\nimport \"@openzeppelin/contracts/utils/Context.sol\";\r\nimport \"@openzeppelin/contracts/access/Ownable.sol\";\r\n\r\n// HyperXNFTCollection smart contract inherits ERC721 interface\r\ncontract HyperXNFTCollection is ERC721, ReentrancyGuard, Ownable {\r\n\r\n    event MintNewToken(address minter, string _name, string _tokenURI, uint256 numOfCopy, uint256 _price, uint256 payment);\r\n    event ChangedPrice(address owner, uint256 tokenId, uint256 oldPrice, uint256 newPrice);\r\n    event BuyToken(address buyer, uint256 tokenId);\r\n    event ToggleOnSale(address owner, uint256 tokenId, bool onSale);\r\n\r\n    // total number of HyperXNFT minted\r\n    uint256 private tokenCounter;\r\n\r\n    // define enum for payment typeof\r\n    enum HyperXPaymentType {\r\n        HyperXToken,\r\n        BNB,\r\n        BUSD\r\n    }\r\n\r\n    // define struct\r\n    struct HyperXUnit {\r\n        uint256 tokenId;\r\n        string tokenName;\r\n        string tokenURI;\r\n        address mintedBy;\r\n        address previousOwner;\r\n        uint256 price;\r\n        HyperXPaymentType payout;\r\n        uint256 numberOfTransfers;\r\n        bool forSale;\r\n\r\n        string title;\r\n        string category;\r\n        string description;\r\n        string hashtags;\r\n    }\r\n\r\n    // map token id to struct\r\n    mapping(uint256 => HyperXUnit) private allNFTUnits;\r\n\r\n    // check if token name exists\r\n    mapping(string => bool) private tokenNameExists;\r\n    // check if token URI exists\r\n    mapping(string => bool) private tokenURIExists;\r\n\r\n    // initialize contract while deployment with contract's collection name and token\r\n    constructor(string memory collectionName, string memory symbolName)\r\n        ERC721(collectionName, symbolName)\r\n    {\r\n        tokenCounter = 0;\r\n    }\r\n\r\n    function convertPaymentString(uint256 payment)\r\n        internal\r\n        pure\r\n        returns (HyperXPaymentType)\r\n    {\r\n        if (payment == 0) return HyperXPaymentType.HyperXToken;\r\n        else if (payment == 1) return HyperXPaymentType.BNB;\r\n        else if (payment == 2) return HyperXPaymentType.BUSD;\r\n        else return HyperXPaymentType.HyperXToken;\r\n    }\r\n\r\n    // mint a new token\r\n    function mintNewNFT(\r\n        string memory _name,\r\n        string memory _tokenURI,\r\n        uint256 numOfCopy,\r\n        uint256 _price,\r\n        uint256 payment,\r\n        string memory title,\r\n        string memory category,\r\n        string memory description,\r\n        string memory hashtags\r\n    ) external nonReentrant onlyOwner {\r\n        // check if thic fucntion caller is not an zero address account\r\n        require(_msgSender() != address(0), \"minter is null\");\r\n\r\n        // check if the token URI already exists or not\r\n        require(!tokenURIExists[_tokenURI], \"URI repetition while minting\");\r\n        // check if the token name already exists or not\r\n        require(!tokenNameExists[_name], \"name repetition while minting\");\r\n\r\n        for (uint256 i = 0; i < numOfCopy; i++) {\r\n            // check if a token exists with the above token id => incremented counter\r\n            require(!_exists(tokenCounter), \"token id repetition while minting\");\r\n\r\n            // mint the token\r\n            _mint(_msgSender(), tokenCounter);\r\n\r\n            // creat a new token info (struct) and pass in new values\r\n            HyperXUnit memory newToken = HyperXUnit(\r\n                tokenCounter,\r\n                _name,\r\n                _tokenURI,\r\n                _msgSender(),\r\n                address(0),\r\n                _price,\r\n                convertPaymentString(payment),\r\n                0,\r\n                true,\r\n                title,\r\n                category,\r\n                description,\r\n                hashtags\r\n            );\r\n            // add the token id and it's token info to all info mapping\r\n            allNFTUnits[tokenCounter] = newToken;\r\n            // increment counter\r\n            tokenCounter++;\r\n        }\r\n        // make passed token URI as exists\r\n        tokenURIExists[_tokenURI] = true;\r\n        // make token name passed as exists\r\n        tokenNameExists[_name] = true;\r\n\r\n        emit MintNewToken(_msgSender(), _name, _tokenURI, numOfCopy, _price, payment);\r\n    }\r\n\r\n    // get total number of tokens minted so far\r\n    function getNumberOfTokensMinted() public view returns (uint256) {\r\n        return tokenCounter;\r\n    }\r\n\r\n    // check if the token already exists\r\n    function getTokenExists(uint256 _tokenId) public view returns (bool) {\r\n        bool tokenExists = _exists(_tokenId);\r\n        return tokenExists;\r\n    }\r\n\r\n    // get URI of metadata of token\r\n    function tokenURI(uint256 _tokenId)\r\n        public\r\n        view\r\n        override\r\n        returns (string memory)\r\n    {\r\n        require(\r\n            _exists(_tokenId),\r\n            \"HyperXNFTCollection: token metadata URI query for nonexistent token\"\r\n        );\r\n\r\n        return allNFTUnits[_tokenId].tokenURI;\r\n    }\r\n\r\n    // get name of token\r\n    function tokenName(uint256 _tokenId) public view returns (string memory) {\r\n        require(\r\n            _exists(_tokenId),\r\n            \"HyperXNFTCollection: Token Name query for nonexistent token\"\r\n        );\r\n\r\n        return allNFTUnits[_tokenId].tokenName;\r\n    }\r\n\r\n    // get previous owner of the token\r\n    function tokenPreviousOwner(uint256 _tokenId)\r\n        public\r\n        view\r\n        returns (address)\r\n    {\r\n        require(\r\n            _exists(_tokenId),\r\n            \"HyperXNFTCollection: query of token previous owner for nonexistent token\"\r\n        );\r\n\r\n        return allNFTUnits[_tokenId].previousOwner;\r\n    }\r\n\r\n    // get price of the token\r\n    function tokenPrice(uint256 _tokenId) public view returns (uint256) {\r\n        require(\r\n            _exists(_tokenId),\r\n            \"HyperXNFTCollection: Token price query for nonexistent token\"\r\n        );\r\n\r\n        return allNFTUnits[_tokenId].price;\r\n    }\r\n\r\n    function tokenPaymentType(uint256 _tokenId) public view returns (uint256) {\r\n        require(\r\n            _exists(_tokenId),\r\n            \"HyperXNFTCollection: Token payment type query for nonexistent token\"\r\n        );\r\n\r\n        HyperXPaymentType p = allNFTUnits[_tokenId].payout;\r\n        if (p == HyperXPaymentType.HyperXToken) return 0;\r\n        else if (p == HyperXPaymentType.BNB) return 1;\r\n        else if (p == HyperXPaymentType.BUSD) return 2;\r\n\r\n        return 0;\r\n    }\r\n\r\n    function tokenTransferCount(uint256 _tokenId)\r\n        public\r\n        view\r\n        returns (uint256)\r\n    {\r\n        require(\r\n            _exists(_tokenId),\r\n            \"HyperXNFTCollection: Token transfer count query for nonexistent token\"\r\n        );\r\n\r\n        return allNFTUnits[_tokenId].numberOfTransfers;\r\n    }\r\n\r\n    function tokenOnSale(uint256 _tokenId) public view returns (bool) {\r\n        require(\r\n            _exists(_tokenId),\r\n            \"HyperXNFTCollection: Token sale query for nonexistent token\"\r\n        );\r\n\r\n        return allNFTUnits[_tokenId].forSale;\r\n    }\r\n\r\n    function tokenTitle(uint256 _tokenId) public view returns (string memory) {\r\n        require(_exists(_tokenId));\r\n\r\n        return allNFTUnits[_tokenId].title;\r\n    }\r\n\r\n    function tokenCategory(uint256 _tokenId) public view returns (string memory) {\r\n        require(_exists(_tokenId));\r\n\r\n        return allNFTUnits[_tokenId].category;\r\n    }\r\n\r\n    function tokenDescription(uint256 _tokenId) public view returns (string memory) {\r\n        require(_exists(_tokenId));\r\n\r\n        return allNFTUnits[_tokenId].description;\r\n    }\r\n\r\n    function tokenHashTags(uint256 _tokenId) public view returns (string memory) {\r\n        require(_exists(_tokenId));\r\n\r\n        return allNFTUnits[_tokenId].hashtags;\r\n    }\r\n\r\n    // by a token by passing in the token's id\r\n    function buyNFT(uint256 _tokenId) public payable nonReentrant {\r\n        // check if the function caller is not an zero account address\r\n        require(_msgSender() != address(0), \"null address\");\r\n        // check if the token id of the token being bought exists or not\r\n        require(_exists(_tokenId), \"non-existent token\");\r\n        // get the token's owner\r\n        address tokenOwner = ownerOf(_tokenId);\r\n        // token's owner should not be an zero address account\r\n        require(tokenOwner != address(0), \"owner is null\");\r\n        // the one who wants to buy the token should not be the token's owner\r\n        require(tokenOwner != _msgSender(), \"buyer should not be owner\");\r\n        // get that token from all info and create a memory of it defined as (struct => HyperXUnit)\r\n        HyperXUnit memory tokenItem = allNFTUnits[_tokenId];\r\n        // price sent in to buy should be equal to or more than the token's price\r\n        require(msg.value >= tokenItem.price, \"insufficient money to buy\");\r\n        // token should be for sale\r\n        require(tokenItem.forSale, \"token not on sale\");\r\n        // transfer the token from owner to the caller of the function (buyer)\r\n        _transfer(tokenOwner, _msgSender(), _tokenId);\r\n        // send token's worth of ethers to the owner\r\n        payable(tokenOwner).transfer(msg.value);\r\n        // update the token's previous owner\r\n        tokenItem.previousOwner = tokenOwner;\r\n        // update the how many times this token was transfered\r\n        tokenItem.numberOfTransfers += 1;\r\n        // set and update that token in the mapping\r\n        allNFTUnits[_tokenId] = tokenItem;\r\n\r\n        emit BuyToken(tokenOwner, _tokenId);\r\n    }\r\n\r\n    function changeNFTPrice(uint256 _tokenId, uint256 _newPrice)\r\n        public\r\n        nonReentrant\r\n    {\r\n        // require caller of the function is not an empty address\r\n        require(_msgSender() != address(0), \"null address\");\r\n        // require that token should exist\r\n        require(_exists(_tokenId), \"token must exist\");\r\n        // get the token's owner\r\n        address tokenOwner = ownerOf(_tokenId);\r\n        // check that token's owner should be equal to the caller of the function\r\n        require(tokenOwner == _msgSender(), \"No owner can not change token price\");\r\n        // get that token from all info mapping and create a memory of it defined as (struct => HyperXUnit)\r\n        HyperXUnit memory tokenItem = allNFTUnits[_tokenId];\r\n        // update token's price with new price\r\n        uint256 oldPrice = tokenItem.price;\r\n        tokenItem.price = _newPrice;\r\n        // set and update that token in the mapping\r\n        allNFTUnits[_tokenId] = tokenItem;\r\n\r\n        emit ChangedPrice(tokenOwner, _tokenId, oldPrice, _newPrice);\r\n    }\r\n\r\n    // switch between set for sale and set not for sale\r\n    function toggleForSale(uint256 _tokenId) public nonReentrant {\r\n        // require caller of the function is not an empty address\r\n        require(_msgSender() != address(0), \"null address\");\r\n        // require that token should exist\r\n        require(_exists(_tokenId), \"token must exist\");\r\n        // get the token's owner\r\n        address tokenOwner = ownerOf(_tokenId);\r\n        // check that token's owner should be equal to the caller of the function\r\n        require(tokenOwner == _msgSender(), \"No owner can not change token price\");\r\n        // get that token from all info mapping and create a memory of it defined as (struct => HyperXUnit)\r\n        HyperXUnit memory tokenItem = allNFTUnits[_tokenId];\r\n        // if token's forSale is false make it true and vice versa\r\n        if (tokenItem.forSale) {\r\n            tokenItem.forSale = false;\r\n        } else {\r\n            tokenItem.forSale = true;\r\n        }\r\n        // set and update that token in the mapping\r\n        allNFTUnits[_tokenId] = tokenItem;\r\n\r\n        emit ToggleOnSale(tokenOwner, _tokenId, tokenItem.forSale);\r\n    }\r\n\r\n    function transferFrom(\r\n        address from,\r\n        address to,\r\n        uint256 tokenId\r\n    ) public virtual override {}\r\n\r\n    function safeTransferFrom(\r\n        address from,\r\n        address to,\r\n        uint256 tokenId\r\n    ) public virtual override {}\r\n\r\n    function safeTransferFrom(\r\n        address from,\r\n        address to,\r\n        uint256 tokenId,\r\n        bytes memory _data\r\n    ) public virtual override {}\r\n}\r\n\r\ncontract HyperXNFTCollection1 is HyperXNFTCollection {\r\n    constructor(string memory collectionName, string memory symbolName)\r\n        HyperXNFTCollection(collectionName, symbolName)\r\n    {}\r\n}\r\n\r\ncontract HyperXNFTCollection2 is HyperXNFTCollection {\r\n    constructor(string memory collectionName, string memory symbolName)\r\n        HyperXNFTCollection(collectionName, symbolName)\r\n    {}\r\n}\r\n",
  "sourcePath": "E:\\MyWork\\Task\\forwarded\\1\\HyperXNFT-contracts\\contracts\\HyperXNFTCollection.sol",
  "compiler": {
    "name": "solc",
    "version": "0.8.10+commit.fc410830.Emscripten.clang"
  },
  "schemaVersion": "3.4.3",
  "updatedAt": "2021-12-09T17:06:22.617Z",
  "devdoc": {
    "kind": "dev",
    "methods": {
      "approve(address,uint256)": {
        "details": "See {IERC721-approve}."
      },
      "balanceOf(address)": {
        "details": "See {IERC721-balanceOf}."
      },
      "getApproved(uint256)": {
        "details": "See {IERC721-getApproved}."
      },
      "isApprovedForAll(address,address)": {
        "details": "See {IERC721-isApprovedForAll}."
      },
      "name()": {
        "details": "See {IERC721Metadata-name}."
      },
      "owner()": {
        "details": "Returns the address of the current owner."
      },
      "ownerOf(uint256)": {
        "details": "See {IERC721-ownerOf}."
      },
      "renounceOwnership()": {
        "details": "Leaves the contract without owner. It will not be possible to call `onlyOwner` functions anymore. Can only be called by the current owner. NOTE: Renouncing ownership will leave the contract without an owner, thereby removing any functionality that is only available to the owner."
      },
      "safeTransferFrom(address,address,uint256)": {
        "details": "See {IERC721-safeTransferFrom}."
      },
      "safeTransferFrom(address,address,uint256,bytes)": {
        "details": "See {IERC721-safeTransferFrom}."
      },
      "setApprovalForAll(address,bool)": {
        "details": "See {IERC721-setApprovalForAll}."
      },
      "supportsInterface(bytes4)": {
        "details": "See {IERC165-supportsInterface}."
      },
      "symbol()": {
        "details": "See {IERC721Metadata-symbol}."
      },
      "transferFrom(address,address,uint256)": {
        "details": "See {IERC721-transferFrom}."
      },
      "transferOwnership(address)": {
        "details": "Transfers ownership of the contract to a new account (`newOwner`). Can only be called by the current owner."
      }
    },
    "version": 1
  },
  "userdoc": {
    "kind": "user",
    "methods": {},
    "version": 1
  }
}