{
  "contractName": "HyperXNFTManage",
  "abi": [
    {
      "inputs": [],
      "stateMutability": "nonpayable",
      "type": "constructor"
    },
    {
      "anonymous": false,
      "inputs": [
        {
          "indexed": false,
          "internalType": "uint256",
          "name": "",
          "type": "uint256"
        },
        {
          "indexed": false,
          "internalType": "address",
          "name": "",
          "type": "address"
        }
      ],
      "name": "AddCollection",
      "type": "event"
    },
    {
      "anonymous": false,
      "inputs": [
        {
          "indexed": true,
          "internalType": "address",
          "name": "previousOwner",
          "type": "address"
        },
        {
          "indexed": true,
          "internalType": "address",
          "name": "newOwner",
          "type": "address"
        }
      ],
      "name": "OwnershipTransferred",
      "type": "event"
    },
    {
      "anonymous": false,
      "inputs": [
        {
          "indexed": false,
          "internalType": "uint256",
          "name": "",
          "type": "uint256"
        },
        {
          "indexed": false,
          "internalType": "address",
          "name": "",
          "type": "address"
        }
      ],
      "name": "RemoveCollection",
      "type": "event"
    },
    {
      "anonymous": false,
      "inputs": [
        {
          "indexed": false,
          "internalType": "uint256",
          "name": "",
          "type": "uint256"
        }
      ],
      "name": "TestEvent",
      "type": "event"
    },
    {
      "inputs": [
        {
          "internalType": "address",
          "name": "nftContractAddress",
          "type": "address"
        }
      ],
      "name": "addCollection",
      "outputs": [
        {
          "internalType": "uint256",
          "name": "",
          "type": "uint256"
        }
      ],
      "stateMutability": "nonpayable",
      "type": "function"
    },
    {
      "inputs": [],
      "name": "getCollectionInfo",
      "outputs": [
        {
          "internalType": "address[]",
          "name": "",
          "type": "address[]"
        }
      ],
      "stateMutability": "view",
      "type": "function"
    },
    {
      "inputs": [
        {
          "internalType": "address",
          "name": "eouser",
          "type": "address"
        }
      ],
      "name": "isApprovedCollection",
      "outputs": [
        {
          "internalType": "bool",
          "name": "",
          "type": "bool"
        }
      ],
      "stateMutability": "view",
      "type": "function"
    },
    {
      "inputs": [],
      "name": "owner",
      "outputs": [
        {
          "internalType": "address",
          "name": "",
          "type": "address"
        }
      ],
      "stateMutability": "view",
      "type": "function"
    },
    {
      "inputs": [
        {
          "internalType": "address",
          "name": "nftContractAddress",
          "type": "address"
        }
      ],
      "name": "removeCollection",
      "outputs": [
        {
          "internalType": "uint256",
          "name": "",
          "type": "uint256"
        }
      ],
      "stateMutability": "nonpayable",
      "type": "function"
    },
    {
      "inputs": [],
      "name": "renounceOwnership",
      "outputs": [],
      "stateMutability": "nonpayable",
      "type": "function"
    },
    {
      "inputs": [
        {
          "internalType": "address",
          "name": "eouser",
          "type": "address"
        },
        {
          "internalType": "bool",
          "name": "bApprove",
          "type": "bool"
        }
      ],
      "name": "setApproveCollection",
      "outputs": [],
      "stateMutability": "nonpayable",
      "type": "function"
    },
    {
      "inputs": [
        {
          "internalType": "address",
          "name": "newOwner",
          "type": "address"
        }
      ],
      "name": "transferOwnership",
      "outputs": [],
      "stateMutability": "nonpayable",
      "type": "function"
    }
  ],
  "bytecode": "0x608060405234801561001057600080fd5b5061002d61002261003960201b60201c565b61004160201b60201c565b60018081905550610105565b600033905090565b60008060009054906101000a900473ffffffffffffffffffffffffffffffffffffffff169050816000806101000a81548173ffffffffffffffffffffffffffffffffffffffff021916908373ffffffffffffffffffffffffffffffffffffffff1602179055508173ffffffffffffffffffffffffffffffffffffffff168173ffffffffffffffffffffffffffffffffffffffff167f8be0079c531659141344cd1fd0a4f28419497f9722a3daafe3b4186f6b6457e060405160405180910390a35050565b6117c7806101146000396000f3fe608060405234801561001057600080fd5b50600436106100885760003560e01c806374fa29b31161005b57806374fa29b3146101155780638da5cb5b14610131578063a174e77a1461014f578063f2fde38b1461017f57610088565b80631a77447c1461008d5780635028d05a146100ab5780636341836f146100db578063715018a61461010b575b600080fd5b61009561019b565b6040516100a2919061108a565b60405180910390f35b6100c560048036038101906100c091906110dd565b610229565b6040516100d29190611123565b60405180910390f35b6100f560048036038101906100f091906110dd565b610645565b6040516101029190611159565b60405180910390f35b61011361069b565b005b61012f600480360381019061012a91906111a0565b610723565b005b610139610859565b60405161014691906111ef565b60405180910390f35b610169600480360381019061016491906110dd565b610882565b6040516101769190611123565b60405180910390f35b610199600480360381019061019491906110dd565b610dc3565b005b6060600280548060200260200160405190810160405280929190818152602001828054801561021f57602002820191906000526020600020905b8160009054906101000a900473ffffffffffffffffffffffffffffffffffffffff1673ffffffffffffffffffffffffffffffffffffffff16815260200190600101908083116101d5575b5050505050905090565b6000610233610ebb565b73ffffffffffffffffffffffffffffffffffffffff16610251610859565b73ffffffffffffffffffffffffffffffffffffffff1614806102ca5750600115156003600061027e610ebb565b73ffffffffffffffffffffffffffffffffffffffff1673ffffffffffffffffffffffffffffffffffffffff16815260200190815260200160002060009054906101000a900460ff161515145b610309576040517f08c379a00000000000000000000000000000000000000000000000000000000081526004016103009061128d565b60405180910390fd5b6103288273ffffffffffffffffffffffffffffffffffffffff16610ec3565b610367576040517f08c379a000000000000000000000000000000000000000000000000000000000815260040161035e906112f9565b60405180910390fd5b600073ffffffffffffffffffffffffffffffffffffffff168273ffffffffffffffffffffffffffffffffffffffff1614156103d7576040517f08c379a00000000000000000000000000000000000000000000000000000000081526004016103ce90611365565b60405180910390fd5b6103df610ebb565b73ffffffffffffffffffffffffffffffffffffffff168273ffffffffffffffffffffffffffffffffffffffff16638da5cb5b6040518163ffffffff1660e01b8152600401602060405180830381865afa158015610440573d6000803e3d6000fd5b505050506040513d601f19601f82011682018060405250810190610464919061139a565b73ffffffffffffffffffffffffffffffffffffffff16146104ba576040517f08c379a00000000000000000000000000000000000000000000000000000000081526004016104b190611439565b60405180910390fd5b600080600091505b6002805490508210156105bb578373ffffffffffffffffffffffffffffffffffffffff16600283815481106104fa576104f9611459565b5b9060005260206000200160009054906101000a900473ffffffffffffffffffffffffffffffffffffffff1673ffffffffffffffffffffffffffffffffffffffff1614156105a85760006002838154811061055757610556611459565b5b9060005260206000200160006101000a81548173ffffffffffffffffffffffffffffffffffffffff021916908373ffffffffffffffffffffffffffffffffffffffff160217905550600190506105bb565b81806105b3906114b7565b9250506104c2565b6001151581151514610602576040517f08c379a00000000000000000000000000000000000000000000000000000000081526004016105f99061154c565b60405180910390fd5b7fe015dfff5c673d4f19ba2328c61f694bda8021d541896f56566b072abaede141828560405161063392919061156c565b60405180910390a18192505050919050565b6000600360008373ffffffffffffffffffffffffffffffffffffffff1673ffffffffffffffffffffffffffffffffffffffff16815260200190815260200160002060009054906101000a900460ff169050919050565b6106a3610ebb565b73ffffffffffffffffffffffffffffffffffffffff166106c1610859565b73ffffffffffffffffffffffffffffffffffffffff1614610717576040517f08c379a000000000000000000000000000000000000000000000000000000000815260040161070e906115e1565b60405180910390fd5b6107216000610ed6565b565b61072b610ebb565b73ffffffffffffffffffffffffffffffffffffffff16610749610859565b73ffffffffffffffffffffffffffffffffffffffff161461079f576040517f08c379a0000000000000000000000000000000000000000000000000000000008152600401610796906115e1565b60405180910390fd5b6107be8273ffffffffffffffffffffffffffffffffffffffff16610ec3565b156107fe576040517f08c379a00000000000000000000000000000000000000000000000000000000081526004016107f590611673565b60405180910390fd5b80600360008473ffffffffffffffffffffffffffffffffffffffff1673ffffffffffffffffffffffffffffffffffffffff16815260200190815260200160002060006101000a81548160ff0219169083151502179055505050565b60008060009054906101000a900473ffffffffffffffffffffffffffffffffffffffff16905090565b600061088c610ebb565b73ffffffffffffffffffffffffffffffffffffffff166108aa610859565b73ffffffffffffffffffffffffffffffffffffffff161480610923575060011515600360006108d7610ebb565b73ffffffffffffffffffffffffffffffffffffffff1673ffffffffffffffffffffffffffffffffffffffff16815260200190815260200160002060009054906101000a900460ff161515145b610962576040517f08c379a00000000000000000000000000000000000000000000000000000000081526004016109599061128d565b60405180910390fd5b6109818273ffffffffffffffffffffffffffffffffffffffff16610ec3565b6109c0576040517f08c379a00000000000000000000000000000000000000000000000000000000081526004016109b7906112f9565b60405180910390fd5b600073ffffffffffffffffffffffffffffffffffffffff168273ffffffffffffffffffffffffffffffffffffffff161415610a30576040517f08c379a0000000000000000000000000000000000000000000000000000000008152600401610a2790611365565b60405180910390fd5b610a38610ebb565b73ffffffffffffffffffffffffffffffffffffffff168273ffffffffffffffffffffffffffffffffffffffff16638da5cb5b6040518163ffffffff1660e01b8152600401602060405180830381865afa158015610a99573d6000803e3d6000fd5b505050506040513d601f19601f82011682018060405250810190610abd919061139a565b73ffffffffffffffffffffffffffffffffffffffff1614610b13576040517f08c379a0000000000000000000000000000000000000000000000000000000008152600401610b0a90611439565b60405180910390fd5b600080600280549050905060008092505b600280549050831015610c65578473ffffffffffffffffffffffffffffffffffffffff1660028481548110610b5c57610b5b611459565b5b9060005260206000200160009054906101000a900473ffffffffffffffffffffffffffffffffffffffff1673ffffffffffffffffffffffffffffffffffffffff161415610ba857600190505b60028054905082148015610c265750600073ffffffffffffffffffffffffffffffffffffffff1660028481548110610be357610be2611459565b5b9060005260206000200160009054906101000a900473ffffffffffffffffffffffffffffffffffffffff1673ffffffffffffffffffffffffffffffffffffffff16145b15610c2f578291505b60011515811515148015610c4857506002805490508214155b15610c5257610c65565b8280610c5d906114b7565b935050610b24565b6002805490508314610cac576040517f08c379a0000000000000000000000000000000000000000000000000000000008152600401610ca3906116df565b60405180910390fd5b600280549050821415610d21576002859080600181540180825580915050600190039060005260206000200160009091909190916101000a81548173ffffffffffffffffffffffffffffffffffffffff021916908373ffffffffffffffffffffffffffffffffffffffff160217905550610d7f565b8460028381548110610d3657610d35611459565b5b9060005260206000200160006101000a81548173ffffffffffffffffffffffffffffffffffffffff021916908373ffffffffffffffffffffffffffffffffffffffff1602179055505b7f1445ddfed6a5f6223ce45d749b8ad51ca0bc5603993d52f161be4f395f53379c8286604051610db092919061156c565b60405180910390a1819350505050919050565b610dcb610ebb565b73ffffffffffffffffffffffffffffffffffffffff16610de9610859565b73ffffffffffffffffffffffffffffffffffffffff1614610e3f576040517f08c379a0000000000000000000000000000000000000000000000000000000008152600401610e36906115e1565b60405180910390fd5b600073ffffffffffffffffffffffffffffffffffffffff168173ffffffffffffffffffffffffffffffffffffffff161415610eaf576040517f08c379a0000000000000000000000000000000000000000000000000000000008152600401610ea690611771565b60405180910390fd5b610eb881610ed6565b50565b600033905090565b600080823b905060008111915050919050565b60008060009054906101000a900473ffffffffffffffffffffffffffffffffffffffff169050816000806101000a81548173ffffffffffffffffffffffffffffffffffffffff021916908373ffffffffffffffffffffffffffffffffffffffff1602179055508173ffffffffffffffffffffffffffffffffffffffff168173ffffffffffffffffffffffffffffffffffffffff167f8be0079c531659141344cd1fd0a4f28419497f9722a3daafe3b4186f6b6457e060405160405180910390a35050565b600081519050919050565b600082825260208201905092915050565b6000819050602082019050919050565b600073ffffffffffffffffffffffffffffffffffffffff82169050919050565b6000610ff182610fc6565b9050919050565b61100181610fe6565b82525050565b60006110138383610ff8565b60208301905092915050565b6000602082019050919050565b600061103782610f9a565b6110418185610fa5565b935061104c83610fb6565b8060005b8381101561107d5781516110648882611007565b975061106f8361101f565b925050600181019050611050565b5085935050505092915050565b600060208201905081810360008301526110a4818461102c565b905092915050565b600080fd5b6110ba81610fe6565b81146110c557600080fd5b50565b6000813590506110d7816110b1565b92915050565b6000602082840312156110f3576110f26110ac565b5b6000611101848285016110c8565b91505092915050565b6000819050919050565b61111d8161110a565b82525050565b60006020820190506111386000830184611114565b92915050565b60008115159050919050565b6111538161113e565b82525050565b600060208201905061116e600083018461114a565b92915050565b61117d8161113e565b811461118857600080fd5b50565b60008135905061119a81611174565b92915050565b600080604083850312156111b7576111b66110ac565b5b60006111c5858286016110c8565b92505060206111d68582860161118b565b9150509250929050565b6111e981610fe6565b82525050565b600060208201905061120460008301846111e0565b92915050565b600082825260208201905092915050565b7f43616c6c6572206e656564732061646d696e2f63726561746f7220707269766960008201527f6c65676500000000000000000000000000000000000000000000000000000000602082015250565b600061127760248361120a565b91506112828261121b565b604082019050919050565b600060208201905081810360008301526112a68161126a565b9050919050565b7f4e6f7420636f6e74726163742061646472657373000000000000000000000000600082015250565b60006112e360148361120a565b91506112ee826112ad565b602082019050919050565b60006020820190508181036000830152611312816112d6565b9050919050565b7f61646472657373206e756c6c0000000000000000000000000000000000000000600082015250565b600061134f600c8361120a565b915061135a82611319565b602082019050919050565b6000602082019050818103600083015261137e81611342565b9050919050565b600081519050611394816110b1565b92915050565b6000602082840312156113b0576113af6110ac565b5b60006113be84828501611385565b91505092915050565b7f63616c6c6572206973206e6f74206f776e6572206f66207468697320636f6e7460008201527f7261637400000000000000000000000000000000000000000000000000000000602082015250565b600061142360248361120a565b915061142e826113c7565b604082019050919050565b6000602082019050818103600083015261145281611416565b9050919050565b7f4e487b7100000000000000000000000000000000000000000000000000000000600052603260045260246000fd5b7f4e487b7100000000000000000000000000000000000000000000000000000000600052601160045260246000fd5b60006114c28261110a565b91507fffffffffffffffffffffffffffffffffffffffffffffffffffffffffffffffff8214156114f5576114f4611488565b5b600182019050919050565b7f6e667420636f6e747261637420776173206e6f74206164646564000000000000600082015250565b6000611536601a8361120a565b915061154182611500565b602082019050919050565b6000602082019050818103600083015261156581611529565b9050919050565b60006040820190506115816000830185611114565b61158e60208301846111e0565b9392505050565b7f4f776e61626c653a2063616c6c6572206973206e6f7420746865206f776e6572600082015250565b60006115cb60208361120a565b91506115d682611595565b602082019050919050565b600060208201905081810360008301526115fa816115be565b9050919050565b7f4f6e6c792065787465726e616c6c79206f776e206163636f756e7420636f756c60008201527f64206d616e61676520636f6c6c656374696f6e00000000000000000000000000602082015250565b600061165d60338361120a565b915061166882611601565b604082019050919050565b6000602082019050818103600083015261168c81611650565b9050919050565b7f74686973206164647265737320616c7265616479206578697374730000000000600082015250565b60006116c9601b8361120a565b91506116d482611693565b602082019050919050565b600060208201905081810360008301526116f8816116bc565b9050919050565b7f4f776e61626c653a206e6577206f776e657220697320746865207a65726f206160008201527f6464726573730000000000000000000000000000000000000000000000000000602082015250565b600061175b60268361120a565b9150611766826116ff565b604082019050919050565b6000602082019050818103600083015261178a8161174e565b905091905056fea264697066735822122083d956cfb1095da9b22d16a90225fd6cd5c133ed42d8e867f1b6968bcfc13d4f64736f6c634300080a0033",
  "immutableReferences": {},
  "source": "// SPDX-License-Identifier: MIT\r\npragma solidity >=0.4.22 <0.9.0;\r\n\r\npragma abicoder v2;\r\n\r\nimport '@openzeppelin/contracts/utils/Address.sol';\r\nimport '@openzeppelin/contracts/access/Ownable.sol';\r\nimport '@openzeppelin/contracts/security/ReentrancyGuard.sol';\r\nimport '@openzeppelin/contracts/utils/Context.sol';\r\n\r\nimport './HyperXNFTCollection.sol';\r\n\r\ncontract HyperXNFTManage is Ownable, ReentrancyGuard {\r\n    using Address for address;\r\n\r\n    event AddCollection(uint, address);\r\n    event RemoveCollection(uint, address);\r\n    event TestEvent(uint);\r\n\r\n    address[] private collections;\r\n    mapping(address => bool) approveCollection;\r\n\r\n    constructor(){\r\n    }\r\n\r\n    modifier onlyCreator() {\r\n        require(owner() == _msgSender() || approveCollection[_msgSender()] == true, \"Caller needs admin/creator privilege\");\r\n        _;\r\n    }\r\n\r\n    function isApprovedCollection(address eouser) public view returns (bool) {\r\n        return approveCollection[eouser];\r\n    }\r\n\r\n    function setApproveCollection(address eouser, bool bApprove) external onlyOwner {\r\n        require(!eouser.isContract(), \"Only externally own account could manage collection\");\r\n        approveCollection[eouser] = bApprove;\r\n    }\r\n\r\n    function addCollection(address nftContractAddress) external onlyCreator returns (uint) {\r\n        require(nftContractAddress.isContract(), \"Not contract address\");\r\n        require(nftContractAddress != address(0), \"address null\");\r\n\r\n        require(HyperXNFTCollection(nftContractAddress).owner() == _msgSender(), \"caller is not owner of this contract\");\r\n\r\n        uint i = 0;\r\n        uint nZeroIndex = collections.length;\r\n        bool bFound = false;\r\n        for (i = 0; i < collections.length; i ++) {\r\n            if (collections[i] == nftContractAddress) {\r\n                bFound = true;\r\n            }\r\n            if (nZeroIndex == collections.length && collections[i] == address(0)) {\r\n                nZeroIndex = i;\r\n            }\r\n\r\n            if (bFound == true && nZeroIndex != collections.length)\r\n                break;\r\n        }\r\n\r\n        require (i == collections.length, \"this address already exists\");\r\n        if (nZeroIndex == collections.length) {\r\n            collections.push(nftContractAddress);\r\n        }\r\n        else {\r\n            collections[nZeroIndex] = nftContractAddress;\r\n        }\r\n\r\n        emit AddCollection(nZeroIndex, nftContractAddress);\r\n\r\n        return nZeroIndex;\r\n    }\r\n\r\n    function removeCollection(address nftContractAddress) external onlyCreator returns (uint) {\r\n        require(nftContractAddress.isContract(), \"Not contract address\");\r\n        require(nftContractAddress != address(0), \"address null\");\r\n\r\n        require(HyperXNFTCollection(nftContractAddress).owner() == _msgSender(), \"caller is not owner of this contract\");\r\n\r\n        uint i = 0;\r\n        bool bFound = false;\r\n        for (i = 0; i < collections.length; i ++) {\r\n            if (collections[i] == nftContractAddress) {\r\n                collections[i] = address(0);\r\n                bFound = true;\r\n                break;\r\n            }\r\n        }\r\n\r\n        require(bFound == true, \"nft contract was not added\");\r\n\r\n        emit RemoveCollection(i, nftContractAddress);\r\n        return i;\r\n    }\r\n\r\n    // for test only\r\n    function getCollectionInfo() public view returns (address [] memory) {\r\n        return collections;\r\n    }\r\n}\r\n",
  "sourcePath": "E:\\MyWork\\Task\\forwarded\\1\\HyperXNFT-contracts\\contracts\\HyperXNFTManage.sol",
  "compiler": {
    "name": "solc",
    "version": "0.8.10+commit.fc410830.Emscripten.clang"
  },
  "schemaVersion": "3.4.3",
  "updatedAt": "2021-12-09T17:06:22.830Z",
  "devdoc": {
    "kind": "dev",
    "methods": {
      "owner()": {
        "details": "Returns the address of the current owner."
      },
      "renounceOwnership()": {
        "details": "Leaves the contract without owner. It will not be possible to call `onlyOwner` functions anymore. Can only be called by the current owner. NOTE: Renouncing ownership will leave the contract without an owner, thereby removing any functionality that is only available to the owner."
      },
      "transferOwnership(address)": {
        "details": "Transfers ownership of the contract to a new account (`newOwner`). Can only be called by the current owner."
      }
    },
    "version": 1
  },
  "userdoc": {
    "kind": "user",
    "methods": {},
    "version": 1
  }
}