{
  "contractName": "HyperXNFTFactory",
  "abi": [
    {
      "inputs": [
        {
          "internalType": "address",
          "name": "singleCollectionDeployer",
          "type": "address"
        },
        {
          "internalType": "address",
          "name": "multipleCollectionDeployer",
          "type": "address"
        }
      ],
      "stateMutability": "nonpayable",
      "type": "constructor"
    },
    {
      "anonymous": false,
      "inputs": [
        {
          "indexed": true,
          "internalType": "address",
          "name": "winner",
          "type": "address"
        },
        {
          "indexed": true,
          "internalType": "address",
          "name": "smart_contract",
          "type": "address"
        },
        {
          "indexed": false,
          "internalType": "uint256",
          "name": "tokenId",
          "type": "uint256"
        },
        {
          "indexed": false,
          "internalType": "uint256",
          "name": "copy",
          "type": "uint256"
        },
        {
          "indexed": false,
          "internalType": "uint256",
          "name": "method",
          "type": "uint256"
        },
        {
          "indexed": false,
          "internalType": "uint256",
          "name": "price",
          "type": "uint256"
        }
      ],
      "name": "AuctionResult",
      "type": "event"
    },
    {
      "anonymous": false,
      "inputs": [
        {
          "indexed": true,
          "internalType": "address",
          "name": "user",
          "type": "address"
        },
        {
          "indexed": true,
          "internalType": "address",
          "name": "smart_contract",
          "type": "address"
        },
        {
          "indexed": false,
          "internalType": "uint256",
          "name": "tokenId",
          "type": "uint256"
        },
        {
          "indexed": false,
          "internalType": "uint256",
          "name": "copy",
          "type": "uint256"
        },
        {
          "indexed": false,
          "internalType": "uint256",
          "name": "price",
          "type": "uint256"
        }
      ],
      "name": "Buy",
      "type": "event"
    },
    {
      "anonymous": false,
      "inputs": [
        {
          "indexed": false,
          "internalType": "enum IHyperXNFTFactory.CollectionType",
          "name": "collectionType",
          "type": "uint8"
        },
        {
          "indexed": true,
          "internalType": "address",
          "name": "from",
          "type": "address"
        }
      ],
      "name": "CollectionAdded",
      "type": "event"
    },
    {
      "anonymous": false,
      "inputs": [
        {
          "indexed": true,
          "internalType": "address",
          "name": "factory",
          "type": "address"
        },
        {
          "indexed": true,
          "internalType": "address",
          "name": "newContract",
          "type": "address"
        }
      ],
      "name": "CreatedERC1155TradableContract",
      "type": "event"
    },
    {
      "anonymous": false,
      "inputs": [
        {
          "indexed": true,
          "internalType": "address",
          "name": "factory",
          "type": "address"
        },
        {
          "indexed": true,
          "internalType": "address",
          "name": "newContract",
          "type": "address"
        }
      ],
      "name": "CreatedERC721TradableContract",
      "type": "event"
    },
    {
      "anonymous": false,
      "inputs": [
        {
          "indexed": false,
          "internalType": "address",
          "name": "seller",
          "type": "address"
        },
        {
          "indexed": false,
          "internalType": "uint256",
          "name": "saleId",
          "type": "uint256"
        },
        {
          "components": [
            {
              "internalType": "address",
              "name": "sc",
              "type": "address"
            },
            {
              "internalType": "uint256",
              "name": "tokenId",
              "type": "uint256"
            },
            {
              "internalType": "uint256",
              "name": "copy",
              "type": "uint256"
            }
          ],
          "indexed": false,
          "internalType": "struct HyperXNFTFactory.ListTokenInfo",
          "name": "tokenInfo",
          "type": "tuple"
        },
        {
          "indexed": false,
          "internalType": "uint256",
          "name": "payment",
          "type": "uint256"
        },
        {
          "indexed": false,
          "internalType": "uint256",
          "name": "basePrice",
          "type": "uint256"
        },
        {
          "indexed": false,
          "internalType": "uint256",
          "name": "duration",
          "type": "uint256"
        },
        {
          "indexed": false,
          "internalType": "uint256",
          "name": "feeRatio",
          "type": "uint256"
        },
        {
          "indexed": false,
          "internalType": "uint256",
          "name": "royaltyRatio",
          "type": "uint256"
        }
      ],
      "name": "ListedOnSale",
      "type": "event"
    },
    {
      "anonymous": false,
      "inputs": [
        {
          "indexed": true,
          "internalType": "address",
          "name": "user",
          "type": "address"
        },
        {
          "indexed": true,
          "internalType": "address",
          "name": "smart_contract",
          "type": "address"
        },
        {
          "indexed": false,
          "internalType": "uint256",
          "name": "tokenId",
          "type": "uint256"
        },
        {
          "indexed": false,
          "internalType": "uint256",
          "name": "copy",
          "type": "uint256"
        },
        {
          "indexed": false,
          "internalType": "uint256",
          "name": "price",
          "type": "uint256"
        }
      ],
      "name": "MakeOffer",
      "type": "event"
    },
    {
      "anonymous": false,
      "inputs": [
        {
          "indexed": false,
          "internalType": "enum IHyperXNFTFactory.CollectionType",
          "name": "collectionType",
          "type": "uint8"
        },
        {
          "indexed": true,
          "internalType": "address",
          "name": "to",
          "type": "address"
        }
      ],
      "name": "NewCollectionCreated",
      "type": "event"
    },
    {
      "anonymous": false,
      "inputs": [
        {
          "indexed": true,
          "internalType": "address",
          "name": "previousOwner",
          "type": "address"
        },
        {
          "indexed": true,
          "internalType": "address",
          "name": "newOwner",
          "type": "address"
        }
      ],
      "name": "OwnershipTransferred",
      "type": "event"
    },
    {
      "anonymous": false,
      "inputs": [
        {
          "indexed": false,
          "internalType": "uint256",
          "name": "id",
          "type": "uint256"
        },
        {
          "indexed": true,
          "internalType": "address",
          "name": "tokenAddress",
          "type": "address"
        }
      ],
      "name": "PaymentTokenSet",
      "type": "event"
    },
    {
      "anonymous": false,
      "inputs": [
        {
          "indexed": true,
          "internalType": "address",
          "name": "user",
          "type": "address"
        },
        {
          "indexed": true,
          "internalType": "address",
          "name": "smart_contract",
          "type": "address"
        },
        {
          "indexed": false,
          "internalType": "uint256",
          "name": "tokenId",
          "type": "uint256"
        },
        {
          "indexed": false,
          "internalType": "uint256",
          "name": "copy",
          "type": "uint256"
        },
        {
          "indexed": false,
          "internalType": "uint256",
          "name": "method",
          "type": "uint256"
        },
        {
          "indexed": false,
          "internalType": "uint256",
          "name": "price",
          "type": "uint256"
        }
      ],
      "name": "PlaceBid",
      "type": "event"
    },
    {
      "anonymous": false,
      "inputs": [
        {
          "indexed": false,
          "internalType": "address",
          "name": "seller",
          "type": "address"
        },
        {
          "indexed": false,
          "internalType": "address",
          "name": "sc",
          "type": "address"
        },
        {
          "indexed": false,
          "internalType": "uint256",
          "name": "tokenId",
          "type": "uint256"
        },
        {
          "indexed": false,
          "internalType": "uint256",
          "name": "payment",
          "type": "uint256"
        },
        {
          "indexed": false,
          "internalType": "uint256",
          "name": "basePrice",
          "type": "uint256"
        },
        {
          "indexed": false,
          "internalType": "uint256",
          "name": "duration",
          "type": "uint256"
        },
        {
          "indexed": false,
          "internalType": "uint256",
          "name": "feeRatio",
          "type": "uint256"
        },
        {
          "indexed": false,
          "internalType": "uint256",
          "name": "royaltyRatio",
          "type": "uint256"
        }
      ],
      "name": "RemoveFromSale",
      "type": "event"
    },
    {
      "anonymous": false,
      "inputs": [
        {
          "indexed": false,
          "internalType": "address",
          "name": "account",
          "type": "address"
        },
        {
          "indexed": false,
          "internalType": "bool",
          "name": "set",
          "type": "bool"
        }
      ],
      "name": "SetCreatorForFactory",
      "type": "event"
    },
    {
      "anonymous": false,
      "inputs": [
        {
          "indexed": false,
          "internalType": "address",
          "name": "owner",
          "type": "address"
        },
        {
          "indexed": false,
          "internalType": "uint256",
          "name": "newFeeRatio",
          "type": "uint256"
        }
      ],
      "name": "SetDefaultFeeRatio",
      "type": "event"
    },
    {
      "anonymous": false,
      "inputs": [
        {
          "indexed": false,
          "internalType": "address",
          "name": "owner",
          "type": "address"
        },
        {
          "indexed": false,
          "internalType": "uint256",
          "name": "newRoyaltyRatio",
          "type": "uint256"
        }
      ],
      "name": "SetDefaultRoyaltyRatio",
      "type": "event"
    },
    {
      "anonymous": false,
      "inputs": [
        {
          "indexed": false,
          "internalType": "uint256",
          "name": "saleId",
          "type": "uint256"
        },
        {
          "components": [
            {
              "internalType": "address",
              "name": "creator",
              "type": "address"
            },
            {
              "internalType": "address",
              "name": "seller",
              "type": "address"
            },
            {
              "internalType": "address",
              "name": "sc",
              "type": "address"
            },
            {
              "internalType": "uint256",
              "name": "tokenId",
              "type": "uint256"
            },
            {
              "internalType": "uint256",
              "name": "copy",
              "type": "uint256"
            },
            {
              "internalType": "uint256",
              "name": "payment",
              "type": "uint256"
            },
            {
              "internalType": "uint256",
              "name": "basePrice",
              "type": "uint256"
            },
            {
              "internalType": "uint256",
              "name": "method",
              "type": "uint256"
            },
            {
              "internalType": "uint256",
              "name": "startTime",
              "type": "uint256"
            },
            {
              "internalType": "uint256",
              "name": "endTime",
              "type": "uint256"
            },
            {
              "internalType": "uint256",
              "name": "feeRatio",
              "type": "uint256"
            },
            {
              "internalType": "uint256",
              "name": "royaltyRatio",
              "type": "uint256"
            }
          ],
          "indexed": false,
          "internalType": "struct HyperXNFTFactory.HyperXNFTSale",
          "name": "sale",
          "type": "tuple"
        },
        {
          "indexed": false,
          "internalType": "uint256",
          "name": "timestamp",
          "type": "uint256"
        },
        {
          "indexed": false,
          "internalType": "uint256",
          "name": "paySeller",
          "type": "uint256"
        },
        {
          "indexed": false,
          "internalType": "address",
          "name": "owner",
          "type": "address"
        },
        {
          "indexed": false,
          "internalType": "address",
          "name": "winner",
          "type": "address"
        },
        {
          "indexed": false,
          "internalType": "uint256",
          "name": "fee",
          "type": "uint256"
        },
        {
          "indexed": false,
          "internalType": "uint256",
          "name": "royalty",
          "type": "uint256"
        },
        {
          "indexed": false,
          "internalType": "address",
          "name": "devAddress",
          "type": "address"
        },
        {
          "indexed": false,
          "internalType": "uint256",
          "name": "devFee",
          "type": "uint256"
        }
      ],
      "name": "Trade",
      "type": "event"
    },
    {
      "anonymous": false,
      "inputs": [
        {
          "indexed": true,
          "internalType": "address",
          "name": "singleCollectionDeployer",
          "type": "address"
        },
        {
          "indexed": true,
          "internalType": "address",
          "name": "multipleCollectionDeployer",
          "type": "address"
        }
      ],
      "name": "UpdateDeployers",
      "type": "event"
    },
    {
      "inputs": [],
      "name": "DELAY_PERIOD",
      "outputs": [
        {
          "internalType": "uint256",
          "name": "",
          "type": "uint256"
        }
      ],
      "stateMutability": "view",
      "type": "function",
      "constant": true
    },
    {
      "inputs": [],
      "name": "defaultFeeRatio",
      "outputs": [
        {
          "internalType": "uint256",
          "name": "",
          "type": "uint256"
        }
      ],
      "stateMutability": "view",
      "type": "function",
      "constant": true
    },
    {
      "inputs": [],
      "name": "defaultRoyaltyRatio",
      "outputs": [
        {
          "internalType": "uint256",
          "name": "",
          "type": "uint256"
        }
      ],
      "stateMutability": "view",
      "type": "function",
      "constant": true
    },
    {
      "inputs": [],
      "name": "devAddress",
      "outputs": [
        {
          "internalType": "address",
          "name": "",
          "type": "address"
        }
      ],
      "stateMutability": "view",
      "type": "function",
      "constant": true
    },
    {
      "inputs": [],
      "name": "owner",
      "outputs": [
        {
          "internalType": "address",
          "name": "",
          "type": "address"
        }
      ],
      "stateMutability": "view",
      "type": "function",
      "constant": true
    },
    {
      "inputs": [],
      "name": "renounceOwnership",
      "outputs": [],
      "stateMutability": "nonpayable",
      "type": "function"
    },
    {
      "inputs": [],
      "name": "saleCount",
      "outputs": [
        {
          "internalType": "uint256",
          "name": "",
          "type": "uint256"
        }
      ],
      "stateMutability": "view",
      "type": "function",
      "constant": true
    },
    {
      "inputs": [
        {
          "internalType": "address",
          "name": "newOwner",
          "type": "address"
        }
      ],
      "name": "transferOwnership",
      "outputs": [],
      "stateMutability": "nonpayable",
      "type": "function"
    },
    {
      "inputs": [
        {
          "internalType": "address",
          "name": "singleCollectionDeployer",
          "type": "address"
        },
        {
          "internalType": "address",
          "name": "multipleCollectionDeployer",
          "type": "address"
        }
      ],
      "name": "updateDeployers",
      "outputs": [],
      "stateMutability": "nonpayable",
      "type": "function"
    },
    {
      "inputs": [
        {
          "internalType": "uint256",
          "name": "tId",
          "type": "uint256"
        },
        {
          "internalType": "address",
          "name": "tokenAddr",
          "type": "address"
        }
      ],
      "name": "setPaymentToken",
      "outputs": [],
      "stateMutability": "nonpayable",
      "type": "function"
    },
    {
      "inputs": [],
      "name": "getPaymentToken",
      "outputs": [
        {
          "internalType": "address[]",
          "name": "",
          "type": "address[]"
        }
      ],
      "stateMutability": "view",
      "type": "function",
      "constant": true
    },
    {
      "inputs": [
        {
          "internalType": "address",
          "name": "account",
          "type": "address"
        },
        {
          "internalType": "bool",
          "name": "set",
          "type": "bool"
        }
      ],
      "name": "startPendingCreator",
      "outputs": [],
      "stateMutability": "nonpayable",
      "type": "function"
    },
    {
      "inputs": [
        {
          "internalType": "address",
          "name": "account",
          "type": "address"
        }
      ],
      "name": "endPendingCreator",
      "outputs": [],
      "stateMutability": "nonpayable",
      "type": "function"
    },
    {
      "inputs": [
        {
          "internalType": "address",
          "name": "addr",
          "type": "address"
        }
      ],
      "name": "setDevAddr",
      "outputs": [],
      "stateMutability": "nonpayable",
      "type": "function"
    },
    {
      "inputs": [
        {
          "internalType": "enum IHyperXNFTFactory.CollectionType",
          "name": "collectionType",
          "type": "uint8"
        },
        {
          "internalType": "string",
          "name": "_name",
          "type": "string"
        },
        {
          "internalType": "string",
          "name": "_symbol",
          "type": "string"
        },
        {
          "internalType": "string",
          "name": "_uri",
          "type": "string"
        }
      ],
      "name": "createNewCollection",
      "outputs": [
        {
          "internalType": "address",
          "name": "",
          "type": "address"
        }
      ],
      "stateMutability": "nonpayable",
      "type": "function"
    },
    {
      "inputs": [
        {
          "internalType": "address",
          "name": "from",
          "type": "address"
        }
      ],
      "name": "addCollection",
      "outputs": [],
      "stateMutability": "nonpayable",
      "type": "function"
    },
    {
      "inputs": [],
      "name": "getCollections",
      "outputs": [
        {
          "internalType": "address[]",
          "name": "",
          "type": "address[]"
        }
      ],
      "stateMutability": "view",
      "type": "function",
      "constant": true
    },
    {
      "inputs": [
        {
          "internalType": "uint256",
          "name": "newFeeRatio",
          "type": "uint256"
        }
      ],
      "name": "setDefaultFeeRatio",
      "outputs": [],
      "stateMutability": "nonpayable",
      "type": "function"
    },
    {
      "inputs": [
        {
          "internalType": "uint256",
          "name": "newRoyaltyRatio",
          "type": "uint256"
        }
      ],
      "name": "setDefaultRoyaltyRatio",
      "outputs": [],
      "stateMutability": "nonpayable",
      "type": "function"
    },
    {
      "inputs": [
        {
          "internalType": "address",
          "name": "sc",
          "type": "address"
        },
        {
          "internalType": "uint256",
          "name": "tokenId",
          "type": "uint256"
        },
        {
          "internalType": "uint256",
          "name": "payment",
          "type": "uint256"
        },
        {
          "internalType": "uint256",
          "name": "copy",
          "type": "uint256"
        },
        {
          "internalType": "uint256",
          "name": "method",
          "type": "uint256"
        },
        {
          "internalType": "uint256",
          "name": "duration",
          "type": "uint256"
        },
        {
          "internalType": "uint256",
          "name": "basePrice",
          "type": "uint256"
        },
        {
          "internalType": "uint256",
          "name": "feeRatio",
          "type": "uint256"
        },
        {
          "internalType": "uint256",
          "name": "royaltyRatio",
          "type": "uint256"
        }
      ],
      "name": "createSale",
      "outputs": [],
      "stateMutability": "nonpayable",
      "type": "function"
    },
    {
      "inputs": [
        {
          "internalType": "uint256",
          "name": "saleId",
          "type": "uint256"
        },
        {
          "internalType": "uint256",
          "name": "price",
          "type": "uint256"
        }
      ],
      "name": "makeOffer",
      "outputs": [],
      "stateMutability": "payable",
      "type": "function",
      "payable": true
    },
    {
      "inputs": [
        {
          "internalType": "uint256",
          "name": "saleId",
          "type": "uint256"
        }
      ],
      "name": "buy",
      "outputs": [],
      "stateMutability": "payable",
      "type": "function",
      "payable": true
    },
    {
      "inputs": [
        {
          "internalType": "uint256",
          "name": "saleId",
          "type": "uint256"
        },
        {
          "internalType": "uint256",
          "name": "price",
          "type": "uint256"
        }
      ],
      "name": "placeBid",
      "outputs": [],
      "stateMutability": "payable",
      "type": "function",
      "payable": true
    },
    {
      "inputs": [
        {
          "internalType": "uint256",
          "name": "saleId",
          "type": "uint256"
        }
      ],
      "name": "finalizeAuction",
      "outputs": [],
      "stateMutability": "nonpayable",
      "type": "function"
    },
    {
      "inputs": [
        {
          "internalType": "uint256",
          "name": "startIdx",
          "type": "uint256"
        },
        {
          "internalType": "uint256",
          "name": "count",
          "type": "uint256"
        }
      ],
      "name": "getSaleInfo",
      "outputs": [
        {
          "components": [
            {
              "internalType": "address",
              "name": "creator",
              "type": "address"
            },
            {
              "internalType": "address",
              "name": "seller",
              "type": "address"
            },
            {
              "internalType": "address",
              "name": "sc",
              "type": "address"
            },
            {
              "internalType": "uint256",
              "name": "tokenId",
              "type": "uint256"
            },
            {
              "internalType": "uint256",
              "name": "copy",
              "type": "uint256"
            },
            {
              "internalType": "uint256",
              "name": "payment",
              "type": "uint256"
            },
            {
              "internalType": "uint256",
              "name": "basePrice",
              "type": "uint256"
            },
            {
              "internalType": "uint256",
              "name": "method",
              "type": "uint256"
            },
            {
              "internalType": "uint256",
              "name": "startTime",
              "type": "uint256"
            },
            {
              "internalType": "uint256",
              "name": "endTime",
              "type": "uint256"
            },
            {
              "internalType": "uint256",
              "name": "feeRatio",
              "type": "uint256"
            },
            {
              "internalType": "uint256",
              "name": "royaltyRatio",
              "type": "uint256"
            }
          ],
          "internalType": "struct HyperXNFTFactory.HyperXNFTSale[]",
          "name": "",
          "type": "tuple[]"
        }
      ],
      "stateMutability": "view",
      "type": "function",
      "constant": true
    }
  ],
  "bytecode": "0x608060405260036001553480156200001657600080fd5b5060405162006b4d38038062006b4d83398181016040528101906200003c919062000494565b6200005c620000506200016f60201b60201c565b6200017760201b60201c565b81600260006101000a81548173ffffffffffffffffffffffffffffffffffffffff021916908373ffffffffffffffffffffffffffffffffffffffff16021790555080600360006101000a81548173ffffffffffffffffffffffffffffffffffffffff021916908373ffffffffffffffffffffffffffffffffffffffff160217905550600660009080600181540180825580915050600190039060005260206000200160009091909190916101000a81548173ffffffffffffffffffffffffffffffffffffffff021916908373ffffffffffffffffffffffffffffffffffffffff1602179055506200015460fa6200023b60201b60201c565b6200016761012c6200031e60201b60201c565b5050620005b7565b600033905090565b60008060009054906101000a900473ffffffffffffffffffffffffffffffffffffffff169050816000806101000a81548173ffffffffffffffffffffffffffffffffffffffff021916908373ffffffffffffffffffffffffffffffffffffffff1602179055508173ffffffffffffffffffffffffffffffffffffffff168173ffffffffffffffffffffffffffffffffffffffff167f8be0079c531659141344cd1fd0a4f28419497f9722a3daafe3b4186f6b6457e060405160405180910390a35050565b6200024b6200016f60201b60201c565b73ffffffffffffffffffffffffffffffffffffffff16620002716200040160201b60201c565b73ffffffffffffffffffffffffffffffffffffffff1614620002ca576040517f08c379a0000000000000000000000000000000000000000000000000000000008152600401620002c1906200053c565b60405180910390fd5b80600b819055507f500c1065894a3f5257bd7a36f5dcf006f39a07fc99fdf747d6d5dcad60769845620003026200040160201b60201c565b82604051620003139291906200058a565b60405180910390a150565b6200032e6200016f60201b60201c565b73ffffffffffffffffffffffffffffffffffffffff16620003546200040160201b60201c565b73ffffffffffffffffffffffffffffffffffffffff1614620003ad576040517f08c379a0000000000000000000000000000000000000000000000000000000008152600401620003a4906200053c565b60405180910390fd5b80600c819055507fc50c9e716e261f4567603029de89a0ba49e2771cf8865df5b1370b270ae1284e620003e56200040160201b60201c565b82604051620003f69291906200058a565b60405180910390a150565b60008060009054906101000a900473ffffffffffffffffffffffffffffffffffffffff16905090565b600080fd5b600073ffffffffffffffffffffffffffffffffffffffff82169050919050565b60006200045c826200042f565b9050919050565b6200046e816200044f565b81146200047a57600080fd5b50565b6000815190506200048e8162000463565b92915050565b60008060408385031215620004ae57620004ad6200042a565b5b6000620004be858286016200047d565b9250506020620004d1858286016200047d565b9150509250929050565b600082825260208201905092915050565b7f4f776e61626c653a2063616c6c6572206973206e6f7420746865206f776e6572600082015250565b600062000524602083620004db565b91506200053182620004ec565b602082019050919050565b60006020820190508181036000830152620005578162000515565b9050919050565b62000569816200044f565b82525050565b6000819050919050565b62000584816200056f565b82525050565b6000604082019050620005a160008301856200055e565b620005b0602083018462000579565b9392505050565b61658680620005c76000396000f3fe6080604052600436106101665760003560e01c806387b5cf7d116100d1578063d41c3a651161008a578063e2315c0d11610064578063e2315c0d146104c5578063e71a02e1146104ee578063e808386314610519578063f2fde38b1461054257610166565b8063d41c3a6514610455578063d79f6a7814610480578063d96a094a146104a957610166565b806387b5cf7d146103575780638da5cb5b14610382578063953ba1a2146103ad578063a174e77a146103d8578063a1e89aec14610401578063d156d5f61461042c57610166565b806357c90de51161012357806357c90de51461025857806359b810f9146102745780635c40d2fe146102b15780636ebb64a2146102ee578063715018a6146103175780637cd7922d1461032e57610166565b806305b7cdd31461016b5780632dc1ef891461018757806337c9ba54146101b05780633ad10ef6146101d957806346e635861461020457806356d898731461022f575b600080fd5b610185600480360381019061018091906148b8565b61056b565b005b34801561019357600080fd5b506101ae60048036038101906101a99190614956565b610934565b005b3480156101bc57600080fd5b506101d760048036038101906101d29190614996565b610b93565b005b3480156101e557600080fd5b506101ee610d91565b6040516101fb91906149d2565b60405180910390f35b34801561021057600080fd5b50610219610db7565b6040516102269190614aab565b60405180910390f35b34801561023b57600080fd5b5061025660048036038101906102519190614acd565b610e45565b005b610272600480360381019061026d91906148b8565b6110c5565b005b34801561028057600080fd5b5061029b60048036038101906102969190614c78565b611452565b6040516102a891906149d2565b60405180910390f35b3480156102bd57600080fd5b506102d860048036038101906102d391906148b8565b611a2d565b6040516102e59190614ee8565b60405180910390f35b3480156102fa57600080fd5b5061031560048036038101906103109190614996565b611cdf565b005b34801561032357600080fd5b5061032c611d9f565b005b34801561033a57600080fd5b5061035560048036038101906103509190614f0a565b611e27565b005b34801561036357600080fd5b5061036c611eed565b6040516103799190614f46565b60405180910390f35b34801561038e57600080fd5b50610397611ef3565b6040516103a491906149d2565b60405180910390f35b3480156103b957600080fd5b506103c2611f1c565b6040516103cf9190614f46565b60405180910390f35b3480156103e457600080fd5b506103ff60048036038101906103fa9190614996565b611f22565b005b34801561040d57600080fd5b50610416612475565b6040516104239190614f46565b60405180910390f35b34801561043857600080fd5b50610453600480360381019061044e9190614f99565b61247b565b005b34801561046157600080fd5b5061046a6125e2565b6040516104779190614aab565b60405180910390f35b34801561048c57600080fd5b506104a760048036038101906104a29190614f0a565b612670565b005b6104c360048036038101906104be9190614f0a565b612736565b005b3480156104d157600080fd5b506104ec60048036038101906104e79190614fd9565b612b8e565b005b3480156104fa57600080fd5b506105036130f7565b6040516105109190614f46565b60405180910390f35b34801561052557600080fd5b50610540600480360381019061053b9190614f0a565b6130fd565b005b34801561054e57600080fd5b5061056960048036038101906105649190614996565b6134a7565b005b6105748261359f565b6105b3576040517f08c379a00000000000000000000000000000000000000000000000000000000081526004016105aa90615100565b60405180910390fd5b6000600e600084815260200190815260200160002090504281600801541115610611576040517f08c379a00000000000000000000000000000000000000000000000000000000081526004016106089061516c565b60405180910390fd5b8060080154816009015411158061062c575042816009015410155b61066b576040517f08c379a0000000000000000000000000000000000000000000000000000000008152600401610662906151d8565b60405180910390fd5b60008160070154146106b2576040517f08c379a00000000000000000000000000000000000000000000000000000000081526004016106a990615244565b60405180910390fd5b6000816006015482600401546106c89190615293565b90506000826005015414156106db573492505b6000600a60008681526020019081526020016000209050600060405180604001604052803373ffffffffffffffffffffffffffffffffffffffff1681526020018681525090508181908060018154018082558091505060019003906000526020600020906002020160009091909190915060008201518160000160006101000a81548173ffffffffffffffffffffffffffffffffffffffff021916908373ffffffffffffffffffffffffffffffffffffffff160217905550602082015181600101555050600084600501541461087557600060068560050154815481106107c5576107c46152ed565b5b9060005260206000200160009054906101000a900473ffffffffffffffffffffffffffffffffffffffff1690508073ffffffffffffffffffffffffffffffffffffffff166323b872dd3330896040518463ffffffff1660e01b815260040161082f9392919061531c565b6020604051808303816000875af115801561084e573d6000803e3d6000fd5b505050506040513d601f19601f820116820180604052508101906108729190615368565b50505b8360020160009054906101000a900473ffffffffffffffffffffffffffffffffffffffff1673ffffffffffffffffffffffffffffffffffffffff163373ffffffffffffffffffffffffffffffffffffffff167fa544409cc9e2b36072cb64d2f4336f056addc837c738097d81b5fbd31488feb7866003015487600401548960405161090293929190615395565b60405180910390a382851061092c5761092b866001848054905061092691906153cc565b613638565b5b505050505050565b61093c614001565b73ffffffffffffffffffffffffffffffffffffffff1661095a611ef3565b73ffffffffffffffffffffffffffffffffffffffff16146109b0576040517f08c379a00000000000000000000000000000000000000000000000000000000081526004016109a79061544c565b60405180910390fd5b600073ffffffffffffffffffffffffffffffffffffffff168173ffffffffffffffffffffffffffffffffffffffff161415610a20576040517f08c379a0000000000000000000000000000000000000000000000000000000008152600401610a17906154b8565b60405180910390fd5b6006805490508210610a9c5760068054905091506006819080600181540180825580915050600190039060005260206000200160009091909190916101000a81548173ffffffffffffffffffffffffffffffffffffffff021916908373ffffffffffffffffffffffffffffffffffffffff160217905550610b41565b6006805490508210610ae3576040517f08c379a0000000000000000000000000000000000000000000000000000000008152600401610ada90615524565b60405180910390fd5b8060068381548110610af857610af76152ed565b5b9060005260206000200160006101000a81548173ffffffffffffffffffffffffffffffffffffffff021916908373ffffffffffffffffffffffffffffffffffffffff1602179055505b8073ffffffffffffffffffffffffffffffffffffffff167f39db75df3ed66fe2043917ea45436f0ce2bb4ad1ebdf46101203e09b4e7550da83604051610b879190614f46565b60405180910390a25050565b610b9b614001565b73ffffffffffffffffffffffffffffffffffffffff16610bb9611ef3565b73ffffffffffffffffffffffffffffffffffffffff1614610c0f576040517f08c379a0000000000000000000000000000000000000000000000000000000008152600401610c069061544c565b60405180910390fd5b42600154600860008473ffffffffffffffffffffffffffffffffffffffff1673ffffffffffffffffffffffffffffffffffffffff16815260200190815260200160002054610c5d9190615544565b10610c6757600080fd5b6000600960008373ffffffffffffffffffffffffffffffffffffffff1673ffffffffffffffffffffffffffffffffffffffff16815260200190815260200160002060009054906101000a900460ff16905080600760008473ffffffffffffffffffffffffffffffffffffffff1673ffffffffffffffffffffffffffffffffffffffff16815260200190815260200160002060006101000a81548160ff0219169083151502179055506000600860008473ffffffffffffffffffffffffffffffffffffffff1673ffffffffffffffffffffffffffffffffffffffff168152602001908152602001600020819055507f8ea94c522769230b8972fec0e83e90226fa41b502bb478af233d18474367a0888282604051610d859291906155a9565b60405180910390a15050565b600d60009054906101000a900473ffffffffffffffffffffffffffffffffffffffff1681565b60606004805480602002602001604051908101604052809291908181526020018280548015610e3b57602002820191906000526020600020905b8160009054906101000a900473ffffffffffffffffffffffffffffffffffffffff1673ffffffffffffffffffffffffffffffffffffffff1681526020019060010190808311610df1575b5050505050905090565b610e4d614001565b73ffffffffffffffffffffffffffffffffffffffff16610e6b611ef3565b73ffffffffffffffffffffffffffffffffffffffff1614610ec1576040517f08c379a0000000000000000000000000000000000000000000000000000000008152600401610eb89061544c565b60405180910390fd5b600073ffffffffffffffffffffffffffffffffffffffff16600260009054906101000a900473ffffffffffffffffffffffffffffffffffffffff1673ffffffffffffffffffffffffffffffffffffffff161415610f53576040517f08c379a0000000000000000000000000000000000000000000000000000000008152600401610f4a9061561e565b60405180910390fd5b600073ffffffffffffffffffffffffffffffffffffffff16600360009054906101000a900473ffffffffffffffffffffffffffffffffffffffff1673ffffffffffffffffffffffffffffffffffffffff161415610fe5576040517f08c379a0000000000000000000000000000000000000000000000000000000008152600401610fdc9061568a565b60405180910390fd5b81600260006101000a81548173ffffffffffffffffffffffffffffffffffffffff021916908373ffffffffffffffffffffffffffffffffffffffff16021790555080600360006101000a81548173ffffffffffffffffffffffffffffffffffffffff021916908373ffffffffffffffffffffffffffffffffffffffff1602179055508073ffffffffffffffffffffffffffffffffffffffff168273ffffffffffffffffffffffffffffffffffffffff167ff5f210640140dd0c5eda670348a2d399e110e3ed1e29f0312f26081d63c84dcc60405160405180910390a35050565b6110ce8261359f565b61110d576040517f08c379a000000000000000000000000000000000000000000000000000000000815260040161110490615100565b60405180910390fd5b6000600e60008481526020019081526020016000209050428160080154111561116b576040517f08c379a00000000000000000000000000000000000000000000000000000000081526004016111629061516c565b60405180910390fd5b80600801548160090154111580611186575042816009015410155b6111c5576040517f08c379a00000000000000000000000000000000000000000000000000000000081526004016111bc906151d8565b60405180910390fd5b60008160070154141561120d576040517f08c379a0000000000000000000000000000000000000000000000000000000008152600401611204906156f6565b60405180910390fd5b600081600501541415611222573491506112ec565b6000600682600501548154811061123c5761123b6152ed565b5b9060005260206000200160009054906101000a900473ffffffffffffffffffffffffffffffffffffffff1690508073ffffffffffffffffffffffffffffffffffffffff166323b872dd3330866040518463ffffffff1660e01b81526004016112a69392919061531c565b6020604051808303816000875af11580156112c5573d6000803e3d6000fd5b505050506040513d601f19601f820116820180604052508101906112e99190615368565b50505b6000600a60008581526020019081526020016000209050600060405180604001604052803373ffffffffffffffffffffffffffffffffffffffff1681526020018581525090508181908060018154018082558091505060019003906000526020600020906002020160009091909190915060008201518160000160006101000a81548173ffffffffffffffffffffffffffffffffffffffff021916908373ffffffffffffffffffffffffffffffffffffffff1602179055506020820151816001015550508260020160009054906101000a900473ffffffffffffffffffffffffffffffffffffffff1673ffffffffffffffffffffffffffffffffffffffff163373ffffffffffffffffffffffffffffffffffffffff167f882b21869166d7e834ecf3e5ba98e7c4d78c70fabce5a0dae51bcffa05a8ae41856003015486600401548760070154896040516114439493929190615716565b60405180910390a35050505050565b600080339050611460611ef3565b73ffffffffffffffffffffffffffffffffffffffff168173ffffffffffffffffffffffffffffffffffffffff1614806114e9575060011515600760008373ffffffffffffffffffffffffffffffffffffffff1673ffffffffffffffffffffffffffffffffffffffff16815260200190815260200160002060009054906101000a900460ff161515145b611528576040517f08c379a000000000000000000000000000000000000000000000000000000000815260040161151f906157a7565b60405180910390fd5b6000600181111561153c5761153b6157c7565b5b86600181111561154f5761154e6157c7565b5b1415611789576000600260009054906101000a900473ffffffffffffffffffffffffffffffffffffffff1673ffffffffffffffffffffffffffffffffffffffff16631039569a878787306040518563ffffffff1660e01b81526004016115b8949392919061586d565b6020604051808303816000875af11580156115d7573d6000803e3d6000fd5b505050506040513d601f19601f820116820180604052508101906115fb91906158dc565b905060001515600560008373ffffffffffffffffffffffffffffffffffffffff1673ffffffffffffffffffffffffffffffffffffffff16815260200190815260200160002060009054906101000a900460ff1615151461165a57600080fd5b6004819080600181540180825580915050600190039060005260206000200160009091909190916101000a81548173ffffffffffffffffffffffffffffffffffffffff021916908373ffffffffffffffffffffffffffffffffffffffff1602179055506001600560008373ffffffffffffffffffffffffffffffffffffffff1673ffffffffffffffffffffffffffffffffffffffff16815260200190815260200160002060006101000a81548160ff0219169083151502179055508073ffffffffffffffffffffffffffffffffffffffff1663f2fde38b336040518263ffffffff1660e01b815260040161174e91906149d2565b600060405180830381600087803b15801561176857600080fd5b505af115801561177c573d6000803e3d6000fd5b5050505080925050611a24565b60018081111561179c5761179b6157c7565b5b8660018111156117af576117ae6157c7565b5b14156119e9576000600360009054906101000a900473ffffffffffffffffffffffffffffffffffffffff1673ffffffffffffffffffffffffffffffffffffffff16631039569a878787306040518563ffffffff1660e01b8152600401611818949392919061586d565b6020604051808303816000875af1158015611837573d6000803e3d6000fd5b505050506040513d601f19601f8201168201806040525081019061185b91906158dc565b905060001515600560008373ffffffffffffffffffffffffffffffffffffffff1673ffffffffffffffffffffffffffffffffffffffff16815260200190815260200160002060009054906101000a900460ff161515146118ba57600080fd5b6004819080600181540180825580915050600190039060005260206000200160009091909190916101000a81548173ffffffffffffffffffffffffffffffffffffffff021916908373ffffffffffffffffffffffffffffffffffffffff1602179055506001600560008373ffffffffffffffffffffffffffffffffffffffff1673ffffffffffffffffffffffffffffffffffffffff16815260200190815260200160002060006101000a81548160ff0219169083151502179055508073ffffffffffffffffffffffffffffffffffffffff1663f2fde38b336040518263ffffffff1660e01b81526004016119ae91906149d2565b600060405180830381600087803b1580156119c857600080fd5b505af11580156119dc573d6000803e3d6000fd5b5050505080925050611a24565b6040517f08c379a0000000000000000000000000000000000000000000000000000000008152600401611a1b90615955565b60405180910390fd5b50949350505050565b60606000808385611a3e9190615544565b905060008592505b81831015611a9057600f548310611a5c57611a90565b611a658361359f565b611a6e57611a7d565b8080611a7990615975565b9150505b8280611a8890615975565b935050611a46565b60008167ffffffffffffffff811115611aac57611aab614b4d565b5b604051908082528060200260200182016040528015611ae557816020015b611ad26147cb565b815260200190600190039081611aca5790505b50905060008794505b83851015611cd157600f548510611b0457611cd1565b611b0d8561359f565b611b1657611cbe565b600e6000868152602001908152602001600020604051806101800160405290816000820160009054906101000a900473ffffffffffffffffffffffffffffffffffffffff1673ffffffffffffffffffffffffffffffffffffffff1673ffffffffffffffffffffffffffffffffffffffff1681526020016001820160009054906101000a900473ffffffffffffffffffffffffffffffffffffffff1673ffffffffffffffffffffffffffffffffffffffff1673ffffffffffffffffffffffffffffffffffffffff1681526020016002820160009054906101000a900473ffffffffffffffffffffffffffffffffffffffff1673ffffffffffffffffffffffffffffffffffffffff1673ffffffffffffffffffffffffffffffffffffffff16815260200160038201548152602001600482015481526020016005820154815260200160068201548152602001600782015481526020016008820154815260200160098201548152602001600a8201548152602001600b82015481525050828281518110611ca457611ca36152ed565b5b60200260200101819052508080611cba90615975565b9150505b8480611cc990615975565b955050611aee565b819550505050505092915050565b611ce7614001565b73ffffffffffffffffffffffffffffffffffffffff16611d05611ef3565b73ffffffffffffffffffffffffffffffffffffffff1614611d5b576040517f08c379a0000000000000000000000000000000000000000000000000000000008152600401611d529061544c565b60405180910390fd5b80600d60006101000a81548173ffffffffffffffffffffffffffffffffffffffff021916908373ffffffffffffffffffffffffffffffffffffffff16021790555050565b611da7614001565b73ffffffffffffffffffffffffffffffffffffffff16611dc5611ef3565b73ffffffffffffffffffffffffffffffffffffffff1614611e1b576040517f08c379a0000000000000000000000000000000000000000000000000000000008152600401611e129061544c565b60405180910390fd5b611e256000614009565b565b611e2f614001565b73ffffffffffffffffffffffffffffffffffffffff16611e4d611ef3565b73ffffffffffffffffffffffffffffffffffffffff1614611ea3576040517f08c379a0000000000000000000000000000000000000000000000000000000008152600401611e9a9061544c565b60405180910390fd5b80600b819055507f500c1065894a3f5257bd7a36f5dcf006f39a07fc99fdf747d6d5dcad60769845611ed3611ef3565b82604051611ee29291906159be565b60405180910390a150565b600c5481565b60008060009054906101000a900473ffffffffffffffffffffffffffffffffffffffff16905090565b600b5481565b6000339050611f2f611ef3565b73ffffffffffffffffffffffffffffffffffffffff168173ffffffffffffffffffffffffffffffffffffffff161480611fb8575060011515600760008373ffffffffffffffffffffffffffffffffffffffff1673ffffffffffffffffffffffffffffffffffffffff16815260200190815260200160002060009054906101000a900460ff161515145b611ff7576040517f08c379a0000000000000000000000000000000000000000000000000000000008152600401611fee906157a7565b60405180910390fd5b6120168273ffffffffffffffffffffffffffffffffffffffff166140cd565b61201f57600080fd5b8173ffffffffffffffffffffffffffffffffffffffff166301ffc9a77f80ac58cd000000000000000000000000000000000000000000000000000000006040518263ffffffff1660e01b81526004016120789190615a22565b602060405180830381865afa158015612095573d6000803e3d6000fd5b505050506040513d601f19601f820116820180604052508101906120b99190615368565b1561222a5760001515600560008473ffffffffffffffffffffffffffffffffffffffff1673ffffffffffffffffffffffffffffffffffffffff16815260200190815260200160002060009054906101000a900460ff1615151461211b57600080fd5b6004829080600181540180825580915050600190039060005260206000200160009091909190916101000a81548173ffffffffffffffffffffffffffffffffffffffff021916908373ffffffffffffffffffffffffffffffffffffffff1602179055506001600560008473ffffffffffffffffffffffffffffffffffffffff1673ffffffffffffffffffffffffffffffffffffffff16815260200190815260200160002060006101000a81548160ff0219169083151502179055508173ffffffffffffffffffffffffffffffffffffffff167f5ecbd5caa1472b0648a446bc32c2f7bef31efd64d56ff2ba9631d8da45d43453600060405161221d9190615a85565b60405180910390a2612471565b8173ffffffffffffffffffffffffffffffffffffffff166301ffc9a77fd9b67a26000000000000000000000000000000000000000000000000000000006040518263ffffffff1660e01b81526004016122839190615a22565b602060405180830381865afa1580156122a0573d6000803e3d6000fd5b505050506040513d601f19601f820116820180604052508101906122c49190615368565b156124355760001515600560008473ffffffffffffffffffffffffffffffffffffffff1673ffffffffffffffffffffffffffffffffffffffff16815260200190815260200160002060009054906101000a900460ff1615151461232657600080fd5b6004829080600181540180825580915050600190039060005260206000200160009091909190916101000a81548173ffffffffffffffffffffffffffffffffffffffff021916908373ffffffffffffffffffffffffffffffffffffffff1602179055506001600560008473ffffffffffffffffffffffffffffffffffffffff1673ffffffffffffffffffffffffffffffffffffffff16815260200190815260200160002060006101000a81548160ff0219169083151502179055508173ffffffffffffffffffffffffffffffffffffffff167f5ecbd5caa1472b0648a446bc32c2f7bef31efd64d56ff2ba9631d8da45d4345360016040516124289190615a85565b60405180910390a2612470565b6040517f08c379a000000000000000000000000000000000000000000000000000000000815260040161246790615b12565b60405180910390fd5b5b5050565b600f5481565b612483614001565b73ffffffffffffffffffffffffffffffffffffffff166124a1611ef3565b73ffffffffffffffffffffffffffffffffffffffff16146124f7576040517f08c379a00000000000000000000000000000000000000000000000000000000081526004016124ee9061544c565b60405180910390fd5b6000600860008473ffffffffffffffffffffffffffffffffffffffff1673ffffffffffffffffffffffffffffffffffffffff168152602001908152602001600020541461254357600080fd5b42600860008473ffffffffffffffffffffffffffffffffffffffff1673ffffffffffffffffffffffffffffffffffffffff1681526020019081526020016000208190555080600960008473ffffffffffffffffffffffffffffffffffffffff1673ffffffffffffffffffffffffffffffffffffffff16815260200190815260200160002060006101000a81548160ff0219169083151502179055505050565b6060600680548060200260200160405190810160405280929190818152602001828054801561266657602002820191906000526020600020905b8160009054906101000a900473ffffffffffffffffffffffffffffffffffffffff1673ffffffffffffffffffffffffffffffffffffffff168152602001906001019080831161261c575b5050505050905090565b612678614001565b73ffffffffffffffffffffffffffffffffffffffff16612696611ef3565b73ffffffffffffffffffffffffffffffffffffffff16146126ec576040517f08c379a00000000000000000000000000000000000000000000000000000000081526004016126e39061544c565b60405180910390fd5b80600c819055507fc50c9e716e261f4567603029de89a0ba49e2771cf8865df5b1370b270ae1284e61271c611ef3565b8260405161272b9291906159be565b60405180910390a150565b61273f8161359f565b61277e576040517f08c379a000000000000000000000000000000000000000000000000000000000815260040161277590615100565b60405180910390fd5b6000600e6000838152602001908152602001600020905042816008015411156127dc576040517f08c379a00000000000000000000000000000000000000000000000000000000081526004016127d39061516c565b60405180910390fd5b806008015481600901541115806127f7575042816009015410155b612836576040517f08c379a000000000000000000000000000000000000000000000000000000000815260040161282d906151d8565b60405180910390fd5b600081600701541461287d576040517f08c379a000000000000000000000000000000000000000000000000000000000815260040161287490615244565b60405180910390fd5b6000816006015482600401546128939190615293565b905060008260050154141561294b57803410156128e5576040517f08c379a00000000000000000000000000000000000000000000000000000000081526004016128dc90615ba4565b60405180910390fd5b803411156129465760003390508073ffffffffffffffffffffffffffffffffffffffff166108fc833461291891906153cc565b9081150290604051600060405180830381858888f19350505050158015612943573d6000803e3d6000fd5b50505b612a15565b60006006836005015481548110612965576129646152ed565b5b9060005260206000200160009054906101000a900473ffffffffffffffffffffffffffffffffffffffff1690508073ffffffffffffffffffffffffffffffffffffffff166323b872dd3330856040518463ffffffff1660e01b81526004016129cf9392919061531c565b6020604051808303816000875af11580156129ee573d6000803e3d6000fd5b505050506040513d601f19601f82011682018060405250810190612a129190615368565b50505b6000600a60008581526020019081526020016000209050600060405180604001604052803373ffffffffffffffffffffffffffffffffffffffff1681526020018481525090508181908060018154018082558091505060019003906000526020600020906002020160009091909190915060008201518160000160006101000a81548173ffffffffffffffffffffffffffffffffffffffff021916908373ffffffffffffffffffffffffffffffffffffffff1602179055506020820151816001015550508360020160009054906101000a900473ffffffffffffffffffffffffffffffffffffffff1673ffffffffffffffffffffffffffffffffffffffff163373ffffffffffffffffffffffffffffffffffffffff167ef93dbdb72854b6b6fb35433086556f2635fc83c37080c667496fecfa650fb48660030154876004015487604051612b6593929190615395565b60405180910390a3612b878560018480549050612b8291906153cc565b613638565b5050505050565b6000612b9a8a8a6140e0565b91505060006001821415612d53573373ffffffffffffffffffffffffffffffffffffffff168b73ffffffffffffffffffffffffffffffffffffffff16636352211e8c6040518263ffffffff1660e01b8152600401612bf89190614f46565b602060405180830381865afa158015612c15573d6000803e3d6000fd5b505050506040513d601f19601f82011682018060405250810190612c3991906158dc565b73ffffffffffffffffffffffffffffffffffffffff1614612c8f576040517f08c379a0000000000000000000000000000000000000000000000000000000008152600401612c8690615c36565b60405180910390fd5b60018814612cd2576040517f08c379a0000000000000000000000000000000000000000000000000000000008152600401612cc990615cc8565b60405180910390fd5b8a73ffffffffffffffffffffffffffffffffffffffff1663d48e638a8b6040518263ffffffff1660e01b8152600401612d0b9190614f46565b602060405180830381865afa158015612d28573d6000803e3d6000fd5b505050506040513d601f19601f82011682018060405250810190612d4c91906158dc565b9050612ee8565b6002821415612eac5760008b73ffffffffffffffffffffffffffffffffffffffff1662fdd58e338d6040518363ffffffff1660e01b8152600401612d989291906159be565b602060405180830381865afa158015612db5573d6000803e3d6000fd5b505050506040513d601f19601f82011682018060405250810190612dd99190615cfd565b9050888110158015612deb5750600089115b612e2a576040517f08c379a0000000000000000000000000000000000000000000000000000000008152600401612e2190615d9c565b60405180910390fd5b8b73ffffffffffffffffffffffffffffffffffffffff1663d48e638a8c6040518263ffffffff1660e01b8152600401612e639190614f46565b602060405180830381865afa158015612e80573d6000803e3d6000fd5b505050506040513d601f19601f82011682018060405250810190612ea491906158dc565b915050612ee7565b6040517f08c379a0000000000000000000000000000000000000000000000000000000008152600401612ede90615e08565b60405180910390fd5b5b6000600f549050600f6000815480929190612f0290615975565b91905055506000600e60008381526020019081526020016000209050828160000160006101000a81548173ffffffffffffffffffffffffffffffffffffffff021916908373ffffffffffffffffffffffffffffffffffffffff160217905550338160010160006101000a81548173ffffffffffffffffffffffffffffffffffffffff021916908373ffffffffffffffffffffffffffffffffffffffff1602179055508c8160020160006101000a81548173ffffffffffffffffffffffffffffffffffffffff021916908373ffffffffffffffffffffffffffffffffffffffff1602179055508b81600301819055508981600401819055508a816005018190555086816006018190555088816007018190555042816008018190555087426130299190615544565b81600901819055506000861461303f5785613043565b600b545b81600a018190555060008514613059578461305d565b600c545b81600b0181905550600060405180606001604052808f73ffffffffffffffffffffffffffffffffffffffff1681526020018e81526020018c81525090507f74a38f571c6aa4c1e9a6aa92c26f438201ece8be65ee051d5577eb25d6bc6f353384838f8c8e88600a015489600b01546040516130df989796959493929190615e6a565b60405180910390a15050505050505050505050505050565b60015481565b613105614001565b73ffffffffffffffffffffffffffffffffffffffff16613123611ef3565b73ffffffffffffffffffffffffffffffffffffffff1614613179576040517f08c379a00000000000000000000000000000000000000000000000000000000081526004016131709061544c565b60405180910390fd5b6131828161359f565b6131c1576040517f08c379a00000000000000000000000000000000000000000000000000000000081526004016131b890615100565b60405180910390fd5b6000600e60008381526020019081526020016000209050428160080154111561321f576040517f08c379a00000000000000000000000000000000000000000000000000000000081526004016132169061516c565b60405180910390fd5b600081600701541415613267576040517f08c379a000000000000000000000000000000000000000000000000000000000815260040161325e906156f6565b60405180910390fd5b6000600a600084815260200190815260200160002090506001826007015414156134a2576000818054905011156134a157600080826000815481106132af576132ae6152ed565b5b906000526020600020906002020160010154905060008092505b83805490508310156133905760008484815481106132ea576132e96152ed565b5b90600052602060002090600202016040518060400160405290816000820160009054906101000a900473ffffffffffffffffffffffffffffffffffffffff1673ffffffffffffffffffffffffffffffffffffffff1673ffffffffffffffffffffffffffffffffffffffff1681526020016001820154815250509050806020015183101561337c57806020015192508391505b50828061338890615975565b9350506132c9565b8460020160009054906101000a900473ffffffffffffffffffffffffffffffffffffffff1673ffffffffffffffffffffffffffffffffffffffff168482815481106133de576133dd6152ed565b5b906000526020600020906002020160000160009054906101000a900473ffffffffffffffffffffffffffffffffffffffff1673ffffffffffffffffffffffffffffffffffffffff167f0b5ff9d3667fbe899e80514e9e77451f5afa9c56d1619589dfbbec22b3d2cbbf876003015488600401548960070154898781548110613469576134686152ed565b5b90600052602060002090600202016001015460405161348b9493929190615716565b60405180910390a361349d8682613638565b5050505b5b505050565b6134af614001565b73ffffffffffffffffffffffffffffffffffffffff166134cd611ef3565b73ffffffffffffffffffffffffffffffffffffffff1614613523576040517f08c379a000000000000000000000000000000000000000000000000000000000815260040161351a9061544c565b60405180910390fd5b600073ffffffffffffffffffffffffffffffffffffffff168173ffffffffffffffffffffffffffffffffffffffff161415613593576040517f08c379a000000000000000000000000000000000000000000000000000000000815260040161358a90615f5c565b60405180910390fd5b61359c81614009565b50565b6000600f5482106135b35760009050613633565b6000600e60008481526020019081526020016000209050600073ffffffffffffffffffffffffffffffffffffffff168160010160009054906101000a900473ffffffffffffffffffffffffffffffffffffffff1673ffffffffffffffffffffffffffffffffffffffff16141561362d576000915050613633565b60019150505b919050565b6136418261359f565b613680576040517f08c379a000000000000000000000000000000000000000000000000000000000815260040161367790615100565b60405180910390fd5b6000600e600084815260200190815260200160002090506000600a6000858152602001908152602001600020905060005b8180549050811015613ff15760008282815481106136d2576136d16152ed565b5b90600052602060002090600202016040518060400160405290816000820160009054906101000a900473ffffffffffffffffffffffffffffffffffffffff1673ffffffffffffffffffffffffffffffffffffffff1673ffffffffffffffffffffffffffffffffffffffff168152602001600182015481525050905084821415613ea3576000612710826020015186600a015461376e9190615293565b6137789190615fab565b90506000612710836020015187600b01546137939190615293565b61379d9190615fab565b905060008073ffffffffffffffffffffffffffffffffffffffff16600d60009054906101000a900473ffffffffffffffffffffffffffffffffffffffff1673ffffffffffffffffffffffffffffffffffffffff161461381757612710601e856020015161380a9190615293565b6138149190615fab565b90505b6000818385876020015161382b91906153cc565b61383591906153cc565b61383f91906153cc565b9050600088600501541415613a0d5760008860010160009054906101000a900473ffffffffffffffffffffffffffffffffffffffff1690508073ffffffffffffffffffffffffffffffffffffffff166108fc839081150290604051600060405180830381858888f193505050501580156138bd573d6000803e3d6000fd5b506000851115613919576138cf611ef3565b90508073ffffffffffffffffffffffffffffffffffffffff166108fc869081150290604051600060405180830381858888f19350505050158015613917573d6000803e3d6000fd5b505b6000841115613991578860000160009054906101000a900473ffffffffffffffffffffffffffffffffffffffff1690508073ffffffffffffffffffffffffffffffffffffffff166108fc859081150290604051600060405180830381858888f1935050505015801561398f573d6000803e3d6000fd5b505b6000831115613a0757600d60009054906101000a900473ffffffffffffffffffffffffffffffffffffffff1690508073ffffffffffffffffffffffffffffffffffffffff166108fc849081150290604051600060405180830381858888f19350505050158015613a05573d6000803e3d6000fd5b505b50613ce3565b60006006896005015481548110613a2757613a266152ed565b5b9060005260206000200160009054906101000a900473ffffffffffffffffffffffffffffffffffffffff1690508073ffffffffffffffffffffffffffffffffffffffff1663a9059cbb8a60010160009054906101000a900473ffffffffffffffffffffffffffffffffffffffff16846040518363ffffffff1660e01b8152600401613ab39291906159be565b6020604051808303816000875af1158015613ad2573d6000803e3d6000fd5b505050506040513d601f19601f82011682018060405250810190613af69190615368565b506000851115613b89578073ffffffffffffffffffffffffffffffffffffffff166323b872dd30613b25611ef3565b886040518463ffffffff1660e01b8152600401613b449392919061531c565b6020604051808303816000875af1158015613b63573d6000803e3d6000fd5b505050506040513d601f19601f82011682018060405250810190613b879190615368565b505b6000841115613c36578073ffffffffffffffffffffffffffffffffffffffff1663a9059cbb8a60000160009054906101000a900473ffffffffffffffffffffffffffffffffffffffff16866040518363ffffffff1660e01b8152600401613bf19291906159be565b6020604051808303816000875af1158015613c10573d6000803e3d6000fd5b505050506040513d601f19601f82011682018060405250810190613c349190615368565b505b6000831115613ce1578073ffffffffffffffffffffffffffffffffffffffff1663a9059cbb600d60009054906101000a900473ffffffffffffffffffffffffffffffffffffffff16856040518363ffffffff1660e01b8152600401613c9c9291906159be565b6020604051808303816000875af1158015613cbb573d6000803e3d6000fd5b505050506040513d601f19601f82011682018060405250810190613cdf9190615368565b505b505b6000600167ffffffffffffffff811115613d0057613cff614b4d565b5b604051908082528060200260200182016040528015613d2e5781602001602082028036833780820191505090505b509050886003015481600081518110613d4a57613d496152ed565b5b6020026020010181815250506000600167ffffffffffffffff811115613d7357613d72614b4d565b5b604051908082528060200260200182016040528015613da15781602001602082028036833780820191505090505b509050896004015481600081518110613dbd57613dbc6152ed565b5b602002602001018181525050613e228a60020160009054906101000a900473ffffffffffffffffffffffffffffffffffffffff168b60010160009054906101000a900473ffffffffffffffffffffffffffffffffffffffff1689600001518585614343565b7f7a123ee1d39d4539130220e334a742b40b4f341958d8fea00185a80fd2b0ab188c8b4286613e4f611ef3565b8c600001518c8c600d60009054906101000a900473ffffffffffffffffffffffffffffffffffffffff168d604051613e909a999897969594939291906161bf565b60405180910390a1505050505050613fdd565b600084600501541415613f0a576000816000015190508073ffffffffffffffffffffffffffffffffffffffff166108fc83602001519081150290604051600060405180830381858888f19350505050158015613f03573d6000803e3d6000fd5b5050613fdc565b60006006856005015481548110613f2457613f236152ed565b5b9060005260206000200160009054906101000a900473ffffffffffffffffffffffffffffffffffffffff1690508073ffffffffffffffffffffffffffffffffffffffff166323b872dd30846000015185602001516040518463ffffffff1660e01b8152600401613f969392919061531c565b6020604051808303816000875af1158015613fb5573d6000803e3d6000fd5b505050506040513d601f19601f82011682018060405250810190613fd99190615368565b50505b5b508080613fe990615975565b9150506136b1565b613ffa856146b2565b5050505050565b600033905090565b60008060009054906101000a900473ffffffffffffffffffffffffffffffffffffffff169050816000806101000a81548173ffffffffffffffffffffffffffffffffffffffff021916908373ffffffffffffffffffffffffffffffffffffffff1602179055508173ffffffffffffffffffffffffffffffffffffffff168173ffffffffffffffffffffffffffffffffffffffff167f8be0079c531659141344cd1fd0a4f28419497f9722a3daafe3b4186f6b6457e060405160405180910390a35050565b600080823b905060008111915050919050565b606060008373ffffffffffffffffffffffffffffffffffffffff166301ffc9a77f80ac58cd000000000000000000000000000000000000000000000000000000006040518263ffffffff1660e01b815260040161413d9190615a22565b602060405180830381865afa15801561415a573d6000803e3d6000fd5b505050506040513d601f19601f8201168201806040525081019061417e9190615368565b1561420d578373ffffffffffffffffffffffffffffffffffffffff1663c87b56dd846040518263ffffffff1660e01b81526004016141bc9190614f46565b600060405180830381865afa1580156141d9573d6000803e3d6000fd5b505050506040513d6000823e3d601f19601f8201168201806040525081019061420291906162d1565b91506001905061433c565b8373ffffffffffffffffffffffffffffffffffffffff166301ffc9a77fd9b67a26000000000000000000000000000000000000000000000000000000006040518263ffffffff1660e01b81526004016142669190615a22565b602060405180830381865afa158015614283573d6000803e3d6000fd5b505050506040513d601f19601f820116820180604052508101906142a79190615368565b15614336578373ffffffffffffffffffffffffffffffffffffffff16630e89341c846040518263ffffffff1660e01b81526004016142e59190614f46565b600060405180830381865afa158015614302573d6000803e3d6000fd5b505050506040513d6000823e3d601f19601f8201168201806040525081019061432b91906162d1565b91506002905061433b565b600090505b5b9250929050565b60011515600560008773ffffffffffffffffffffffffffffffffffffffff1673ffffffffffffffffffffffffffffffffffffffff16815260200190815260200160002060009054906101000a900460ff161515146143a057600080fd5b8473ffffffffffffffffffffffffffffffffffffffff166301ffc9a77f80ac58cd000000000000000000000000000000000000000000000000000000006040518263ffffffff1660e01b81526004016143f99190615a22565b602060405180830381865afa158015614416573d6000803e3d6000fd5b505050506040513d601f19601f8201168201806040525081019061443a9190615368565b1561454557600080600067ffffffffffffffff81111561445d5761445c614b4d565b5b6040519080825280601f01601f19166020018201604052801561448f5781602001600182028036833780820191505090505b509050600091505b835182101561453e578673ffffffffffffffffffffffffffffffffffffffff1663b88d4fde87878786815181106144d1576144d06152ed565b5b6020026020010151856040518563ffffffff1660e01b81526004016144f9949392919061636f565b600060405180830381600087803b15801561451357600080fd5b505af1158015614527573d6000803e3d6000fd5b50505050818061453690615975565b925050614497565b50506146ab565b8473ffffffffffffffffffffffffffffffffffffffff166301ffc9a77fd9b67a26000000000000000000000000000000000000000000000000000000006040518263ffffffff1660e01b815260040161459e9190615a22565b602060405180830381865afa1580156145bb573d6000803e3d6000fd5b505050506040513d601f19601f820116820180604052508101906145df9190615368565b156146aa5760008067ffffffffffffffff811115614600576145ff614b4d565b5b6040519080825280601f01601f1916602001820160405280156146325781602001600182028036833780820191505090505b5090508573ffffffffffffffffffffffffffffffffffffffff16632eb2c2d686868686866040518663ffffffff1660e01b815260040161467695949392919061646a565b600060405180830381600087803b15801561469057600080fd5b505af11580156146a4573d6000803e3d6000fd5b50505050505b5b5050505050565b6000600e6000838152602001908152602001600020905060008160010160009054906101000a900473ffffffffffffffffffffffffffffffffffffffff16905060008260010160006101000a81548173ffffffffffffffffffffffffffffffffffffffff021916908373ffffffffffffffffffffffffffffffffffffffff1602179055507fe618057d6a1c7a46063f5582c253c9072fd35cf5c08aa48143e8c11551007b9a818360020160009054906101000a900473ffffffffffffffffffffffffffffffffffffffff16846003015485600501548660060154876008015488600901546147a091906153cc565b88600a015489600b01546040516147be9897969594939291906164d2565b60405180910390a1505050565b604051806101800160405280600073ffffffffffffffffffffffffffffffffffffffff168152602001600073ffffffffffffffffffffffffffffffffffffffff168152602001600073ffffffffffffffffffffffffffffffffffffffff1681526020016000815260200160008152602001600081526020016000815260200160008152602001600081526020016000815260200160008152602001600081525090565b6000604051905090565b600080fd5b600080fd5b6000819050919050565b61489581614882565b81146148a057600080fd5b50565b6000813590506148b28161488c565b92915050565b600080604083850312156148cf576148ce614878565b5b60006148dd858286016148a3565b92505060206148ee858286016148a3565b9150509250929050565b600073ffffffffffffffffffffffffffffffffffffffff82169050919050565b6000614923826148f8565b9050919050565b61493381614918565b811461493e57600080fd5b50565b6000813590506149508161492a565b92915050565b6000806040838503121561496d5761496c614878565b5b600061497b858286016148a3565b925050602061498c85828601614941565b9150509250929050565b6000602082840312156149ac576149ab614878565b5b60006149ba84828501614941565b91505092915050565b6149cc81614918565b82525050565b60006020820190506149e760008301846149c3565b92915050565b600081519050919050565b600082825260208201905092915050565b6000819050602082019050919050565b614a2281614918565b82525050565b6000614a348383614a19565b60208301905092915050565b6000602082019050919050565b6000614a58826149ed565b614a6281856149f8565b9350614a6d83614a09565b8060005b83811015614a9e578151614a858882614a28565b9750614a9083614a40565b925050600181019050614a71565b5085935050505092915050565b60006020820190508181036000830152614ac58184614a4d565b905092915050565b60008060408385031215614ae457614ae3614878565b5b6000614af285828601614941565b9250506020614b0385828601614941565b9150509250929050565b60028110614b1a57600080fd5b50565b600081359050614b2c81614b0d565b92915050565b600080fd5b600080fd5b6000601f19601f8301169050919050565b7f4e487b7100000000000000000000000000000000000000000000000000000000600052604160045260246000fd5b614b8582614b3c565b810181811067ffffffffffffffff82111715614ba457614ba3614b4d565b5b80604052505050565b6000614bb761486e565b9050614bc38282614b7c565b919050565b600067ffffffffffffffff821115614be357614be2614b4d565b5b614bec82614b3c565b9050602081019050919050565b82818337600083830152505050565b6000614c1b614c1684614bc8565b614bad565b905082815260208101848484011115614c3757614c36614b37565b5b614c42848285614bf9565b509392505050565b600082601f830112614c5f57614c5e614b32565b5b8135614c6f848260208601614c08565b91505092915050565b60008060008060808587031215614c9257614c91614878565b5b6000614ca087828801614b1d565b945050602085013567ffffffffffffffff811115614cc157614cc061487d565b5b614ccd87828801614c4a565b935050604085013567ffffffffffffffff811115614cee57614ced61487d565b5b614cfa87828801614c4a565b925050606085013567ffffffffffffffff811115614d1b57614d1a61487d565b5b614d2787828801614c4a565b91505092959194509250565b600081519050919050565b600082825260208201905092915050565b6000819050602082019050919050565b614d6881614882565b82525050565b61018082016000820151614d856000850182614a19565b506020820151614d986020850182614a19565b506040820151614dab6040850182614a19565b506060820151614dbe6060850182614d5f565b506080820151614dd16080850182614d5f565b5060a0820151614de460a0850182614d5f565b5060c0820151614df760c0850182614d5f565b5060e0820151614e0a60e0850182614d5f565b50610100820151614e1f610100850182614d5f565b50610120820151614e34610120850182614d5f565b50610140820151614e49610140850182614d5f565b50610160820151614e5e610160850182614d5f565b50505050565b6000614e708383614d6e565b6101808301905092915050565b6000602082019050919050565b6000614e9582614d33565b614e9f8185614d3e565b9350614eaa83614d4f565b8060005b83811015614edb578151614ec28882614e64565b9750614ecd83614e7d565b925050600181019050614eae565b5085935050505092915050565b60006020820190508181036000830152614f028184614e8a565b905092915050565b600060208284031215614f2057614f1f614878565b5b6000614f2e848285016148a3565b91505092915050565b614f4081614882565b82525050565b6000602082019050614f5b6000830184614f37565b92915050565b60008115159050919050565b614f7681614f61565b8114614f8157600080fd5b50565b600081359050614f9381614f6d565b92915050565b60008060408385031215614fb057614faf614878565b5b6000614fbe85828601614941565b9250506020614fcf85828601614f84565b9150509250929050565b60008060008060008060008060006101208a8c031215614ffc57614ffb614878565b5b600061500a8c828d01614941565b995050602061501b8c828d016148a3565b985050604061502c8c828d016148a3565b975050606061503d8c828d016148a3565b965050608061504e8c828d016148a3565b95505060a061505f8c828d016148a3565b94505060c06150708c828d016148a3565b93505060e06150818c828d016148a3565b9250506101006150938c828d016148a3565b9150509295985092959850929598565b600082825260208201905092915050565b7f73616c65206973206e6f742076616c6964000000000000000000000000000000600082015250565b60006150ea6011836150a3565b91506150f5826150b4565b602082019050919050565b60006020820190508181036000830152615119816150dd565b9050919050565b7f73616c65206e6f74207374617274656420796574000000000000000000000000600082015250565b60006151566014836150a3565b915061516182615120565b602082019050919050565b6000602082019050818103600083015261518581615149565b9050919050565b7f73616c6520616c726561647920656e6465640000000000000000000000000000600082015250565b60006151c26012836150a3565b91506151cd8261518c565b602082019050919050565b600060208201905081810360008301526151f1816151b5565b9050919050565b7f6f66666572206e6f7420666f722066697865642d70726963652073616c650000600082015250565b600061522e601e836150a3565b9150615239826151f8565b602082019050919050565b6000602082019050818103600083015261525d81615221565b9050919050565b7f4e487b7100000000000000000000000000000000000000000000000000000000600052601160045260246000fd5b600061529e82614882565b91506152a983614882565b9250817fffffffffffffffffffffffffffffffffffffffffffffffffffffffffffffffff04831182151516156152e2576152e1615264565b5b828202905092915050565b7f4e487b7100000000000000000000000000000000000000000000000000000000600052603260045260246000fd5b600060608201905061533160008301866149c3565b61533e60208301856149c3565b61534b6040830184614f37565b949350505050565b60008151905061536281614f6d565b92915050565b60006020828403121561537e5761537d614878565b5b600061538c84828501615353565b91505092915050565b60006060820190506153aa6000830186614f37565b6153b76020830185614f37565b6153c46040830184614f37565b949350505050565b60006153d782614882565b91506153e283614882565b9250828210156153f5576153f4615264565b5b828203905092915050565b7f4f776e61626c653a2063616c6c6572206973206e6f7420746865206f776e6572600082015250565b60006154366020836150a3565b915061544182615400565b602082019050919050565b6000602082019050818103600083015261546581615429565b9050919050565b7f6e756c6c206164647265737320666f72207061796d656e7420746f6b656e0000600082015250565b60006154a2601e836150a3565b91506154ad8261546c565b602082019050919050565b600060208201905081810360008301526154d181615495565b9050919050565b7f696e76616c6964207061796d656e7420746f6b656e2069640000000000000000600082015250565b600061550e6018836150a3565b9150615519826154d8565b602082019050919050565b6000602082019050818103600083015261553d81615501565b9050919050565b600061554f82614882565b915061555a83614882565b9250827fffffffffffffffffffffffffffffffffffffffffffffffffffffffffffffffff0382111561558f5761558e615264565b5b828201905092915050565b6155a381614f61565b82525050565b60006040820190506155be60008301856149c3565b6155cb602083018461559a565b9392505050565b7f455243373231206465706c6f796572206e756c6c000000000000000000000000600082015250565b60006156086014836150a3565b9150615613826155d2565b602082019050919050565b60006020820190508181036000830152615637816155fb565b9050919050565b7f45524331313535206465706c6f796572206e756c6c0000000000000000000000600082015250565b60006156746015836150a3565b915061567f8261563e565b602082019050919050565b600060208201905081810360008301526156a381615667565b9050919050565b7f626964206e6f7420666f722074696d65642d61756374696f6e2073616c650000600082015250565b60006156e0601e836150a3565b91506156eb826156aa565b602082019050919050565b6000602082019050818103600083015261570f816156d3565b9050919050565b600060808201905061572b6000830187614f37565b6157386020830186614f37565b6157456040830185614f37565b6157526060830184614f37565b95945050505050565b7f6e656974686572206f776e6572206e6f722063726561746f7200000000000000600082015250565b60006157916019836150a3565b915061579c8261575b565b602082019050919050565b600060208201905081810360008301526157c081615784565b9050919050565b7f4e487b7100000000000000000000000000000000000000000000000000000000600052602160045260246000fd5b600081519050919050565b60005b8381101561581f578082015181840152602081019050615804565b8381111561582e576000848401525b50505050565b600061583f826157f6565b61584981856150a3565b9350615859818560208601615801565b61586281614b3c565b840191505092915050565b600060808201905081810360008301526158878187615834565b9050818103602083015261589b8186615834565b905081810360408301526158af8185615834565b90506158be60608301846149c3565b95945050505050565b6000815190506158d68161492a565b92915050565b6000602082840312156158f2576158f1614878565b5b6000615900848285016158c7565b91505092915050565b7f556e6b6e6f776e20636f6c6c656374696f6e20636f6e74726163740000000000600082015250565b600061593f601b836150a3565b915061594a82615909565b602082019050919050565b6000602082019050818103600083015261596e81615932565b9050919050565b600061598082614882565b91507fffffffffffffffffffffffffffffffffffffffffffffffffffffffffffffffff8214156159b3576159b2615264565b5b600182019050919050565b60006040820190506159d360008301856149c3565b6159e06020830184614f37565b9392505050565b60007fffffffff0000000000000000000000000000000000000000000000000000000082169050919050565b615a1c816159e7565b82525050565b6000602082019050615a376000830184615a13565b92915050565b60028110615a4e57615a4d6157c7565b5b50565b6000819050615a5f82615a3d565b919050565b6000615a6f82615a51565b9050919050565b615a7f81615a64565b82525050565b6000602082019050615a9a6000830184615a76565b92915050565b7f4572726f7220616464696e6720756e6b6e6f776e204e465420636f6c6c65637460008201527f696f6e0000000000000000000000000000000000000000000000000000000000602082015250565b6000615afc6023836150a3565b9150615b0782615aa0565b604082019050919050565b60006020820190508181036000830152615b2b81615aef565b9050919050565b7f696e73756666696369656e74206e61746976652063757272656e637920746f2060008201527f6275790000000000000000000000000000000000000000000000000000000000602082015250565b6000615b8e6023836150a3565b9150615b9982615b32565b604082019050919050565b60006020820190508181036000830152615bbd81615b81565b9050919050565b7f6e6f74206f776e6572206f66207468652045524337323120746f6b656e20746f60008201527f206265206f6e2073616c65000000000000000000000000000000000000000000602082015250565b6000615c20602b836150a3565b9150615c2b82615bc4565b604082019050919050565b60006020820190508181036000830152615c4f81615c13565b9050919050565b7f45524337323120746f6b656e2073616c6520616d6f756e74206973206e6f742060008201527f3100000000000000000000000000000000000000000000000000000000000000602082015250565b6000615cb26021836150a3565b9150615cbd82615c56565b604082019050919050565b60006020820190508181036000830152615ce181615ca5565b9050919050565b600081519050615cf78161488c565b92915050565b600060208284031215615d1357615d12614878565b5b6000615d2184828501615ce8565b91505092915050565b7f657863656564656420616d6f756e74206f66204552433131353520746f6b656e60008201527f20746f206265206f6e2073616c65000000000000000000000000000000000000602082015250565b6000615d86602e836150a3565b9150615d9182615d2a565b604082019050919050565b60006020820190508181036000830152615db581615d79565b9050919050565b7f4e6f7420737570706f72746564204e465420636f6e7472616374000000000000600082015250565b6000615df2601a836150a3565b9150615dfd82615dbc565b602082019050919050565b60006020820190508181036000830152615e2181615de5565b9050919050565b606082016000820151615e3e6000850182614a19565b506020820151615e516020850182614d5f565b506040820151615e646040850182614d5f565b50505050565b600061014082019050615e80600083018b6149c3565b615e8d602083018a614f37565b615e9a6040830189615e28565b615ea760a0830188614f37565b615eb460c0830187614f37565b615ec160e0830186614f37565b615ecf610100830185614f37565b615edd610120830184614f37565b9998505050505050505050565b7f4f776e61626c653a206e6577206f776e657220697320746865207a65726f206160008201527f6464726573730000000000000000000000000000000000000000000000000000602082015250565b6000615f466026836150a3565b9150615f5182615eea565b604082019050919050565b60006020820190508181036000830152615f7581615f39565b9050919050565b7f4e487b7100000000000000000000000000000000000000000000000000000000600052601260045260246000fd5b6000615fb682614882565b9150615fc183614882565b925082615fd157615fd0615f7c565b5b828204905092915050565b60008160001c9050919050565b600073ffffffffffffffffffffffffffffffffffffffff82169050919050565b600061601c61601783615fdc565b615fe9565b9050919050565b6000819050919050565b600061604061603b83615fdc565b616023565b9050919050565b6101808201600080830154905061605d81616009565b61606a6000860182614a19565b506001830154905061607b81616009565b6160886020860182614a19565b506002830154905061609981616009565b6160a66040860182614a19565b50600383015490506160b78161602d565b6160c46060860182614d5f565b50600483015490506160d58161602d565b6160e26080860182614d5f565b50600583015490506160f38161602d565b61610060a0860182614d5f565b50600683015490506161118161602d565b61611e60c0860182614d5f565b506007830154905061612f8161602d565b61613c60e0860182614d5f565b506008830154905061614d8161602d565b61615b610100860182614d5f565b506009830154905061616c8161602d565b61617a610120860182614d5f565b50600a830154905061618b8161602d565b616199610140860182614d5f565b50600b83015490506161aa8161602d565b6161b8610160860182614d5f565b5050505050565b60006102a0820190506161d5600083018d614f37565b6161e2602083018c616047565b6161f06101a083018b614f37565b6161fe6101c083018a614f37565b61620c6101e08301896149c3565b61621a6102008301886149c3565b616228610220830187614f37565b616236610240830186614f37565b6162446102608301856149c3565b616252610280830184614f37565b9b9a5050505050505050505050565b600061627461626f84614bc8565b614bad565b9050828152602081018484840111156162905761628f614b37565b5b61629b848285615801565b509392505050565b600082601f8301126162b8576162b7614b32565b5b81516162c8848260208601616261565b91505092915050565b6000602082840312156162e7576162e6614878565b5b600082015167ffffffffffffffff8111156163055761630461487d565b5b616311848285016162a3565b91505092915050565b600081519050919050565b600082825260208201905092915050565b60006163418261631a565b61634b8185616325565b935061635b818560208601615801565b61636481614b3c565b840191505092915050565b600060808201905061638460008301876149c3565b61639160208301866149c3565b61639e6040830185614f37565b81810360608301526163b08184616336565b905095945050505050565b600081519050919050565b600082825260208201905092915050565b6000819050602082019050919050565b60006163f38383614d5f565b60208301905092915050565b6000602082019050919050565b6000616417826163bb565b61642181856163c6565b935061642c836163d7565b8060005b8381101561645d57815161644488826163e7565b975061644f836163ff565b925050600181019050616430565b5085935050505092915050565b600060a08201905061647f60008301886149c3565b61648c60208301876149c3565b818103604083015261649e818661640c565b905081810360608301526164b2818561640c565b905081810360808301526164c68184616336565b90509695505050505050565b6000610100820190506164e8600083018b6149c3565b6164f5602083018a6149c3565b6165026040830189614f37565b61650f6060830188614f37565b61651c6080830187614f37565b61652960a0830186614f37565b61653660c0830185614f37565b61654360e0830184614f37565b999850505050505050505056fea2646970667358221220c3ef787558399e079c1de4e8b1e9398e940e1ef39ff6f92f2d6e413291dd2e1b64736f6c634300080b0033",
  "immutableReferences": {},
  "source": "// SPDX-License-Identifier: MIT\r\n\r\npragma solidity ^0.8.0;\r\n\r\nimport \"@openzeppelin/contracts/access/Ownable.sol\";\r\nimport \"@openzeppelin/contracts/utils/Address.sol\";\r\nimport \"@openzeppelin/contracts/utils/introspection/IERC165.sol\";\r\nimport \"@openzeppelin/contracts/token/ERC20/IERC20.sol\";\r\nimport \"@openzeppelin/contracts/token/ERC721/IERC721.sol\";\r\nimport \"@openzeppelin/contracts/token/ERC1155/IERC1155.sol\";\r\n\r\nimport \"./IHyperXNFTFactory.sol\";\r\nimport \"./ContractInterface.sol\";\r\n\r\ncontract HyperXNFTFactory is IHyperXNFTFactory, Ownable {\r\n    using Address for address;\r\n\r\n    struct HyperXNFTSale {\r\n        address creator;\r\n        address seller;\r\n        address sc;\r\n        uint256 tokenId;\r\n        uint256 copy;\r\n        uint256 payment;\r\n        uint256 basePrice;\r\n        uint256 method;\r\n        uint256 startTime;\r\n        uint256 endTime;\r\n        uint256 feeRatio;\r\n        uint256 royaltyRatio;\r\n    }\r\n\r\n    struct BookInfo {\r\n        address user;\r\n        uint256 totalPrice;\r\n    }\r\n\r\n    /**\r\n     * delay period to add a creator to the list\r\n     */\r\n    uint256 public DELAY_PERIOD = 3 seconds;\r\n\r\n    /**\r\n     * deployer for single/multiple NFT collection\r\n     */\r\n    address private singleDeployer;\r\n    address private multipleDeployer;\r\n\r\n    /**\r\n     * array of collection addresses including ERC721 and ERC1155\r\n     */\r\n    address[] private collections;\r\n    /**\r\n     * check if the collection has already been added to this factory\r\n     */\r\n    mapping(address => bool) collectionOccupation;\r\n\r\n    /**\r\n     * token address for payment\r\n     */\r\n    address[] private paymentTokens;\r\n\r\n    /**\r\n     * check if it is the creator permitted by owner(admin)\r\n     */\r\n    mapping(address => bool) private creators;\r\n    /**\r\n     * epoch timestamp of starting the process that permits one account to be a creator\r\n     */\r\n    mapping(address => uint256) private pendingTime;\r\n    /**\r\n     * pending value that presents the creator is enabled/disabled by true/false\r\n     */\r\n    mapping(address => bool) private pendingValue;\r\n\r\n    /**\r\n     * pending value that presents the creator is enabled/disabled by true/false\r\n     */\r\n    mapping(uint256 => BookInfo[]) private bookInfo;\r\n\r\n    /**\r\n     * default fee value set by owner of the contract, defaultFeeRatio / 10000 is the real ratio.\r\n     */\r\n    uint256 public defaultFeeRatio;\r\n\r\n    /**\r\n     * default royalty value set by owner of the contract, defaultRoyaltyRatio / 10000 is the real ratio.\r\n     */\r\n    uint256 public defaultRoyaltyRatio;\r\n\r\n    /**\r\n     * dev address\r\n     */\r\n    address public devAddress;\r\n\r\n    /**\r\n     * sale list by its created index\r\n     */\r\n    mapping(uint256 => HyperXNFTSale) saleList;\r\n\r\n    /**\r\n     * sale list count or future index to be created\r\n     */\r\n    uint256 public saleCount;\r\n\r\n    /**\r\n     * event that marks the creator has been permitted by an owner(admin)\r\n     */\r\n    event SetCreatorForFactory(address account, bool set);\r\n\r\n    /**\r\n     * event when an owner sets default fee ratio\r\n     */\r\n    event SetDefaultFeeRatio(address owner, uint256 newFeeRatio);\r\n\r\n    /**\r\n     * event when an owner sets default royalty ratio\r\n     */\r\n    event SetDefaultRoyaltyRatio(address owner, uint256 newRoyaltyRatio);\r\n\r\n    /**\r\n     * event when a new payment token set\r\n     */\r\n    event PaymentTokenSet(uint256 id, address indexed tokenAddress);\r\n\r\n    /**\r\n     * event when a new ERC721 contract is created.\r\n     * Do not remove this event even if it is not used.\r\n     */\r\n    event CreatedERC721TradableContract(address indexed factory, address indexed newContract);\r\n\r\n    /**\r\n     * event when a new ERC1155 contract is created.\r\n     * Do not remove this event even if it is not used.\r\n     */\r\n    event CreatedERC1155TradableContract(address indexed factory, address indexed newContract);\r\n\r\n    /**\r\n     * event when an seller lists his/her token on sale\r\n     */\r\n    struct ListTokenInfo {\r\n        address sc;\r\n        uint256 tokenId;\r\n        uint256 copy;\r\n    }\r\n    event ListedOnSale(\r\n        address seller,\r\n        uint256 saleId,\r\n        ListTokenInfo tokenInfo,\r\n        uint256 payment,\r\n        uint256 basePrice,\r\n        uint256 duration,\r\n        uint256 feeRatio,\r\n        uint256 royaltyRatio\r\n    );\r\n\r\n    /**\r\n     * event when a seller cancels his sale\r\n     */\r\n    event RemoveFromSale(\r\n        address seller,\r\n        address sc,\r\n        uint256 tokenId,\r\n        uint256 payment,\r\n        uint256 basePrice,\r\n        uint256 duration,\r\n        uint256 feeRatio,\r\n        uint256 royaltyRatio\r\n    );\r\n\r\n    /**\r\n     * event when a user makes an offer for fixed-price sale\r\n     */\r\n    event MakeOffer(\r\n        address indexed user,\r\n        address indexed smart_contract,\r\n        uint256 tokenId,\r\n        uint256 copy,\r\n        uint256 price\r\n    );\r\n\r\n    /**\r\n     * event when a user makes an offer for fixed-price sale\r\n     */\r\n    event Buy(\r\n        address indexed user,\r\n        address indexed smart_contract,\r\n        uint256 tokenId,\r\n        uint256 copy,\r\n        uint256 price\r\n    );\r\n\r\n    /**\r\n     * event when a user places a bid for timed-auction sale\r\n     */\r\n    event PlaceBid(\r\n        address indexed user,\r\n        address indexed smart_contract,\r\n        uint256 tokenId,\r\n        uint256 copy,\r\n        uint256 method,\r\n        uint256 price\r\n    );\r\n\r\n    /**\r\n     * event when timed-auction times out\r\n     */\r\n    event AuctionResult(\r\n        address indexed winner,\r\n        address indexed smart_contract,\r\n        uint256 tokenId,\r\n        uint256 copy,\r\n        uint256 method,\r\n        uint256 price\r\n    );\r\n\r\n    /**\r\n     * event when a trade is successfully made.\r\n     */\r\n\r\n    event Trade(\r\n        uint256 saleId,\r\n        HyperXNFTSale sale,\r\n        uint256 timestamp,\r\n        uint256 paySeller,\r\n        address owner,\r\n        address winner,\r\n        uint256 fee,\r\n        uint256 royalty,\r\n        address devAddress,\r\n        uint256 devFee\r\n    );\r\n\r\n    /**\r\n     * event when deployers are updated\r\n     */\r\n    event UpdateDeployers(\r\n        address indexed singleCollectionDeployer,\r\n        address indexed multipleCollectionDeployer\r\n    );\r\n\r\n    /**\r\n     * this modifier restricts some privileged action\r\n     */\r\n    modifier creatorOnly() {\r\n        address ms = msg.sender;\r\n        require(\r\n            ms == owner() || creators[ms] == true,\r\n            \"neither owner nor creator\"\r\n        );\r\n        _;\r\n    }\r\n\r\n    /**\r\n     * constructor of the factory does not have parameters\r\n     */\r\n    constructor(\r\n        address singleCollectionDeployer,\r\n        address multipleCollectionDeployer\r\n    ) {\r\n        singleDeployer = singleCollectionDeployer;\r\n        multipleDeployer = multipleCollectionDeployer;\r\n\r\n        paymentTokens.push(address(0)); // native currency\r\n        \r\n        setDefaultFeeRatio(250);\r\n        setDefaultRoyaltyRatio(300);\r\n    }\r\n\r\n    /**\r\n     * @dev this function updates the deployers for ERC721, ERC1155\r\n     * @param singleCollectionDeployer - deployer for ERC721\r\n     * @param multipleCollectionDeployer - deployer for ERC1155\r\n     */\r\n\r\n    function updateDeployers(\r\n        address singleCollectionDeployer,\r\n        address multipleCollectionDeployer\r\n    ) public onlyOwner {\r\n        require(singleDeployer != address(0), \"ERC721 deployer null\");\r\n        require(multipleDeployer != address(0), \"ERC1155 deployer null\");\r\n\r\n        singleDeployer = singleCollectionDeployer;\r\n        multipleDeployer = multipleCollectionDeployer;\r\n\r\n        emit UpdateDeployers(singleCollectionDeployer, multipleCollectionDeployer);\r\n    }\r\n\r\n    /**\r\n     * This function modifies or adds a new payment token\r\n     */\r\n    function setPaymentToken(uint256 tId, address tokenAddr) public onlyOwner {\r\n        // IERC165(tokenAddr).supportsInterface(type(IERC20).interfaceId);\r\n        require(tokenAddr != address(0), \"null address for payment token\");\r\n\r\n        if (tId >= paymentTokens.length ) {\r\n            tId = paymentTokens.length;\r\n            paymentTokens.push(tokenAddr);\r\n        } else {\r\n            require(tId < paymentTokens.length, \"invalid payment token id\");\r\n            paymentTokens[tId] = tokenAddr;\r\n        }\r\n\r\n        emit PaymentTokenSet(tId, tokenAddr);\r\n    }\r\n\r\n    /**\r\n     * This function gets token addresses for payment\r\n     */\r\n    function getPaymentToken() public view returns (address[] memory) {\r\n        return paymentTokens;\r\n    }\r\n\r\n    /**\r\n     * start the process of adding a creator to be enabled/disabled\r\n     */\r\n    function startPendingCreator(address account, bool set) external onlyOwner {\r\n        require(pendingTime[account] == 0);\r\n\r\n        pendingTime[account] = block.timestamp;\r\n        pendingValue[account] = set;\r\n    }\r\n\r\n    /**\r\n     * end the process of adding a creator to be enabled/disabled\r\n     */\r\n    function endPendingCreator(address account) external onlyOwner {\r\n        require((pendingTime[account] + DELAY_PERIOD) < block.timestamp);\r\n\r\n        bool curVal = pendingValue[account];\r\n        creators[account] = curVal;\r\n        pendingTime[account] = 0;\r\n\r\n        emit SetCreatorForFactory(account, curVal);\r\n    }\r\n\r\n    /**\r\n     * set developer address\r\n     */\r\n    function setDevAddr(address addr) public onlyOwner {\r\n        devAddress = addr;\r\n    }\r\n\r\n    /**\r\n     * @dev this function creates a new collection of ERC721, ERC1155 to the factory\r\n     * @param collectionType - ERC721 = 0, ERC1155 = 1\r\n     * @param _name - collection name\r\n     * @param _symbol - collection symbol\r\n     * @param _uri - base uri of NFT token metadata\r\n     */\r\n    function createNewCollection(\r\n        IHyperXNFTFactory.CollectionType collectionType,\r\n        string memory _name,\r\n        string memory _symbol,\r\n        string memory _uri\r\n    ) external creatorOnly override returns (address) {\r\n        if (collectionType == IHyperXNFTFactory.CollectionType.ERC721) {\r\n            // create a new ERC721 contract and returns its address\r\n            address newContract = IContractInterface721(singleDeployer).createContract(_name, _symbol, _uri, address(this));\r\n\r\n            require(collectionOccupation[newContract] == false);\r\n\r\n            collections.push(newContract);\r\n            collectionOccupation[newContract] = true;\r\n\r\n            Ownable(newContract).transferOwnership(msg.sender);\r\n\r\n            return newContract;\r\n        } else if (collectionType == IHyperXNFTFactory.CollectionType.ERC1155) {\r\n            // create a new ERC1155 contract and returns its address\r\n            address newContract = IContractInterface1155(multipleDeployer).createContract(_name, _symbol, _uri, address(this));\r\n\r\n            require(collectionOccupation[newContract] == false);\r\n\r\n            collections.push(newContract);\r\n            collectionOccupation[newContract] = true;\r\n\r\n            Ownable(newContract).transferOwnership(msg.sender);\r\n\r\n            return newContract;\r\n        } else revert(\"Unknown collection contract\");\r\n    }\r\n\r\n    /**\r\n     * @dev this function adds a collection of ERC721, ERC1155 to the factory\r\n     * @param from - address of NFT collection contract\r\n     */\r\n    function addCollection(address from) external creatorOnly override {\r\n        require(from.isContract());\r\n\r\n        if (IERC165(from).supportsInterface(type(IERC721).interfaceId)) {\r\n            require(collectionOccupation[from] == false);\r\n\r\n            collections.push(from);\r\n            collectionOccupation[from] = true;\r\n\r\n            emit CollectionAdded(IHyperXNFTFactory.CollectionType.ERC721, from);\r\n        } else if (\r\n            IERC165(from).supportsInterface(type(IERC1155).interfaceId)\r\n        ) {\r\n            require(collectionOccupation[from] == false);\r\n\r\n            collections.push(from);\r\n            collectionOccupation[from] = true;\r\n\r\n            emit CollectionAdded(\r\n                IHyperXNFTFactory.CollectionType.ERC1155,\r\n                from\r\n            );\r\n        } else {\r\n            revert(\"Error adding unknown NFT collection\");\r\n        }\r\n    }\r\n\r\n    /**\r\n     * @dev this function transfers NFTs of 'sc' from account 'from' to account 'to' for token ids 'ids'\r\n     * @param sc - address of NFT collection contract\r\n     * @param from - owner of NFTs at the moment\r\n     * @param to - future owner of NFTs\r\n     * @param ids - array of token id to be transferred\r\n     * @param amounts - array of token amount to be transferred\r\n     */\r\n    function transferNFT(\r\n        address sc,\r\n        address from,\r\n        address to,\r\n        uint256[] memory ids,\r\n        uint256[] memory amounts\r\n    ) internal {\r\n        require(collectionOccupation[sc] == true);\r\n\r\n        if (IERC165(sc).supportsInterface(type(IERC721).interfaceId)) {\r\n            // ERC721 transfer, amounts has no meaning in this case\r\n            uint256 i;\r\n            bytes memory nbytes = new bytes(0);\r\n            for (i = 0; i < ids.length; i++) {\r\n                IERC721(sc).safeTransferFrom(from, to, ids[i], nbytes);\r\n            }\r\n        } else if (IERC165(sc).supportsInterface(type(IERC1155).interfaceId)) {\r\n            // ERC1155 transfer\r\n            bytes memory nbytes = new bytes(0);\r\n            IERC1155(sc).safeBatchTransferFrom(from, to, ids, amounts, nbytes);\r\n        }\r\n    }\r\n\r\n    /**\r\n     * @dev this function retrieves array of all collections registered to the factory\r\n     */\r\n    function getCollections()\r\n        public\r\n        view\r\n        returns (address[] memory)\r\n    {\r\n        return collections;\r\n    }\r\n\r\n    /**\r\n     * @dev this function sets default fee ratio.\r\n     */\r\n    function setDefaultFeeRatio(uint256 newFeeRatio) public onlyOwner {\r\n        defaultFeeRatio = newFeeRatio;\r\n        emit SetDefaultFeeRatio(owner(), newFeeRatio);\r\n    }\r\n\r\n    /**\r\n     * @dev this function sets default royalty ratio.\r\n     */\r\n    function setDefaultRoyaltyRatio(uint256 newRoyaltyRatio) public onlyOwner {\r\n        defaultRoyaltyRatio = newRoyaltyRatio;\r\n        emit SetDefaultRoyaltyRatio(owner(), newRoyaltyRatio);\r\n    }\r\n\r\n    /**\r\n     * @dev this function returns URI string by checking its ERC721 or ERC1155 type.\r\n     */\r\n    function getURIString(address sc, uint256 tokenId)\r\n        internal\r\n        view\r\n        returns (string memory uri, uint256 sc_type)\r\n    {\r\n        if (IERC165(sc).supportsInterface(type(IERC721).interfaceId)) {\r\n            uri = IContractInfoWrapper(sc).tokenURI(tokenId);\r\n            sc_type = 1;\r\n        } else if (IERC165(sc).supportsInterface(type(IERC1155).interfaceId)) {\r\n            uri = IContractInfoWrapper(sc).uri(tokenId);\r\n            sc_type = 2;\r\n        } else sc_type = 0;\r\n    }\r\n\r\n    /**\r\n     * @dev this function sets default royalty ratio.\r\n     * @param sc - address of NFT collection contract\r\n     * @param tokenId - token index in 'sc'\r\n     * @param payment - payment method for buyer/bidder/offerer/auctioner, 0: BNB, 1: BUSD, 2: HyperX, ...\r\n     * @param method - duration of sale in seconds\r\n     * @param duration - duration of sale in seconds\r\n     * @param basePrice - price in 'payment' coin\r\n     * @param feeRatio - fee ratio (1/10000) for transaction\r\n     * @param royaltyRatio - royalty ratio (1/10000) for transaction\r\n     */\r\n    function createSale(\r\n        address sc,\r\n        uint256 tokenId,\r\n        uint256 payment,\r\n        uint256 copy,\r\n        uint256 method,\r\n        uint256 duration,\r\n        uint256 basePrice,\r\n        uint256 feeRatio,\r\n        uint256 royaltyRatio\r\n    ) public {\r\n        (, uint256 sc_type) = getURIString(sc, tokenId);\r\n        address creator = address(0);\r\n\r\n        if (sc_type == 1) {\r\n            require(\r\n                IERC721(sc).ownerOf(tokenId) == msg.sender,\r\n                \"not owner of the ERC721 token to be on sale\"\r\n            );\r\n            require(copy == 1, \"ERC721 token sale amount is not 1\");\r\n            creator = IContractInfoWrapper(sc).getCreator(tokenId);\r\n        } else if (sc_type == 2) {\r\n            uint256 bl = IERC1155(sc).balanceOf(msg.sender, tokenId);\r\n            require(\r\n                bl >= copy && copy > 0,\r\n                \"exceeded amount of ERC1155 token to be on sale\"\r\n            );\r\n            creator = IContractInfoWrapper(sc).getCreator(tokenId);\r\n        } else revert(\"Not supported NFT contract\");\r\n\r\n        uint256 curSaleIndex = saleCount;\r\n        saleCount++;\r\n\r\n        HyperXNFTSale storage hxns = saleList[curSaleIndex];\r\n\r\n        hxns.creator = creator;\r\n        hxns.seller = msg.sender;\r\n\r\n        hxns.sc = sc;\r\n        hxns.tokenId = tokenId;\r\n        hxns.copy = copy;\r\n\r\n        hxns.payment = payment;\r\n        hxns.basePrice = basePrice;\r\n\r\n        hxns.method = method;\r\n\r\n        hxns.startTime = block.timestamp;\r\n        hxns.endTime = block.timestamp + duration;\r\n\r\n        hxns.feeRatio = (feeRatio == 0) ? defaultFeeRatio : feeRatio;\r\n        hxns.royaltyRatio = (royaltyRatio == 0)\r\n            ? defaultRoyaltyRatio\r\n            : royaltyRatio;\r\n\r\n        ListTokenInfo memory tI = ListTokenInfo(sc, tokenId, copy);\r\n        emit ListedOnSale(\r\n            msg.sender,\r\n            curSaleIndex,\r\n            tI,\r\n            payment,\r\n            basePrice,\r\n            duration,\r\n            hxns.feeRatio,\r\n            hxns.royaltyRatio\r\n        );\r\n    }\r\n\r\n    /**\r\n     * @dev this function removes an existing sale\r\n     * @param saleId - index of the sale\r\n     */\r\n    function removeSale(uint256 saleId) internal {\r\n        HyperXNFTSale storage hxns = saleList[saleId];\r\n\r\n        address seller = hxns.seller;\r\n        hxns.seller = address(0);\r\n\r\n        emit RemoveFromSale(\r\n            seller,\r\n            hxns.sc,\r\n            hxns.tokenId,\r\n            hxns.payment,\r\n            hxns.basePrice,\r\n            hxns.endTime - hxns.startTime,\r\n            hxns.feeRatio,\r\n            hxns.royaltyRatio\r\n        );\r\n    }\r\n\r\n    /**\r\n     * @dev this function sets an offer from a user\r\n     * @param saleId - index of the sale\r\n     * @param price - offered price to buy\r\n     */\r\n    function makeOffer(uint256 saleId, uint256 price) public payable {\r\n        require(isSaleValid(saleId), \"sale is not valid\");\r\n\r\n        HyperXNFTSale storage hxns = saleList[saleId];\r\n\r\n        require(hxns.startTime <= block.timestamp, \"sale not started yet\");\r\n        require(\r\n            hxns.endTime <= hxns.startTime || hxns.endTime >= block.timestamp,\r\n            \"sale already ended\"\r\n        );\r\n        require(hxns.method == 0, \"offer not for fixed-price sale\");\r\n\r\n        uint256 totalPay = hxns.copy * hxns.basePrice;\r\n\r\n        if (hxns.payment == 0) {\r\n            price = msg.value;\r\n        }\r\n\r\n        BookInfo[] storage bi = bookInfo[saleId];\r\n        BookInfo memory newBI = BookInfo(msg.sender, price);\r\n\r\n        bi.push(newBI);\r\n\r\n        if (hxns.payment != 0) {\r\n            IERC20 tokenInst = IERC20(paymentTokens[hxns.payment]);\r\n            tokenInst.transferFrom(msg.sender, address(this), price);\r\n        }\r\n\r\n        emit MakeOffer(msg.sender, hxns.sc, hxns.tokenId, hxns.copy, price);\r\n\r\n        if (price >= totalPay) {\r\n            trade(saleId, bi.length - 1);\r\n        }\r\n    }\r\n\r\n    /**\r\n     * @dev this function lets a buyer buy NFTs on sale\r\n     * @param saleId - index of the sale\r\n     */\r\n    function buy(uint256 saleId) public payable {\r\n        require(isSaleValid(saleId), \"sale is not valid\");\r\n\r\n        HyperXNFTSale storage hxns = saleList[saleId];\r\n\r\n        require(hxns.startTime <= block.timestamp, \"sale not started yet\");\r\n        require(\r\n            hxns.endTime <= hxns.startTime || hxns.endTime >= block.timestamp,\r\n            \"sale already ended\"\r\n        );\r\n        require(hxns.method == 0, \"offer not for fixed-price sale\");\r\n\r\n        uint256 totalPay = hxns.copy * hxns.basePrice;\r\n\r\n        if (hxns.payment == 0) {\r\n            require(\r\n                msg.value >= totalPay,\r\n                \"insufficient native currency to buy\"\r\n            );\r\n            if (msg.value > totalPay) {\r\n                address payable py = payable(msg.sender);\r\n                py.transfer(msg.value - totalPay);\r\n            }\r\n        } else {\r\n            IERC20 tokenInst = IERC20(paymentTokens[hxns.payment]);\r\n            tokenInst.transferFrom(msg.sender, address(this), totalPay);\r\n        }\r\n\r\n        BookInfo[] storage bi = bookInfo[saleId];\r\n        BookInfo memory newBI = BookInfo(msg.sender, totalPay);\r\n\r\n        bi.push(newBI);\r\n\r\n        emit Buy(msg.sender, hxns.sc, hxns.tokenId, hxns.copy, totalPay);\r\n\r\n        trade(saleId, bi.length - 1);\r\n    }\r\n\r\n    /**\r\n     * @dev this function places an bid from a user\r\n     * @param saleId - index of the sale\r\n     * @param price - index of the sale\r\n     */\r\n    function placeBid(uint256 saleId, uint256 price) public payable {\r\n        require(isSaleValid(saleId), \"sale is not valid\");\r\n\r\n        HyperXNFTSale storage hxns = saleList[saleId];\r\n\r\n        require(hxns.startTime <= block.timestamp, \"sale not started yet\");\r\n        require(\r\n            hxns.endTime <= hxns.startTime || hxns.endTime >= block.timestamp,\r\n            \"sale already ended\"\r\n        );\r\n        require(hxns.method != 0, \"bid not for timed-auction sale\");\r\n\r\n        if (hxns.payment == 0) {\r\n            price = msg.value;\r\n        } else {\r\n            IERC20 tokenInst = IERC20(paymentTokens[hxns.payment]);\r\n            tokenInst.transferFrom(msg.sender, address(this), price);\r\n        }\r\n\r\n        BookInfo[] storage bi = bookInfo[saleId];\r\n        BookInfo memory newBI = BookInfo(msg.sender, price);\r\n\r\n        bi.push(newBI);\r\n\r\n        emit PlaceBid(\r\n            msg.sender,\r\n            hxns.sc,\r\n            hxns.tokenId,\r\n            hxns.copy,\r\n            hxns.method,\r\n            price\r\n        );\r\n    }\r\n\r\n    /**\r\n     * @dev this function puts an end to timed-auction sale\r\n     * @param saleId - index of the sale of timed-auction\r\n     */\r\n    function finalizeAuction(uint256 saleId) public onlyOwner {\r\n        require(isSaleValid(saleId), \"sale is not valid\");\r\n\r\n        HyperXNFTSale storage hxns = saleList[saleId];\r\n\r\n        require(hxns.startTime <= block.timestamp, \"sale not started yet\");\r\n        // finalize timed-auction anytime by owner of this factory contract.\r\n        require(hxns.method != 0, \"bid not for timed-auction sale\");\r\n\r\n        BookInfo[] storage bi = bookInfo[saleId];\r\n\r\n        if (hxns.method == 1) {\r\n            // winning to the highest bid\r\n            if (bi.length > 0) {\r\n                uint256 loop;\r\n                uint256 maxPrice = bi[0].totalPrice;\r\n                uint256 bookId = 0;\r\n\r\n                for (loop = 0; loop < bi.length; loop++) {\r\n                    BookInfo memory biItem = bi[loop];\r\n                    if (maxPrice < biItem.totalPrice) {\r\n                        maxPrice = biItem.totalPrice;\r\n                        bookId = loop;\r\n                    }\r\n                }\r\n\r\n                emit AuctionResult(\r\n                    bi[bookId].user,\r\n                    hxns.sc,\r\n                    hxns.tokenId,\r\n                    hxns.copy,\r\n                    hxns.method,\r\n                    bi[bookId].totalPrice\r\n                );\r\n                trade(saleId, bookId);\r\n            }\r\n        }\r\n    }\r\n\r\n    /**\r\n     * @dev this function transfers NFTs from the seller to the buyer\r\n     * @param saleId - index of the sale to be treated\r\n     * @param bookId - index of the booked winner on a sale\r\n     */\r\n\r\n    function trade(uint256 saleId, uint256 bookId) internal {\r\n        require(isSaleValid(saleId), \"sale is not valid\");\r\n\r\n        HyperXNFTSale storage hxns = saleList[saleId];\r\n\r\n        BookInfo[] storage bi = bookInfo[saleId];\r\n\r\n        uint256 loop;\r\n        for (loop = 0; loop < bi.length; loop++) {\r\n            BookInfo memory biItem = bi[loop];\r\n\r\n            if (loop == bookId) {\r\n                // winning bid\r\n                //fee policy\r\n                uint256 fee = (hxns.feeRatio * biItem.totalPrice) / 10000;\r\n                uint256 royalty = (hxns.royaltyRatio * biItem.totalPrice) /\r\n                    10000;\r\n                uint256 devFee = 0;\r\n                if (devAddress != address(0)) {\r\n                    devFee = (biItem.totalPrice * 30) / 10000;\r\n                }\r\n\r\n                uint256 pySeller = biItem.totalPrice - fee - royalty - devFee;\r\n\r\n                if (hxns.payment == 0) {\r\n                    address payable py = payable(hxns.seller);\r\n                    py.transfer(pySeller);\r\n\r\n                    if (fee > 0) {\r\n                        py = payable(owner());\r\n                        py.transfer(fee);\r\n                    }\r\n\r\n                    if (royalty > 0) {\r\n                        py = payable(hxns.creator);\r\n                        py.transfer(royalty);\r\n                    }\r\n\r\n                    if (devFee > 0) {\r\n                        py = payable(devAddress);\r\n                        py.transfer(devFee);\r\n                    }\r\n                } else {\r\n                    IERC20 tokenInst = IERC20(paymentTokens[hxns.payment]);\r\n                    tokenInst.transfer(\r\n                        hxns.seller,\r\n                        pySeller\r\n                    );\r\n\r\n                    if (fee > 0) {\r\n                        tokenInst.transferFrom(address(this), owner(), fee);\r\n                    }\r\n\r\n                    if (royalty > 0) {\r\n                        tokenInst.transfer(\r\n                            hxns.creator,\r\n                            royalty\r\n                        );\r\n                    }\r\n\r\n                    if (devFee > 0) {\r\n                        tokenInst.transfer(\r\n                            devAddress,\r\n                            devFee\r\n                        );\r\n                    }\r\n                }\r\n\r\n                uint256[] memory ids = new uint256[](1);\r\n                ids[0] = hxns.tokenId;\r\n                uint256[] memory amounts = new uint256[](1);\r\n                amounts[0] = hxns.copy;\r\n\r\n                transferNFT(hxns.sc, hxns.seller, biItem.user, ids, amounts);\r\n\r\n                emit Trade(\r\n                    saleId,\r\n                    hxns,\r\n                    block.timestamp,\r\n                    pySeller,\r\n                    owner(),\r\n                    biItem.user,\r\n                    fee,\r\n                    royalty,\r\n                    devAddress,\r\n                    devFee\r\n                );\r\n            } else {\r\n                // failed bid, refund\r\n                if (hxns.payment == 0) {\r\n                    address payable py = payable(biItem.user);\r\n                    py.transfer(biItem.totalPrice);\r\n                } else {\r\n                    IERC20 tokenInst = IERC20(paymentTokens[hxns.payment]);\r\n                    tokenInst.transferFrom(\r\n                        address(this),\r\n                        biItem.user,\r\n                        biItem.totalPrice\r\n                    );\r\n                }\r\n            }\r\n        }\r\n\r\n        removeSale(saleId);\r\n    }\r\n\r\n    /**\r\n     * @dev this function returns all items on sale\r\n     * @param startIdx - starting index in all items on sale\r\n     * @param count - count to be retrieved, the returned array will be less items than count because some items are invalid\r\n     */\r\n    function getSaleInfo(uint256 startIdx, uint256 count)\r\n        external\r\n        view\r\n        returns (HyperXNFTSale[] memory)\r\n    {\r\n        uint256 i;\r\n        uint256 endIdx = startIdx + count;\r\n\r\n        uint256 realCount = 0;\r\n        for (i = startIdx; i < endIdx; i++) {\r\n            if (i >= saleCount) break;\r\n\r\n            if (!isSaleValid(i)) continue;\r\n\r\n            realCount++;\r\n        }\r\n\r\n        HyperXNFTSale[] memory ret = new HyperXNFTSale[](realCount);\r\n\r\n        uint256 nPos = 0;\r\n        for (i = startIdx; i < endIdx; i++) {\r\n            if (i >= saleCount) break;\r\n\r\n            if (!isSaleValid(i)) continue;\r\n\r\n            ret[nPos] = saleList[i];\r\n            nPos++;\r\n        }\r\n\r\n        return ret;\r\n    }\r\n\r\n    /**\r\n     * @dev this function returns validity of the sale\r\n     * @param saleId - index of the sale\r\n     */\r\n\r\n    function isSaleValid(uint256 saleId) internal view returns (bool) {\r\n        if (saleId >= saleCount) return false;\r\n        HyperXNFTSale storage hxns = saleList[saleId];\r\n\r\n        if (hxns.seller == address(0)) return false;\r\n        return true;\r\n    }\r\n}\r\n",
  "sourcePath": "E:\\MyGitHub\\HyperXNFT-contracts\\contracts\\HyperXNFTFactory.sol",
  "compiler": {
    "name": "solc",
    "version": "0.8.11+commit.d7f03943.Emscripten.clang"
  },
  "schemaVersion": "3.4.4",
  "updatedAt": "2022-01-30T23:19:10.565Z",
  "networkType": "ethereum",
  "devdoc": {
    "kind": "dev",
    "methods": {
      "addCollection(address)": {
        "details": "this function adds a collection of ERC721, ERC1155 to the factory",
        "params": {
          "from": "- address of NFT collection contract"
        }
      },
      "buy(uint256)": {
        "details": "this function lets a buyer buy NFTs on sale",
        "params": {
          "saleId": "- index of the sale"
        }
      },
      "createNewCollection(uint8,string,string,string)": {
        "details": "this function creates a new collection of ERC721, ERC1155 to the factory",
        "params": {
          "_name": "- collection name",
          "_symbol": "- collection symbol",
          "_uri": "- base uri of NFT token metadata",
          "collectionType": "- ERC721 = 0, ERC1155 = 1"
        }
      },
      "createSale(address,uint256,uint256,uint256,uint256,uint256,uint256,uint256,uint256)": {
        "details": "this function sets default royalty ratio.",
        "params": {
          "basePrice": "- price in 'payment' coin",
          "duration": "- duration of sale in seconds",
          "feeRatio": "- fee ratio (1/10000) for transaction",
          "method": "- duration of sale in seconds",
          "payment": "- payment method for buyer/bidder/offerer/auctioner, 0: BNB, 1: BUSD, 2: HyperX, ...",
          "royaltyRatio": "- royalty ratio (1/10000) for transaction",
          "sc": "- address of NFT collection contract",
          "tokenId": "- token index in 'sc'"
        }
      },
      "finalizeAuction(uint256)": {
        "details": "this function puts an end to timed-auction sale",
        "params": {
          "saleId": "- index of the sale of timed-auction"
        }
      },
      "getCollections()": {
        "details": "this function retrieves array of all collections registered to the factory"
      },
      "getSaleInfo(uint256,uint256)": {
        "details": "this function returns all items on sale",
        "params": {
          "count": "- count to be retrieved, the returned array will be less items than count because some items are invalid",
          "startIdx": "- starting index in all items on sale"
        }
      },
      "makeOffer(uint256,uint256)": {
        "details": "this function sets an offer from a user",
        "params": {
          "price": "- offered price to buy",
          "saleId": "- index of the sale"
        }
      },
      "owner()": {
        "details": "Returns the address of the current owner."
      },
      "placeBid(uint256,uint256)": {
        "details": "this function places an bid from a user",
        "params": {
          "price": "- index of the sale",
          "saleId": "- index of the sale"
        }
      },
      "renounceOwnership()": {
        "details": "Leaves the contract without owner. It will not be possible to call `onlyOwner` functions anymore. Can only be called by the current owner. NOTE: Renouncing ownership will leave the contract without an owner, thereby removing any functionality that is only available to the owner."
      },
      "setDefaultFeeRatio(uint256)": {
        "details": "this function sets default fee ratio."
      },
      "setDefaultRoyaltyRatio(uint256)": {
        "details": "this function sets default royalty ratio."
      },
      "transferOwnership(address)": {
        "details": "Transfers ownership of the contract to a new account (`newOwner`). Can only be called by the current owner."
      },
      "updateDeployers(address,address)": {
        "details": "this function updates the deployers for ERC721, ERC1155",
        "params": {
          "multipleCollectionDeployer": "- deployer for ERC1155",
          "singleCollectionDeployer": "- deployer for ERC721"
        }
      }
    },
    "version": 1
  },
  "userdoc": {
    "events": {
      "AuctionResult(address,address,uint256,uint256,uint256,uint256)": {
        "notice": "event when timed-auction times out"
      },
      "Buy(address,address,uint256,uint256,uint256)": {
        "notice": "event when a user makes an offer for fixed-price sale"
      },
      "CreatedERC1155TradableContract(address,address)": {
        "notice": "event when a new ERC1155 contract is created. Do not remove this event even if it is not used."
      },
      "CreatedERC721TradableContract(address,address)": {
        "notice": "event when a new ERC721 contract is created. Do not remove this event even if it is not used."
      },
      "MakeOffer(address,address,uint256,uint256,uint256)": {
        "notice": "event when a user makes an offer for fixed-price sale"
      },
      "PaymentTokenSet(uint256,address)": {
        "notice": "event when a new payment token set"
      },
      "PlaceBid(address,address,uint256,uint256,uint256,uint256)": {
        "notice": "event when a user places a bid for timed-auction sale"
      },
      "RemoveFromSale(address,address,uint256,uint256,uint256,uint256,uint256,uint256)": {
        "notice": "event when a seller cancels his sale"
      },
      "SetCreatorForFactory(address,bool)": {
        "notice": "event that marks the creator has been permitted by an owner(admin)"
      },
      "SetDefaultFeeRatio(address,uint256)": {
        "notice": "event when an owner sets default fee ratio"
      },
      "SetDefaultRoyaltyRatio(address,uint256)": {
        "notice": "event when an owner sets default royalty ratio"
      },
      "Trade(uint256,(address,address,address,uint256,uint256,uint256,uint256,uint256,uint256,uint256,uint256,uint256),uint256,uint256,address,address,uint256,uint256,address,uint256)": {
        "notice": "event when a trade is successfully made."
      },
      "UpdateDeployers(address,address)": {
        "notice": "event when deployers are updated"
      }
    },
    "kind": "user",
    "methods": {
      "DELAY_PERIOD()": {
        "notice": "delay period to add a creator to the list"
      },
      "constructor": {
        "notice": "constructor of the factory does not have parameters"
      },
      "defaultFeeRatio()": {
        "notice": "default fee value set by owner of the contract, defaultFeeRatio / 10000 is the real ratio."
      },
      "defaultRoyaltyRatio()": {
        "notice": "default royalty value set by owner of the contract, defaultRoyaltyRatio / 10000 is the real ratio."
      },
      "devAddress()": {
        "notice": "dev address"
      },
      "endPendingCreator(address)": {
        "notice": "end the process of adding a creator to be enabled/disabled"
      },
      "getPaymentToken()": {
        "notice": "This function gets token addresses for payment"
      },
      "saleCount()": {
        "notice": "sale list count or future index to be created"
      },
      "setDevAddr(address)": {
        "notice": "set developer address"
      },
      "setPaymentToken(uint256,address)": {
        "notice": "This function modifies or adds a new payment token"
      },
      "startPendingCreator(address,bool)": {
        "notice": "start the process of adding a creator to be enabled/disabled"
      }
    },
    "version": 1
  }
}