{
  "contractName": "HyperXNFTFactory",
  "abi": [
    {
      "inputs": [
        {
          "internalType": "address",
          "name": "singleCollectionDeployer",
          "type": "address"
        },
        {
          "internalType": "address",
          "name": "multipleCollectionDeployer",
          "type": "address"
        }
      ],
      "stateMutability": "nonpayable",
      "type": "constructor"
    },
    {
      "anonymous": false,
      "inputs": [
        {
          "indexed": true,
          "internalType": "address",
          "name": "winner",
          "type": "address"
        },
        {
          "indexed": true,
          "internalType": "address",
          "name": "smart_contract",
          "type": "address"
        },
        {
          "indexed": false,
          "internalType": "uint256",
          "name": "tokenId",
          "type": "uint256"
        },
        {
          "indexed": false,
          "internalType": "uint256",
          "name": "copy",
          "type": "uint256"
        },
        {
          "indexed": false,
          "internalType": "uint256",
          "name": "method",
          "type": "uint256"
        },
        {
          "indexed": false,
          "internalType": "uint256",
          "name": "price",
          "type": "uint256"
        }
      ],
      "name": "AuctionResult",
      "type": "event"
    },
    {
      "anonymous": false,
      "inputs": [
        {
          "indexed": true,
          "internalType": "address",
          "name": "user",
          "type": "address"
        },
        {
          "indexed": true,
          "internalType": "address",
          "name": "smart_contract",
          "type": "address"
        },
        {
          "indexed": false,
          "internalType": "uint256",
          "name": "tokenId",
          "type": "uint256"
        },
        {
          "indexed": false,
          "internalType": "uint256",
          "name": "copy",
          "type": "uint256"
        },
        {
          "indexed": false,
          "internalType": "uint256",
          "name": "price",
          "type": "uint256"
        }
      ],
      "name": "Buy",
      "type": "event"
    },
    {
      "anonymous": false,
      "inputs": [
        {
          "indexed": false,
          "internalType": "enum IHyperXNFTFactory.CollectionType",
          "name": "collectionType",
          "type": "uint8"
        },
        {
          "indexed": true,
          "internalType": "address",
          "name": "from",
          "type": "address"
        }
      ],
      "name": "CollectionAdded",
      "type": "event"
    },
    {
      "anonymous": false,
      "inputs": [
        {
          "indexed": true,
          "internalType": "address",
          "name": "factory",
          "type": "address"
        },
        {
          "indexed": true,
          "internalType": "address",
          "name": "newContract",
          "type": "address"
        }
      ],
      "name": "CreatedERC1155TradableContract",
      "type": "event"
    },
    {
      "anonymous": false,
      "inputs": [
        {
          "indexed": true,
          "internalType": "address",
          "name": "factory",
          "type": "address"
        },
        {
          "indexed": true,
          "internalType": "address",
          "name": "newContract",
          "type": "address"
        }
      ],
      "name": "CreatedERC721TradableContract",
      "type": "event"
    },
    {
      "anonymous": false,
      "inputs": [
        {
          "indexed": false,
          "internalType": "address",
          "name": "seller",
          "type": "address"
        },
        {
          "indexed": false,
          "internalType": "address",
          "name": "sc",
          "type": "address"
        },
        {
          "indexed": false,
          "internalType": "uint256",
          "name": "tokenId",
          "type": "uint256"
        },
        {
          "indexed": false,
          "internalType": "uint256",
          "name": "payment",
          "type": "uint256"
        },
        {
          "indexed": false,
          "internalType": "uint256",
          "name": "basePrice",
          "type": "uint256"
        },
        {
          "indexed": false,
          "internalType": "uint256",
          "name": "duration",
          "type": "uint256"
        },
        {
          "indexed": false,
          "internalType": "uint256",
          "name": "feeRatio",
          "type": "uint256"
        },
        {
          "indexed": false,
          "internalType": "uint256",
          "name": "royaltyRatio",
          "type": "uint256"
        }
      ],
      "name": "ListedOnSale",
      "type": "event"
    },
    {
      "anonymous": false,
      "inputs": [
        {
          "indexed": true,
          "internalType": "address",
          "name": "user",
          "type": "address"
        },
        {
          "indexed": true,
          "internalType": "address",
          "name": "smart_contract",
          "type": "address"
        },
        {
          "indexed": false,
          "internalType": "uint256",
          "name": "tokenId",
          "type": "uint256"
        },
        {
          "indexed": false,
          "internalType": "uint256",
          "name": "copy",
          "type": "uint256"
        },
        {
          "indexed": false,
          "internalType": "uint256",
          "name": "price",
          "type": "uint256"
        }
      ],
      "name": "MakeOffer",
      "type": "event"
    },
    {
      "anonymous": false,
      "inputs": [
        {
          "indexed": false,
          "internalType": "enum IHyperXNFTFactory.CollectionType",
          "name": "collectionType",
          "type": "uint8"
        },
        {
          "indexed": true,
          "internalType": "address",
          "name": "to",
          "type": "address"
        }
      ],
      "name": "NewCollectionCreated",
      "type": "event"
    },
    {
      "anonymous": false,
      "inputs": [
        {
          "indexed": true,
          "internalType": "address",
          "name": "previousOwner",
          "type": "address"
        },
        {
          "indexed": true,
          "internalType": "address",
          "name": "newOwner",
          "type": "address"
        }
      ],
      "name": "OwnershipTransferred",
      "type": "event"
    },
    {
      "anonymous": false,
      "inputs": [
        {
          "indexed": false,
          "internalType": "uint256",
          "name": "id",
          "type": "uint256"
        },
        {
          "indexed": true,
          "internalType": "address",
          "name": "tokenAddress",
          "type": "address"
        }
      ],
      "name": "PaymentTokenSet",
      "type": "event"
    },
    {
      "anonymous": false,
      "inputs": [
        {
          "indexed": true,
          "internalType": "address",
          "name": "user",
          "type": "address"
        },
        {
          "indexed": true,
          "internalType": "address",
          "name": "smart_contract",
          "type": "address"
        },
        {
          "indexed": false,
          "internalType": "uint256",
          "name": "tokenId",
          "type": "uint256"
        },
        {
          "indexed": false,
          "internalType": "uint256",
          "name": "copy",
          "type": "uint256"
        },
        {
          "indexed": false,
          "internalType": "uint256",
          "name": "method",
          "type": "uint256"
        },
        {
          "indexed": false,
          "internalType": "uint256",
          "name": "price",
          "type": "uint256"
        }
      ],
      "name": "PlaceBid",
      "type": "event"
    },
    {
      "anonymous": false,
      "inputs": [
        {
          "indexed": false,
          "internalType": "address",
          "name": "seller",
          "type": "address"
        },
        {
          "indexed": false,
          "internalType": "address",
          "name": "sc",
          "type": "address"
        },
        {
          "indexed": false,
          "internalType": "uint256",
          "name": "tokenId",
          "type": "uint256"
        },
        {
          "indexed": false,
          "internalType": "uint256",
          "name": "payment",
          "type": "uint256"
        },
        {
          "indexed": false,
          "internalType": "uint256",
          "name": "basePrice",
          "type": "uint256"
        },
        {
          "indexed": false,
          "internalType": "uint256",
          "name": "duration",
          "type": "uint256"
        },
        {
          "indexed": false,
          "internalType": "uint256",
          "name": "feeRatio",
          "type": "uint256"
        },
        {
          "indexed": false,
          "internalType": "uint256",
          "name": "royaltyRatio",
          "type": "uint256"
        }
      ],
      "name": "RemoveFromSale",
      "type": "event"
    },
    {
      "anonymous": false,
      "inputs": [
        {
          "indexed": false,
          "internalType": "address",
          "name": "account",
          "type": "address"
        },
        {
          "indexed": false,
          "internalType": "bool",
          "name": "set",
          "type": "bool"
        }
      ],
      "name": "SetCreatorForFactory",
      "type": "event"
    },
    {
      "anonymous": false,
      "inputs": [
        {
          "indexed": false,
          "internalType": "address",
          "name": "owner",
          "type": "address"
        },
        {
          "indexed": false,
          "internalType": "uint256",
          "name": "newFeeRatio",
          "type": "uint256"
        }
      ],
      "name": "SetDefaultFeeRatio",
      "type": "event"
    },
    {
      "anonymous": false,
      "inputs": [
        {
          "indexed": false,
          "internalType": "address",
          "name": "owner",
          "type": "address"
        },
        {
          "indexed": false,
          "internalType": "uint256",
          "name": "newRoyaltyRatio",
          "type": "uint256"
        }
      ],
      "name": "SetDefaultRoyaltyRatio",
      "type": "event"
    },
    {
      "anonymous": false,
      "inputs": [
        {
          "indexed": false,
          "internalType": "uint256",
          "name": "saleId",
          "type": "uint256"
        },
        {
          "components": [
            {
              "internalType": "address",
              "name": "creator",
              "type": "address"
            },
            {
              "internalType": "address",
              "name": "seller",
              "type": "address"
            },
            {
              "internalType": "address",
              "name": "sc",
              "type": "address"
            },
            {
              "internalType": "uint256",
              "name": "tokenId",
              "type": "uint256"
            },
            {
              "internalType": "uint256",
              "name": "copy",
              "type": "uint256"
            },
            {
              "internalType": "uint256",
              "name": "payment",
              "type": "uint256"
            },
            {
              "internalType": "uint256",
              "name": "basePrice",
              "type": "uint256"
            },
            {
              "internalType": "uint256",
              "name": "method",
              "type": "uint256"
            },
            {
              "internalType": "uint256",
              "name": "startTime",
              "type": "uint256"
            },
            {
              "internalType": "uint256",
              "name": "endTime",
              "type": "uint256"
            },
            {
              "internalType": "uint256",
              "name": "feeRatio",
              "type": "uint256"
            },
            {
              "internalType": "uint256",
              "name": "royaltyRatio",
              "type": "uint256"
            }
          ],
          "indexed": false,
          "internalType": "struct HyperXNFTFactory.HyperXNFTSale",
          "name": "sale",
          "type": "tuple"
        },
        {
          "indexed": false,
          "internalType": "uint256",
          "name": "timestamp",
          "type": "uint256"
        },
        {
          "indexed": false,
          "internalType": "uint256",
          "name": "paySeller",
          "type": "uint256"
        },
        {
          "indexed": false,
          "internalType": "address",
          "name": "owner",
          "type": "address"
        },
        {
          "indexed": false,
          "internalType": "uint256",
          "name": "fee",
          "type": "uint256"
        },
        {
          "indexed": false,
          "internalType": "uint256",
          "name": "royalty",
          "type": "uint256"
        },
        {
          "indexed": false,
          "internalType": "address",
          "name": "devAddress",
          "type": "address"
        },
        {
          "indexed": false,
          "internalType": "uint256",
          "name": "devFee",
          "type": "uint256"
        }
      ],
      "name": "Trade",
      "type": "event"
    },
    {
      "anonymous": false,
      "inputs": [
        {
          "indexed": true,
          "internalType": "address",
          "name": "singleCollectionDeployer",
          "type": "address"
        },
        {
          "indexed": true,
          "internalType": "address",
          "name": "multipleCollectionDeployer",
          "type": "address"
        }
      ],
      "name": "UpdateDeployers",
      "type": "event"
    },
    {
      "inputs": [],
      "name": "DELAY_PERIOD",
      "outputs": [
        {
          "internalType": "uint256",
          "name": "",
          "type": "uint256"
        }
      ],
      "stateMutability": "view",
      "type": "function"
    },
    {
      "inputs": [],
      "name": "defaultFeeRatio",
      "outputs": [
        {
          "internalType": "uint256",
          "name": "",
          "type": "uint256"
        }
      ],
      "stateMutability": "view",
      "type": "function"
    },
    {
      "inputs": [],
      "name": "defaultRoyaltyRatio",
      "outputs": [
        {
          "internalType": "uint256",
          "name": "",
          "type": "uint256"
        }
      ],
      "stateMutability": "view",
      "type": "function"
    },
    {
      "inputs": [],
      "name": "devAddress",
      "outputs": [
        {
          "internalType": "address",
          "name": "",
          "type": "address"
        }
      ],
      "stateMutability": "view",
      "type": "function"
    },
    {
      "inputs": [],
      "name": "owner",
      "outputs": [
        {
          "internalType": "address",
          "name": "",
          "type": "address"
        }
      ],
      "stateMutability": "view",
      "type": "function"
    },
    {
      "inputs": [],
      "name": "renounceOwnership",
      "outputs": [],
      "stateMutability": "nonpayable",
      "type": "function"
    },
    {
      "inputs": [],
      "name": "saleCount",
      "outputs": [
        {
          "internalType": "uint256",
          "name": "",
          "type": "uint256"
        }
      ],
      "stateMutability": "view",
      "type": "function"
    },
    {
      "inputs": [
        {
          "internalType": "address",
          "name": "newOwner",
          "type": "address"
        }
      ],
      "name": "transferOwnership",
      "outputs": [],
      "stateMutability": "nonpayable",
      "type": "function"
    },
    {
      "inputs": [
        {
          "internalType": "address",
          "name": "singleCollectionDeployer",
          "type": "address"
        },
        {
          "internalType": "address",
          "name": "multipleCollectionDeployer",
          "type": "address"
        }
      ],
      "name": "updateDeployers",
      "outputs": [],
      "stateMutability": "nonpayable",
      "type": "function"
    },
    {
      "inputs": [
        {
          "internalType": "uint256",
          "name": "tId",
          "type": "uint256"
        },
        {
          "internalType": "address",
          "name": "tokenAddr",
          "type": "address"
        }
      ],
      "name": "setPaymentToken",
      "outputs": [],
      "stateMutability": "nonpayable",
      "type": "function"
    },
    {
      "inputs": [],
      "name": "getPaymentToken",
      "outputs": [
        {
          "internalType": "address[]",
          "name": "",
          "type": "address[]"
        }
      ],
      "stateMutability": "view",
      "type": "function"
    },
    {
      "inputs": [
        {
          "internalType": "address",
          "name": "account",
          "type": "address"
        },
        {
          "internalType": "bool",
          "name": "set",
          "type": "bool"
        }
      ],
      "name": "startPendingCreator",
      "outputs": [],
      "stateMutability": "nonpayable",
      "type": "function"
    },
    {
      "inputs": [
        {
          "internalType": "address",
          "name": "account",
          "type": "address"
        }
      ],
      "name": "endPendingCreator",
      "outputs": [],
      "stateMutability": "nonpayable",
      "type": "function"
    },
    {
      "inputs": [
        {
          "internalType": "address",
          "name": "addr",
          "type": "address"
        }
      ],
      "name": "setDevAddr",
      "outputs": [],
      "stateMutability": "nonpayable",
      "type": "function"
    },
    {
      "inputs": [
        {
          "internalType": "enum IHyperXNFTFactory.CollectionType",
          "name": "collectionType",
          "type": "uint8"
        },
        {
          "internalType": "string",
          "name": "_name",
          "type": "string"
        },
        {
          "internalType": "string",
          "name": "_symbol",
          "type": "string"
        },
        {
          "internalType": "string",
          "name": "_uri",
          "type": "string"
        }
      ],
      "name": "createNewCollection",
      "outputs": [
        {
          "internalType": "address",
          "name": "",
          "type": "address"
        }
      ],
      "stateMutability": "nonpayable",
      "type": "function"
    },
    {
      "inputs": [
        {
          "internalType": "address",
          "name": "from",
          "type": "address"
        }
      ],
      "name": "addCollection",
      "outputs": [],
      "stateMutability": "nonpayable",
      "type": "function"
    },
    {
      "inputs": [],
      "name": "getCollections",
      "outputs": [
        {
          "internalType": "address[]",
          "name": "",
          "type": "address[]"
        }
      ],
      "stateMutability": "view",
      "type": "function"
    },
    {
      "inputs": [
        {
          "internalType": "uint256",
          "name": "newFeeRatio",
          "type": "uint256"
        }
      ],
      "name": "setDefaultFeeRatio",
      "outputs": [],
      "stateMutability": "nonpayable",
      "type": "function"
    },
    {
      "inputs": [
        {
          "internalType": "uint256",
          "name": "newRoyaltyRatio",
          "type": "uint256"
        }
      ],
      "name": "setDefaultRoyaltyRatio",
      "outputs": [],
      "stateMutability": "nonpayable",
      "type": "function"
    },
    {
      "inputs": [
        {
          "internalType": "address",
          "name": "sc",
          "type": "address"
        },
        {
          "internalType": "uint256",
          "name": "tokenId",
          "type": "uint256"
        },
        {
          "internalType": "uint256",
          "name": "payment",
          "type": "uint256"
        },
        {
          "internalType": "uint256",
          "name": "copy",
          "type": "uint256"
        },
        {
          "internalType": "uint256",
          "name": "method",
          "type": "uint256"
        },
        {
          "internalType": "uint256",
          "name": "duration",
          "type": "uint256"
        },
        {
          "internalType": "uint256",
          "name": "basePrice",
          "type": "uint256"
        },
        {
          "internalType": "uint256",
          "name": "feeRatio",
          "type": "uint256"
        },
        {
          "internalType": "uint256",
          "name": "royaltyRatio",
          "type": "uint256"
        }
      ],
      "name": "createSale",
      "outputs": [],
      "stateMutability": "nonpayable",
      "type": "function"
    },
    {
      "inputs": [
        {
          "internalType": "uint256",
          "name": "saleId",
          "type": "uint256"
        }
      ],
      "name": "removeSale",
      "outputs": [],
      "stateMutability": "nonpayable",
      "type": "function"
    },
    {
      "inputs": [
        {
          "internalType": "uint256",
          "name": "saleId",
          "type": "uint256"
        },
        {
          "internalType": "uint256",
          "name": "price",
          "type": "uint256"
        }
      ],
      "name": "makeOffer",
      "outputs": [],
      "stateMutability": "payable",
      "type": "function"
    },
    {
      "inputs": [
        {
          "internalType": "uint256",
          "name": "saleId",
          "type": "uint256"
        }
      ],
      "name": "buy",
      "outputs": [],
      "stateMutability": "payable",
      "type": "function"
    },
    {
      "inputs": [
        {
          "internalType": "uint256",
          "name": "saleId",
          "type": "uint256"
        },
        {
          "internalType": "uint256",
          "name": "price",
          "type": "uint256"
        }
      ],
      "name": "placeBid",
      "outputs": [],
      "stateMutability": "payable",
      "type": "function"
    },
    {
      "inputs": [
        {
          "internalType": "uint256",
          "name": "saleId",
          "type": "uint256"
        }
      ],
      "name": "finalizeAuction",
      "outputs": [],
      "stateMutability": "nonpayable",
      "type": "function"
    },
    {
      "inputs": [
        {
          "internalType": "uint256",
          "name": "startIdx",
          "type": "uint256"
        },
        {
          "internalType": "uint256",
          "name": "count",
          "type": "uint256"
        }
      ],
      "name": "getSaleInfo",
      "outputs": [
        {
          "components": [
            {
              "internalType": "address",
              "name": "creator",
              "type": "address"
            },
            {
              "internalType": "address",
              "name": "seller",
              "type": "address"
            },
            {
              "internalType": "address",
              "name": "sc",
              "type": "address"
            },
            {
              "internalType": "uint256",
              "name": "tokenId",
              "type": "uint256"
            },
            {
              "internalType": "uint256",
              "name": "copy",
              "type": "uint256"
            },
            {
              "internalType": "uint256",
              "name": "payment",
              "type": "uint256"
            },
            {
              "internalType": "uint256",
              "name": "basePrice",
              "type": "uint256"
            },
            {
              "internalType": "uint256",
              "name": "method",
              "type": "uint256"
            },
            {
              "internalType": "uint256",
              "name": "startTime",
              "type": "uint256"
            },
            {
              "internalType": "uint256",
              "name": "endTime",
              "type": "uint256"
            },
            {
              "internalType": "uint256",
              "name": "feeRatio",
              "type": "uint256"
            },
            {
              "internalType": "uint256",
              "name": "royaltyRatio",
              "type": "uint256"
            }
          ],
          "internalType": "struct HyperXNFTFactory.HyperXNFTSale[]",
          "name": "",
          "type": "tuple[]"
        }
      ],
      "stateMutability": "view",
      "type": "function"
    }
  ],
  "bytecode": "0x608060405260036001553480156200001657600080fd5b506040516200696b3803806200696b83398181016040528101906200003c919062000280565b6200005c620000506200014a60201b60201c565b6200015260201b60201c565b81600260006101000a81548173ffffffffffffffffffffffffffffffffffffffff021916908373ffffffffffffffffffffffffffffffffffffffff16021790555080600360006101000a81548173ffffffffffffffffffffffffffffffffffffffff021916908373ffffffffffffffffffffffffffffffffffffffff160217905550600660009080600181540180825580915050600190039060005260206000200160009091909190916101000a81548173ffffffffffffffffffffffffffffffffffffffff021916908373ffffffffffffffffffffffffffffffffffffffff1602179055505050620002c7565b600033905090565b60008060009054906101000a900473ffffffffffffffffffffffffffffffffffffffff169050816000806101000a81548173ffffffffffffffffffffffffffffffffffffffff021916908373ffffffffffffffffffffffffffffffffffffffff1602179055508173ffffffffffffffffffffffffffffffffffffffff168173ffffffffffffffffffffffffffffffffffffffff167f8be0079c531659141344cd1fd0a4f28419497f9722a3daafe3b4186f6b6457e060405160405180910390a35050565b600080fd5b600073ffffffffffffffffffffffffffffffffffffffff82169050919050565b600062000248826200021b565b9050919050565b6200025a816200023b565b81146200026657600080fd5b50565b6000815190506200027a816200024f565b92915050565b600080604083850312156200029a576200029962000216565b5b6000620002aa8582860162000269565b9250506020620002bd8582860162000269565b9150509250929050565b61669480620002d76000396000f3fe6080604052600436106101815760003560e01c806387b5cf7d116100d1578063d41c3a651161008a578063e2315c0d11610064578063e2315c0d14610509578063e71a02e114610532578063e80838631461055d578063f2fde38b1461058657610181565b8063d41c3a6514610499578063d79f6a78146104c4578063d96a094a146104ed57610181565b806387b5cf7d1461039b5780638da5cb5b146103c6578063953ba1a2146103f1578063a174e77a1461041c578063a1e89aec14610445578063d156d5f61461047057610181565b806356d898731161013e5780635c40d2fe116101185780635c40d2fe146102f55780636ebb64a214610332578063715018a61461035b5780637cd7922d1461037257610181565b806356d898731461027357806357c90de51461029c57806359b810f9146102b857610181565b806305b7cdd3146101865780632dc1ef89146101a257806337c9ba54146101cb5780633ad10ef6146101f457806344e797e91461021f57806346e6358614610248575b600080fd5b6101a0600480360381019061019b9190614a2b565b6105af565b005b3480156101ae57600080fd5b506101c960048036038101906101c49190614ac9565b610978565b005b3480156101d757600080fd5b506101f260048036038101906101ed9190614b09565b610bd4565b005b34801561020057600080fd5b50610209610dd2565b6040516102169190614b45565b60405180910390f35b34801561022b57600080fd5b5061024660048036038101906102419190614b60565b610df8565b005b34801561025457600080fd5b5061025d610fa3565b60405161026a9190614c4b565b60405180910390f35b34801561027f57600080fd5b5061029a60048036038101906102959190614c6d565b611031565b005b6102b660048036038101906102b19190614a2b565b6112b1565b005b3480156102c457600080fd5b506102df60048036038101906102da9190614e18565b61163e565b6040516102ec9190614b45565b60405180910390f35b34801561030157600080fd5b5061031c60048036038101906103179190614a2b565b611c19565b6040516103299190615088565b60405180910390f35b34801561033e57600080fd5b5061035960048036038101906103549190614b09565b611ecb565b005b34801561036757600080fd5b50610370611f8b565b005b34801561037e57600080fd5b5061039960048036038101906103949190614b60565b612013565b005b3480156103a757600080fd5b506103b06120d9565b6040516103bd91906150b9565b60405180910390f35b3480156103d257600080fd5b506103db6120df565b6040516103e89190614b45565b60405180910390f35b3480156103fd57600080fd5b50610406612108565b60405161041391906150b9565b60405180910390f35b34801561042857600080fd5b50610443600480360381019061043e9190614b09565b61210e565b005b34801561045157600080fd5b5061045a612661565b60405161046791906150b9565b60405180910390f35b34801561047c57600080fd5b506104976004803603810190610492919061510c565b612667565b005b3480156104a557600080fd5b506104ae6127ce565b6040516104bb9190614c4b565b60405180910390f35b3480156104d057600080fd5b506104eb60048036038101906104e69190614b60565b61285c565b005b61050760048036038101906105029190614b60565b612922565b005b34801561051557600080fd5b50610530600480360381019061052b919061514c565b612d7a565b005b34801561053e57600080fd5b506105476132ad565b60405161055491906150b9565b60405180910390f35b34801561056957600080fd5b50610584600480360381019061057f9190614b60565b6132b3565b005b34801561059257600080fd5b506105ad60048036038101906105a89190614b09565b61365d565b005b6105b882613755565b6105f7576040517f08c379a00000000000000000000000000000000000000000000000000000000081526004016105ee90615273565b60405180910390fd5b6000600e600084815260200190815260200160002090504281600801541115610655576040517f08c379a000000000000000000000000000000000000000000000000000000000815260040161064c906152df565b60405180910390fd5b80600801548160090154111580610670575042816009015410155b6106af576040517f08c379a00000000000000000000000000000000000000000000000000000000081526004016106a69061534b565b60405180910390fd5b60008160070154146106f6576040517f08c379a00000000000000000000000000000000000000000000000000000000081526004016106ed906153b7565b60405180910390fd5b60008160060154826004015461070c9190615406565b905060008260050154141561071f573492505b6000600a60008681526020019081526020016000209050600060405180604001604052803373ffffffffffffffffffffffffffffffffffffffff1681526020018681525090508181908060018154018082558091505060019003906000526020600020906002020160009091909190915060008201518160000160006101000a81548173ffffffffffffffffffffffffffffffffffffffff021916908373ffffffffffffffffffffffffffffffffffffffff16021790555060208201518160010155505060008460050154146108b9576000600685600501548154811061080957610808615460565b5b9060005260206000200160009054906101000a900473ffffffffffffffffffffffffffffffffffffffff1690508073ffffffffffffffffffffffffffffffffffffffff166323b872dd3330896040518463ffffffff1660e01b81526004016108739392919061548f565b6020604051808303816000875af1158015610892573d6000803e3d6000fd5b505050506040513d601f19601f820116820180604052508101906108b691906154db565b50505b8360020160009054906101000a900473ffffffffffffffffffffffffffffffffffffffff1673ffffffffffffffffffffffffffffffffffffffff163373ffffffffffffffffffffffffffffffffffffffff167fa544409cc9e2b36072cb64d2f4336f056addc837c738097d81b5fbd31488feb7866003015487600401548960405161094693929190615508565b60405180910390a38285106109705761096f866001848054905061096a919061553f565b6137ee565b5b505050505050565b6109806141b7565b73ffffffffffffffffffffffffffffffffffffffff1661099e6120df565b73ffffffffffffffffffffffffffffffffffffffff16146109f4576040517f08c379a00000000000000000000000000000000000000000000000000000000081526004016109eb906155bf565b60405180910390fd5b600073ffffffffffffffffffffffffffffffffffffffff168173ffffffffffffffffffffffffffffffffffffffff161415610a64576040517f08c379a0000000000000000000000000000000000000000000000000000000008152600401610a5b9061562b565b60405180910390fd5b6000821415610add5760068054905091506006819080600181540180825580915050600190039060005260206000200160009091909190916101000a81548173ffffffffffffffffffffffffffffffffffffffff021916908373ffffffffffffffffffffffffffffffffffffffff160217905550610b82565b6006805490508210610b24576040517f08c379a0000000000000000000000000000000000000000000000000000000008152600401610b1b90615697565b60405180910390fd5b8060068381548110610b3957610b38615460565b5b9060005260206000200160006101000a81548173ffffffffffffffffffffffffffffffffffffffff021916908373ffffffffffffffffffffffffffffffffffffffff1602179055505b8073ffffffffffffffffffffffffffffffffffffffff167f39db75df3ed66fe2043917ea45436f0ce2bb4ad1ebdf46101203e09b4e7550da83604051610bc891906150b9565b60405180910390a25050565b610bdc6141b7565b73ffffffffffffffffffffffffffffffffffffffff16610bfa6120df565b73ffffffffffffffffffffffffffffffffffffffff1614610c50576040517f08c379a0000000000000000000000000000000000000000000000000000000008152600401610c47906155bf565b60405180910390fd5b42600154600860008473ffffffffffffffffffffffffffffffffffffffff1673ffffffffffffffffffffffffffffffffffffffff16815260200190815260200160002054610c9e91906156b7565b10610ca857600080fd5b6000600960008373ffffffffffffffffffffffffffffffffffffffff1673ffffffffffffffffffffffffffffffffffffffff16815260200190815260200160002060009054906101000a900460ff16905080600760008473ffffffffffffffffffffffffffffffffffffffff1673ffffffffffffffffffffffffffffffffffffffff16815260200190815260200160002060006101000a81548160ff0219169083151502179055506000600860008473ffffffffffffffffffffffffffffffffffffffff1673ffffffffffffffffffffffffffffffffffffffff168152602001908152602001600020819055507f8ea94c522769230b8972fec0e83e90226fa41b502bb478af233d18474367a0888282604051610dc692919061571c565b60405180910390a15050565b600d60009054906101000a900473ffffffffffffffffffffffffffffffffffffffff1681565b6000600e600083815260200190815260200160002090503373ffffffffffffffffffffffffffffffffffffffff168160010160009054906101000a900473ffffffffffffffffffffffffffffffffffffffff1673ffffffffffffffffffffffffffffffffffffffff1614610ea1576040517f08c379a0000000000000000000000000000000000000000000000000000000008152600401610e9890615791565b60405180910390fd5b60008160010160009054906101000a900473ffffffffffffffffffffffffffffffffffffffff16905060008260010160006101000a81548173ffffffffffffffffffffffffffffffffffffffff021916908373ffffffffffffffffffffffffffffffffffffffff1602179055507fe618057d6a1c7a46063f5582c253c9072fd35cf5c08aa48143e8c11551007b9a818360020160009054906101000a900473ffffffffffffffffffffffffffffffffffffffff1684600301548560050154866006015487600801548860090154610f78919061553f565b88600a015489600b0154604051610f969897969594939291906157b1565b60405180910390a1505050565b6060600480548060200260200160405190810160405280929190818152602001828054801561102757602002820191906000526020600020905b8160009054906101000a900473ffffffffffffffffffffffffffffffffffffffff1673ffffffffffffffffffffffffffffffffffffffff1681526020019060010190808311610fdd575b5050505050905090565b6110396141b7565b73ffffffffffffffffffffffffffffffffffffffff166110576120df565b73ffffffffffffffffffffffffffffffffffffffff16146110ad576040517f08c379a00000000000000000000000000000000000000000000000000000000081526004016110a4906155bf565b60405180910390fd5b600073ffffffffffffffffffffffffffffffffffffffff16600260009054906101000a900473ffffffffffffffffffffffffffffffffffffffff1673ffffffffffffffffffffffffffffffffffffffff16141561113f576040517f08c379a00000000000000000000000000000000000000000000000000000000081526004016111369061587b565b60405180910390fd5b600073ffffffffffffffffffffffffffffffffffffffff16600360009054906101000a900473ffffffffffffffffffffffffffffffffffffffff1673ffffffffffffffffffffffffffffffffffffffff1614156111d1576040517f08c379a00000000000000000000000000000000000000000000000000000000081526004016111c8906158e7565b60405180910390fd5b81600260006101000a81548173ffffffffffffffffffffffffffffffffffffffff021916908373ffffffffffffffffffffffffffffffffffffffff16021790555080600360006101000a81548173ffffffffffffffffffffffffffffffffffffffff021916908373ffffffffffffffffffffffffffffffffffffffff1602179055508073ffffffffffffffffffffffffffffffffffffffff168273ffffffffffffffffffffffffffffffffffffffff167ff5f210640140dd0c5eda670348a2d399e110e3ed1e29f0312f26081d63c84dcc60405160405180910390a35050565b6112ba82613755565b6112f9576040517f08c379a00000000000000000000000000000000000000000000000000000000081526004016112f090615273565b60405180910390fd5b6000600e600084815260200190815260200160002090504281600801541115611357576040517f08c379a000000000000000000000000000000000000000000000000000000000815260040161134e906152df565b60405180910390fd5b80600801548160090154111580611372575042816009015410155b6113b1576040517f08c379a00000000000000000000000000000000000000000000000000000000081526004016113a89061534b565b60405180910390fd5b6000816007015414156113f9576040517f08c379a00000000000000000000000000000000000000000000000000000000081526004016113f090615953565b60405180910390fd5b60008160050154141561140e573491506114d8565b6000600682600501548154811061142857611427615460565b5b9060005260206000200160009054906101000a900473ffffffffffffffffffffffffffffffffffffffff1690508073ffffffffffffffffffffffffffffffffffffffff166323b872dd3330866040518463ffffffff1660e01b81526004016114929392919061548f565b6020604051808303816000875af11580156114b1573d6000803e3d6000fd5b505050506040513d601f19601f820116820180604052508101906114d591906154db565b50505b6000600a60008581526020019081526020016000209050600060405180604001604052803373ffffffffffffffffffffffffffffffffffffffff1681526020018581525090508181908060018154018082558091505060019003906000526020600020906002020160009091909190915060008201518160000160006101000a81548173ffffffffffffffffffffffffffffffffffffffff021916908373ffffffffffffffffffffffffffffffffffffffff1602179055506020820151816001015550508260020160009054906101000a900473ffffffffffffffffffffffffffffffffffffffff1673ffffffffffffffffffffffffffffffffffffffff163373ffffffffffffffffffffffffffffffffffffffff167f882b21869166d7e834ecf3e5ba98e7c4d78c70fabce5a0dae51bcffa05a8ae418560030154866004015487600701548960405161162f9493929190615973565b60405180910390a35050505050565b60008033905061164c6120df565b73ffffffffffffffffffffffffffffffffffffffff168173ffffffffffffffffffffffffffffffffffffffff1614806116d5575060011515600760008373ffffffffffffffffffffffffffffffffffffffff1673ffffffffffffffffffffffffffffffffffffffff16815260200190815260200160002060009054906101000a900460ff161515145b611714576040517f08c379a000000000000000000000000000000000000000000000000000000000815260040161170b90615a04565b60405180910390fd5b6000600181111561172857611727615a24565b5b86600181111561173b5761173a615a24565b5b1415611975576000600260009054906101000a900473ffffffffffffffffffffffffffffffffffffffff1673ffffffffffffffffffffffffffffffffffffffff16631039569a878787306040518563ffffffff1660e01b81526004016117a49493929190615aca565b6020604051808303816000875af11580156117c3573d6000803e3d6000fd5b505050506040513d601f19601f820116820180604052508101906117e79190615b39565b905060001515600560008373ffffffffffffffffffffffffffffffffffffffff1673ffffffffffffffffffffffffffffffffffffffff16815260200190815260200160002060009054906101000a900460ff1615151461184657600080fd5b6004819080600181540180825580915050600190039060005260206000200160009091909190916101000a81548173ffffffffffffffffffffffffffffffffffffffff021916908373ffffffffffffffffffffffffffffffffffffffff1602179055506001600560008373ffffffffffffffffffffffffffffffffffffffff1673ffffffffffffffffffffffffffffffffffffffff16815260200190815260200160002060006101000a81548160ff0219169083151502179055508073ffffffffffffffffffffffffffffffffffffffff1663f2fde38b336040518263ffffffff1660e01b815260040161193a9190614b45565b600060405180830381600087803b15801561195457600080fd5b505af1158015611968573d6000803e3d6000fd5b5050505080925050611c10565b60018081111561198857611987615a24565b5b86600181111561199b5761199a615a24565b5b1415611bd5576000600360009054906101000a900473ffffffffffffffffffffffffffffffffffffffff1673ffffffffffffffffffffffffffffffffffffffff16631039569a878787306040518563ffffffff1660e01b8152600401611a049493929190615aca565b6020604051808303816000875af1158015611a23573d6000803e3d6000fd5b505050506040513d601f19601f82011682018060405250810190611a479190615b39565b905060001515600560008373ffffffffffffffffffffffffffffffffffffffff1673ffffffffffffffffffffffffffffffffffffffff16815260200190815260200160002060009054906101000a900460ff16151514611aa657600080fd5b6004819080600181540180825580915050600190039060005260206000200160009091909190916101000a81548173ffffffffffffffffffffffffffffffffffffffff021916908373ffffffffffffffffffffffffffffffffffffffff1602179055506001600560008373ffffffffffffffffffffffffffffffffffffffff1673ffffffffffffffffffffffffffffffffffffffff16815260200190815260200160002060006101000a81548160ff0219169083151502179055508073ffffffffffffffffffffffffffffffffffffffff1663f2fde38b336040518263ffffffff1660e01b8152600401611b9a9190614b45565b600060405180830381600087803b158015611bb457600080fd5b505af1158015611bc8573d6000803e3d6000fd5b5050505080925050611c10565b6040517f08c379a0000000000000000000000000000000000000000000000000000000008152600401611c0790615bb2565b60405180910390fd5b50949350505050565b60606000808385611c2a91906156b7565b905060008592505b81831015611c7c57600f548310611c4857611c7c565b611c5183613755565b611c5a57611c69565b8080611c6590615bd2565b9150505b8280611c7490615bd2565b935050611c32565b60008167ffffffffffffffff811115611c9857611c97614ced565b5b604051908082528060200260200182016040528015611cd157816020015b611cbe61493e565b815260200190600190039081611cb65790505b50905060008794505b83851015611ebd57600f548510611cf057611ebd565b611cf985613755565b611d0257611eaa565b600e6000868152602001908152602001600020604051806101800160405290816000820160009054906101000a900473ffffffffffffffffffffffffffffffffffffffff1673ffffffffffffffffffffffffffffffffffffffff1673ffffffffffffffffffffffffffffffffffffffff1681526020016001820160009054906101000a900473ffffffffffffffffffffffffffffffffffffffff1673ffffffffffffffffffffffffffffffffffffffff1673ffffffffffffffffffffffffffffffffffffffff1681526020016002820160009054906101000a900473ffffffffffffffffffffffffffffffffffffffff1673ffffffffffffffffffffffffffffffffffffffff1673ffffffffffffffffffffffffffffffffffffffff16815260200160038201548152602001600482015481526020016005820154815260200160068201548152602001600782015481526020016008820154815260200160098201548152602001600a8201548152602001600b82015481525050828281518110611e9057611e8f615460565b5b60200260200101819052508080611ea690615bd2565b9150505b8480611eb590615bd2565b955050611cda565b819550505050505092915050565b611ed36141b7565b73ffffffffffffffffffffffffffffffffffffffff16611ef16120df565b73ffffffffffffffffffffffffffffffffffffffff1614611f47576040517f08c379a0000000000000000000000000000000000000000000000000000000008152600401611f3e906155bf565b60405180910390fd5b80600d60006101000a81548173ffffffffffffffffffffffffffffffffffffffff021916908373ffffffffffffffffffffffffffffffffffffffff16021790555050565b611f936141b7565b73ffffffffffffffffffffffffffffffffffffffff16611fb16120df565b73ffffffffffffffffffffffffffffffffffffffff1614612007576040517f08c379a0000000000000000000000000000000000000000000000000000000008152600401611ffe906155bf565b60405180910390fd5b61201160006141bf565b565b61201b6141b7565b73ffffffffffffffffffffffffffffffffffffffff166120396120df565b73ffffffffffffffffffffffffffffffffffffffff161461208f576040517f08c379a0000000000000000000000000000000000000000000000000000000008152600401612086906155bf565b60405180910390fd5b80600b819055507f500c1065894a3f5257bd7a36f5dcf006f39a07fc99fdf747d6d5dcad607698456120bf6120df565b826040516120ce929190615c1b565b60405180910390a150565b600c5481565b60008060009054906101000a900473ffffffffffffffffffffffffffffffffffffffff16905090565b600b5481565b600033905061211b6120df565b73ffffffffffffffffffffffffffffffffffffffff168173ffffffffffffffffffffffffffffffffffffffff1614806121a4575060011515600760008373ffffffffffffffffffffffffffffffffffffffff1673ffffffffffffffffffffffffffffffffffffffff16815260200190815260200160002060009054906101000a900460ff161515145b6121e3576040517f08c379a00000000000000000000000000000000000000000000000000000000081526004016121da90615a04565b60405180910390fd5b6122028273ffffffffffffffffffffffffffffffffffffffff16614283565b61220b57600080fd5b8173ffffffffffffffffffffffffffffffffffffffff166301ffc9a77f80ac58cd000000000000000000000000000000000000000000000000000000006040518263ffffffff1660e01b81526004016122649190615c7f565b602060405180830381865afa158015612281573d6000803e3d6000fd5b505050506040513d601f19601f820116820180604052508101906122a591906154db565b156124165760001515600560008473ffffffffffffffffffffffffffffffffffffffff1673ffffffffffffffffffffffffffffffffffffffff16815260200190815260200160002060009054906101000a900460ff1615151461230757600080fd5b6004829080600181540180825580915050600190039060005260206000200160009091909190916101000a81548173ffffffffffffffffffffffffffffffffffffffff021916908373ffffffffffffffffffffffffffffffffffffffff1602179055506001600560008473ffffffffffffffffffffffffffffffffffffffff1673ffffffffffffffffffffffffffffffffffffffff16815260200190815260200160002060006101000a81548160ff0219169083151502179055508173ffffffffffffffffffffffffffffffffffffffff167f5ecbd5caa1472b0648a446bc32c2f7bef31efd64d56ff2ba9631d8da45d4345360006040516124099190615ce2565b60405180910390a261265d565b8173ffffffffffffffffffffffffffffffffffffffff166301ffc9a77fd9b67a26000000000000000000000000000000000000000000000000000000006040518263ffffffff1660e01b815260040161246f9190615c7f565b602060405180830381865afa15801561248c573d6000803e3d6000fd5b505050506040513d601f19601f820116820180604052508101906124b091906154db565b156126215760001515600560008473ffffffffffffffffffffffffffffffffffffffff1673ffffffffffffffffffffffffffffffffffffffff16815260200190815260200160002060009054906101000a900460ff1615151461251257600080fd5b6004829080600181540180825580915050600190039060005260206000200160009091909190916101000a81548173ffffffffffffffffffffffffffffffffffffffff021916908373ffffffffffffffffffffffffffffffffffffffff1602179055506001600560008473ffffffffffffffffffffffffffffffffffffffff1673ffffffffffffffffffffffffffffffffffffffff16815260200190815260200160002060006101000a81548160ff0219169083151502179055508173ffffffffffffffffffffffffffffffffffffffff167f5ecbd5caa1472b0648a446bc32c2f7bef31efd64d56ff2ba9631d8da45d4345360016040516126149190615ce2565b60405180910390a261265c565b6040517f08c379a000000000000000000000000000000000000000000000000000000000815260040161265390615d6f565b60405180910390fd5b5b5050565b600f5481565b61266f6141b7565b73ffffffffffffffffffffffffffffffffffffffff1661268d6120df565b73ffffffffffffffffffffffffffffffffffffffff16146126e3576040517f08c379a00000000000000000000000000000000000000000000000000000000081526004016126da906155bf565b60405180910390fd5b6000600860008473ffffffffffffffffffffffffffffffffffffffff1673ffffffffffffffffffffffffffffffffffffffff168152602001908152602001600020541461272f57600080fd5b42600860008473ffffffffffffffffffffffffffffffffffffffff1673ffffffffffffffffffffffffffffffffffffffff1681526020019081526020016000208190555080600960008473ffffffffffffffffffffffffffffffffffffffff1673ffffffffffffffffffffffffffffffffffffffff16815260200190815260200160002060006101000a81548160ff0219169083151502179055505050565b6060600680548060200260200160405190810160405280929190818152602001828054801561285257602002820191906000526020600020905b8160009054906101000a900473ffffffffffffffffffffffffffffffffffffffff1673ffffffffffffffffffffffffffffffffffffffff1681526020019060010190808311612808575b5050505050905090565b6128646141b7565b73ffffffffffffffffffffffffffffffffffffffff166128826120df565b73ffffffffffffffffffffffffffffffffffffffff16146128d8576040517f08c379a00000000000000000000000000000000000000000000000000000000081526004016128cf906155bf565b60405180910390fd5b80600c819055507fc50c9e716e261f4567603029de89a0ba49e2771cf8865df5b1370b270ae1284e6129086120df565b82604051612917929190615c1b565b60405180910390a150565b61292b81613755565b61296a576040517f08c379a000000000000000000000000000000000000000000000000000000000815260040161296190615273565b60405180910390fd5b6000600e6000838152602001908152602001600020905042816008015411156129c8576040517f08c379a00000000000000000000000000000000000000000000000000000000081526004016129bf906152df565b60405180910390fd5b806008015481600901541115806129e3575042816009015410155b612a22576040517f08c379a0000000000000000000000000000000000000000000000000000000008152600401612a199061534b565b60405180910390fd5b6000816007015414612a69576040517f08c379a0000000000000000000000000000000000000000000000000000000008152600401612a60906153b7565b60405180910390fd5b600081600601548260040154612a7f9190615406565b9050600082600501541415612b375780341015612ad1576040517f08c379a0000000000000000000000000000000000000000000000000000000008152600401612ac890615e01565b60405180910390fd5b80341115612b325760003390508073ffffffffffffffffffffffffffffffffffffffff166108fc8334612b04919061553f565b9081150290604051600060405180830381858888f19350505050158015612b2f573d6000803e3d6000fd5b50505b612c01565b60006006836005015481548110612b5157612b50615460565b5b9060005260206000200160009054906101000a900473ffffffffffffffffffffffffffffffffffffffff1690508073ffffffffffffffffffffffffffffffffffffffff166323b872dd3330856040518463ffffffff1660e01b8152600401612bbb9392919061548f565b6020604051808303816000875af1158015612bda573d6000803e3d6000fd5b505050506040513d601f19601f82011682018060405250810190612bfe91906154db565b50505b6000600a60008581526020019081526020016000209050600060405180604001604052803373ffffffffffffffffffffffffffffffffffffffff1681526020018481525090508181908060018154018082558091505060019003906000526020600020906002020160009091909190915060008201518160000160006101000a81548173ffffffffffffffffffffffffffffffffffffffff021916908373ffffffffffffffffffffffffffffffffffffffff1602179055506020820151816001015550508360020160009054906101000a900473ffffffffffffffffffffffffffffffffffffffff1673ffffffffffffffffffffffffffffffffffffffff163373ffffffffffffffffffffffffffffffffffffffff167ef93dbdb72854b6b6fb35433086556f2635fc83c37080c667496fecfa650fb48660030154876004015487604051612d5193929190615508565b60405180910390a3612d738560018480549050612d6e919061553f565b6137ee565b5050505050565b6000612d868a8a614296565b91505060006001821415612f3f573373ffffffffffffffffffffffffffffffffffffffff168b73ffffffffffffffffffffffffffffffffffffffff16636352211e8c6040518263ffffffff1660e01b8152600401612de491906150b9565b602060405180830381865afa158015612e01573d6000803e3d6000fd5b505050506040513d601f19601f82011682018060405250810190612e259190615b39565b73ffffffffffffffffffffffffffffffffffffffff1614612e7b576040517f08c379a0000000000000000000000000000000000000000000000000000000008152600401612e7290615e93565b60405180910390fd5b60018814612ebe576040517f08c379a0000000000000000000000000000000000000000000000000000000008152600401612eb590615f25565b60405180910390fd5b8a73ffffffffffffffffffffffffffffffffffffffff1663d48e638a8b6040518263ffffffff1660e01b8152600401612ef791906150b9565b602060405180830381865afa158015612f14573d6000803e3d6000fd5b505050506040513d601f19601f82011682018060405250810190612f389190615b39565b90506130d4565b60028214156130985760008b73ffffffffffffffffffffffffffffffffffffffff1662fdd58e338d6040518363ffffffff1660e01b8152600401612f84929190615c1b565b602060405180830381865afa158015612fa1573d6000803e3d6000fd5b505050506040513d601f19601f82011682018060405250810190612fc59190615f5a565b9050888110158015612fd75750600089115b613016576040517f08c379a000000000000000000000000000000000000000000000000000000000815260040161300d90615ff9565b60405180910390fd5b8b73ffffffffffffffffffffffffffffffffffffffff1663d48e638a8c6040518263ffffffff1660e01b815260040161304f91906150b9565b602060405180830381865afa15801561306c573d6000803e3d6000fd5b505050506040513d601f19601f820116820180604052508101906130909190615b39565b9150506130d3565b6040517f08c379a00000000000000000000000000000000000000000000000000000000081526004016130ca90616065565b60405180910390fd5b5b6000600f549050600f60008154809291906130ee90615bd2565b91905055506000600e60008381526020019081526020016000209050828160000160006101000a81548173ffffffffffffffffffffffffffffffffffffffff021916908373ffffffffffffffffffffffffffffffffffffffff160217905550338160010160006101000a81548173ffffffffffffffffffffffffffffffffffffffff021916908373ffffffffffffffffffffffffffffffffffffffff1602179055508c8160020160006101000a81548173ffffffffffffffffffffffffffffffffffffffff021916908373ffffffffffffffffffffffffffffffffffffffff1602179055508b81600301819055508981600401819055508a8160050181905550868160060181905550888160070181905550428160080181905550874261321591906156b7565b81600901819055506000861461322b578561322f565b600b545b81600a0181905550600085146132455784613249565b600c545b81600b01819055507fe54e04bb6f871ccfc133ed452a7f0335842a26b4f3079ad1e819f446d0adc193338e8e8e8b8d87600a015488600b01546040516132969897969594939291906157b1565b60405180910390a150505050505050505050505050565b60015481565b6132bb6141b7565b73ffffffffffffffffffffffffffffffffffffffff166132d96120df565b73ffffffffffffffffffffffffffffffffffffffff161461332f576040517f08c379a0000000000000000000000000000000000000000000000000000000008152600401613326906155bf565b60405180910390fd5b61333881613755565b613377576040517f08c379a000000000000000000000000000000000000000000000000000000000815260040161336e90615273565b60405180910390fd5b6000600e6000838152602001908152602001600020905042816008015411156133d5576040517f08c379a00000000000000000000000000000000000000000000000000000000081526004016133cc906152df565b60405180910390fd5b60008160070154141561341d576040517f08c379a000000000000000000000000000000000000000000000000000000000815260040161341490615953565b60405180910390fd5b6000600a6000848152602001908152602001600020905060018260070154141561365857600081805490501115613657576000808260008154811061346557613464615460565b5b906000526020600020906002020160010154905060008092505b83805490508310156135465760008484815481106134a05761349f615460565b5b90600052602060002090600202016040518060400160405290816000820160009054906101000a900473ffffffffffffffffffffffffffffffffffffffff1673ffffffffffffffffffffffffffffffffffffffff1673ffffffffffffffffffffffffffffffffffffffff1681526020016001820154815250509050806020015183101561353257806020015192508391505b50828061353e90615bd2565b93505061347f565b8460020160009054906101000a900473ffffffffffffffffffffffffffffffffffffffff1673ffffffffffffffffffffffffffffffffffffffff1684828154811061359457613593615460565b5b906000526020600020906002020160000160009054906101000a900473ffffffffffffffffffffffffffffffffffffffff1673ffffffffffffffffffffffffffffffffffffffff167f0b5ff9d3667fbe899e80514e9e77451f5afa9c56d1619589dfbbec22b3d2cbbf87600301548860040154896007015489878154811061361f5761361e615460565b5b9060005260206000209060020201600101546040516136419493929190615973565b60405180910390a361365386826137ee565b5050505b5b505050565b6136656141b7565b73ffffffffffffffffffffffffffffffffffffffff166136836120df565b73ffffffffffffffffffffffffffffffffffffffff16146136d9576040517f08c379a00000000000000000000000000000000000000000000000000000000081526004016136d0906155bf565b60405180910390fd5b600073ffffffffffffffffffffffffffffffffffffffff168173ffffffffffffffffffffffffffffffffffffffff161415613749576040517f08c379a0000000000000000000000000000000000000000000000000000000008152600401613740906160f7565b60405180910390fd5b613752816141bf565b50565b6000600f54821061376957600090506137e9565b6000600e60008481526020019081526020016000209050600073ffffffffffffffffffffffffffffffffffffffff168160010160009054906101000a900473ffffffffffffffffffffffffffffffffffffffff1673ffffffffffffffffffffffffffffffffffffffff1614156137e35760009150506137e9565b60019150505b919050565b6137f782613755565b613836576040517f08c379a000000000000000000000000000000000000000000000000000000000815260040161382d90615273565b60405180910390fd5b6000600e600084815260200190815260200160002090506000600a6000858152602001908152602001600020905060005b81805490508110156141a757600082828154811061388857613887615460565b5b90600052602060002090600202016040518060400160405290816000820160009054906101000a900473ffffffffffffffffffffffffffffffffffffffff1673ffffffffffffffffffffffffffffffffffffffff1673ffffffffffffffffffffffffffffffffffffffff168152602001600182015481525050905084821415614059576000612710826020015186600a01546139249190615406565b61392e9190616146565b90506000612710836020015187600b01546139499190615406565b6139539190616146565b905060008073ffffffffffffffffffffffffffffffffffffffff16600d60009054906101000a900473ffffffffffffffffffffffffffffffffffffffff1673ffffffffffffffffffffffffffffffffffffffff16146139cd57612710601e85602001516139c09190615406565b6139ca9190616146565b90505b600081838587602001516139e1919061553f565b6139eb919061553f565b6139f5919061553f565b9050600088600501541415613bc35760008860010160009054906101000a900473ffffffffffffffffffffffffffffffffffffffff1690508073ffffffffffffffffffffffffffffffffffffffff166108fc839081150290604051600060405180830381858888f19350505050158015613a73573d6000803e3d6000fd5b506000851115613acf57613a856120df565b90508073ffffffffffffffffffffffffffffffffffffffff166108fc869081150290604051600060405180830381858888f19350505050158015613acd573d6000803e3d6000fd5b505b6000841115613b47578860000160009054906101000a900473ffffffffffffffffffffffffffffffffffffffff1690508073ffffffffffffffffffffffffffffffffffffffff166108fc859081150290604051600060405180830381858888f19350505050158015613b45573d6000803e3d6000fd5b505b6000831115613bbd57600d60009054906101000a900473ffffffffffffffffffffffffffffffffffffffff1690508073ffffffffffffffffffffffffffffffffffffffff166108fc849081150290604051600060405180830381858888f19350505050158015613bbb573d6000803e3d6000fd5b505b50613e9f565b60006006896005015481548110613bdd57613bdc615460565b5b9060005260206000200160009054906101000a900473ffffffffffffffffffffffffffffffffffffffff1690508073ffffffffffffffffffffffffffffffffffffffff166323b872dd308b60010160009054906101000a900473ffffffffffffffffffffffffffffffffffffffff16856040518463ffffffff1660e01b8152600401613c6b9392919061548f565b6020604051808303816000875af1158015613c8a573d6000803e3d6000fd5b505050506040513d601f19601f82011682018060405250810190613cae91906154db565b506000851115613d41578073ffffffffffffffffffffffffffffffffffffffff166323b872dd30613cdd6120df565b886040518463ffffffff1660e01b8152600401613cfc9392919061548f565b6020604051808303816000875af1158015613d1b573d6000803e3d6000fd5b505050506040513d601f19601f82011682018060405250810190613d3f91906154db565b505b6000841115613df0578073ffffffffffffffffffffffffffffffffffffffff166323b872dd308b60000160009054906101000a900473ffffffffffffffffffffffffffffffffffffffff16876040518463ffffffff1660e01b8152600401613dab9392919061548f565b6020604051808303816000875af1158015613dca573d6000803e3d6000fd5b505050506040513d601f19601f82011682018060405250810190613dee91906154db565b505b6000831115613e9d578073ffffffffffffffffffffffffffffffffffffffff166323b872dd30600d60009054906101000a900473ffffffffffffffffffffffffffffffffffffffff16866040518463ffffffff1660e01b8152600401613e589392919061548f565b6020604051808303816000875af1158015613e77573d6000803e3d6000fd5b505050506040513d601f19601f82011682018060405250810190613e9b91906154db565b505b505b6000600167ffffffffffffffff811115613ebc57613ebb614ced565b5b604051908082528060200260200182016040528015613eea5781602001602082028036833780820191505090505b509050886003015481600081518110613f0657613f05615460565b5b6020026020010181815250506000600167ffffffffffffffff811115613f2f57613f2e614ced565b5b604051908082528060200260200182016040528015613f5d5781602001602082028036833780820191505090505b509050896004015481600081518110613f7957613f78615460565b5b602002602001018181525050613fde8a60020160009054906101000a900473ffffffffffffffffffffffffffffffffffffffff168b60010160009054906101000a900473ffffffffffffffffffffffffffffffffffffffff16896000015185856144f9565b7f07b557c5d94419d9413024a2daffebc173db71759fd020fda468d37d9b8b8e4c8c8b428661400b6120df565b8b8b600d60009054906101000a900473ffffffffffffffffffffffffffffffffffffffff168c6040516140469998979695949392919061635a565b60405180910390a1505050505050614193565b6000846005015414156140c0576000816000015190508073ffffffffffffffffffffffffffffffffffffffff166108fc83602001519081150290604051600060405180830381858888f193505050501580156140b9573d6000803e3d6000fd5b5050614192565b600060068560050154815481106140da576140d9615460565b5b9060005260206000200160009054906101000a900473ffffffffffffffffffffffffffffffffffffffff1690508073ffffffffffffffffffffffffffffffffffffffff166323b872dd30846000015185602001516040518463ffffffff1660e01b815260040161414c9392919061548f565b6020604051808303816000875af115801561416b573d6000803e3d6000fd5b505050506040513d601f19601f8201168201806040525081019061418f91906154db565b50505b5b50808061419f90615bd2565b915050613867565b6141b085610df8565b5050505050565b600033905090565b60008060009054906101000a900473ffffffffffffffffffffffffffffffffffffffff169050816000806101000a81548173ffffffffffffffffffffffffffffffffffffffff021916908373ffffffffffffffffffffffffffffffffffffffff1602179055508173ffffffffffffffffffffffffffffffffffffffff168173ffffffffffffffffffffffffffffffffffffffff167f8be0079c531659141344cd1fd0a4f28419497f9722a3daafe3b4186f6b6457e060405160405180910390a35050565b600080823b905060008111915050919050565b606060008373ffffffffffffffffffffffffffffffffffffffff166301ffc9a77f80ac58cd000000000000000000000000000000000000000000000000000000006040518263ffffffff1660e01b81526004016142f39190615c7f565b602060405180830381865afa158015614310573d6000803e3d6000fd5b505050506040513d601f19601f8201168201806040525081019061433491906154db565b156143c3578373ffffffffffffffffffffffffffffffffffffffff1663c87b56dd846040518263ffffffff1660e01b815260040161437291906150b9565b600060405180830381865afa15801561438f573d6000803e3d6000fd5b505050506040513d6000823e3d601f19601f820116820180604052508101906143b8919061645d565b9150600190506144f2565b8373ffffffffffffffffffffffffffffffffffffffff166301ffc9a77fd9b67a26000000000000000000000000000000000000000000000000000000006040518263ffffffff1660e01b815260040161441c9190615c7f565b602060405180830381865afa158015614439573d6000803e3d6000fd5b505050506040513d601f19601f8201168201806040525081019061445d91906154db565b156144ec578373ffffffffffffffffffffffffffffffffffffffff16630e89341c846040518263ffffffff1660e01b815260040161449b91906150b9565b600060405180830381865afa1580156144b8573d6000803e3d6000fd5b505050506040513d6000823e3d601f19601f820116820180604052508101906144e1919061645d565b9150600290506144f1565b600090505b5b9250929050565b60003390506145066120df565b73ffffffffffffffffffffffffffffffffffffffff168173ffffffffffffffffffffffffffffffffffffffff16148061458f575060011515600760008373ffffffffffffffffffffffffffffffffffffffff1673ffffffffffffffffffffffffffffffffffffffff16815260200190815260200160002060009054906101000a900460ff161515145b6145ce576040517f08c379a00000000000000000000000000000000000000000000000000000000081526004016145c590615a04565b60405180910390fd5b60011515600560008873ffffffffffffffffffffffffffffffffffffffff1673ffffffffffffffffffffffffffffffffffffffff16815260200190815260200160002060009054906101000a900460ff1615151461462b57600080fd5b8573ffffffffffffffffffffffffffffffffffffffff166301ffc9a77f80ac58cd000000000000000000000000000000000000000000000000000000006040518263ffffffff1660e01b81526004016146849190615c7f565b602060405180830381865afa1580156146a1573d6000803e3d6000fd5b505050506040513d601f19601f820116820180604052508101906146c591906154db565b156147d057600080600067ffffffffffffffff8111156146e8576146e7614ced565b5b6040519080825280601f01601f19166020018201604052801561471a5781602001600182028036833780820191505090505b509050600091505b84518210156147c9578773ffffffffffffffffffffffffffffffffffffffff1663b88d4fde888888868151811061475c5761475b615460565b5b6020026020010151856040518563ffffffff1660e01b815260040161478494939291906164fb565b600060405180830381600087803b15801561479e57600080fd5b505af11580156147b2573d6000803e3d6000fd5b5050505081806147c190615bd2565b925050614722565b5050614936565b8573ffffffffffffffffffffffffffffffffffffffff166301ffc9a77fd9b67a26000000000000000000000000000000000000000000000000000000006040518263ffffffff1660e01b81526004016148299190615c7f565b602060405180830381865afa158015614846573d6000803e3d6000fd5b505050506040513d601f19601f8201168201806040525081019061486a91906154db565b156149355760008067ffffffffffffffff81111561488b5761488a614ced565b5b6040519080825280601f01601f1916602001820160405280156148bd5781602001600182028036833780820191505090505b5090508673ffffffffffffffffffffffffffffffffffffffff16632eb2c2d687878787866040518663ffffffff1660e01b81526004016149019594939291906165f6565b600060405180830381600087803b15801561491b57600080fd5b505af115801561492f573d6000803e3d6000fd5b50505050505b5b505050505050565b604051806101800160405280600073ffffffffffffffffffffffffffffffffffffffff168152602001600073ffffffffffffffffffffffffffffffffffffffff168152602001600073ffffffffffffffffffffffffffffffffffffffff1681526020016000815260200160008152602001600081526020016000815260200160008152602001600081526020016000815260200160008152602001600081525090565b6000604051905090565b600080fd5b600080fd5b6000819050919050565b614a08816149f5565b8114614a1357600080fd5b50565b600081359050614a25816149ff565b92915050565b60008060408385031215614a4257614a416149eb565b5b6000614a5085828601614a16565b9250506020614a6185828601614a16565b9150509250929050565b600073ffffffffffffffffffffffffffffffffffffffff82169050919050565b6000614a9682614a6b565b9050919050565b614aa681614a8b565b8114614ab157600080fd5b50565b600081359050614ac381614a9d565b92915050565b60008060408385031215614ae057614adf6149eb565b5b6000614aee85828601614a16565b9250506020614aff85828601614ab4565b9150509250929050565b600060208284031215614b1f57614b1e6149eb565b5b6000614b2d84828501614ab4565b91505092915050565b614b3f81614a8b565b82525050565b6000602082019050614b5a6000830184614b36565b92915050565b600060208284031215614b7657614b756149eb565b5b6000614b8484828501614a16565b91505092915050565b600081519050919050565b600082825260208201905092915050565b6000819050602082019050919050565b614bc281614a8b565b82525050565b6000614bd48383614bb9565b60208301905092915050565b6000602082019050919050565b6000614bf882614b8d565b614c028185614b98565b9350614c0d83614ba9565b8060005b83811015614c3e578151614c258882614bc8565b9750614c3083614be0565b925050600181019050614c11565b5085935050505092915050565b60006020820190508181036000830152614c658184614bed565b905092915050565b60008060408385031215614c8457614c836149eb565b5b6000614c9285828601614ab4565b9250506020614ca385828601614ab4565b9150509250929050565b60028110614cba57600080fd5b50565b600081359050614ccc81614cad565b92915050565b600080fd5b600080fd5b6000601f19601f8301169050919050565b7f4e487b7100000000000000000000000000000000000000000000000000000000600052604160045260246000fd5b614d2582614cdc565b810181811067ffffffffffffffff82111715614d4457614d43614ced565b5b80604052505050565b6000614d576149e1565b9050614d638282614d1c565b919050565b600067ffffffffffffffff821115614d8357614d82614ced565b5b614d8c82614cdc565b9050602081019050919050565b82818337600083830152505050565b6000614dbb614db684614d68565b614d4d565b905082815260208101848484011115614dd757614dd6614cd7565b5b614de2848285614d99565b509392505050565b600082601f830112614dff57614dfe614cd2565b5b8135614e0f848260208601614da8565b91505092915050565b60008060008060808587031215614e3257614e316149eb565b5b6000614e4087828801614cbd565b945050602085013567ffffffffffffffff811115614e6157614e606149f0565b5b614e6d87828801614dea565b935050604085013567ffffffffffffffff811115614e8e57614e8d6149f0565b5b614e9a87828801614dea565b925050606085013567ffffffffffffffff811115614ebb57614eba6149f0565b5b614ec787828801614dea565b91505092959194509250565b600081519050919050565b600082825260208201905092915050565b6000819050602082019050919050565b614f08816149f5565b82525050565b61018082016000820151614f256000850182614bb9565b506020820151614f386020850182614bb9565b506040820151614f4b6040850182614bb9565b506060820151614f5e6060850182614eff565b506080820151614f716080850182614eff565b5060a0820151614f8460a0850182614eff565b5060c0820151614f9760c0850182614eff565b5060e0820151614faa60e0850182614eff565b50610100820151614fbf610100850182614eff565b50610120820151614fd4610120850182614eff565b50610140820151614fe9610140850182614eff565b50610160820151614ffe610160850182614eff565b50505050565b60006150108383614f0e565b6101808301905092915050565b6000602082019050919050565b600061503582614ed3565b61503f8185614ede565b935061504a83614eef565b8060005b8381101561507b5781516150628882615004565b975061506d8361501d565b92505060018101905061504e565b5085935050505092915050565b600060208201905081810360008301526150a2818461502a565b905092915050565b6150b3816149f5565b82525050565b60006020820190506150ce60008301846150aa565b92915050565b60008115159050919050565b6150e9816150d4565b81146150f457600080fd5b50565b600081359050615106816150e0565b92915050565b60008060408385031215615123576151226149eb565b5b600061513185828601614ab4565b9250506020615142858286016150f7565b9150509250929050565b60008060008060008060008060006101208a8c03121561516f5761516e6149eb565b5b600061517d8c828d01614ab4565b995050602061518e8c828d01614a16565b985050604061519f8c828d01614a16565b97505060606151b08c828d01614a16565b96505060806151c18c828d01614a16565b95505060a06151d28c828d01614a16565b94505060c06151e38c828d01614a16565b93505060e06151f48c828d01614a16565b9250506101006152068c828d01614a16565b9150509295985092959850929598565b600082825260208201905092915050565b7f73616c65206973206e6f742076616c6964000000000000000000000000000000600082015250565b600061525d601183615216565b915061526882615227565b602082019050919050565b6000602082019050818103600083015261528c81615250565b9050919050565b7f73616c65206e6f74207374617274656420796574000000000000000000000000600082015250565b60006152c9601483615216565b91506152d482615293565b602082019050919050565b600060208201905081810360008301526152f8816152bc565b9050919050565b7f73616c6520616c726561647920656e6465640000000000000000000000000000600082015250565b6000615335601283615216565b9150615340826152ff565b602082019050919050565b6000602082019050818103600083015261536481615328565b9050919050565b7f6f66666572206e6f7420666f722066697865642d70726963652073616c650000600082015250565b60006153a1601e83615216565b91506153ac8261536b565b602082019050919050565b600060208201905081810360008301526153d081615394565b9050919050565b7f4e487b7100000000000000000000000000000000000000000000000000000000600052601160045260246000fd5b6000615411826149f5565b915061541c836149f5565b9250817fffffffffffffffffffffffffffffffffffffffffffffffffffffffffffffffff0483118215151615615455576154546153d7565b5b828202905092915050565b7f4e487b7100000000000000000000000000000000000000000000000000000000600052603260045260246000fd5b60006060820190506154a46000830186614b36565b6154b16020830185614b36565b6154be60408301846150aa565b949350505050565b6000815190506154d5816150e0565b92915050565b6000602082840312156154f1576154f06149eb565b5b60006154ff848285016154c6565b91505092915050565b600060608201905061551d60008301866150aa565b61552a60208301856150aa565b61553760408301846150aa565b949350505050565b600061554a826149f5565b9150615555836149f5565b925082821015615568576155676153d7565b5b828203905092915050565b7f4f776e61626c653a2063616c6c6572206973206e6f7420746865206f776e6572600082015250565b60006155a9602083615216565b91506155b482615573565b602082019050919050565b600060208201905081810360008301526155d88161559c565b9050919050565b7f6e756c6c206164647265737320666f72207061796d656e7420746f6b656e0000600082015250565b6000615615601e83615216565b9150615620826155df565b602082019050919050565b6000602082019050818103600083015261564481615608565b9050919050565b7f696e76616c6964207061796d656e7420746f6b656e2069640000000000000000600082015250565b6000615681601883615216565b915061568c8261564b565b602082019050919050565b600060208201905081810360008301526156b081615674565b9050919050565b60006156c2826149f5565b91506156cd836149f5565b9250827fffffffffffffffffffffffffffffffffffffffffffffffffffffffffffffffff03821115615702576157016153d7565b5b828201905092915050565b615716816150d4565b82525050565b60006040820190506157316000830185614b36565b61573e602083018461570d565b9392505050565b7f6e6f742063726561746f72206f66207468652073616c65000000000000000000600082015250565b600061577b601783615216565b915061578682615745565b602082019050919050565b600060208201905081810360008301526157aa8161576e565b9050919050565b6000610100820190506157c7600083018b614b36565b6157d4602083018a614b36565b6157e160408301896150aa565b6157ee60608301886150aa565b6157fb60808301876150aa565b61580860a08301866150aa565b61581560c08301856150aa565b61582260e08301846150aa565b9998505050505050505050565b7f455243373231206465706c6f796572206e756c6c000000000000000000000000600082015250565b6000615865601483615216565b91506158708261582f565b602082019050919050565b6000602082019050818103600083015261589481615858565b9050919050565b7f45524331313535206465706c6f796572206e756c6c0000000000000000000000600082015250565b60006158d1601583615216565b91506158dc8261589b565b602082019050919050565b60006020820190508181036000830152615900816158c4565b9050919050565b7f626964206e6f7420666f722074696d65642d61756374696f6e2073616c650000600082015250565b600061593d601e83615216565b915061594882615907565b602082019050919050565b6000602082019050818103600083015261596c81615930565b9050919050565b600060808201905061598860008301876150aa565b61599560208301866150aa565b6159a260408301856150aa565b6159af60608301846150aa565b95945050505050565b7f6e656974686572206f776e6572206e6f722063726561746f7200000000000000600082015250565b60006159ee601983615216565b91506159f9826159b8565b602082019050919050565b60006020820190508181036000830152615a1d816159e1565b9050919050565b7f4e487b7100000000000000000000000000000000000000000000000000000000600052602160045260246000fd5b600081519050919050565b60005b83811015615a7c578082015181840152602081019050615a61565b83811115615a8b576000848401525b50505050565b6000615a9c82615a53565b615aa68185615216565b9350615ab6818560208601615a5e565b615abf81614cdc565b840191505092915050565b60006080820190508181036000830152615ae48187615a91565b90508181036020830152615af88186615a91565b90508181036040830152615b0c8185615a91565b9050615b1b6060830184614b36565b95945050505050565b600081519050615b3381614a9d565b92915050565b600060208284031215615b4f57615b4e6149eb565b5b6000615b5d84828501615b24565b91505092915050565b7f556e6b6e6f776e20636f6c6c656374696f6e20636f6e74726163740000000000600082015250565b6000615b9c601b83615216565b9150615ba782615b66565b602082019050919050565b60006020820190508181036000830152615bcb81615b8f565b9050919050565b6000615bdd826149f5565b91507fffffffffffffffffffffffffffffffffffffffffffffffffffffffffffffffff821415615c1057615c0f6153d7565b5b600182019050919050565b6000604082019050615c306000830185614b36565b615c3d60208301846150aa565b9392505050565b60007fffffffff0000000000000000000000000000000000000000000000000000000082169050919050565b615c7981615c44565b82525050565b6000602082019050615c946000830184615c70565b92915050565b60028110615cab57615caa615a24565b5b50565b6000819050615cbc82615c9a565b919050565b6000615ccc82615cae565b9050919050565b615cdc81615cc1565b82525050565b6000602082019050615cf76000830184615cd3565b92915050565b7f4572726f7220616464696e6720756e6b6e6f776e204e465420636f6c6c65637460008201527f696f6e0000000000000000000000000000000000000000000000000000000000602082015250565b6000615d59602383615216565b9150615d6482615cfd565b604082019050919050565b60006020820190508181036000830152615d8881615d4c565b9050919050565b7f696e73756666696369656e74206e61746976652063757272656e637920746f2060008201527f6275790000000000000000000000000000000000000000000000000000000000602082015250565b6000615deb602383615216565b9150615df682615d8f565b604082019050919050565b60006020820190508181036000830152615e1a81615dde565b9050919050565b7f6e6f74206f776e6572206f66207468652045524337323120746f6b656e20746f60008201527f206265206f6e2073616c65000000000000000000000000000000000000000000602082015250565b6000615e7d602b83615216565b9150615e8882615e21565b604082019050919050565b60006020820190508181036000830152615eac81615e70565b9050919050565b7f45524337323120746f6b656e2073616c6520616d6f756e74206973206e6f742060008201527f3100000000000000000000000000000000000000000000000000000000000000602082015250565b6000615f0f602183615216565b9150615f1a82615eb3565b604082019050919050565b60006020820190508181036000830152615f3e81615f02565b9050919050565b600081519050615f54816149ff565b92915050565b600060208284031215615f7057615f6f6149eb565b5b6000615f7e84828501615f45565b91505092915050565b7f657863656564656420616d6f756e74206f66204552433131353520746f6b656e60008201527f20746f206265206f6e2073616c65000000000000000000000000000000000000602082015250565b6000615fe3602e83615216565b9150615fee82615f87565b604082019050919050565b6000602082019050818103600083015261601281615fd6565b9050919050565b7f4e6f7420737570706f72746564204e465420636f6e7472616374000000000000600082015250565b600061604f601a83615216565b915061605a82616019565b602082019050919050565b6000602082019050818103600083015261607e81616042565b9050919050565b7f4f776e61626c653a206e6577206f776e657220697320746865207a65726f206160008201527f6464726573730000000000000000000000000000000000000000000000000000602082015250565b60006160e1602683615216565b91506160ec82616085565b604082019050919050565b60006020820190508181036000830152616110816160d4565b9050919050565b7f4e487b7100000000000000000000000000000000000000000000000000000000600052601260045260246000fd5b6000616151826149f5565b915061615c836149f5565b92508261616c5761616b616117565b5b828204905092915050565b60008160001c9050919050565b600073ffffffffffffffffffffffffffffffffffffffff82169050919050565b60006161b76161b283616177565b616184565b9050919050565b6000819050919050565b60006161db6161d683616177565b6161be565b9050919050565b610180820160008083015490506161f8816161a4565b6162056000860182614bb9565b5060018301549050616216816161a4565b6162236020860182614bb9565b5060028301549050616234816161a4565b6162416040860182614bb9565b5060038301549050616252816161c8565b61625f6060860182614eff565b5060048301549050616270816161c8565b61627d6080860182614eff565b506005830154905061628e816161c8565b61629b60a0860182614eff565b50600683015490506162ac816161c8565b6162b960c0860182614eff565b50600783015490506162ca816161c8565b6162d760e0860182614eff565b50600883015490506162e8816161c8565b6162f6610100860182614eff565b5060098301549050616307816161c8565b616315610120860182614eff565b50600a8301549050616326816161c8565b616334610140860182614eff565b50600b8301549050616345816161c8565b616353610160860182614eff565b5050505050565b600061028082019050616370600083018c6150aa565b61637d602083018b6161e2565b61638b6101a083018a6150aa565b6163996101c08301896150aa565b6163a76101e0830188614b36565b6163b56102008301876150aa565b6163c36102208301866150aa565b6163d1610240830185614b36565b6163df6102608301846150aa565b9a9950505050505050505050565b60006164006163fb84614d68565b614d4d565b90508281526020810184848401111561641c5761641b614cd7565b5b616427848285615a5e565b509392505050565b600082601f83011261644457616443614cd2565b5b81516164548482602086016163ed565b91505092915050565b600060208284031215616473576164726149eb565b5b600082015167ffffffffffffffff811115616491576164906149f0565b5b61649d8482850161642f565b91505092915050565b600081519050919050565b600082825260208201905092915050565b60006164cd826164a6565b6164d781856164b1565b93506164e7818560208601615a5e565b6164f081614cdc565b840191505092915050565b60006080820190506165106000830187614b36565b61651d6020830186614b36565b61652a60408301856150aa565b818103606083015261653c81846164c2565b905095945050505050565b600081519050919050565b600082825260208201905092915050565b6000819050602082019050919050565b600061657f8383614eff565b60208301905092915050565b6000602082019050919050565b60006165a382616547565b6165ad8185616552565b93506165b883616563565b8060005b838110156165e95781516165d08882616573565b97506165db8361658b565b9250506001810190506165bc565b5085935050505092915050565b600060a08201905061660b6000830188614b36565b6166186020830187614b36565b818103604083015261662a8186616598565b9050818103606083015261663e8185616598565b9050818103608083015261665281846164c2565b9050969550505050505056fea2646970667358221220b616e221926be90d1ab7c88054cd630443eba5d7eca4b847d5fe39896472733864736f6c634300080b0033",
  "immutableReferences": {},
  "source": "// SPDX-License-Identifier: MIT\r\n\r\npragma solidity ^0.8.0;\r\n\r\nimport \"@openzeppelin/contracts/access/Ownable.sol\";\r\nimport \"@openzeppelin/contracts/utils/Address.sol\";\r\nimport \"@openzeppelin/contracts/utils/introspection/IERC165.sol\";\r\nimport \"@openzeppelin/contracts/token/ERC20/IERC20.sol\";\r\nimport \"@openzeppelin/contracts/token/ERC721/IERC721.sol\";\r\nimport \"@openzeppelin/contracts/token/ERC1155/IERC1155.sol\";\r\n\r\nimport \"./IHyperXNFTFactory.sol\";\r\nimport \"./ContractInterface.sol\";\r\n\r\ncontract HyperXNFTFactory is IHyperXNFTFactory, Ownable {\r\n    using Address for address;\r\n\r\n    struct HyperXNFTSale {\r\n        address creator;\r\n        address seller;\r\n        address sc;\r\n        uint256 tokenId;\r\n        uint256 copy;\r\n        uint256 payment;\r\n        uint256 basePrice;\r\n        uint256 method;\r\n        uint256 startTime;\r\n        uint256 endTime;\r\n        uint256 feeRatio;\r\n        uint256 royaltyRatio;\r\n    }\r\n\r\n    struct BookInfo {\r\n        address user;\r\n        uint256 totalPrice;\r\n    }\r\n\r\n    /**\r\n     * delay period to add a creator to the list\r\n     */\r\n    uint256 public DELAY_PERIOD = 3 seconds;\r\n\r\n    /**\r\n     * deployer for single/multiple NFT collection\r\n     */\r\n    address private singleDeployer;\r\n    address private multipleDeployer;\r\n\r\n    /**\r\n     * array of collection addresses including ERC721 and ERC1155\r\n     */\r\n    address[] private collections;\r\n    /**\r\n     * check if the collection has already been added to this factory\r\n     */\r\n    mapping(address => bool) collectionOccupation;\r\n\r\n    /**\r\n     * token address for payment\r\n     */\r\n    address[] private paymentTokens;\r\n\r\n    /**\r\n     * check if it is the creator permitted by owner(admin)\r\n     */\r\n    mapping(address => bool) private creators;\r\n    /**\r\n     * epoch timestamp of starting the process that permits one account to be a creator\r\n     */\r\n    mapping(address => uint256) private pendingTime;\r\n    /**\r\n     * pending value that presents the creator is enabled/disabled by true/false\r\n     */\r\n    mapping(address => bool) private pendingValue;\r\n\r\n    /**\r\n     * pending value that presents the creator is enabled/disabled by true/false\r\n     */\r\n    mapping(uint256 => BookInfo[]) private bookInfo;\r\n\r\n    /**\r\n     * default fee value set by owner of the contract, defaultFeeRatio / 10000 is the real ratio.\r\n     */\r\n    uint256 public defaultFeeRatio;\r\n\r\n    /**\r\n     * default royalty value set by owner of the contract, defaultRoyaltyRatio / 10000 is the real ratio.\r\n     */\r\n    uint256 public defaultRoyaltyRatio;\r\n\r\n    /**\r\n     * dev address\r\n     */\r\n    address public devAddress;\r\n\r\n    /**\r\n     * sale list by its created index\r\n     */\r\n    mapping(uint256 => HyperXNFTSale) saleList;\r\n\r\n    /**\r\n     * sale list count or future index to be created\r\n     */\r\n    uint256 public saleCount;\r\n\r\n    /**\r\n     * event that marks the creator has been permitted by an owner(admin)\r\n     */\r\n    event SetCreatorForFactory(address account, bool set);\r\n\r\n    /**\r\n     * event when an owner sets default fee ratio\r\n     */\r\n    event SetDefaultFeeRatio(address owner, uint256 newFeeRatio);\r\n\r\n    /**\r\n     * event when an owner sets default royalty ratio\r\n     */\r\n    event SetDefaultRoyaltyRatio(address owner, uint256 newRoyaltyRatio);\r\n\r\n    /**\r\n     * event when a new payment token set\r\n     */\r\n    event PaymentTokenSet(uint256 id, address indexed tokenAddress);\r\n\r\n    /**\r\n     * event when a new ERC721 contract is created.\r\n     * Do not remove this event even if it is not used.\r\n     */\r\n    event CreatedERC721TradableContract(address indexed factory, address indexed newContract);\r\n\r\n    /**\r\n     * event when a new ERC1155 contract is created.\r\n     * Do not remove this event even if it is not used.\r\n     */\r\n    event CreatedERC1155TradableContract(address indexed factory, address indexed newContract);\r\n\r\n    /**\r\n     * event when an seller lists his/her token on sale\r\n     */\r\n    event ListedOnSale(\r\n        address seller,\r\n        address sc,\r\n        uint256 tokenId,\r\n        uint256 payment,\r\n        uint256 basePrice,\r\n        uint256 duration,\r\n        uint256 feeRatio,\r\n        uint256 royaltyRatio\r\n    );\r\n\r\n    /**\r\n     * event when a seller cancels his sale\r\n     */\r\n    event RemoveFromSale(\r\n        address seller,\r\n        address sc,\r\n        uint256 tokenId,\r\n        uint256 payment,\r\n        uint256 basePrice,\r\n        uint256 duration,\r\n        uint256 feeRatio,\r\n        uint256 royaltyRatio\r\n    );\r\n\r\n    /**\r\n     * event when a user makes an offer for fixed-price sale\r\n     */\r\n    event MakeOffer(\r\n        address indexed user,\r\n        address indexed smart_contract,\r\n        uint256 tokenId,\r\n        uint256 copy,\r\n        uint256 price\r\n    );\r\n\r\n    /**\r\n     * event when a user makes an offer for fixed-price sale\r\n     */\r\n    event Buy(\r\n        address indexed user,\r\n        address indexed smart_contract,\r\n        uint256 tokenId,\r\n        uint256 copy,\r\n        uint256 price\r\n    );\r\n\r\n    /**\r\n     * event when a user places a bid for timed-auction sale\r\n     */\r\n    event PlaceBid(\r\n        address indexed user,\r\n        address indexed smart_contract,\r\n        uint256 tokenId,\r\n        uint256 copy,\r\n        uint256 method,\r\n        uint256 price\r\n    );\r\n\r\n    /**\r\n     * event when timed-auction times out\r\n     */\r\n    event AuctionResult(\r\n        address indexed winner,\r\n        address indexed smart_contract,\r\n        uint256 tokenId,\r\n        uint256 copy,\r\n        uint256 method,\r\n        uint256 price\r\n    );\r\n\r\n    /**\r\n     * event when a trade is successfully made.\r\n     */\r\n\r\n    event Trade(\r\n        uint256 saleId,\r\n        HyperXNFTSale sale,\r\n        uint256 timestamp,\r\n        uint256 paySeller,\r\n        address owner,\r\n        uint256 fee,\r\n        uint256 royalty,\r\n        address devAddress,\r\n        uint256 devFee\r\n    );\r\n\r\n    /**\r\n     * event when deployers are updated\r\n     */\r\n    event UpdateDeployers(\r\n        address indexed singleCollectionDeployer,\r\n        address indexed multipleCollectionDeployer\r\n    );\r\n\r\n    /**\r\n     * this modifier restricts some privileged action\r\n     */\r\n    modifier creatorOnly() {\r\n        address ms = msg.sender;\r\n        require(\r\n            ms == owner() || creators[ms] == true,\r\n            \"neither owner nor creator\"\r\n        );\r\n        _;\r\n    }\r\n\r\n    /**\r\n     * constructor of the factory does not have parameters\r\n     */\r\n    constructor(\r\n        address singleCollectionDeployer,\r\n        address multipleCollectionDeployer\r\n    ) {\r\n        singleDeployer = singleCollectionDeployer;\r\n        multipleDeployer = multipleCollectionDeployer;\r\n\r\n        paymentTokens.push(address(0)); // native currency\r\n    }\r\n\r\n    /**\r\n     * @dev this function updates the deployers for ERC721, ERC1155\r\n     * @param singleCollectionDeployer - deployer for ERC721\r\n     * @param multipleCollectionDeployer - deployer for ERC1155\r\n     */\r\n\r\n    function updateDeployers(\r\n        address singleCollectionDeployer,\r\n        address multipleCollectionDeployer\r\n    ) public onlyOwner {\r\n        require(singleDeployer != address(0), \"ERC721 deployer null\");\r\n        require(multipleDeployer != address(0), \"ERC1155 deployer null\");\r\n\r\n        singleDeployer = singleCollectionDeployer;\r\n        multipleDeployer = multipleCollectionDeployer;\r\n\r\n        emit UpdateDeployers(singleCollectionDeployer, multipleCollectionDeployer);\r\n    }\r\n\r\n    /**\r\n     * This function modifies or adds a new payment token\r\n     */\r\n    function setPaymentToken(uint256 tId, address tokenAddr) public onlyOwner {\r\n        // IERC165(tokenAddr).supportsInterface(type(IERC20).interfaceId);\r\n        require(tokenAddr != address(0), \"null address for payment token\");\r\n\r\n        if (tId == 0) {\r\n            tId = paymentTokens.length;\r\n            paymentTokens.push(tokenAddr);\r\n        } else {\r\n            require(tId < paymentTokens.length, \"invalid payment token id\");\r\n            paymentTokens[tId] = tokenAddr;\r\n        }\r\n\r\n        emit PaymentTokenSet(tId, tokenAddr);\r\n    }\r\n\r\n    /**\r\n     * This function gets token addresses for payment\r\n     */\r\n    function getPaymentToken() public view returns (address[] memory) {\r\n        return paymentTokens;\r\n    }\r\n\r\n    /**\r\n     * start the process of adding a creator to be enabled/disabled\r\n     */\r\n    function startPendingCreator(address account, bool set) external onlyOwner {\r\n        require(pendingTime[account] == 0);\r\n\r\n        pendingTime[account] = block.timestamp;\r\n        pendingValue[account] = set;\r\n    }\r\n\r\n    /**\r\n     * end the process of adding a creator to be enabled/disabled\r\n     */\r\n    function endPendingCreator(address account) external onlyOwner {\r\n        require((pendingTime[account] + DELAY_PERIOD) < block.timestamp);\r\n\r\n        bool curVal = pendingValue[account];\r\n        creators[account] = curVal;\r\n        pendingTime[account] = 0;\r\n\r\n        emit SetCreatorForFactory(account, curVal);\r\n    }\r\n\r\n    /**\r\n     * set developer address\r\n     */\r\n    function setDevAddr(address addr) public onlyOwner {\r\n        devAddress = addr;\r\n    }\r\n\r\n    /**\r\n     * @dev this function creates a new collection of ERC721, ERC1155 to the factory\r\n     * @param collectionType - ERC721 = 0, ERC1155 = 1\r\n     * @param _name - collection name\r\n     * @param _symbol - collection symbol\r\n     * @param _uri - base uri of NFT token metadata\r\n     */\r\n    function createNewCollection(\r\n        IHyperXNFTFactory.CollectionType collectionType,\r\n        string memory _name,\r\n        string memory _symbol,\r\n        string memory _uri\r\n    ) external creatorOnly override returns (address) {\r\n        if (collectionType == IHyperXNFTFactory.CollectionType.ERC721) {\r\n            // create a new ERC721 contract and returns its address\r\n            address newContract = IContractInterface721(singleDeployer).createContract(_name, _symbol, _uri, address(this));\r\n\r\n            require(collectionOccupation[newContract] == false);\r\n\r\n            collections.push(newContract);\r\n            collectionOccupation[newContract] = true;\r\n\r\n            Ownable(newContract).transferOwnership(msg.sender);\r\n\r\n            return newContract;\r\n        } else if (collectionType == IHyperXNFTFactory.CollectionType.ERC1155) {\r\n            // create a new ERC1155 contract and returns its address\r\n            address newContract = IContractInterface1155(multipleDeployer).createContract(_name, _symbol, _uri, address(this));\r\n\r\n            require(collectionOccupation[newContract] == false);\r\n\r\n            collections.push(newContract);\r\n            collectionOccupation[newContract] = true;\r\n\r\n            Ownable(newContract).transferOwnership(msg.sender);\r\n\r\n            return newContract;\r\n        } else revert(\"Unknown collection contract\");\r\n    }\r\n\r\n    /**\r\n     * @dev this function adds a collection of ERC721, ERC1155 to the factory\r\n     * @param from - address of NFT collection contract\r\n     */\r\n    function addCollection(address from) external creatorOnly override {\r\n        require(from.isContract());\r\n\r\n        if (IERC165(from).supportsInterface(type(IERC721).interfaceId)) {\r\n            require(collectionOccupation[from] == false);\r\n\r\n            collections.push(from);\r\n            collectionOccupation[from] = true;\r\n\r\n            emit CollectionAdded(IHyperXNFTFactory.CollectionType.ERC721, from);\r\n        } else if (\r\n            IERC165(from).supportsInterface(type(IERC1155).interfaceId)\r\n        ) {\r\n            require(collectionOccupation[from] == false);\r\n\r\n            collections.push(from);\r\n            collectionOccupation[from] = true;\r\n\r\n            emit CollectionAdded(\r\n                IHyperXNFTFactory.CollectionType.ERC1155,\r\n                from\r\n            );\r\n        } else {\r\n            revert(\"Error adding unknown NFT collection\");\r\n        }\r\n    }\r\n\r\n    /**\r\n     * @dev this function transfers NFTs of 'sc' from account 'from' to account 'to' for token ids 'ids'\r\n     * @param sc - address of NFT collection contract\r\n     * @param from - owner of NFTs at the moment\r\n     * @param to - future owner of NFTs\r\n     * @param ids - array of token id to be transferred\r\n     * @param amounts - array of token amount to be transferred\r\n     */\r\n    function transferNFT(\r\n        address sc,\r\n        address from,\r\n        address to,\r\n        uint256[] memory ids,\r\n        uint256[] memory amounts\r\n    ) internal creatorOnly {\r\n        require(collectionOccupation[sc] == true);\r\n\r\n        if (IERC165(sc).supportsInterface(type(IERC721).interfaceId)) {\r\n            // ERC721 transfer, amounts has no meaning in this case\r\n            uint256 i;\r\n            bytes memory nbytes = new bytes(0);\r\n            for (i = 0; i < ids.length; i++) {\r\n                IERC721(sc).safeTransferFrom(from, to, ids[i], nbytes);\r\n            }\r\n        } else if (IERC165(sc).supportsInterface(type(IERC1155).interfaceId)) {\r\n            // ERC1155 transfer\r\n            bytes memory nbytes = new bytes(0);\r\n            IERC1155(sc).safeBatchTransferFrom(from, to, ids, amounts, nbytes);\r\n        }\r\n    }\r\n\r\n    /**\r\n     * @dev this function retrieves array of all collections registered to the factory\r\n     */\r\n    function getCollections()\r\n        public\r\n        view\r\n        returns (address[] memory)\r\n    {\r\n        return collections;\r\n    }\r\n\r\n    /**\r\n     * @dev this function sets default fee ratio.\r\n     */\r\n    function setDefaultFeeRatio(uint256 newFeeRatio) public onlyOwner {\r\n        defaultFeeRatio = newFeeRatio;\r\n        emit SetDefaultFeeRatio(owner(), newFeeRatio);\r\n    }\r\n\r\n    /**\r\n     * @dev this function sets default royalty ratio.\r\n     */\r\n    function setDefaultRoyaltyRatio(uint256 newRoyaltyRatio) public onlyOwner {\r\n        defaultRoyaltyRatio = newRoyaltyRatio;\r\n        emit SetDefaultRoyaltyRatio(owner(), newRoyaltyRatio);\r\n    }\r\n\r\n    /**\r\n     * @dev this function returns URI string by checking its ERC721 or ERC1155 type.\r\n     */\r\n    function getURIString(address sc, uint256 tokenId)\r\n        internal\r\n        view\r\n        returns (string memory uri, uint256 sc_type)\r\n    {\r\n        if (IERC165(sc).supportsInterface(type(IERC721).interfaceId)) {\r\n            uri = IContractInfoWrapper(sc).tokenURI(tokenId);\r\n            sc_type = 1;\r\n        } else if (IERC165(sc).supportsInterface(type(IERC1155).interfaceId)) {\r\n            uri = IContractInfoWrapper(sc).uri(tokenId);\r\n            sc_type = 2;\r\n        } else sc_type = 0;\r\n    }\r\n\r\n    /**\r\n     * @dev this function sets default royalty ratio.\r\n     * @param sc - address of NFT collection contract\r\n     * @param tokenId - token index in 'sc'\r\n     * @param payment - payment method for buyer/bidder/offerer/auctioner, 0: BNB, 1: BUSD, 2: HyperX, ...\r\n     * @param method - duration of sale in seconds\r\n     * @param duration - duration of sale in seconds\r\n     * @param basePrice - price in 'payment' coin\r\n     * @param feeRatio - fee ratio (1/10000) for transaction\r\n     * @param royaltyRatio - royalty ratio (1/10000) for transaction\r\n     */\r\n    function createSale(\r\n        address sc,\r\n        uint256 tokenId,\r\n        uint256 payment,\r\n        uint256 copy,\r\n        uint256 method,\r\n        uint256 duration,\r\n        uint256 basePrice,\r\n        uint256 feeRatio,\r\n        uint256 royaltyRatio\r\n    ) public {\r\n        (, uint256 sc_type) = getURIString(sc, tokenId);\r\n        address creator = address(0);\r\n\r\n        if (sc_type == 1) {\r\n            require(\r\n                IERC721(sc).ownerOf(tokenId) == msg.sender,\r\n                \"not owner of the ERC721 token to be on sale\"\r\n            );\r\n            require(copy == 1, \"ERC721 token sale amount is not 1\");\r\n            creator = IContractInfoWrapper(sc).getCreator(tokenId);\r\n        } else if (sc_type == 2) {\r\n            uint256 bl = IERC1155(sc).balanceOf(msg.sender, tokenId);\r\n            require(\r\n                bl >= copy && copy > 0,\r\n                \"exceeded amount of ERC1155 token to be on sale\"\r\n            );\r\n            creator = IContractInfoWrapper(sc).getCreator(tokenId);\r\n        } else revert(\"Not supported NFT contract\");\r\n\r\n        uint256 curSaleIndex = saleCount;\r\n        saleCount++;\r\n\r\n        HyperXNFTSale storage hxns = saleList[curSaleIndex];\r\n\r\n        hxns.creator = creator;\r\n        hxns.seller = msg.sender;\r\n\r\n        hxns.sc = sc;\r\n        hxns.tokenId = tokenId;\r\n        hxns.copy = copy;\r\n\r\n        hxns.payment = payment;\r\n        hxns.basePrice = basePrice;\r\n\r\n        hxns.method = method;\r\n\r\n        hxns.startTime = block.timestamp;\r\n        hxns.endTime = block.timestamp + duration;\r\n\r\n        hxns.feeRatio = (feeRatio == 0) ? defaultFeeRatio : feeRatio;\r\n        hxns.royaltyRatio = (royaltyRatio == 0)\r\n            ? defaultRoyaltyRatio\r\n            : royaltyRatio;\r\n\r\n        emit ListedOnSale(\r\n            msg.sender,\r\n            sc,\r\n            tokenId,\r\n            payment,\r\n            basePrice,\r\n            duration,\r\n            hxns.feeRatio,\r\n            hxns.royaltyRatio\r\n        );\r\n    }\r\n\r\n    /**\r\n     * @dev this function removes an existing sale\r\n     * @param saleId - index of the sale\r\n     */\r\n    function removeSale(uint256 saleId) public {\r\n        HyperXNFTSale storage hxns = saleList[saleId];\r\n        require(hxns.seller == msg.sender, \"not creator of the sale\");\r\n\r\n        address seller = hxns.seller;\r\n        hxns.seller = address(0);\r\n\r\n        emit RemoveFromSale(\r\n            seller,\r\n            hxns.sc,\r\n            hxns.tokenId,\r\n            hxns.payment,\r\n            hxns.basePrice,\r\n            hxns.endTime - hxns.startTime,\r\n            hxns.feeRatio,\r\n            hxns.royaltyRatio\r\n        );\r\n    }\r\n\r\n    /**\r\n     * @dev this function sets an offer from a user\r\n     * @param saleId - index of the sale\r\n     * @param price - offered price to buy\r\n     */\r\n    function makeOffer(uint256 saleId, uint256 price) public payable {\r\n        require(isSaleValid(saleId), \"sale is not valid\");\r\n\r\n        HyperXNFTSale storage hxns = saleList[saleId];\r\n\r\n        require(hxns.startTime <= block.timestamp, \"sale not started yet\");\r\n        require(\r\n            hxns.endTime <= hxns.startTime || hxns.endTime >= block.timestamp,\r\n            \"sale already ended\"\r\n        );\r\n        require(hxns.method == 0, \"offer not for fixed-price sale\");\r\n\r\n        uint256 totalPay = hxns.copy * hxns.basePrice;\r\n\r\n        if (hxns.payment == 0) {\r\n            price = msg.value;\r\n        }\r\n\r\n        BookInfo[] storage bi = bookInfo[saleId];\r\n        BookInfo memory newBI = BookInfo(msg.sender, price);\r\n\r\n        bi.push(newBI);\r\n\r\n        if (hxns.payment != 0) {\r\n            IERC20 tokenInst = IERC20(paymentTokens[hxns.payment]);\r\n            tokenInst.transferFrom(msg.sender, address(this), price);\r\n        }\r\n\r\n        emit MakeOffer(msg.sender, hxns.sc, hxns.tokenId, hxns.copy, price);\r\n\r\n        if (price >= totalPay) {\r\n            trade(saleId, bi.length - 1);\r\n        }\r\n    }\r\n\r\n    /**\r\n     * @dev this function lets a buyer buy NFTs on sale\r\n     * @param saleId - index of the sale\r\n     */\r\n    function buy(uint256 saleId) public payable {\r\n        require(isSaleValid(saleId), \"sale is not valid\");\r\n\r\n        HyperXNFTSale storage hxns = saleList[saleId];\r\n\r\n        require(hxns.startTime <= block.timestamp, \"sale not started yet\");\r\n        require(\r\n            hxns.endTime <= hxns.startTime || hxns.endTime >= block.timestamp,\r\n            \"sale already ended\"\r\n        );\r\n        require(hxns.method == 0, \"offer not for fixed-price sale\");\r\n\r\n        uint256 totalPay = hxns.copy * hxns.basePrice;\r\n\r\n        if (hxns.payment == 0) {\r\n            require(\r\n                msg.value >= totalPay,\r\n                \"insufficient native currency to buy\"\r\n            );\r\n            if (msg.value > totalPay) {\r\n                address payable py = payable(msg.sender);\r\n                py.transfer(msg.value - totalPay);\r\n            }\r\n        } else {\r\n            IERC20 tokenInst = IERC20(paymentTokens[hxns.payment]);\r\n            tokenInst.transferFrom(msg.sender, address(this), totalPay);\r\n        }\r\n\r\n        BookInfo[] storage bi = bookInfo[saleId];\r\n        BookInfo memory newBI = BookInfo(msg.sender, totalPay);\r\n\r\n        bi.push(newBI);\r\n\r\n        emit Buy(msg.sender, hxns.sc, hxns.tokenId, hxns.copy, totalPay);\r\n\r\n        trade(saleId, bi.length - 1);\r\n    }\r\n\r\n    /**\r\n     * @dev this function places an bid from a user\r\n     * @param saleId - index of the sale\r\n     * @param price - index of the sale\r\n     */\r\n    function placeBid(uint256 saleId, uint256 price) public payable {\r\n        require(isSaleValid(saleId), \"sale is not valid\");\r\n\r\n        HyperXNFTSale storage hxns = saleList[saleId];\r\n\r\n        require(hxns.startTime <= block.timestamp, \"sale not started yet\");\r\n        require(\r\n            hxns.endTime <= hxns.startTime || hxns.endTime >= block.timestamp,\r\n            \"sale already ended\"\r\n        );\r\n        require(hxns.method != 0, \"bid not for timed-auction sale\");\r\n\r\n        if (hxns.payment == 0) {\r\n            price = msg.value;\r\n        } else {\r\n            IERC20 tokenInst = IERC20(paymentTokens[hxns.payment]);\r\n            tokenInst.transferFrom(msg.sender, address(this), price);\r\n        }\r\n\r\n        BookInfo[] storage bi = bookInfo[saleId];\r\n        BookInfo memory newBI = BookInfo(msg.sender, price);\r\n\r\n        bi.push(newBI);\r\n\r\n        emit PlaceBid(\r\n            msg.sender,\r\n            hxns.sc,\r\n            hxns.tokenId,\r\n            hxns.copy,\r\n            hxns.method,\r\n            price\r\n        );\r\n    }\r\n\r\n    /**\r\n     * @dev this function puts an end to timed-auction sale\r\n     * @param saleId - index of the sale of timed-auction\r\n     */\r\n    function finalizeAuction(uint256 saleId) public onlyOwner {\r\n        require(isSaleValid(saleId), \"sale is not valid\");\r\n\r\n        HyperXNFTSale storage hxns = saleList[saleId];\r\n\r\n        require(hxns.startTime <= block.timestamp, \"sale not started yet\");\r\n        // finalize timed-auction anytime by owner of this factory contract.\r\n        require(hxns.method != 0, \"bid not for timed-auction sale\");\r\n\r\n        BookInfo[] storage bi = bookInfo[saleId];\r\n\r\n        if (hxns.method == 1) {\r\n            // winning to the highest bid\r\n            if (bi.length > 0) {\r\n                uint256 loop;\r\n                uint256 maxPrice = bi[0].totalPrice;\r\n                uint256 bookId = 0;\r\n\r\n                for (loop = 0; loop < bi.length; loop++) {\r\n                    BookInfo memory biItem = bi[loop];\r\n                    if (maxPrice < biItem.totalPrice) {\r\n                        maxPrice = biItem.totalPrice;\r\n                        bookId = loop;\r\n                    }\r\n                }\r\n\r\n                emit AuctionResult(\r\n                    bi[bookId].user,\r\n                    hxns.sc,\r\n                    hxns.tokenId,\r\n                    hxns.copy,\r\n                    hxns.method,\r\n                    bi[bookId].totalPrice\r\n                );\r\n                trade(saleId, bookId);\r\n            }\r\n        }\r\n    }\r\n\r\n    /**\r\n     * @dev this function transfers NFTs from the seller to the buyer\r\n     * @param saleId - index of the sale to be treated\r\n     * @param bookId - index of the booked winner on a sale\r\n     */\r\n\r\n    function trade(uint256 saleId, uint256 bookId) internal {\r\n        require(isSaleValid(saleId), \"sale is not valid\");\r\n\r\n        HyperXNFTSale storage hxns = saleList[saleId];\r\n\r\n        BookInfo[] storage bi = bookInfo[saleId];\r\n\r\n        uint256 loop;\r\n        for (loop = 0; loop < bi.length; loop++) {\r\n            BookInfo memory biItem = bi[loop];\r\n\r\n            if (loop == bookId) {\r\n                // winning bid\r\n                //fee policy\r\n                uint256 fee = (hxns.feeRatio * biItem.totalPrice) / 10000;\r\n                uint256 royalty = (hxns.royaltyRatio * biItem.totalPrice) /\r\n                    10000;\r\n                uint256 devFee = 0;\r\n                if (devAddress != address(0)) {\r\n                    devFee = (biItem.totalPrice * 30) / 10000;\r\n                }\r\n\r\n                uint256 pySeller = biItem.totalPrice - fee - royalty - devFee;\r\n\r\n                if (hxns.payment == 0) {\r\n                    address payable py = payable(hxns.seller);\r\n                    py.transfer(pySeller);\r\n\r\n                    if (fee > 0) {\r\n                        py = payable(owner());\r\n                        py.transfer(fee);\r\n                    }\r\n\r\n                    if (royalty > 0) {\r\n                        py = payable(hxns.creator);\r\n                        py.transfer(royalty);\r\n                    }\r\n\r\n                    if (devFee > 0) {\r\n                        py = payable(devAddress);\r\n                        py.transfer(devFee);\r\n                    }\r\n                } else {\r\n                    IERC20 tokenInst = IERC20(paymentTokens[hxns.payment]);\r\n                    tokenInst.transferFrom(\r\n                        address(this),\r\n                        hxns.seller,\r\n                        pySeller\r\n                    );\r\n\r\n                    if (fee > 0) {\r\n                        tokenInst.transferFrom(address(this), owner(), fee);\r\n                    }\r\n\r\n                    if (royalty > 0) {\r\n                        tokenInst.transferFrom(\r\n                            address(this),\r\n                            hxns.creator,\r\n                            royalty\r\n                        );\r\n                    }\r\n\r\n                    if (devFee > 0) {\r\n                        tokenInst.transferFrom(\r\n                            address(this),\r\n                            devAddress,\r\n                            devFee\r\n                        );\r\n                    }\r\n                }\r\n\r\n                uint256[] memory ids = new uint256[](1);\r\n                ids[0] = hxns.tokenId;\r\n                uint256[] memory amounts = new uint256[](1);\r\n                amounts[0] = hxns.copy;\r\n\r\n                transferNFT(hxns.sc, hxns.seller, biItem.user, ids, amounts);\r\n\r\n                emit Trade(\r\n                    saleId,\r\n                    hxns,\r\n                    block.timestamp,\r\n                    pySeller,\r\n                    owner(),\r\n                    fee,\r\n                    royalty,\r\n                    devAddress,\r\n                    devFee\r\n                );\r\n            } else {\r\n                // failed bid, refund\r\n                if (hxns.payment == 0) {\r\n                    address payable py = payable(biItem.user);\r\n                    py.transfer(biItem.totalPrice);\r\n                } else {\r\n                    IERC20 tokenInst = IERC20(paymentTokens[hxns.payment]);\r\n                    tokenInst.transferFrom(\r\n                        address(this),\r\n                        biItem.user,\r\n                        biItem.totalPrice\r\n                    );\r\n                }\r\n            }\r\n        }\r\n\r\n        removeSale(saleId);\r\n    }\r\n\r\n    /**\r\n     * @dev this function returns all items on sale\r\n     * @param startIdx - starting index in all items on sale\r\n     * @param count - count to be retrieved, the returned array will be less items than count because some items are invalid\r\n     */\r\n    function getSaleInfo(uint256 startIdx, uint256 count)\r\n        external\r\n        view\r\n        returns (HyperXNFTSale[] memory)\r\n    {\r\n        uint256 i;\r\n        uint256 endIdx = startIdx + count;\r\n\r\n        uint256 realCount = 0;\r\n        for (i = startIdx; i < endIdx; i++) {\r\n            if (i >= saleCount) break;\r\n\r\n            if (!isSaleValid(i)) continue;\r\n\r\n            realCount++;\r\n        }\r\n\r\n        HyperXNFTSale[] memory ret = new HyperXNFTSale[](realCount);\r\n\r\n        uint256 nPos = 0;\r\n        for (i = startIdx; i < endIdx; i++) {\r\n            if (i >= saleCount) break;\r\n\r\n            if (!isSaleValid(i)) continue;\r\n\r\n            ret[nPos] = saleList[i];\r\n            nPos++;\r\n        }\r\n\r\n        return ret;\r\n    }\r\n\r\n    /**\r\n     * @dev this function returns validity of the sale\r\n     * @param saleId - index of the sale\r\n     */\r\n\r\n    function isSaleValid(uint256 saleId) internal view returns (bool) {\r\n        if (saleId >= saleCount) return false;\r\n        HyperXNFTSale storage hxns = saleList[saleId];\r\n\r\n        if (hxns.seller == address(0)) return false;\r\n        return true;\r\n    }\r\n}\r\n",
  "sourcePath": "E:\\MyGitHub\\HyperXNFT-contracts\\contracts\\HyperXNFTFactory.sol",
  "compiler": {
    "name": "solc",
    "version": "0.8.11+commit.d7f03943.Emscripten.clang"
  },
  "schemaVersion": "3.4.4",
  "updatedAt": "2022-01-28T14:31:35.910Z",
  "devdoc": {
    "kind": "dev",
    "methods": {
      "addCollection(address)": {
        "details": "this function adds a collection of ERC721, ERC1155 to the factory",
        "params": {
          "from": "- address of NFT collection contract"
        }
      },
      "buy(uint256)": {
        "details": "this function lets a buyer buy NFTs on sale",
        "params": {
          "saleId": "- index of the sale"
        }
      },
      "createNewCollection(uint8,string,string,string)": {
        "details": "this function creates a new collection of ERC721, ERC1155 to the factory",
        "params": {
          "_name": "- collection name",
          "_symbol": "- collection symbol",
          "_uri": "- base uri of NFT token metadata",
          "collectionType": "- ERC721 = 0, ERC1155 = 1"
        }
      },
      "createSale(address,uint256,uint256,uint256,uint256,uint256,uint256,uint256,uint256)": {
        "details": "this function sets default royalty ratio.",
        "params": {
          "basePrice": "- price in 'payment' coin",
          "duration": "- duration of sale in seconds",
          "feeRatio": "- fee ratio (1/10000) for transaction",
          "method": "- duration of sale in seconds",
          "payment": "- payment method for buyer/bidder/offerer/auctioner, 0: BNB, 1: BUSD, 2: HyperX, ...",
          "royaltyRatio": "- royalty ratio (1/10000) for transaction",
          "sc": "- address of NFT collection contract",
          "tokenId": "- token index in 'sc'"
        }
      },
      "finalizeAuction(uint256)": {
        "details": "this function puts an end to timed-auction sale",
        "params": {
          "saleId": "- index of the sale of timed-auction"
        }
      },
      "getCollections()": {
        "details": "this function retrieves array of all collections registered to the factory"
      },
      "getSaleInfo(uint256,uint256)": {
        "details": "this function returns all items on sale",
        "params": {
          "count": "- count to be retrieved, the returned array will be less items than count because some items are invalid",
          "startIdx": "- starting index in all items on sale"
        }
      },
      "makeOffer(uint256,uint256)": {
        "details": "this function sets an offer from a user",
        "params": {
          "price": "- offered price to buy",
          "saleId": "- index of the sale"
        }
      },
      "owner()": {
        "details": "Returns the address of the current owner."
      },
      "placeBid(uint256,uint256)": {
        "details": "this function places an bid from a user",
        "params": {
          "price": "- index of the sale",
          "saleId": "- index of the sale"
        }
      },
      "removeSale(uint256)": {
        "details": "this function removes an existing sale",
        "params": {
          "saleId": "- index of the sale"
        }
      },
      "renounceOwnership()": {
        "details": "Leaves the contract without owner. It will not be possible to call `onlyOwner` functions anymore. Can only be called by the current owner. NOTE: Renouncing ownership will leave the contract without an owner, thereby removing any functionality that is only available to the owner."
      },
      "setDefaultFeeRatio(uint256)": {
        "details": "this function sets default fee ratio."
      },
      "setDefaultRoyaltyRatio(uint256)": {
        "details": "this function sets default royalty ratio."
      },
      "transferOwnership(address)": {
        "details": "Transfers ownership of the contract to a new account (`newOwner`). Can only be called by the current owner."
      },
      "updateDeployers(address,address)": {
        "details": "this function updates the deployers for ERC721, ERC1155",
        "params": {
          "multipleCollectionDeployer": "- deployer for ERC1155",
          "singleCollectionDeployer": "- deployer for ERC721"
        }
      }
    },
    "version": 1
  },
  "userdoc": {
    "events": {
      "AuctionResult(address,address,uint256,uint256,uint256,uint256)": {
        "notice": "event when timed-auction times out"
      },
      "Buy(address,address,uint256,uint256,uint256)": {
        "notice": "event when a user makes an offer for fixed-price sale"
      },
      "CreatedERC1155TradableContract(address,address)": {
        "notice": "event when a new ERC1155 contract is created. Do not remove this event even if it is not used."
      },
      "CreatedERC721TradableContract(address,address)": {
        "notice": "event when a new ERC721 contract is created. Do not remove this event even if it is not used."
      },
      "ListedOnSale(address,address,uint256,uint256,uint256,uint256,uint256,uint256)": {
        "notice": "event when an seller lists his/her token on sale"
      },
      "MakeOffer(address,address,uint256,uint256,uint256)": {
        "notice": "event when a user makes an offer for fixed-price sale"
      },
      "PaymentTokenSet(uint256,address)": {
        "notice": "event when a new payment token set"
      },
      "PlaceBid(address,address,uint256,uint256,uint256,uint256)": {
        "notice": "event when a user places a bid for timed-auction sale"
      },
      "RemoveFromSale(address,address,uint256,uint256,uint256,uint256,uint256,uint256)": {
        "notice": "event when a seller cancels his sale"
      },
      "SetCreatorForFactory(address,bool)": {
        "notice": "event that marks the creator has been permitted by an owner(admin)"
      },
      "SetDefaultFeeRatio(address,uint256)": {
        "notice": "event when an owner sets default fee ratio"
      },
      "SetDefaultRoyaltyRatio(address,uint256)": {
        "notice": "event when an owner sets default royalty ratio"
      },
      "Trade(uint256,(address,address,address,uint256,uint256,uint256,uint256,uint256,uint256,uint256,uint256,uint256),uint256,uint256,address,uint256,uint256,address,uint256)": {
        "notice": "event when a trade is successfully made."
      },
      "UpdateDeployers(address,address)": {
        "notice": "event when deployers are updated"
      }
    },
    "kind": "user",
    "methods": {
      "DELAY_PERIOD()": {
        "notice": "delay period to add a creator to the list"
      },
      "constructor": {
        "notice": "constructor of the factory does not have parameters"
      },
      "defaultFeeRatio()": {
        "notice": "default fee value set by owner of the contract, defaultFeeRatio / 10000 is the real ratio."
      },
      "defaultRoyaltyRatio()": {
        "notice": "default royalty value set by owner of the contract, defaultRoyaltyRatio / 10000 is the real ratio."
      },
      "devAddress()": {
        "notice": "dev address"
      },
      "endPendingCreator(address)": {
        "notice": "end the process of adding a creator to be enabled/disabled"
      },
      "getPaymentToken()": {
        "notice": "This function gets token addresses for payment"
      },
      "saleCount()": {
        "notice": "sale list count or future index to be created"
      },
      "setDevAddr(address)": {
        "notice": "set developer address"
      },
      "setPaymentToken(uint256,address)": {
        "notice": "This function modifies or adds a new payment token"
      },
      "startPendingCreator(address,bool)": {
        "notice": "start the process of adding a creator to be enabled/disabled"
      }
    },
    "version": 1
  }
}